:020000040800F2
:10000000280B0020F1830008A1820008A3820008C9
:100010003D84000841840008458400080000000079
:1000200000000000000000000000000049840008FB
:10003000A5820008000000004D840008A782000887
:100040005184000855840008598400085D84000824
:100050006184000865840008698400086D840008D4
:100060007184000875840008AF8200087984000854
:100070007D84000881840008858400088984000844
:100080008D840008918400089584000899840008F4
:100090009D840008A1840008A5840008A9840008A4
:1000A00000000000AD840008B1840008B584000899
:1000B000B9840008BD840008C1840008C584000814
:1000C000C9840008CD840008D1840008D5840008C4
:1000D000D9840008DD840008E1840008E584000874
:1000E000B9820008E9840008ED840008F184000862
:1000F000F584000800000000F9840008FD84000871
:100100000185000805850008098500080D8500089F
:1001100011850008158500081985000800000000F9
:100120001D85000838B5040000252078C00740F17F
:10013000C980DFF8E00B006810F00C0008280BD035
:10014000DFF8D00B006810F00C000C2827D1DFF886
:10015000C40B0068C00322D54FF48040B0FA80F091
:1001600050F02000C0B24009C0B2012803D1DFF82E
:10017000780B006802E0DFF8A80B00684FF48041BC
:10018000B1FA81F111F01F010200CA40D00740F11D
:1001900099806068002840F095800120DDE3606868
:1001A000012808D1DFF8400B006850F48030DFF8F8
:1001B000381B086037E06068002810D1DFF8280B92
:1001C000006830F48030DFF8201B0860DFF8180B7F
:1001D000006830F48020DFF8101B086023E06068BE
:1001E000052810D1DFF8000B006850F48020DFF8FC
:1001F000F81A0860DFF8F00A006850F48030DFF881
:10020000E81A08600FE0DFF8E00A006830F4803098
:10021000DFF8D41A0860DFF8D00A006830F48020D4
:10022000DFF8C41A08606068002825D000F00CFED2
:1002300005004FF48040B0FA80F050F02000C0B2CA
:100240004009C0B2012803D1DFF89C0A006802E02F
:10025000DFF8CC0A00684FF48041B1FA81F111F067
:100260001F010200CA40D0072CD400F0EDFD401B56
:100270006528DED3032070E300F0E6FD05004FF4AF
:100280008040B0FA80F050F02000C0B24009C0B207
:10029000012803D1DFF8500A006802E0DFF8800A85
:1002A00000684FF48041B1FA81F111F01F010200A2
:1002B000CA40D00706D500F0C7FD401B6528DED335
:1002C00003204AE32078800740F1B780DFF8440A32
:1002D000006810F00C0004280BD0DFF8380A006822
:1002E00010F00C000C2836D1DFF8280A0068C00393
:1002F00031D45FF08040B0FA80F050F02000C0B2FE
:100300004009C0B2012803D1DFF8DC09006802E02F
:10031000DFF80C0A00685FF08041B1FA81F111F05A
:100320001F010200CA40D00704D5E068012801D0AF
:10033000012012E3DFF8E00900685FF47801B1FA08
:1003400081F130F4F850226912FA01F10843DFF824
:10035000C819086071E0E06800283FD001205FF014
:100360000041B1FA81F1DFF84C2A42F8210000F097
:100370006BFD05005FF08040B0FA80F050F0200087
:10038000C0B24009C0B2012803D1DFF85C0900689F
:1003900002E0DFF88C0900685FF08041B1FA81F17A
:1003A00011F01F010200CA40D00706D400F04CFD36
:1003B000401B0328DED30320CFE2DFF85C0900688E
:1003C0005FF47801B1FA81F130F4F850226912FA41
:1003D00001F10843DFF8401908602EE000205FF0CB
:1003E0000041B1FA81F1DFF8CC2942F8210000F098
:1003F0002BFD05005FF08040B0FA80F050F0200047
:10040000C0B24009C0B2012803D1DFF8DC0800689F
:1004100002E0DFF80C0900685FF08041B1FA81F179
:1004200011F01F010200CA40D00706D500F00CFDF4
:10043000401B0328DED303208FE22078C00640F162
:10044000EF80DFF8D008006810F00C0F6DD15FF47A
:100450008000B0FA80F050F02000C0B24009C0B275
:10046000012803D1DFF88008006802E0DFF8B00857
:1004700000685FF48001B1FA81F111F01F01020000
:10048000CA40D00704D5A069002801D1012064E248
:10049000DFF88408006810F46040216A884220D2A6
:1004A000206A00F03FFC002801D0012055E2DFF86F
:1004B0006808006830F46040216A0843DFF8581883
:1004C0000860DFF854080068FF21B1FA81F10002EA
:1004D000000AE26912FA01F10843DFF83C180860EB
:1004E0001FE0DFF83408006830F46040216A0843F8
:1004F000DFF824180860DFF820080068FF21B1FA4F
:1005000081F10002000AE26912FA01F10843DFF802
:1005100008180860206A00F005FC002801D00120BE
:100520001BE20F2000F078FC7AE0A069002848D098
:1005300001205FF40001B1FA81F1DFF8782842F878
:10054000210000F081FC05005FF48000B0FA80F02B
:1005500050F02000C0B24009C0B2012803D1DFF83A
:100560008807006802E0DFF8B80700685FF48001E0
:10057000B1FA81F111F01F010200CA40D00706D480
:1005800000F062FC401B0328DED30320E5E1DFF826
:100590008807006830F46040216A0843DFF8781764
:1005A0000860DFF874070068FF21B1FA81F10002EA
:1005B000000AE26912FA01F10843DFF85C170860EB
:1005C0002EE000205FF40001B1FA81F1DFF8E427AA
:1005D00042F8210000F038FC05005FF48000B0FA1A
:1005E00080F050F02000C0B24009C0B2012803D111
:1005F000DFF8F406006802E0DFF8240700685FF423
:100600008001B1FA81F111F01F010200CA40D00748
:1006100006D500F019FC401B0328DED303209CE123
:10062000207800074AD56069002823D001205FF0B8
:100630000041B1FA81F1DFF8802742F8210000F093
:1006400003FC05005FF08040B0FA80F0DFF8D006D0
:1006500000685FF08041B1FA81F111F01F010200E2
:10066000CA40D0072AD400F0EFFB401B0328E9D38F
:10067000032072E100205FF00041B1FA81F1DFF860
:10068000382742F8210000F0DFFB05005FF08040D2
:10069000B0FA80F0DFF8880600685FF08041B1FAB8
:1006A00081F111F01F010200CA40D00706D500F009
:1006B000CBFB401B0328E9D303204EE12078400701
:1006C00040F1A780DFF8F406006850F08050DFF8B2
:1006D000EC160860DFF8E406006810F08050009027
:1006E0000098DFF8DC06006850F48070DFF8D01660
:1006F000086000F0A9FB0500DFF8C4060068C0052B
:1007000006D400F0A1FB401B6528F5D3032024E1AB
:10071000A068012808D1DFF80806006850F480704E
:10072000DFF8FC15086037E0A068002810D1DFF87A
:10073000F005006830F48070DFF8E4150860DFF839
:10074000E005006830F48060DFF8D415086023E02D
:10075000A068052810D1DFF8C805006850F4806053
:10076000DFF8BC150860DFF8B805006850F4807049
:10077000DFF8AC1508600FE0DFF8A405006830F47E
:100780008070DFF89C150860DFF89405006830F48D
:100790008060DFF88C150860A06800281CD000F08D
:1007A00053FB05005FF48000B0FA80F0DFF87005BD
:1007B00000685FF48001B1FA81F111F01F010200BD
:1007C000CA40D00725D400F03FFB401B41F28931DD
:1007D0008842E7D30320C0E000F036FB05005FF459
:1007E0008000B0FA80F0DFF8380500685FF480011F
:1007F000B1FA81F111F01F010200CA40D00708D5FB
:1008000000F022FB401B41F289318842E7D30320EC
:10081000A3E0606A002800F09F80DFF8F804006819
:1008200010F00C000C2800F09580606A022865D159
:1008300000208021B1FA81F1DFF8782542F821000B
:1008400000F002FB05004020B0FA80F050F02000DC
:10085000C0B24009C0B2012803D1DFF88C0400689F
:1008600002E0DFF8BC0400684021B1FA81F111F028
:100870001F010200CA40D00706D500F0E5FA401B70
:100880000328E0D3032068E0DFF88804006830F430
:100890007D00A16A0843E16A0843216B0843DFF841
:1008A0007414086001208021B1FA81F1DFF8042579
:1008B00042F8210000F0C8FA05004020B0FA80F0AC
:1008C00050F02000C0B24009C0B2012803D1DFF8C7
:1008D0001804006802E0DFF8480400684021B1FA1B
:1008E00081F111F01F010200CA40D00734D400F09A
:1008F000ABFA401B0328E0D303202EE00020802128
:10090000B1FA81F1DFF8AC2442F8210000F09CFA42
:1009100005004020B0FA80F050F02000C0B240093D
:10092000C0B2012803D1DFF8C003006802E0DFF89D
:10093000F00300684021B1FA81F111F01F010200BB
:10094000CA40D00708D500F07FFA401B0328E0D347
:10095000032002E0012000E0002032BDF8B50400D1
:100960000D000026DFF85C04006810F00100A842CA
:100970001BD2012D07D1DFF84C04006850F00400B1
:10098000DFF840140860DFF83C04006840084000CD
:100990002843DFF830140860DFF82804006810F0FE
:1009A0000100A84201D001202CE12078800709D560
:1009B000DFF86003006830F0F000A1680843DFF85A
:1009C000541308602078C00740F1CB80606802288B
:1009D0001DD14FF48040B0FA80F050F02000C0B23A
:1009E0004009C0B2012803D1DFF8FC02006802E030
:1009F000DFF82C0300684FF48041B1FA81F111F067
:100A00001F010200CA40D0075CD40120FAE06068F0
:100A100003281AD14020B0FA80F050F02000C0B274
:100A20004009C0B2012802D1AF48006802E0DFF8F7
:100A3000F00200684021B1FA81F111F01F010200BB
:100A4000CA40D0073ED40120DCE0606801281CD1F8
:100A50005FF08040B0FA80F050F02000C0B2400952
:100A6000C0B2012802D1A048006802E0DFF8B0025D
:100A700000685FF08041B1FA81F111F01F010200BE
:100A8000CA40D0071ED40120BCE05FF48000B0FA59
:100A900080F050F02000C0B24009C0B2012802D15D
:100AA0009148006802E0DFF8780200685FF4800196
:100AB000B1FA81F111F01F010200CA40D00701D440
:100AC00001209FE093480068800880006168084327
:100AD0009049086000F0B8F90600606802280ED15D
:100AE0008C48006810F00C0008283AD000F0ACF9EF
:100AF000801B41F289318842F2D3032082E0606892
:100B000003280ED18348006810F00C000C2828D070
:100B100000F09AF9801B41F289318842F2D3032018
:100B200070E0606801280ED17A48006810F00C006F
:100B3000042816D000F088F9801B41F289318842E0
:100B4000F2D303205EE07348006810F00C0F08D069
:100B500000F07AF9801B41F289318842F3D30320F7
:100B600050E0DFF86002006810F0010085421BD2FF
:100B7000012D07D1DFF84C02006850F00400DFF8C7
:100B800044120860DFF83C02006840084000284337
:100B9000DFF830120860DFF82C02006810F0010066
:100BA000A84201D001202DE02078400707D5594800
:100BB000006830F4E060E168084356490860207836
:100BC000000708D55348006830F46050216950EAA6
:100BD000C1005049086000F016F84E4909685FF0FE
:100BE0007062B2FA82F2DFF8E03111F0F0010F002A
:100BF000D740F95C0200CA40484802600F2000F06C
:100C00000BF90020F2BDF0B50021002200230024E2
:100C1000002500203F4E3668310011F00C06042EEE
:100C200004D0082E05D00C2E06D032E0684E3000DD
:100C300042E0684E30003FE04FF47056B6FA86F658
:100C4000654F11F4701CE6463EFA06FE1EF807607A
:100C500032004FF44076B6FA86F6604F11F4400C3D
:100C6000E6463EFA06FE1EF807603300294E366857
:100C7000F60306D5574E06FB02F6B6FBF3F6340034
:100C800005E0534E06FB02F6B6FBF3F634002000F7
:100C900012E0534E366816F460465FF4E027B7FA68
:100CA00087F7B4463CFA07FC654601266F1CBE4038
:100CB0004FF400477E433000F0BD1848006870478D
:100CC00010B5FFF7FAFF0100124800685FF46002F8
:100CD000B2FA82F2434B10F4E0600400D440E25CCC
:100CE0000800D04010BD00000038024010B5FFF7EA
:100CF000E4FF0100074800685FF4E012B2FA82F2F4
:100D0000384B10F460500400D440E25C0800D0403E
:100D100010BD00000838024004380240680200207C
:100D20003438024070B582B0040000250026274800
:100D3000006810F0F00F24D120480068C00003D5EF
:100D400000F098F8050014E01C48006850F080504E
:100D50001A4908601948006810F080500090009807
:100D600000F088F805001548006830F080501349FD
:100D70000860B5F5C05F04D1B4F5404F01D1012042
:100D80000600012E05D10F48006850F004000D49FF
:100D900008600C480068400840003043094908607A
:100DA0000848006810F00100B04201D0012000E0C6
:100DB000002076BD000047428006474224380240AA
:100DC00000700040003C0240E08300080838024008
:100DD0000024F40000127A000C8400083884000813
:100DE000043802402C84000880B51F48006850F089
:100DF00004001D4908601C48006850F002001A49B0
:100E00000860032000F0A6F80F2000F005F800F0BD
:100E100002F8002002BD704710B5040013480068B6
:100E20004FF47A71B0FBF1F000F0B4F80022210029
:100E30005FF0FF3000F094F8002010BD0C4800680F
:100E4000401C0B490860704709480068704711B59D
:100E500081B00024FFF7F8FF0400FFF7F5FF001B47
:100E600001998842F9D313BD003C0240680200207A
:100E7000FC0600200248006810F4C05070470000D3
:100E80000070004010F00702454B1B6819004FF638
:100E9000FF031940434B53EA02231943404B1960A7
:100EA00070473F480068C0F302207047012110F0EE
:100EB0001F0291403C4A40B2430942F82310704758
:100EC00010B440B2002808D50A01384B40B210F0E7
:100ED0000F04E31803F8042C03E00A01344B40B27A
:100EE000C25410BC704770B4030013F00704D4F16F
:100EF0000706052E01D3042001E0D4F10700261DCA
:100F0000072E01D2002500E0E51E012616FA00F0AA
:100F1000401E0840A8400121A940491E1140084335
:100F200070BC704710B50400601EB0F1807F01D323
:100F300001200EE0601E1F4908600F215FF0FF30A6
:100F4000FFF7BEFF00201C49086007201B4908600E
:100F5000002010BD10B504002000FFF793FF10BD66
:100F6000F8B504000D0016000027FFF79AFF0700F0
:100F7000320029003800FFF7B6FF0100200040B220
:100F8000FFF79EFFF1BD10B50400200040B2FFF74F
:100F90008DFF10BD10B504002000FFF7C3FF10BD8A
:100FA0000CED00E00000FA0500E100E018ED00E0C3
:100FB00000E400E014E000E018E000E010E000E0F1
:100FC00070B5040000250026002C01D10120AEE000
:100FD00094F83500002805D1002084F83400200062
:100FE00000F0C5F8FFF76CFE0600DFF888018642C6
:100FF00001D201209BE0242084F83500206800689D
:101000004008400021680860DFF86C01B6FBF0F092
:1010100005002068406880098001284321684860F5
:101020002068006A6168DFF85421914201D2691C8E
:1010300008E04FF4967101FB05F14FF47A72B1FBB1
:10104000F2F1491C80098001084321680862206888
:10105000C0696168DFF8242191420ED261684900BD
:10106000B6FBF1F10905090D042901D204212AE09A
:1010700061684900B6FBF1F125E0A168002905D1BE
:10108000616803225143B6FBF1F106E06168192261
:101090005143B6FBF1F151F48041090501D1012121
:1010A00011E0A168002905D1616803225143B6FB14
:1010B000F1F106E0616819225143B6FBF1F151F4F8
:1010C000804151F40041DFF8B82010400843216806
:1010D000C8612068006830F0C000E1690843216AF7
:1010E00008432168086020688068DFF8981008408D
:1010F00021690843E1680843216888602068C06866
:10110000000A0002A1696269114308432168C860AE
:101110002068006850F00100216808600020A0638A
:10112000202084F83500002084F83600002070BDAF
:1011300010B50400002C01D1012017E0242084F810
:1011400035002068006840084000216808602000E1
:1011500000F00EF80020A063002084F83500002085
:1011600084F83600002084F83400002010BD704759
:101170007047000080841E0040420F00A1860100DD
:101180000030FFFF007CFFFF2DE9F04782B0050033
:101190000E0017009846DDF828900B9CDDF830A073
:1011A00095F83500202840F09580B9F1000F02D065
:1011B000A4B2002C01D101208DE042F21073012273
:1011C0005FF00211280000F0DDFA002801D00220B3
:1011D00081E095F83400012801D102207BE0012054
:1011E00085F834002868006830F4006029680860D9
:1011F000212085F83500402085F836000020A863BE
:10120000CDF800A043469BB23A0092B2310089B2B9
:10121000280000F09DF900280CD0A86B042804D108
:10122000002085F83400012055E0002085F83400C6
:10123000032050E0A4B2002C28D05146280000F032
:101240005DFB00280CD0A86B042807D12868006833
:1012500050F400702968086001203CE003203AE067
:1012600099F800002968086119F10109641E2868CD
:1012700040694007DED5A4B2002CDBD099F800000D
:101280002968086119F10109641ED3E75146280055
:1012900000F034FB00280CD0A86B042807D1286884
:1012A000006850F4007029680860012013E00320F2
:1012B00011E02868006850F4007029680860202058
:1012C00085F83500002085F83600002085F83400C8
:1012D000002000E00220BDE8F6872DE9F04782B04B
:1012E00005000E0017009846DDF828900B9CDDF8ED
:1012F00030A095F83500202840F02081B9F1000F8A
:1013000002D0A4B2002C01D1012018E142F21073E6
:1013100001225FF00211280000F034FA002801D009
:1013200002200CE195F83400012801D1022006E1E9
:10133000012085F834002868006830F400602968CE
:101340000860222085F83500402085F8360000200E
:10135000A863CDF800A043469BB23A0092B2310098
:1013600089B2280000F062F900280CD0A86B04288C
:1013700004D1002085F834000120E0E0002085F849
:1013800034000320DBE0A4B2012C13D128680068EC
:1013900030F48060296808602868406900902868F7
:1013A0008069009000982868006850F400702968EF
:1013B00008601DE0A4B2022C13D12868006830F444
:1013C0008060296808602868006850F40060296817
:1013D000086028684069009028688069009000983B
:1013E00006E02868406900902868806900900098AD
:1013F000A4B2002C00F09780A4B2042C72DAA4B23C
:10140000012C14D15146280000F0A1FA002806D082
:10141000A86B202801D1032091E001208FE02868EB
:10142000006989F8000019F10109641EE0E7A4B21F
:10143000022C1FD153460022DFF81011280000F0C3
:10144000A1F9002801D0032079E02868006850F451
:101450000070296808602868006989F8000019F19F
:101460000109641E2868006989F8000019F1010962
:10147000641EBDE753460022DFF8D010280000F0BC
:1014800081F9002801D0032059E02868006830F471
:101490008060296808602868006989F8000019F1EF
:1014A0000109641E53460022DFF8A010280000F056
:1014B00069F9002801D0032041E02868006850F451
:1014C0000070296808602868006989F8000019F12F
:1014D0000109641E2868006989F8000019F10109F2
:1014E000641E85E75146280000F031FA002806D036
:1014F000A86B202801D1032021E001201FE02868EB
:10150000006989F8000019F10109641E2868406922
:1015100040077FF56DAF2868006989F8000019F170
:101520000109641E64E7202085F83500002085F855
:101530003600002085F83400002000E00220BDE8DD
:10154000F687000090F835007047000004000100A5
:101550002DE9F04182B004000D0016001F00DDF8F7
:1015600020802068006850F480702168086043463D
:1015700000225FF00111200000F004F9002801D0E2
:10158000032051E015F0FE00216808614246DFF8B3
:10159000F011200000F063F9002806D0A06B0428A9
:1015A00001D1012040E003203EE020684069009026
:1015B00020688069009000984146200000F09EF964
:1015C00000280CD0A06B042807D12068006850F4D4
:1015D000007021680860012026E0032024E0BFB2EB
:1015E000012F04D13000C0B2216808611BE0B6B2FF
:1015F000300AC0B2216808614146200000F07EF93F
:1016000000280CD0A06B042807D12068006850F493
:10161000007021680860012006E0032004E030002B
:10162000C0B2216808610020BDE8F6812DE9F041D3
:1016300082B004000D0016001F00DDF82080206835
:10164000006850F48060216808602068006850F4E9
:10165000807021680860434600225FF0011120007D
:1016600000F090F8002801D0032087E015F0FE007C
:101670002168086142464249200000F0F0F8002845
:1016800006D0A06B042801D1012077E0032075E08B
:101690002068406900902068806900900098414669
:1016A000200000F02BF900280CD0A06B042807D1F3
:1016B0002068006850F400702168086001205DE037
:1016C00003205BE0BFB2012F04D13000C0B221681B
:1016D00008611BE0B6B2300AC0B221680861414619
:1016E000200000F00BF900280CD0A06B042807D1D3
:1016F0002068006850F400702168086001203DE017
:1017000003203BE03000C0B2216808614146200060
:1017100000F0F4F800280CD0A06B042807D1206852
:10172000006850F4007021680860012026E0032062
:1017300024E02068006850F4807021680860434607
:1017400000225FF00111200000F01CF8002801D0F9
:10175000032013E055F00100C0B221680861424641
:101760000749200000F07BF8002806D0A06B042871
:1017700001D1012002E0032000E00020BDE8F68155
:10178000020001002DE9F04104000D0016001F00C9
:101790005FF00008FFF758FB8046F6B2002E2DD10F
:1017A000280CC0B201280AD120684069284080B2C4
:1017B000A9B2884201D101200BE0002009E0206895
:1017C0008069284080B2A9B2884201D1012000E09E
:1017D0000020002840D117F1010FE1D0002F05D0E3
:1017E000FFF732FBB0EB08008742D9D2202084F803
:1017F0003500002084F8340003202EE0280CC0B20D
:1018000001280AD120684069284080B2A9B28842E4
:1018100001D101200BE0002009E020688069284008
:1018200080B2A9B2884201D1012000E00020002846
:1018300012D017F1010FE1D0002F05D0FFF704FB04
:10184000B0EB08008742D9D2202084F83500002070
:1018500084F83400032000E00020BDE8F081F8B5F2
:1018600004000D0016000027FFF7EEFA0700280C11
:10187000C0B201280AD120684069284080B2A9B2CC
:10188000884201D101200BE0002009E02068806936
:10189000284080B2A9B2884201D1012000E0002096
:1018A000002829D120684069400513D520680068C8
:1018B00050F40070216808607FF4806021684861FE
:1018C0000420A063202084F83500002084F8340030
:1018D000012012E016F1010FC9D0002E04D0FFF74D
:1018E000B3FAC01B8642C2D2202084F83500002003
:1018F00084F83400032000E00020F2BD70B504003D
:101900000D00FFF7A1FA06002068406900061CD40C
:10191000200000F04EF8002801D0012016E015F15B
:10192000010FF1D0002D04D0FFF78EFA801B854205
:10193000EAD2A06B50F02000A063202084F835008C
:10194000002084F83400032000E0002070BD70B552
:1019500004000D000026FFF777FA060020684069B2
:10196000400624D420684069C0060DD57FF01000E1
:10197000216848610020A063202084F83500002001
:1019800084F83400012013E0002D04D0FFF75CFA46
:10199000801B8542E2D2A06B50F02000A063202083
:1019A00084F83500002084F83400032000E0002093
:1019B00070BD01000868406940050DD57FF4806066
:1019C0000A68506104208863202081F835000020D7
:1019D00081F83400012000E00020704738B5040091
:1019E000A068006805686878002807D129002000F1
:1019F00000F066F9012801D1012004E001202870DF
:101A00000120E070002032BD38B50400A0680068F5
:101A100005686878002806D1200000F023F8012826
:101A200001D1012004E0002028700020E070002097
:101A300032BD38B50400A068006805682079012827
:101A400001D100200DE02A006968200000F04CFA66
:101A5000012801D1012004E00120A870012020719B
:101A6000002032BD38B50400A06800680568207900
:101A7000002801D100200FE0E878002807D10021DC
:101A8000200000F041FC012801D1012004E00020E9
:101A9000A87000202071002032BD38B504000D0070
:101AA0002900200000F04AF932BD10B504002000E2
:101AB00000F051F910BD38B504000D0029002000D8
:101AC00000F060F932BD38B504000D002900200097
:101AD00000F086F932BD70B504000D00A068006802
:101AE00006682079012809D132002900C9B22000F6
:101AF00000F0A9F901280BD101200AE032002900E9
:101B0000C9B2200000F0D1F9012801D1012000E084
:101B1000002070BD70B504000D00A0680068066864
:101B20002079012808D132002900200000F0DCF9DA
:101B300001280AD1012009E032002900200000F02C
:101B400007FA012801D1012000E0002070BD38B55E
:101B50000400A068006805682878002807D12900DB
:101B6000200000F0ADF8012801D1012004E001209F
:101B700068700120E070002032BD38B50400A06814
:101B8000006805682878002806D1200000F023F8B6
:101B9000012801D1012004E0002068700020E070DD
:101BA000002032BD38B50400A068006805682079BF
:101BB000012801D100200DE02A006968200000F012
:101BC00093F9012801D1012004E00120E8700120EF
:101BD0002071002032BD38B50400A0680068056897
:101BE0002079002801D100200FE0A878002807D133
:101BF0000021200000F088FB012801D1012004E031
:101C00000020E87000202071002032BD38B50400AB
:101C10000D002900200000F091F832BD10B504003D
:101C2000200000F098F810BD38B504000D00290020
:101C3000200000F0BDF832BD38B504000D002900C9
:101C4000200000F0CDF832BD70B504000D00A06892
:101C5000006806682079012809D132002900C9B23C
:101C6000200000F0F0F801280BD101200AE032003A
:101C70002900C9B2200000F018F9012801D1012083
:101C800000E0002070BD70B504000D00A068006881
:101C900006682079012808D132002900200000F0D0
:101CA00023F901280AD1012009E03200290020008F
:101CB00000F04EF9012801D1012000E0002070BDA4
:101CC00038B504000D00200000F045F8012801D1CE
:101CD000012032E0B14868600121200000F0F0FAF4
:101CE000012801D1012028E00021200000F00CFB98
:101CF000012801D1012020E00021200000F03CFB60
:101D0000012801D1012018E00021200000F059FB3A
:101D1000012801D1012010E00221200000F075FB14
:101D2000012801D1012008E00121200000F0DBFBA7
:101D3000012801D1012000E0002032BD38B50400A7
:101D40000D002900200000F0ACFA012801D101208B
:101D500000E0002032BD10B582B0040000208DF8F4
:101D6000000000A92000FFF7E9FF012801D10120B0
:101D700007E09DF800002178884201D0012000E0B2
:101D8000002016BD38B504000D000020009000A909
:101D9000200000F05FFC012801D1012007E000983D
:101DA00000F040FD7E4900F055FD2860002032BD66
:101DB00038B504000D000020ADF8000000A9200097
:101DC00000F075FC012801D1012008E0BDF90000F8
:101DD00000F028FD734900F03DFD2860002032BD71
:101DE00038B504000D0000A9200000F0B1FA012868
:101DF00001D1012026E09DF8000000280AD010281B
:101E00000BD020280DD030280ED040280FD05028DD
:101E100010D012E00020286013E05FF07E502860B0
:101E20000FE0604828600CE05C48286009E05E48EC
:101E3000286006E05D48286003E05D4828600120D6
:101E400000E0002032BDF8B504000D001600EDB230
:101E5000002D06D0022D0AD006D3042D0DD009D3B3
:101E60000EE0102007000DE0202007000AE03020DF
:101E7000070007E04020070004E05020070001E0D1
:101E8000012011E03900C9B2200000F03DFA01281C
:101E900001D1012008E0311D2000FFF7A1FF01283A
:101EA00001D1012000E00020F2BD0300C9B20029E9
:101EB00006D002290BD007D304290ED00AD30FE095
:101EC0005FF07E5050600DE0364850600AE03348C5
:101ED000506007E03448506004E03448506001E04E
:101EE000012000E000207047F8B504000D00160046
:101EF0002800304900F02CFD01D2102715E0280001
:101F00002D4900F025FD01D220270EE028002B49A5
:101F100000F01EFD01D2302707E02800284900F01C
:101F200017FD01D2402700E050273900C9B2200038
:101F300000F0EAF9012801D1012008E0311D20005C
:101F4000FFF74EFF012801D1012000E00020F2BD83
:101F500070B504000D0016002800164900F0F8FCCA
:101F600001D2102015E02800134900F0F1FC01D245
:101F700020200EE02800114900F0EAFC01D23020B8
:101F800007E028000E4900F0E3FC01D2402000E009
:101F9000502000F047FC7060002070BD0000C84178
:101FA0000000C84200002041000048420000964264
:101FB000000080BF0100803F010020410100C841B6
:101FC0000100484230B583B004000D0000A9200094
:101FD00000F0F5FB012801D1012003E09DF801008C
:101FE000287000203EBD30B583B004000D0000A96C
:101FF000200000F0E4FB012801D1012003E09DF85E
:102000000200287000203EBD30B583B004000D00F2
:1020100000A9200000F0D3FB012801D1012003E03A
:102020009DF80300287000203EBD30B583B0040049
:102030000D0000A9200000F0C2FB012801D1012001
:1020400003E09DF80400287000203EBD38B5040070
:102050000D00EDB228000028012807D82900C9B2D8
:10206000200000F01BFA012804D101E0012002E069
:10207000012000E0002032BD38B504000D00EDB2B3
:1020800028000028012807D82900C9B2200000F044
:10209000E0F9012804D101E0012002E0012000E084
:1020A000002032BD30B583B004000D0000A920002F
:1020B00000F085FB012801D1012003E09DF800001C
:1020C000287000203EBD70B504000D0016002900E8
:1020D0002000FFF757FE012801D1012008E0310060
:1020E0002000FFF765FE012801D1012000E000205B
:1020F00070BD38B504000D0000A9200000F010FBF1
:10210000012801D1012003E09DF800002870002083
:1021100032BD38B504000D00EDB22800002809D00A
:10212000202807D0402805D0602803D0802801D07F
:10213000E02807D12900C9B2200000F0CDFA01281B
:1021400004D101E0012002E0012000E0002032BDC6
:1021500038B504000D002900200000F01DFB012807
:1021600001D1012000E0002032BD38B504000D008F
:102170002900C9B2200000F0EBFA012801D10120AA
:1021800000E0002032BD38B504000D00EDB228009B
:102190000028012807D82900C9B2200000F07EF9E4
:1021A000012804D101E0012002E0012000E000202C
:1021B00032BD38B504000D00EDB2002D03D0022D64
:1021C00013D009D31AE00121200000F0D6F901282C
:1021D00001D1012015E013E00121200000F0F2F907
:1021E000012801D101200CE00AE00121200000F0CB
:1021F0009FF9012801D1012003E001E0012000E066
:10220000002032BD38B504000D00EDB2002D03D022
:10221000022D13D009D31AE00021200000F0ADF9FF
:10222000012801D1012015E013E00021200000F079
:10223000C9F9012801D101200CE00AE000212000A9
:1022400000F076F9012801D1012003E001E001202E
:1022500000E0002032BDF8B504000D0016001F009C
:1022600033009BB23A002900C9B2200000F0C7FB3E
:10227000002801D0012000E00020F2BDF8B50400E4
:102280000D0016001F0033009BB23A002900C9B2AE
:10229000200000F09DFB002801D0012000E000207C
:1022A000F2BD38B504000D002B0001220F212000E3
:1022B000FFF7D1FF002801D0012000E0002032BD4F
:1022C00038B504000D0000AB01221A212000FFF7F1
:1022D000C2FF002801D0012015E09DF8000010F099
:1022E000FE008DF800009DF8000028438DF80000E6
:1022F00000AB01221A212000FFF7C0FF002801D007
:10230000012000E0002032BD38B504000D0000AB14
:10231000012210212000FFF79EFF002801D001209C
:1023200015E09DF8000010F08F008DF800009DF87A
:10233000000028438DF8000000AB0122102120008E
:10234000FFF79CFF002801D0012000E0002032BDF3
:1023500038B504000D0000AB012210212000FFF76A
:102360007AFF002801D0012005E09DF8000010F060
:1023700070002870002032BD38B504000D0000AB9D
:10238000012210212000FFF766FF002801D0012064
:1023900016E09DF8000010F0F7008DF800009DF8A1
:1023A000000050EAC5008DF8000000AB01221021AA
:1023B0002000FFF763FF002801D0012000E000208B
:1023C00032BD38B504000D0000AB01221021200001
:1023D000FFF741FF002801D0012015E09DF8000023
:1023E00010F0FB008DF800009DF8000028438DF8E8
:1023F000000000AB012210212000FFF73FFF002862
:1024000001D0012000E0002032BD38B504000D00ED
:1024100000AB012210212000FFF71DFF002801D092
:10242000012015E09DF8000010F0FD008DF800007F
:102430009DF8000028438DF8000000AB0122102118
:102440002000FFF71BFF002801D0002000E0002043
:1024500032BD38B504000D0000AB0122112120006F
:10246000FFF7F9FE002801D0012016E09DF80000DA
:1024700010F0BF008DF800009DF8000050EA8510B4
:102480008DF8000000AB012211212000FFF7F6FEBD
:10249000002801D0012000E0002032BD38B5040042
:1024A0000D0000AB012211212000FFF7D4FE00280F
:1024B00001D0012016E09DF8000010F0DF008DF83B
:1024C00000009DF8000050EA45108DF8000000ABB8
:1024D000012211212000FFF7D1FE002801D00120A8
:1024E00000E0002032BD38B504000D0000AB012231
:1024F00011212000FFF7AFFE002801D0012016E0D7
:102500009DF8000010F0EF008DF800009DF800002D
:1025100050EA05108DF8000000AB012211212000C7
:10252000FFF7ACFE002801D0012000E0002032BD02
:1025300038B504000D0000AB012212212000FFF786
:102540008AFE002801D0012016E09DF8000010F05E
:10255000F7008DF800009DF8000050EAC5008DF8E6
:10256000000000AB012212212000FFF787FE0028A7
:1025700001D0012000E0002032BD38B504000D007C
:1025800000AB012212212000FFF765FE002801D0D8
:10259000012016E09DF8000010F0EF008DF800001B
:1025A0009DF8000050EA05108DF8000000AB0122F4
:1025B00012212000FFF762FE002801D0012000E078
:1025C000002032BD38B504000D0000AB01221221FD
:1025D0002000FFF740FE002801D0012016E09DF802
:1025E000000010F0DF008DF800009DF8000050EAB8
:1025F00045108DF8000000AB012212212000FFF7EA
:102600003DFE002801D0012000E0002032BDF8B5D9
:1026100004000D00002700AB032228212000FFF753
:102620001AFE002801D0012013E000200600F6B2B7
:10263000032E08DA00A8F6B2305CF6B2F10088404A
:102640000743761CF3E7380201D557F07F472F6028
:102650000020F2BD38B504000D0000A92000FFF7EE
:10266000D6FF002801D0012008E0009864214843EB
:102670004FF4805190FBF1F02860002032BD70B51E
:1026800082B004000D0000AB02222B212000FFF7D6
:10269000E2FD002801D0012008E09DF801009DF82E
:1026A000001011EB002006002E80002076BD38B50A
:1026B00004000D0000A92000FFF7E1FF002801D071
:1026C000012008E0BDF900000A214843642190FB85
:1026D000F1F02880002032BD38B504000D0000ABB9
:1026E000012214212000FFF7B6FD002801D00120AF
:1026F00015E09DF8000010F01F008DF800009DF817
:10270000000028438DF8000000AB012214212000B6
:10271000FFF7B4FD002801D0012000E0002032BD09
:1027200038B504000D0000AB012214212000FFF792
:1027300092FD002801D0012009E09DF8000010F072
:10274000E0008DF800009DF800002870002032BDE8
:1027500038B504000D0000AB012214212000FFF762
:102760007AFD002801D0012015E09DF8000010F04E
:10277000E0008DF800009DF8000028438DF800006F
:1027800000AB012214212000FFF778FD002801D0C2
:10279000012000E0002032BD38B504000D002B0000
:1027A000012214212000FFF756FD002801D001204E
:1027B00004E0287810F01F002870002032BD38B5E2
:1027C00004000D0000AB012226212000FFF743FD8D
:1027D000002801D001201FE09DF80000C0B2C00910
:1027E00028719DF80000C0F38010E8709DF800008B
:1027F00010F03F0028702878002802D1012068706E
:1028000001E0002068702878202802D10120A870FB
:1028100001E00020A870002032BD0268531C036054
:1028200011707047002840F10780F446404200F0E4
:1028300003F850F0004060470AD0B0FA80F18840B9
:10284000D1F19D01C905020672F1004241EB102051
:102850007047200010B5FF2313EAD0541DBF13EAC0
:10286000D1529C429A4239E0A41ADA0780EA010365
:10287000134042EA012142EA0020421A3CBF641E92
:1028800001EB4202090AB2FBF1FE01FB1E22120219
:10289000B2FBF1F001FB10226EF30F201202B2FB2B
:1028A000F1FE4EEA00207F3406DDFE2C24DA53EAE6
:1028B000500050EBC45010BDD4F1020401FB1E22A5
:1028C00040F08071192C1DDC21FA04F0C4F12004C1
:1028D000A140114371F10042584110BD9C421ABF02
:1028E00003EAD1529A420FE080EA010E0EF0004353
:1028F000400004D0490016D143F0FF4010BD49000C
:1029000008BFD343180010BD9C4205D1D21AF7D09E
:1029100001F00041484010BD4A0212BF084648403D
:1029200000F0004010BD4AB90902B1FA81F29140AD
:1029300044B1A418C00140F000409EE7C90141F035
:10294000004152420002B0FA80F4A040141B94E708
:102950004FF0807C1CEB400F94BF1CEB410F05E057
:1029600040EA010C5FEA4C0C01D28842704718BF64
:102970008142704780B500F059F8002801D001204D
:1029800000E0002002BD00B587B08C48006850F020
:1029900001008A4908608948006810F00100009031
:1029A0000098102001908648029002200490002098
:1029B000039001A9834800F015F9002200210A20A4
:1029C000FEF7CEFA0A20FEF7DEFA002007B000BDBF
:1029D0002DE9F04104000D0016001F00A0463B0049
:1029E0009BB232002900C9B298F8010000F042F809
:1029F000002801D0012000E00020BDE8F0812DE991
:102A0000F04104000D0016001F00A0463B009BB2E1
:102A100032002900C9B298F8010000F055F80028EA
:102A200001D0012000E00020BDE8F08180B56748BA
:102A3000FEF788FD002814D16548644948600020ED
:102A40006249886033206149C8604FF480405F4923
:102A5000086160485D49086000F068F85B48FEF76F
:102A6000AFFA5A48FEF76EFD202801D1002000E0A1
:102A7000012002BD2DE9F04184B004000D001600D4
:102A80001F005FF00008544800680290380080B2D0
:102A9000019000960123EDB22A0092B2E4B2210027
:102AA00089B24A48FEF770FB80465FFA88F8B8F1B1
:102AB000000F05D02000C0B200F030F8012000E087
:102AC000002004B0BDE8F0812DE9F04184B004009D
:102AD0000D0016001F005FF000083F4800680290DC
:102AE000380080B2019000960123EDB22A0092B224
:102AF000E4B2210089B23548FEF7EFFB80465FFA69
:102B000088F8B8F1000F05D02000C0B200F006F838
:102B1000012000E0002004B0BDE8F08110B5040001
:102B20002A48FEF705FBFFF781FF10BD00B587B00F
:102B30002248006850F00200204908601F480068E1
:102B400010F00200009000984FF4407001901220A5
:102B5000029002200490002003900420059001A917
:102B6000194800F03FF81D48006850F400101B4958
:102B700008601A48006810F4001000900098184887
:102B8000006850F40010164908601548006830F4D9
:102B9000001013490860002200211F20FEF7E0F911
:102BA0001F20FEF7F0F9002200212020FEF7D8F9BF
:102BB0002020FEF7E8F907B000BD00001C380240F5
:102BC000000011100000024000040240280600200E
:102BD000801A0600005400406C0200202438024095
:102BE0001838024078B40022002300240D682E001B
:102BF000D640002E00F0DE800D680126964035405C
:102C00002B00002B00F0D4804D68022D02D04D68BF
:102C1000122D16D1D50810EB85052D6A2C000F2535
:102C200012F00706F6B2B600B540AC430D6912F0DB
:102C30000706F6B2B600B5402C43D50810EB850563
:102C40002C6205682C0003251600F6B27600B5400C
:102C5000AC430D7915F003051600F6B27600B540C9
:102C60002C4304604D68012D08D04D68022D05D01D
:102C70004D68112D02D04D68122D19D185682C0098
:102C800003251600F6B27600B540AC43CD681600B9
:102C9000F6B27600B5402C43846045682C000125CF
:102CA0009540AC434D68C5F3001595402C434460F6
:102CB000C5682C0003251600F6B27600B540AC437B
:102CC0008D681600F6B27600B5402C43C4604D689E
:102CD000ED006DD54B4D2D6855F00105494E356021
:102CE000484D2D6815F001050095009D464D96084C
:102CF00055F826502C000F2512F00306F6B2B60048
:102D0000B540AC43414DA84201D100251EE0404DE5
:102D1000A84201D1012519E03E4DA84201D102256A
:102D200014E03D4DA84201D103250FE03B4DA842E0
:102D300001D104250AE03A4DA84201D1052505E05C
:102D4000384DA84201D1062500E0072512F0030600
:102D5000F6B2B600B5402C432B4D960845F82640F8
:102D6000314D2D682C009C434D68ED0300D51C436C
:102D70002D4D2C602D4D2D682C009C434D68AD03CE
:102D800000D51C43294D2C60294D2D682C009C43F7
:102D90004D68ED0200D51C43254D2C60254D2D6856
:102DA0002C009C434D68AD0200D51C43214D2C6086
:102DB000521C1BE771BC70470200136989B20B42B9
:102DC00002D00123180001E000231800C0B27047B0
:102DD000D2B2002A02D089B2816102E089B20B042A
:102DE0008361704710B5040013480068A4B2204204
:102DF00006D0A4B210480460200080B200F072FA3D
:102E000010BD0000203802400800014000000240D0
:102E10000004024000080240000C02400010024082
:102E20000014024000180240000401400404014064
:102E3000080401400C0401401404014080B5FDF772
:102E4000D3FF00F0B9FA002000F00EFB01210020B2
:102E500000F062FB00F0CAFB00F0D9F8012803D1B2
:102E6000DFF8FC0400F05CFA00F0E6F8012803D17A
:102E7000DFF8EC0400F054FA00F0F3F8012803D175
:102E8000DFF8DC0400F04CFADFF8D814DFF8D804DF
:102E900000F01EFCDFF8D00400F034FC41F288336F
:102EA000020092B2DFF8C014DFF8C00400F07FFC2B
:102EB000DFF8BC040078002806D0022814D004D320
:102EC000042874D04ED3F3E7F2E700F08AF800F05C
:102ED0001CF9012803D1DFF8880400F021FA022050
:102EE000DFF88C140870E3E7DFF88814DFF8880453
:102EF000006801F09DF8012801D1012070E0DFF8A1
:102F000074040078DFF874140978884221D0DFF85F
:102F100064040078DFF86414087090A1DFF84804B6
:102F200000F0D6FBDFF8400400F0ECFB41F2883300
:102F3000020092B2DFF83014DFF8300400F037FC02
:102F4000DFF83C040078002803D00320DFF82014C9
:102F50000870DFF820040078202802D1DFF8200470
:102F60000078A5E7DFF81C14DFF80C04006801F016
:102F700014F8012803D1DFF8E80300F0D1F9DFF8F5
:102F800004040078002811D0002000F0A5FA00F019
:102F9000E7F8012803D1DFF8C80300F0C1F90020E9
:102FA00000F0AAFA0420DFF8C813087080E700F0E8
:102FB00091F8012803D1DFF8A80300F0B1F900204F
:102FC000DFF8BC1308700020DFF8A8130870002099
:102FD000DFF8A81308700020DFF89413087067E783
:102FE00002BD80B5DFF8A013DFF87C0300F070FBB2
:102FF000DFF8740300F086FB41F28833020092B2DE
:10300000DFF86413DFF8640300F0D1FB01BD80B585
:10301000DFF86413022000F03DFE012801D10120F9
:1030200009E0DFF86813032001F0BAF8012801D1A4
:10303000012000E0002002BD80B5DFF83C030068FD
:1030400000F078FF012801D1012009E0DFF83C03FE
:10305000006801F073FA012801D1012000E000208E
:1030600002BD80B50021C448006800F07BFF012844
:1030700001D101202DE00021BF48006801F035F8A2
:10308000012801D1012024E00121BB48006801F0A2
:103090002CF8012801D101201BE00221B64800686C
:1030A00001F023F8012801D1012012E00021B248EB
:1030B000006800F0FCFF012801D1012009E0052192
:1030C000AD48006801F02FF8012801D1012000E08F
:1030D000002002BD80B50021A748006800F0C9FFAC
:1030E000012801D101200FE0A9499F4800F0F0FA22
:1030F0009D4800F007FB41F28833020092B29A49E2
:103100009A4800F054FB002002BD80B5A1499648C2
:1031100000F0DEFA944800F0F5FA41F2883302003C
:1031200092B29149914800F042FB4FF47A70FDF75A
:103130008EFE20219048006800F09BFF012801D1FD
:10314000012009E001218C48006801F00AF80128FB
:1031500001D1012000E0002002BD00002E0000008F
:1031600010B586B000208DF80400002005900020E6
:10317000049001A98048006800F05AFF012801D19D
:10318000012074E07B4802788349774800F0A0FA78
:10319000754800F0B7FA41F28833020092B27249E2
:1031A000724800F004FB4FF47A70FDF750FE7B4943
:1031B0006D4800F08DFA6C4800F0A4FA41F28833B3
:1031C000020092B26849694800F0F1FA00249DF8C3
:1031D000040084423BDA04AA05A96748006800F0AD
:1031E000FDFE012801D1012041E0022302AA03A92A
:1031F000059800F03EF802980090039B621C684915
:10320000594800F065FA584800F07CFA020041F293
:10321000883392B25449554800F0C9FA022302AAF1
:1032200003A9049800F025F8029B039A5D494E48D3
:1032300000F04EFA4C4800F065FA41F28833020083
:1032400092B24949494800F0B2FA641CBFE75649B6
:10325000454800F03DFA444800F054FA41F2883302
:10326000020092B24049414800F0A1FA002006B0A5
:1032700010BD2DE9F84306000F0091469846300036
:1032800001F074F938603000002101F091F908D89C
:103290003868FFF7C7FA0100300001F09BF906001B
:1032A00006E03868FFF7BEFA310001F093F9060036
:1032B000404601F003FA02000B0000203B4901F0F8
:1032C00056FC04000D00300001F06AFE22002B00C5
:1032D00001F08EFE01F05DFF01F064FFC9F800000F
:1032E000BDE8F18310B50400A4B2B4F5005F0CD1C1
:1032F000002000F05EF9002811D11D480078002858
:103300000DD101201A49087009E0A4B2102C03D194
:1033100001201B49087002E0254800F001F810BDAB
:1033200010B50400220023490F4800F0D1F90E48DF
:1033300000F0E8F941F28833020092B20A490B48E2
:1033400000F035FA002000F0C7F86420FDF77FFD9B
:10335000002000F0D1F86420FDF779FDF2E70000CD
:1033600024840008FC81000878030020E805002080
:103370007402002022070020F4060020230700200A
:1033800020070020210700207C820008F80600208A
:10339000288200086C810008EC8000081083000877
:1033A000CC83000800840008F0820008000024405C
:1033B0007C8300082C83000800B593B001A8142179
:1033C00001F016FF06A8342101F012FF022006903A
:1033D0000120099010200A9002200F9000201090E8
:1033E0005FF4002011905FF40000129006A8FCF733
:1033F00099FE002802D01848FFF792FF174800688E
:1034000050F08050154908601448006810F0805052
:10341000009000981248006830F4C05050F40060EA
:103420000F4908600F480068C006FBD40F200190C8
:1034300003200290002003900020049000200590BB
:10344000012101A8FDF78AFA002802D00248FFF7FF
:1034500067FF13B000BD00BFB883000824380240E6
:10346000007000400470004010B586B00400E4B263
:10347000002C0ED1DFF85801006850F00100DFF891
:1034800050110860DFF84801006810F0010000905A
:103490000098DFF84001E4B230F8140001900120F8
:1034A0000290002003900220049001A9DFF8280177
:1034B000E4B250F82400FFF795FB0022DFF8140176
:1034C000E4B230F81410DFF81001E4B250F8240030
:1034D000FFF77EFC06B010BD10B504000122DFF836
:1034E000F400E4B230F81410DFF8EC00E4B250F865
:1034F0002400FFF76DFC10BD10B504000022DFF8BA
:10350000D400E4B230F81410DFF8CC00E4B250F884
:103510002400FFF75DFC10BD30B587B004000D003E
:10352000E4B2002C0ED1DFF8A800006850F00400CF
:10353000DFF89C100860DFF89800006810F00400C5
:1035400000900098DFF89400E4B230F81400019085
:103550000020039001200490EDB2002D09D100203D
:10356000029001A9DFF87800E4B250F82400FFF7D8
:1035700039FBEDB2012D1AD1DFF86800029001A9E4
:10358000DFF85C00E4B250F82400FFF72BFB0022C8
:103590000F21DFF85400E4B2205640B2FDF7E0FC02
:1035A000DFF84400E4B2205640B2FDF7ECFC07B06F
:1035B00030BD10B50400DFF82400E4B230F8141078
:1035C000DFF81C00E4B250F82400FFF7F5FB10BD53
:1035D0001C38024052280008600200203A370008D8
:1035E00064020020000021109E41000800B587B051
:1035F0003048006850F001002E4908602D480068EE
:1036000010F00100009000982A48006850F0010076
:10361000284908602748006810F0010000900098D1
:103620002548006850F400302349086022480068AB
:1036300010F40030009000980420019002200290C5
:1036400000200390022004900720059001A91B4848
:10365000FFF7C8FA082001900720059001A9174834
:10366000FFF7C0FA1648174908601748006815495F
:10367000486000201349886000201249C86000207B
:103680001049086100200F4988610C200D494861EC
:103690000C4800F053F8002800D0FEE70B48094919
:1036A00088624FF480700749888500200549C86307
:1036B00007B000BD1C380240243802400000024020
:1036C00000440040E805002034840008780200200F
:1036D0000CB41CB5044604A801900A46009401AB42
:1036E00000A907487844183001F086FD009A0021AF
:1036F000117000285CBF0098001B16BC5DF80CFB25
:103700001BF1FFFF00F10103810704D010F8011B3A
:1037100089B18107FAD10268B2F10131914311F008
:10372000803F04BF50F8042FF6E710F8011B11B1D9
:1037300010F8011BFBE7C01A7047002010B5040009
:10374000002C01D1012030E0A0690028FFD194F8BD
:103750003900002805D1002084F83800200000F04E
:1037600025F8022084F839002068C06830F4005041
:103770002168C860200000F009F92068006930F471
:103780009040216808612068406930F02A00216873
:1037900048612068C06850F400502168C86000206B
:1037A000E063012084F83900002010BD70472DE946
:1037B000F84304000D0016001F005FF0000994F8A4
:1037C00039008146B9F1010F02D0B9F1220F69D158
:1037D000002D02D0B6B2002E01D1012063E094F892
:1037E0003800012801D102205DE0012084F8380072
:1037F0000020E06394F83900222803D1322084F8B5
:10380000390002E0122084F83900A684E684E08CB6
:1038100000282DD0E08C401EE084A068B0F5805FC9
:1038200017D13B0000228021200000F03EF8002844
:1038300001D0032037E0A846B8F80000C005C00D4D
:10384000216848602069002801D1AD1CDFE76D1CAC
:10385000DDE73B0000228021200000F026F8002850
:1038600001D003201FE02878216848606D1CCEE756
:103870003B0000224021200000F017F8002801D072
:10388000032010E094F83900322803D1222084F874
:10389000390002E0012084F83900002084F8380063
:1038A000002000E00220BDE8F2832DE9F041040091
:1038B0000D0016001F005FF00008FDF7C5FA8046F6
:1038C000F6B2002E2FD1206800682840A8425AD0B6
:1038D00017F1010FF7D0002F05D0FDF7B5FAB0EBC7
:1038E00008008742EFD22068C06830F0800021686D
:1038F000C8602068C06830F020002168C860206877
:10390000C06830F480702168C86020684069400851
:10391000400021684861012084F83900002084F8C3
:103920003800032030E0206800682840A8422AD1EF
:1039300017F1010FF7D0002F05D0FDF785FAB0EB96
:1039400008008742EFD22068C06830F0800021680C
:10395000C8602068C06830F020002168C860206816
:10396000C06830F480702168C860206840694008F1
:10397000400021684861012084F83900002084F863
:103980003800032000E00020BDE8F0812DE9F84375
:10399000040000252068006930F44050E1680843C5
:1039A00021680861A0682169084361690843E169E9
:1039B000084305002068C068B449084028432168CE
:1039C000C8602068406930F44070A16908432168EC
:1039D0004861E069B0F5004F40F0AC802068AC4928
:1039E000884253D1FDF782F98146FDF77FF9804681
:1039F000FDF77CF90700FDF779F90600FDF776F988
:103A0000192101FB09F162685200B1FBF2F1642255
:103A1000B1FBF2F1192202FB08F263685B00B2FB12
:103A2000F3F2192303FB07F367687F00B3FBF7F397
:103A30006427B3FBF7F3642707FB1322D20032326B
:103A40006423B2FBF3F212F0F802520012EB011100
:103A5000192202FB06F263685B00B2FBF3F2192342
:103A6000584363685B00B0FBF3F06423B0FBF3F0F2
:103A7000642303FB1020C00032306422B0FBF2F05C
:103A800010F00700401821688860FCE0FDF718F985
:103A90008146FDF715F98046FDF712F90700FDF79D
:103AA0000FF90600FDF70CF9192101FB09F1626815
:103AB0005200B1FBF2F16422B1FBF2F1192202FBD8
:103AC00008F263685B00B2FBF3F2192303FB07F310
:103AD00067687F00B3FBF7F36427B3FBF7F3642752
:103AE00007FB1322D20032326423B2FBF3F212F04E
:103AF000F802520012EB0111192202FB06F2636870
:103B00005B00B2FBF3F21923584363685B00B0FB20
:103B1000F3F06423B0FBF3F0642303FB1020C00038
:103B200032306422B0FBF2F010F007004018216838
:103B30008860A8E020685649884252D1FDF7D6F83F
:103B40008146FDF7D3F88046FDF7D0F80700FDF772
:103B5000CDF80600FDF7CAF8192101FB09F16268EA
:103B60009200B1FBF2F16422B1FBF2F1192202FBE7
:103B700008F263689B00B2FBF3F2192303FB07F31F
:103B80006768BF00B3FBF7F36427B3FBF7F3642761
:103B900007FB1322120132326423B2FBF3F212F05C
:103BA000F00212EB0111192202FB06F263689B007E
:103BB000B2FBF3F21923584363689B00B0FBF3F0A8
:103BC0006423B0FBF3F0642303FB102000013230C8
:103BD0006422B0FBF2F010F00F00401821688860FA
:103BE00051E0FDF76DF88146FDF76AF88046FDF774
:103BF00067F80700FDF764F80600FDF761F8192182
:103C000001FB09F162689200B1FBF2F16422B1FBA1
:103C1000F2F1192202FB08F263689B00B2FBF3F297
:103C2000192303FB07F36768BF00B3FBF7F36427AF
:103C3000B3FBF7F3642707FB13221201323264232C
:103C4000B2FBF3F212F0F00212EB0111192202FBA7
:103C500006F263689B00B2FBF3F2192358436368D2
:103C60009B00B0FBF3F06423B0FBF3F0642303FB91
:103C70001020000132306422B0FBF2F010F00F008F
:103C8000401821688860BDE8F1830000F369FFFFF8
:103C90000038014038B504000D000020286064B2EF
:103CA000002C16D0022C26D01CD3280000F0BCF823
:103CB00001280DD12900012000F026F8012807D1A4
:103CC0002900002000F020F8012801D101201AE08D
:103CD00018E02900002000F017F8012801D1012088
:103CE00011E00FE02900012000F00EF8012801D1B9
:103CF000012008E006E0280000F096F8012801D134
:103D0000012000E0002032BD2DE9F84304000D0041
:103D100000267948142101FB0400C078012801D154
:103D200001207FE0FEF726FE012801D1012079E085
:103D3000002C02D0012C27D04CE0BD206E49087029
:103D4000BA206D49487000206B49887000206A498C
:103D5000C8700020684908710120674948716748A8
:103D60006549886066486449C86000206249086106
:103D700064486549086064486049086000205F49FC
:103D800048605D48286025E0BD205B490875B82083
:103D90005949487501205849887500205649C87509
:103DA0000020554908760120534948765748524922
:103DB000C86153485049086200204F49486254483E
:103DC0005449086053484D49886000204B49C860F9
:103DD000514828602868C0680600306800280DD166
:103DE00014275FF00008D5F8009042463900484695
:103DF00001F0D4FD00202860012013E0286831681C
:103E0000884701280DD114275FF00008D5F80090ED
:103E100042463900484601F0C1FD002028600120DB
:103E200000E00020BDE8F2832DE9F0410400002508
:103E3000314890F82B00012801D1012059E0FEF70C
:103E400099FD012801D1012053E0B1202A4981F8D0
:103E50002800B820284981F829000220264981F845
:103E60002A000020244981F82B000020224981F8F3
:103E70002C000120204981F82D0028481E490863A4
:103E800027481D49486327481B4988632648274916
:103E900008602648194908610020184948612448EB
:103EA00020602068C0680500286800280CD114260E
:103EB0000027D4F800803A003100404601F06EFD42
:103EC00000202060012014E020682968884701282C
:103ED0000CD114260027D4F800803A003100404667
:103EE00001F05CFD00202060012002E0FEF74BFDA8
:103EF0000020BDE8F081000064060020C00600201C
:103F0000E8010020E006002000070020C80600208D
:103F1000E40600200407002078060020D0060020D8
:103F20009801002034010020D80600200807002056
:103F30008C06002070B5040025000026002D01D15C
:103F400001200EE0E8680600B068002801D10120D9
:103F500007E02800B1688847012801D1012000E06E
:103F6000002070BDF8B504000D0026000027002ECB
:103F700001D1012010E0F0680700386A002801D163
:103F8000012009E02900C9B230003A6A90470128AF
:103F900001D1012000E00020F2BDF8B504000D00C1
:103FA0002600002E01D1012017E03069002801D140
:103FB000012012E0002D01D101200EE03078B1285F
:103FC0000AD13769F868002801D1012005E02900ED
:103FD0003000FA68904700E00120F2BD2DE9F04181
:103FE00004000D0016002700002F01D101201DE064
:103FF0003869002801D1012018E0002D01D0002EE1
:1040000001D1012012E03878B1280ED1D7F8108004
:10401000D8F81C00002801D1012007E03200290057
:104020003800D8F81C30984700E00120BDE8F08146
:10403000F8B504000D002600002E01D1012017E084
:104040003069002801D1012012E0002D01D10120AA
:104050000EE03078B1280AD13769B869002801D15B
:10406000012005E029003000BA69904700E00120F6
:10407000F2BDF8B504000D002600002E01D101208C
:1040800014E03069002801D101200FE03078B12818
:104090000BD13769786A002801D1012006E0290098
:1040A000C9B230007A6A904700E00120F2BDF8B54D
:1040B00004000D002600002E01D1012014E030691B
:1040C000002801D101200FE03078B1280BD13769E9
:1040D000786B002801D1012006E02900C9B2300028
:1040E0007A6B904700E00120F2BDF8B504000D00A6
:1040F0002600002E01D1012014E03069002801D1F2
:1041000001200FE03078B1280BD13769B86B002857
:1041100001D1012006E02900C9B23000BA6B9047F6
:1041200000E00120F2BDF8B504000D002600002ECD
:1041300001D1012014E03069002801D101200FE0F5
:104140003078B1280BD13769F86A002801D10120F5
:1041500006E02900C9B23000FA6A904700E0012069
:10416000F2BDF8B504000D002600002E01D101209B
:1041700014E03069002801D101200FE03078B12827
:104180000BD137697869002801D1012006E02900A8
:10419000C9B230007A69904700E00120F2BD2800E2
:1041A00038B504000D000020286064B2002C1DD03A
:1041B000022C2CD022D3032C32D0280000F02EF970
:1041C000012812D12900022000F091F801280CD119
:1041D000280000F02EF8012807D12900012000F066
:1041E00086F8012801D1012022E020E0280000F01B
:1041F00020F8012801D101201AE018E0290001204F
:1042000000F075F8012801D1012011E00FE029002C
:10421000022000F06CF8012801D1012008E006E03E
:10422000280000F0FBF8012801D1012000E0002067
:1042300032BD2DE9F04104000025AC48C0780128CA
:1042400001D1012051E0FEF795FB012801D10120A9
:104250004BE0BC20A5490870BE20A449487000204E
:10426000A24988700020A149C87000209F490871A8
:1042700001209E4948719E489C4988609D489B4901
:10428000C8600020994908619B489C4908609B4888
:10429000974908600020964948609448206020684B
:1042A000C0680500286800280CD114260027D4F81F
:1042B00000803A003100404601F070FB0020206091
:1042C000012012E020682968884701280CD11426B3
:1042D0000027D4F800803A003100404601F05EFB30
:1042E00000202060012000E00020BDE8F0812DE9E1
:1042F000F84304000D0000267C48142101FB040053
:10430000C078012801D1012086E0FEF733FB0128A7
:1043100001D1012080E02000012802D0022827D00E
:1043200052E0BD2071490875BA20704948750120D6
:104330006E49887500206D49C87500206B49087664
:1043400001206A4948766E486849C8616D486749E6
:1043500008620020654948626B486C4908606B48F8
:104360006349886000206249C860694828602BE082
:10437000BD205E4981F82800B8205C4981F82900F9
:1043800002205A4981F82A000020584981F82B0060
:104390000020564981F82C000120544981F82D0055
:1043A0005C485249086357485049486300204F49C8
:1043B000886359485949086058484D4908610020A8
:1043C0004B494861564828602868C0680600306834
:1043D00000280DD114275FF00008D5F80090424660
:1043E0003900484601F0DAFA00202860012013E085
:1043F00028683168884701280DD114275FF000082C
:10440000D5F8009042463900484601F0C7FA00202E
:104410002860012000E00020BDE8F2832DE9F04192
:1044200004000025314890F83F00012801D1012007
:1044300059E0FEF79FFA012801D1012053E0B12095
:104440002A4981F83C00B820284981F83D00032022
:10445000264981F83E000020244981F83F000020D1
:10446000224981F840000120204981F841002D486F
:104470001E4948642C481D4988642C481B49C8645F
:104480002B482C4908602B4819498861002018499D
:10449000C861294820602068C06805002868002895
:1044A0000CD114260027D4F800803A003100404691
:1044B00001F074FA00202060012014E020682968CF
:1044C000884701280CD114260027D4F800803A0030
:1044D0003100404601F062FA00202060012002E035
:1044E000FEF751FA0020BDE8F0810000F80400203A
:1044F000A006002070010020F00600200C0700201C
:10450000A806002010020020E0060020100700206E
:104510000C050020B0060020E4060020140700204F
:1045200020050020B8060020C00100203401002032
:10453000D8060020180700203405002070B50400BC
:1045400025000026002D01D101200EE0E8680600BC
:10455000B068002801D1012007E02800B168884731
:10456000012801D1012000E0002070BD4100090EAA
:104570007F3915D4D1F11F0114D4400007D2C001F6
:1045800040F00040C84048BF6FF000407047C00195
:1045900040F00040C8404CBF4FF0004040427047E0
:1045A0000020704700424FF0004058BFC0437047A2
:1045B0004FF0807C1CEB400F94BF1CEB410F05E0DB
:1045C00040EA010C5FEA4C0C01D28142704718BFEF
:1045D0008842704790EA010F44BF81F0004101F02A
:1045E00019BA00BF431A4FF000423EBF5340C01AF1
:1045F000C91800BFD3095FEAD05C13EB400F34BF8A
:10460000B3EB410F40E07CEBD1530CD342EA0121E4
:1046100022D8D1EB402009D3400A28BF5FEA5001DD
:1046200040EBCC507047401A15D04002B0FA80F2EF
:10463000521C9040400A4FEA3C23B3EB026384BF14
:1046400000EB730007E040F400001A16DB07C2F12C
:104650000102D04018437047182BFCDC31FA03F2FA
:1046600002FA03F3591A38BF42F00102D2EB40209C
:104670003CBF4000ACF1010C5FEACC5CC20572F1BA
:1046800000414CEB5020704713EB400F0FD24B0012
:1046900009D0ACEBD153022B03DB4902172BDDDD34
:1046A00070479143401A4300D5D10020704713EB67
:1046B000410FD0D36FF0000070470000010040F1BF
:1046C0000780F446404200F003F851F00041604793
:1046D00009D0B0FA80F18840C91CC1F58461090590
:1046E00001EBD021400570471248006850F48070FB
:1046F0001049086010480068104908400E490860D9
:104700000C4800680E4908400A49086009480068DA
:1047100030F48020074908600748006830F47D00C5
:10472000054908600020074908605FF000600649FD
:104730000860704700380240083802400CC0FF880B
:10474000FEFFFEEE0C38024008ED00E00000000025
:104750002DE9FF4D86B0DDE90801CDE90401079898
:10476000C0F30A5040F2FF71884208D10798002731
:10477000000305BF069800280224012412E0012846
:1047800007DA06A801F080F9012802DB00270024DF
:1047900008E0079A40F2FE3161F31E520792471A71
:1047A0004FF0FF34002104A801F08FF9054612985C
:1047B00010B112990020088035B9DDE908230020E6
:1047C000002101F0C1F911D0002C11D53FB2012F09
:1047D00013D1DDE906230020CA4901F0B5F905D05F
:1047E000012D0AD1C84901F0AFF92ED1C749BBE16B
:1047F000022C04D1DDE90601B6E1012D59DB022DC1
:1048000008BFDDE9080100F0AF81012C1BD107983A
:104810000028099802D4002848D532E0002809D49D
:10482000002D43D14FF0FF3104A801F04EF90028CC
:104830003CD538E02DBB4FF0FF3104A801F045F91D
:1048400000281ED519E0012D09D1099800283FB292
:1048500002D4012F2ADA14E0012F12DA26E0099897
:10486000002811D46DB94FF0FF3104A801F02DF9E3
:10487000002844BF0798002803D500204FF00041CE
:1048800072E1002000216FE101F06EF92221016048
:1048900065B94FF0FF3104A801F017F9002844BFB3
:1048A0000798002802D5002099495DE10020994928
:1048B0005AE10798002848BF002D08D501F054F9A7
:1048C000212101604FF0FF306FF000414CE1DDE944
:1048D00006010022002301F04DF938BFADF8042095
:1048E0000AD381F00041CDE906014FF0FF3104A861
:1048F00001F0EBF8ADF80400012F13D1DDE906015A
:10490000854A864B01F04EF90CD2DDE906230024DE
:1049100020464FF0804100F06BFBCDE906010026F8
:104920007A4D1BE0DDE9062300207D49754D00F03E
:104930005FFB00222B4601F04DF900F033FCA0F1A3
:1049400020063046FFF7BAFE0022764B00F050FBFF
:1049500000222B4601F03EF904460D460FF22020BE
:1049600000EB461000902246DDE906012B4601F0DF
:10497000A5F982468B46DDE9060122462B4601F069
:1049800029F902460B465046594601F057FACDE93F
:104990000401DDE9042300F02BFBCDE906AB06465C
:1049A000884601F077FB3246434600F021FBDDE903
:1049B000062301F083F90646884600205349224623
:1049C0002B4601F07BF900224FF0804300F010FBF2
:1049D0003246434601F0FEF8DDE9042300F008FB0F
:1049E00002460B46DDE9060101F0F4F804460D46E7
:1049F0004D4A4E4B01F022FACDE904013846FFF74B
:104A00005DFE009A07468B46D2E900013A465B46B6
:104A100001F0E0F8DDE9042301F0DCF8CDE9040160
:104A2000DDE9082300F0E4FA0022414BCDE9020160
:104A300001F0B8F8C0F0808001223E4B01F09AF8F6
:104A400040F27E800022002301F0ACF8DDE9022371
:104A500039BF00202C4900202A4901F0BBF800F0A2
:104A6000A1FB0646DDE9080122462B4600F0C0FA0C
:104A7000CDE90201009A2C4C2C4DD2E9020190465E
:104A8000D8E9042301F0A6F8DDE9082300F0B0FA24
:104A900022462B4600F0ACFADDE9022301F09AF839
:104AA000CDE90201DDF800803A46D8E900015B4615
:104AB00001F090F8DDE9082300F09AFA07468B46EA
:104AC0003046FFF7FBFD02460B463846594601F0DB
:104AD000F5F822462B4600F08BFADDE9022301F0BF
:104AE00079F8CDE90201129808B1068000260096F7
:104AF0000022064B02A801F023FBE8B101281FD0D9
:104B00002AE000BF0000E03F0000E0BF0000F03FEF
:104B10000000F0FF0000F07FCD3B7F669EA0E63FE7
:104B2000000050400000903FEF39FAFE422EE63F71
:104B30000000E0C00000E0400020CDE9020007E0F6
:104B40000020014902E000BF0000F07FCDE9020132
:104B500001F00AF822210160BDF904000028DDE916
:104B6000020118BF81F000410AB0BDE8F08D10B518
:104B700082B000240094FFF7EBFD1CBD0000000094
:104B8000000000000000F0BF0000000000000080F6
:104B90000000000000000080000000000000000095
:104BA000000000C05294EEBF00000048204E51BEED
:104BB000000000F86467BCBC0000000000000000BA
:104BC000000000208133EDBF00000080B3DB14BE85
:104BD000000000506706A3BC0000000000000000B9
:104BE000000000D0E9DCEBBF00000008C39259BE12
:104BF00000000080B0D3B8BC00000000000000003E
:104C000000000070F98FEABF000000C0A51028BEA8
:104C1000000000E8BFC0B0BC0000000000000000C1
:104C200000000070284CE9BF00000060134B42BE3A
:104C3000000000C03D20B8BC0000000000000000E3
:104C400000000050FA10E8BF000000C05FF62BBE65
:104C5000000000905C71A7BC000000000000000094
:104C600000000020FCDDE6BF000000C0F8F154BEEB
:104C700000000018E9F6B9BC0000000000000000C8
:104C8000000000D0C3B2E5BF00000070E43254BEA3
:104C900000000050DB06B4BC000000000000000073
:104CA00000000010EF8EE4BF00000020F36252BE4F
:104CB000000000C02A879ABC00000000000000002D
:104CC000000000B02272E3BF000000F0E8E056BE32
:104CD00000000028352DBDBC0000000000000000D1
:104CE000000000000A5CE2BF000000B0FA8E41BE86
:104CF00000000040AE6FBDBC0000000000000000DE
:104D000000000000564CE1BF000000F015CD5FBE72
:104D100000000000141C90BC000000000000000017
:104D200000000040BD42E0BF00000030F93457BE33
:104D3000000000E06C1E93BC0000000000000000BA
:104D4000000000E0F57DDEBF000000B08A535EBECB
:104D500000000080DA77AABC00000000000000001C
:104D6000000000C09D81DCBF00000000FFA226BE45
:104D70000000006057E2B0BC00000000000000002E
:104D800000000060F98FDABF000000580A8151BEB0
:104D9000000000F05F60B8BC0000000000000000F0
:104DA0000000000098A8D8BF000000607A7F45BED0
:104DB000000000D05433A3BC00000000000000003D
:104DC000000000600FCBD6BF000000D091CB40BEEA
:104DD000000000406D1BA0BC0000000000000000AF
:104DE000000000A0FBF6D4BF00000098C5CE52BE64
:104DF000000000003A397EBC000000000000000006
:104E0000000000E0FE2BD3BF0000004073872BBEE4
:104E100000000000926879BC000000000000000063
:104E200000000040C069D1BF00000058F16353BECC
:104E300000000080438D7CBC0000000000000000EA
:104E400000000080D85FCFBF000000181F8354BE51
:104E5000000000B03F42A2BC0000000000000000C3
:104E60000000008067FCCBBF00000060FAFF53BE6B
:104E700000000050E00DB8BC000000000000000081
:104E80000000000098A8C8BF000000607A7F35BE0F
:104E9000000000C0543393BC00000000000000007C
:104EA00000000000DC63C5BF00000058D6FF54BE00
:104EB00000000000396490BC000000000000000009
:104EC000000000C0AD2DC2BF00000080A45915BE77
:104ED000000000E0484BABBC0000000000000000F8
:104EE000000000801A0BBEBF00000050BF3C5ABE3D
:104EF000000000A0B364B6BC000000000000000089
:104F00000000008004D6B7BF00000040BBCF36BE13
:104F10000000008076CEA8BC000000000000000069
:104F20000000008032BBB1BF000000402A0043BE39
:104F300000000028C60CBDBC0000000000000000FE
:104F4000000000009473A7BF000000182B3B59BE5F
:104F5000000000C0E55DA5BC0000000000000000EE
:104F600000000000EE4397BF000000A0E6C340BE73
:104F700000000020958DB5BC00000000000000007E
:104F80000000000000000080000000000000008021
:104F90000000000000000080000000000000000091
:104FA0005FF0FF0C1CEAD05114BF614506E0C11050
:104FB000400721F0E04101F16051704779B900F0FC
:104FC000004100020AD0B0FA80FC00FA0CF001F1B6
:104FD0006051A1EB0C5101EBD0214005704741021B
:104FE0000CBF40F4E0016FF00001002070470000AA
:104FF000B0B581EA030C0CF0004C40F2FF7515EAE5
:1050000011541DBF15EA1357AC42AF4239E0E41901
:1050100023EA455343F48013C90241F0004141EAB9
:10502000505EC7021100A7FB020200284FF00000EB
:10503000EEFB01204FF00001E3FB072118BF42F017
:105040000102401800214941E3FB0E01A4F58064F0
:105050000F0302D252004041494154F101046CDD7A
:10506000470872F1004250F1000051EB0451A1F5E4
:1050700080115CBF41EA0C01B0BD4CEA0551002033
:10508000B0BD05EA1357AC4214BFAF4241E050EA4D
:10509000410E1CBF52EA430E02E061460020B0BD43
:1050A00024423C441BD15FEA070EF6D0090302BF3D
:1050B00001460020AEF1140EB1FA81F7AEEB070401
:1050C00001FA07FE0C37C7F1200100FA07F7C840C4
:1050D0004EEA000E23EA455343F48013A2E733F06F
:1050E0000043B3FA83F704BFB2FA82FE77440B3F62
:1050F000E41BB7F1200E2FBF02FA0EF3BB40C7F13D
:10510000200E22FA0EFE38BF43EA0E03BA40641C9A
:1051100082E750EA410E14BF52EA430E6FF00001DD
:105120004FF4001717EB430F8ABF194617EB410FD7
:10513000B5E74CEA05510020B0BDD4F10104B4F14B
:1051400020070FDAC4F12007520828BF42F00102FD
:1051500010FA07F501FA07F7E1BF2A43E0403843A8
:10516000E1400FE0352C98DCC7F1200452EA400200
:1051700020FA07F218BF42F0010231FA07F0A1400D
:105180000A43002172F1004250F1000051EB0C0182
:10519000B0BD83B5002100A800F097FCDDE9000157
:1051A00003B000BDF446400D40EAC120490006D2DC
:1051B00000F00EF8004248BF6FF00040604700F07A
:1051C00007F84FF0004188428CBF084640426047D4
:1051D00040F00040490DA1F58061491C05D4D1F192
:1051E0001F0154BFC840C01770474FF00000704700
:1051F000002201F003B900002DE9F04F80460FF2C4
:10520000847095B092461D46D0E90023CDE9132362
:1052100003AE00200391B0610DF1340900E0A24417
:105220000020ADF8020013AB4FF0FF3251460DF1F4
:10523000020001F0FCF80446012C05DA9AF800009F
:10524000441EA441E443E40FBDF8020025280CBF2E
:10525000A4F1010BA346BBF1010F0EDB574617F873
:10526000011B0398C0470028039000F0CE81B0696D
:10527000401CBBF1010BB061F1D1BDF80200252843
:1052800004D10020F0603061706105E00028C6D1D3
:10529000B069BCE140F001001AF8011F2029F9D0E3
:1052A00023290DD02B2904D02D2906D030290AD04E
:1052B0000CE040F0020080B2EEE740F00400FAE7B4
:1052C00040F00800F7E740F01000F4E72A290FD17A
:1052D0002968296051F8042B2960002A326204D51C
:1052E000514240F00400316280B20AF1010A15E037
:1052F000002131620CE0316A6FF00043994205D021
:1053000001EB810302EB4301303931620AF1010AFA
:105310009AF80020A2F130010A29ECD39AF8001083
:105320002E2903D04FF0FF31F16122E01AF8011F5E
:105330002A2908D1296829600AF1010A51F8042BA9
:105340002960F26115E00021F1610CE0F1696FF074
:105350000043994205D001EB810302EB4301303950
:10536000F1610AF1010A9AF80020A2F130010A293C
:10537000ECD3B0840FF214609AF8001001F068F8D2
:1053800008B11AF8010B8DF832009DF83200682838
:1053900004BF9AF80000682804D162208DF832001A
:1053A0000AF1010A0DA8B0601AF8014B252C13D0A0
:1053B000582C40D0632C00F09880642C18BF692CC6
:1053C00071D06F2C37D0702C2BD0732C0AD0752C49
:1053D00018BF782C2FD0ABE00120F06025208DF88D
:1053E0003400AFE09DF832006C282868286014D0A3
:1053F00050F8044B28607460F769002F04D52046EC
:10540000FEF780F9074606E03A460021204601F003
:105410002BF800B1071B376194E050F8042B28608B
:105420007FE02868286050F8041B286002910DA8CE
:105430007060782155E09DF832006C280DD07128FD
:1054400018BF6A2809D12868C01D20F007022A6009
:10545000D2E9000108322A6004E02968296051F885
:10546000040B296002909DF83200682802D102A83E
:10547000008803E0622802D102A80078029096F822
:105480002400000728D5029830B344F02000782883
:1054900022D1F068302100F80910401C411CF16055
:1054A00000F8094018E09DF83200294600F0B2F8F3
:1054B0000028029002D5F0682D2109E0B08C810708
:1054C00002D5F0682B2103E0C00705D5F068202144
:1054D00000F80910401CF0600DA8F1680818706011
:1054E000214602A800F0CFF92CE09DF832006C288C
:1054F00009D00120F0602868286050F8041B28605B
:105500008DF834101EE02868286001AA50F8041BAA
:105510002860ADF804100020ADF806004FF0FF3011
:10552000F06102A9404600F09BF800280AD56CE023
:105530000120F06025208DF834001CB10220F060BD
:1055400089F80140306AF168401A7169401A31697E
:10555000441A96F8240040070FD420208DF800004C
:10556000002708E0012300AA02A9404600F0F2F952
:1055700000284AD17F1CA742F4DBF7680DF1340BF9
:105580000AE01BF8011B0398C047002803903CD099
:10559000B069401CB0617F1E002FF2D130208DF821
:1055A00000004FF0000B776908E0012300AA02A970
:1055B000404600F0CFF940BB0BF1010BBB45F4DBDB
:1055C0003769D6F804B009E01BF8011B0398C047FF
:1055D0000390D0B1B069401CB0617F1E002FF3D1A1
:1055E00096F8240040077FF51BAE20208DF80000C0
:1055F00000E07F1CA742BFF613AE012300AA02A958
:10560000404600F0A7F90028F3D04FF0FF3015B066
:10561000BDE8F08F622815D068280CD06C2818BF20
:10562000742816D07A2814D10A680A6052F8040B3C
:105630000A60002170470A680A6052F8040B0A6089
:1056400000B20BE00A680A6052F8040B0A6040B22C
:1056500004E00A680A6052F8040B0A60C117704738
:105660002DE9F44F0D4694B0D5F820A0BAF1000F03
:10567000804648BF6FF0004A00F022FF696A401878
:1056800001900FF21030D0E90023CDE9022395F804
:105690002800400702D40198412805D240200DF18E
:1056A00010090190002607E000F010FF5FEA0009F2
:1056B000F8D1AAE7AAEB040ABAF1010FC0F28B8075
:1056C0001498018802AA0DF1010000F057FF00288C
:1056D000044600F18E801498008810B9641E00F111
:1056E0008880A24577DB286901992218914260D20F
:1056F0006E624042A969401A6969461A95F8280005
:1057000040070FD420208DF80000002708E0012377
:1057100000AA2946404600F01DF9002869D17F1CE7
:10572000B742F4DB2F69CB460AE01BF8011B68681F
:10573000C047002868605CD0E869401CE8617F1EB3
:10574000002FF2D130208DF800004FF0000BAF6930
:1057500009E0012300AA2946404600F0FBF8002892
:1057600047D10BF1010BBB45F3DB6F69D5F808B0EE
:1057700009E01BF8011B6868C0476860C8B3E869A6
:10578000401CE8617F1E002FF3D195F828004007E8
:105790000DD520208DF8000007E0012300AA29463E
:1057A000404600F0D7F820BB7F1CB742F5DB00264F
:1057B0002E61224628690DF10101484400F0ECFEFB
:1057C0002869201828611498801C1490801E008875
:1057D00000287FF46FAF686A2969401AA969401AE6
:1057E0006969A0EB010A95F82800400710D400244D
:1057F0000CE04FF0FF363EE068682021C0470028EB
:105800006860F6D0E869401CE861641C5445F3DB2D
:105810002B694A462946404600F09CF80028E8D10A
:10582000AC69002709E068683021C047002868603B
:10583000DFD0E869401CE8617F1CA742F3DB6B699D
:10584000AA682946404600F085F80028D1D195F88D
:10585000280040070DD5002409E068682021C047D2
:1058600000286860C5D0E869401CE861641C5445A4
:10587000F3DB2E616E6204A881451CBF484600F030
:10588000C7FE3046C3E6F0B4C2686F2908BF0824DB
:1058900005D041F02003782B14BF0A2410241823CC
:1058A0000668642918BF6929374602D1002E48BF0F
:1058B0007F425FB9056A4DB9082C27D190F82810AE
:1058C000090723D530211723D1751FE0B7FBF4F664
:1058D00004FB16773037FFB25D1E3A2FA4BFA1F14B
:1058E000510C6744AF542B46370003D085689E188F
:1058F000B542EBD3082C09D190F82810090705D53B
:10590000995C302902D05B1E302199549A1882602C
:10591000C3F11801026A4161914208DA511A8161AA
:105920004FF6EF72018D11400185F0BC7047002ADF
:105930000ED590F8282002F01402102A08D1426AED
:105940000369D21A8369D21A531A012BA8BF836143
:10595000F0BC7047F8B504460D4616461F460020B9
:1059600004E0E869401CE8617F1E002047B116F89A
:10597000011B6868A04700286860F2D14FF0FF3033
:10598000F2BD00000000000000000000686C747AA6
:105990004C000000000000000000000062F30F2235
:1059A00062F31F42401810F0030308D0C91A1FD336
:1059B000DB0748BF00F8012D28BF20F8022D130097
:1059C00030B414461546103928BF20E93C00FAD8F7
:1059D000490728BF20E90C0048BF40F8042D890082
:1059E00028BF20F8022D48BF00F8012D30BC7047B9
:1059F000C91818BF00F8012DCB0728BF00F8012DEA
:105A00007047000090EA010F44BF81F00041FEF7AB
:105A1000E9BD00BF421A3CBF801A89184FF0004C04
:105A2000C0F3C752FF2A24D0C1F3C75313B3D21A0D
:105A3000D2F1190327DD4CEA01214CFA03F321EAE4
:105A40000303D140C20D4CEA0020401834BF20EAC5
:105A50000C004CEA5000D20553EA006373EB0C0CC7
:105A600052EB1020420012F1807F38BF7047C00D0A
:105A7000C0057047490212BF9A4200EB5120F8E777
:105A8000D2F11703D9D5704730B4436803F0004210
:105A900001211B031B0B436004BF0368002B08D1CB
:105AA0000DE00368DD0F45EA440444605B000360D9
:105AB000491E4468E302F4D523031B0B436043688B
:105AC0001A434260084630BC70474268C2F30A522B
:105AD00040F2FF739A4209D14168090304BF00688C
