:020000040800F2
:10000000900E002071AA00085DAA00085FAA0008EF
:1000100095AA000899AA00089DAA000800000000FF
:10002000000000000000000000000000A1AA00087D
:1000300061AA000800000000A5AA000863AA000841
:10004000A9AA0008ADAA0008B1AA0008B5AA00082C
:10005000B9AA0008BDAA0008C1AA0008C5AA0008DC
:10006000C9AA0008CDAA0008D1AA0008D5AA00088C
:10007000D9AA0008DDAA0008E1AA0008E5AA00083C
:10008000E9AA0008EDAA0008F1AA0008F5AA0008EC
:10009000F9AA0008FDAA000801AB000805AB00089A
:1000A00009AB00080DAB000811AB000815AB000848
:1000B00019AB00081DAB000821AB000825AB0008F8
:1000C00029AB00082DAB000831AB000835AB0008A8
:1000D00039AB00083DAB000841AB000845AB000858
:1000E00067AA000849AB00084DAB000851AB0008F7
:1000F00055AB000859AB00085DAB000861AB0008C8
:1001000065AB000869AB00086DAB000871AB000877
:1001100075AB000879AB00087DAB000881AB000827
:1001200085AB000889AB00088DAB000891AB0008D7
:1001300095AB000899AB00089DAB0008A1AB000887
:10014000A5AB0008A9AB0008ADAB0008B1AB000837
:10015000B5AB0008B9AB0008BDAB0008C1AB0008E7
:10016000C5AB0008C9AB0008CDAB0008D1AB000897
:10017000D5AB0008D9AB0008DDAB000800000000DB
:10018000E1AB0008E5AB000838B50FF2500100F014
:1001900027F8012821D00421204601F0C3F970B1CD
:1001A0004021204601F0D0F948B10021204601F05D
:1001B000D8F820B100F062FA01F048F908B901203E
:1001C00032BD0021204600F0B9F9012805D000A970
:1001D000204600F007FA00F067FA32BD0101010085
:1001E0000A68044600A80260A0680568204600F07E
:1001F000C7BC38B50446FFF7F7FF012827D02046D3
:1002000000F0D1FD012822D0204601F001F801289C
:100210001DD0204600F011FE012818D0204600F025
:1002200023FF012813D0204600F08AFF01280ED0BA
:10023000204600F062FE012809D0204600F0A2FE10
:10024000012804D0204600F012F800F03FFA32BD39
:1002500010B504462079012807D000F04CFA00F0D0
:10026000ADFC012802D001202071002010BD10B586
:100270000446207978B1A0680168204600F046F86D
:10028000012808D00021204601F0E0F808B901203B
:1002900010BD0020207110BD00F06EBC00F070BCDD
:1002A0003EB500F081FA00F080FC012805D000A9DD
:1002B000204600F009F800F049FA3EBD1CB50C4696
:1002C00000A900F072FC7BE210B582B00C4600A9D8
:1002D00001F0B7F8B8B19DF8000030B104280DD096
:1002E000082805D00C2806D00BE09FED860A57E0C1
:1002F0009FED850AFBE79FED850AF8E79FED840AED
:10030000F5E700F0FAF8012016BD000010B582B044
:100310000C4600A901F0A6F808B9012016BD9DF809
:100320000000B0B1102817D0202818D0302819D0DC
:1003300040281AD050281BD060281CD070281DD00F
:1003400080281ED090281FD0A02820D0B02821D0EF
:1003500023E09FED700A23E0B2EE0A0AFBE7B3EE5A
:100360000A0AF8E79FED6C0AF5E79FED6C0AF2E7E1
:100370009FED6B0AEFE79FED6B0AECE79FED6A0AD2
:10038000E9E79FED6A0AE6E79FED690AE3E79FED7B
:10039000690AE0E79FED680ADDE700F0AEF8BCE728
:1003A00084ED000A002016BD80B50279012A13D120
:1003B00061B1022908D009D3042901D002D309E090
:1003C000402104E0302102E0202100E0102101F072
:1003D0003DF8A8B9012002BD8068006869B1022912
:1003E00008D00AD3042901D002D3F3E74B4906E031
:1003F000494904E0DFF8581901E0DFF84C1C0160BE
:10040000002002BD80B50179012904D100F0D6FB9E
:1004100001284FD102BD00F0C3FA48BFB2EE0A0A6C
:1004200046D400F037FB48BFB3EE0A0A40D4DFEDF4
:10043000960A00F031FB48BF9FED370A38D4DFED54
:10044000930A00F029FB48BF9FED340A30D4DFED5A
:10045000900A00F021FB48BF9FED310A28D4DFED60
:100460008D0A00F019FB48BF9FED2E0A20D4DFED66
:100470008A0A00F011FB48BF9FED2B0A18D4DFED6C
:10048000870A00F009FB48BF9FED280A10D4DFED72
:10049000840A00F001FB48BF9FED250A08D4DFED78
:1004A000810A00F0F9FA4CBF9FED220A9FED220A63
:1004B00080ED000A002002BD10B582B00C4600A9F4
:1004C00000F0BFFFB8B19DF8000030B104280DD096
:1004D000082805D00C2806D00BE0B0EE000A5FE734
:1004E000B1EE000AFBE7B2EE000AF8E7B3EE000A4D
:1004F000F5E700F002F8012016BDDFF8500B206090
:100500007047000023DB793D23DBF93D23DB793E97
:1005100023DBF93E00000000000050420000D04202
:10052000000050430000D043004050440080CF44BE
:10053000002050450020D0450048504680B519B1F4
:10054000022904D001D304E01CE00821FCE70C21BF
:10055000FAE7012002BD0000DFEDB80A80B500F027
:100560009BFA48BF00210DD4DFEDB50A00F094FAE4
:1005700048BF082106D4DFEDB30A00F08DFA4CBF66
:100580000C21042100F04CFF401E8041C00F02BD31
:1005900038B50D4604460DF1020101F015F850B1D1
:1005A0000DF10101204601F028F820B100A92046F4
:1005B00001F03AF808B9012032BD9DF80200082880
:1005C0000CBF0120002028709DF8010010280CBFEE
:1005D0000120002068709DF8000020280CBF012039
:1005E0000020A0E238B50D460446287801280CBF4B
:1005F00008210021204600F0D2FF40B16878012890
:100600000CBF10210021204600F0E2FF08B90120B4
:1006100032BDA87801280CBF20210021204600F01F
:10062000F1FFA2E238B50FF25001FFF7D9FD012822
:1006300021D00421204600F075FF70B140212046F2
:1006400000F082FF48B10021204600F08AFE20B170
:1006500000F014F800F044FF08B9012032BD022177
:10066000204600F0DAF9012805D000A9204600F064
:100670005DFA00F019F832BD01010100DFF82C0429
:100680002860002120467047010050420100D042FE
:10069000010050430100D043014050440180CF4449
:1006A000012050450120D045012802D00120E070F2
:1006B0000020704738B50446FFF796FD012804D0A6
:1006C000204600F01EF800F001F832BD012802D0EB
:1006D00000202860E070704710B50446207901289A
:1006E00007D000F008F800F0E5FA012802D0012058
:1006F0002071002010BDA068006890ED000A20461F
:10070000704710B50446207978B1A068016820468A
:1007100000F09AF8012808D00021204600F0E0FE01
:1007200008B9012010BD0020207110BD24E227E28D
:100730003EB500F039F800F097FA012805D000A97D
:10074000204600F049F800F001F83EBD01282AD00B
:10075000BDF90400DDED000A00EE100AB8EEC00A93
:1007600020EE200ABDEEC00A85ED000ABDF90600A4
:10077000DDED000A00EE100AB8EEC00A20EE200AF5
:10078000BDEEC00A85ED010ABDF90800DDED000AE5
:1007900000EE100AB8EEC00A20EE200ABDEEC00A34
:1007A00085ED020A002070470446002000900D46A7
:1007B00001A9204670471CB50C4600A900F054FA68
:1007C000012808D0BDF80000208000A84188618081
:1007D0008088A080002016BD38B50C4605460DF176
:1007E000010100F050FE68B19DF80100022804D11B
:1007F000DFF860082060002032BD00A9284600F024
:1008000062FE08B9012032BD9DF8000030B1042815
:1008100007D0082808D00C2809D00BE0DFF83808EA
:10082000E8E7DFF83808E5E7DFF83408E2E7DFF863
:100830003408DFE7FFF761FEE4E700000100004055
:10084000010080400100004110B582B00C4600A9B3
:1008500000F05BFE08B9012016BD9DF8000080B1D4
:10086000102811D0202812D0302813D0402814D0BE
:10087000502815D0602816D0702817D0802818D09E
:100880001AE09FED880A8BE5B2EE0A0AFBE7B3EEA9
:100890000A0AF8E79FED840AF5E79FED840AF2E77C
:1008A0009FED830AEFE79FED830AECE79FED820A55
:1008B000E9E79FED820AE6E7FFF71FFECBE780B589
:1008C0000279012A13D161B1022908D009D3042980
:1008D00001D002D309E0402104E0302102E02021D0
:1008E00000E0102100F0FCFDA8B9012002BD8068E5
:1008F000006869B1022908D00AD3042901D002D3C3
:10090000F3E76A4906E0684904E0DFF8441401E0CF
:10091000DFF834170160002002BD000080B50179C6
:10092000012904D100F0C6F9012837D102BD00F039
:1009300037F848BFB2EE0A0A2ED400F0ABF848BF31
:10094000B3EE0A0A28D4DFED5E0A00F0A5F848BF2E
:100950009FED550A20D4DFED5B0A00F09DF848BFFB
:100960009FED520A18D4DFED580A00F095F848BF01
:100970009FED4F0A10D4DFED550A00F08DF848BF07
:100980009FED4C0A08D4DFED520A00F085F84CBF09
:100990009FED490A9FED490A80ED000A002002BD43
:1009A00080680068DFEDA90AB4EE600AF1EE10FA83
:1009B0007047000038B50D46044600A900F063FDFD
:1009C00028B10DF10101204600F07DFD08B901209C
:1009D00032BD9DF80000022805D19FED9D0A85EDEE
:1009E000000A002032BD9DF8010030B1042807D074
:1009F000082808D00C2809D00BE09FED960AEEE7F6
:100A00009FED950AEBE79FED950AE8E79FED940AC5
:100A1000E5E7DFF838062860D9E780B519B1022983
:100A200006D003D306E000F033FDADE50421FAE77C
:100A30000C21F8E7012002BD38B5DFED8A0A00F08D
:100A40002BF8044605D5022100F011FD00B300206B
:100A500032BDDFEDB20A00F01FF848BF00250DD40B
:100A6000DFEDAF0A00F018F848BF042506D4DFED2B
:100A7000AD0A00F011F84CBF08250C25002100F04C
:100A8000F6FC28B12946204600F002FD0028DED100
:100A9000012032BDDFEDA40AB4EE600AF1EE10FAD7
:100AA0007047000000000000000050420000D042EB
:100AB000000050430000D043004050440080CF4429
:100AC000010050420100D042010050430100D043D8
:100AD0000140504438B50D4604460DF1020100F0C6
:100AE000D6FD50B10DF10101204600F0E6FD20B128
:100AF00000A9204600F0F6FD08B9012032BD9DF89E
:100B0000020008280CBF0120002028709DF8010079
:100B100010280CBF0120002068709DF800002028DC
:100B20000CBF01200020A870002032BD38B50D4652
:100B30000446287801280CBF08210021204600F037
:100B40009AFD40B1687801280CBF10210021204691
:100B500000F0A1FD08B9012032BDA87801280CBF22
:100B600020210021204600F0B1FD00F001F832BD47
:100B7000401E8041C00F704780B500F049FC03E57E
:100B800010B582B0044600208DF8000000A9204670
:100B9000FFF7F2FF012807D09DF800002178884276
:100BA00001D0012016BD002016BD1CB500F07AF85A
:100BB00000F0A0FF08B9012016BD5DE0DFED230ABB
:100BC00080B5FFF769FF48BF10213CD4FFF762FFF3
:100BD00048BF202137D4DFED550AFFF75DFF48BF3E
:100BE000302130D4DFED520AFFF756FF48BF4021D5
:100BF00029D4DFED500AFFF74FFF48BF502122D420
:100C0000DFED4D0AFFF748FF48BF60211BD4DFED41
:100C10004B0AFFF741FF48BF702114D4DFED480AAB
:100C2000FFF73AFF48BF80210DD4DFED460AFFF7FA
:100C300033FF48BF902106D4DFED430AFFF72CFFB6
:100C40004CBFA021B02100F001FC9DE40100504107
:100C50000000FA42000075430000FA4300007A44A5
:100C60000000FA440100FA421CB500F01BF800F045
:100C70002CFF08B9012016BD00A841789DF800207E
:100C8000090251FA82F1218082789DF8031002EB6B
:100C90000121618000799DF8051000EB0120A08002
:100CA000002016BD0C4600A9002200230CC100A99B
:100CB00070470000DFED250A80B5FFF7EDFE48BF65
:100CC000102127D4FFF7E6FE48BF202122D4DFED14
:100CD000170AFFF7E1FE48BF30211BD4DFED140AED
:100CE000FFF7DAFE48BF402114D4DFED120AFFF708
:100CF000D3FE48BF50210DD4DFED0F0AFFF7CCFE25
:100D000048BF602106D4DFED0D0AFFF7C5FE4CBFDA
:100D10007021802100F0E4FB36E4000001007543FF
:100D20000100FA4301007A440100D0410100504221
:100D30000100D042010050430100D0430140504423
:100D40000180CF44012050450120D0450100504191
:100D50000000D04110B500F071F9012822D000F058
:100D60000DF988B10621204600F034FE60B100F094
:100D700001F948B10021204600F0F7FD20B1002123
:100D8000204600F0E5FD08B9012010BD03212046F2
:100D900000F02BF8012805D01021204600F06BFE52
:100DA000FFF7E6FE10BD10B50446002100F063FE1B
:100DB00020B10021204600F00DFE08B9012010BD31
:100DC0000021204600F0F7FDA7E010B582B00C46E8
:100DD00000A900F0A0FC30B19DF8000010B120285F
:100DE00001D1012052E0012016BD80B500F0E3FDE5
:100DF000FFF7CABB10B500F07BF8012818D000F04F
:100E0000BDF868B11721204600F054F801280FD032
:100E100000F00FF820B14021204600F008FD08B98D
:100E2000012010BD8021204600F0CCFAFFF7A0FE83
:100E300010BD0421204600F05ABC10B50446002124
:100E400000F0C0FA40B10021204600F0F0FC18B1DB
:100E50000021FFF7EFFF08B9012010BD0021204657
:100E600000F028F8012818BF002010BD10B582B08E
:100E70000C4600A900F097FC30B19DF8000010B1BD
:100E8000102801D1012001E0012016BD20700020B2
:100E900016BD80B500F04DFEFFF776BB80B5022190
:100EA00000F0D4FBFFF770BB80B5002100F0CEFB53
:100EB000FFF76ABB80B500F04CFEFFF765BB10B5CD
:100EC00000F016F8012812D000F058F838B1FFF7FA
:100ED000B0FF20B12021204600F097FC08B9012086
:100EE00010BD0221204600F0A2FDFFF741FE10BD1B
:100EF0000446B3EE0A0AFFF785BA10B5044600218E
:100F000000F095FD20B10021204600F07EFC08B9DC
:100F1000012010BD0021FFF78DFF401E8041C00F52
:100F200010BD10B582B00C4600A900F045FC30B1F0
:100F30009DF8000010B1202801D10120A6E7012072
:100F400016BD10B500F07AF8012812D000F016F89E
:100F500038B100F00FF820B10221204600F0D5FC96
:100F600008B9012010BD2021204600F096FDFFF7B2
:100F7000FFFD10BD0021204600F009BD00212046E4
:100F800000F04EBA10B50446002100F086FD10B105
:100F9000FFF7F0FF08B9012010BD0021204600F046
:100FA000B4FCBAE710B582B00C4600A900F0ABFB68
:100FB00030B19DF8000010B1082801D1012065E78B
:100FC000012016BD80B500F0A0FCFFF7DDBA10B51A
:100FD00000F034F8012821D0FFF7D0FF40B100F035
:100FE00029F828B100F022F810B100F01BF808B978
:100FF000012010BD00F013F801280FD0022100F0ED
:101000005AF801280AD0012100F052F8012805D031
:101010004021204600F04DFDFFF7AAFD10BD08213C
:101020002046CBE00221204600F0CBBB0421204625
:1010300000F0D3BB0821204600F0DBBB04469FED47
:10104000040AFFF7DFB9000000005041000080BF34
:101050000000D04300008C4000000C4100008C4197
:1010600000000C4200008C4210B50446002100F044
:1010700020FDA0B10021FFF7D3FF012816D000F01A
:1010800019F8012812D000F012F801280ED0002122
:10109000FFF7C9FF18B10021FFF7C9FF08B9012008
:1010A00010BD0021FFF7C7FFFFF762FD10BD002153
:1010B00020468DE00021204685E010B582B00C4628
:1010C00000A900F036FB30B19DF8000010B12028D7
:1010D00001D10120DAE6012016BD10B5FFF7AEFF01
:1010E00001282CD0FFF74AFF08B3FFF7A3FFF0B1A8
:1010F000FFF79CFFD8B1FFF795FFC0B1FFF78FFF57
:1011000001281CD00321FFF7D6FF012817D00321A7
:10111000FFF7CEFF012812D00821204600F05DF82D
:1011200001280CD08021204600F006FC08B90120DF
:1011300010BD0821204600F092FCFFF719FD10BDFC
:1011400010B50446002100F08AFCF8B10021FFF739
:1011500067FF012821D0FFF7ADFF01281DD0FFF761
:10116000A6FF012819D00021204600F036F80128FA
:1011700013D00021204600F0DFFB38B10021FFF73B
:1011800052FF18B10021FFF752FF08B9012010BD2E
:101190000021FFF750FFFFF7EBFC10BD10B582B048
:1011A0000C4600A900F0C0FA30B19DF8000010B163
:1011B000102801D1012069E6012016BD80B500F09C
:1011C00042FBFFF7E1B980B500F064FBFFF7DCB943
:1011D00080B500F06CFBFFF7D7B980B500F081FB5C
:1011E000FFF7D2B910B5FFF729FF01280FD0FFF79D
:1011F000C5FE20B14021204600F031FB08B9012096
:1012000010BD0421204600F01EFCFFF7B1FC10BD0C
:1012100010B50446002100F016FC08B9012010BDED
:101220000021204600F01BFB77E610B582B00C468B
:1012300000A900F0A4FA30B19DF8000010B14028D8
:1012400001D1012022E6012016BD10B582B00C4666
:1012500000A900F073FA30B19DF80000002818BF13
:10126000012800D112E6012016BD10B582B00C464F
:1012700000A900F068FA30B19DF8000010B1022812
:1012800001D1012002E6012016BD10B582B00C4646
:1012900000A900F05DFA30B19DF8000010B10428FB
:1012A00001D10120F2E5012016BD10B582B00C4637
:1012B00000A900F052FA30B19DF8000010B10828E2
:1012C00001D10120E2E5012016BD10B582B00C4627
:1012D00000A900F04AFA30B19DF8000010B11028C2
:1012E00001D10120D2E5012016BD10B582B00C4617
:1012F00000A900F03FFA30B19DF8000010B120289D
:1013000001D10120C2E5012016BD0268531C036013
:101310001170704780B5012305E004B5012300AAD0
:1013200000F0AAFC01E000F0AFFC401E8041C00FBD
:1013300002BD38B500F028FA0121FFF7EBFF30B10C
:1013400000F020F9012100F027F900B1012032BDA1
:10135000FFF7E0FF20B1207800F04000207001206E
:1013600010BD38B500F012F830B100F006F80A21CF
:1013700000F012F900B1012032BD9DF8000000F02C
:10138000F80028438DF80000024670470D460446D9
:1013900000AA0A21BEE70D46044600AA0D21B9E7BE
:1013A000FFF7B8FF20B1207800F010002070012076
:1013B00010BDFFF7AFFF20B1207800F020002070B3
:1013C000012010BD38B5FFF7E6FF28B100F0DAF8CC
:1013D00000F0E1F800B1012032BDFFF79BFF20B122
:1013E000207800F001002070012010BDFFF792FF6F
:1013F00020B1207800F002002070012010BDFFF71E
:1014000089FF20B1207800F004002070012010BD79
:1014100080B50A460F21FFF77DFF00B1012002BD14
:1014200038B500F009F830B100F03EF8102100F0B6
:10143000B3F800B1012032BD0D46044600AA1021C8
:1014400068E710B50C462246102140E038B5FFF79A
:10145000F3FF30B100F050F8102100F09DF800B11A
:10146000012032BD10B50C462246102151E038B59E
:1014700000F023F830B100F0F5F8112100F08CF8FD
:1014800000B1012032BD10B50C4622461121ADE756
:1014900038B500F012F830B100F006F8112100F074
:1014A0007BF800B1012032BD9DF8000000F0F30090
:1014B00028438DF80000024670470D46044600AAF6
:1014C0001121FFF727BF10B50C4622461121FFF767
:1014D00021FF20B1207800F00C002070012010BD09
:1014E00038B5FFF7EAFF30B100F006F8112100F03F
:1014F00053F800B1012032BD9DF8000000F00F004C
:1015000028438DF800000246704710B50C4622466D
:101510001121FFF7FFFE20B1207800F0F0002070CD
:10152000012010BD38B500F009F830B100F085F8A1
:10153000122100F031F800B1012032BD0D46044601
:1015400000AA1221FFF7E6BE38B5FFF7F7FF30B16A
:1015500000F00FF8122100F01FF800B1012032BD99
:101560009DF8000000F0DF0028438DF800000246DF
:1015700070479DF8000000F0BF0028438DF8000080
:10158000024670479DF8000000F07F0028438DF868
:101590000000024670470D212046FFF7BEBE38B559
:1015A00000F03CF830B100F006F81821FFF7F4FF26
:1015B00000B1012032BD9DF8000000F0F700284383
:1015C0008DF800000246704710B500F032F8E1E0F7
:1015D00038B500F023F830B100F006F81821FFF715
:1015E000DBFF00B1012032BD9DF8000000F0EF00EC
:1015F00028438DF800000246704710B500F019F836
:10160000FFF7CEBE38B500F009F830B1FFF7A8FFFC
:101610001821FFF7C1FF00B1012032BD0D4604467D
:1016200000AA1821FFF776BE10B500F002F8FFF708
:10163000C0BE0C462246182170479DF8000000F0FD
:10164000FB0028438DF800000246704738B500F0D3
:101650002EF830B100F006F81921FFF79DFF00B118
:10166000012032BD9DF8000000F0FD0028438DF8F8
:1016700000000246704738B500F019F830B1FFF7A6
:101680009AFF1921FFF788FF00B1012032BD10B584
:1016900000F018F87EE038B500F009F830B1FFF737
:1016A000A3FF1921FFF778FF00B1012032BD0D46DD
:1016B000044600AA1921FFF72DBE10B500F002F86C
:1016C000FFF76EBE0C4622461921704738B5FFF76A
:1016D000EEFF30B1FFF744FF1921FFF75DFF00B1C6
:1016E000012032BD10B5FFF7EDFFFFF762BE38B540
:1016F000FFF7DDFF30B1FFF7A0FF1921FFF74CFF27
:1017000000B1012032BD10B500F001F842E00C46F6
:1017100022461B21704710B5FFF7F9FFFFF749BEBE
:101720000C4622461C21704710B5FFF7F9FFFFF762
:1017300037BE10B5FFF7F4FFFFF73BBE10B500F062
:1017400010F8FFF74ABE10B500F00BF8FFF74EBED9
:1017500010B500F006F8FFF752BE10B500F001F822
:1017600018E00C4622461D21704710B5FFF7F9FF1F
:10177000FFF716BE10B5FFF7F4FFFFF71ABE10B55E
:10178000FFF7EFFFFFF7E4BD0D46044600AA7047E0
:1017900000F00EF8FFF7BEFD20B1207800F0080041
:1017A0002070012010BD10B500F002F8FFF7F8BD61
:1017B0000C4622465321704710B5FFF7F9FFFFF79B
:1017C000F8BD38B500F02DF830B1FFF74BFF5821C8
:1017D000FFF7E2FE00B1012032BD38B500F021F87C
:1017E00030B1FFF72AFF5821FFF7D6FE00B10120E4
:1017F00032BD38B500F015F830B1FFF7DCFE5821E6
:10180000FFF7CAFE00B1012032BD38B500F009F87B
:1018100030B1FFF7A5FE5821FFF7BEFE00B1012051
:1018200032BD0D46044600AA5821FFF773BD38B5F6
:10183000FFF7F7FF30B1FFF79CFE5821FFF7ACFE32
:1018400000B1012032BD38B500F01EF830B100F013
:101850008DF95921FFF7A0FE00B1012032BD38B546
:1018600000F012F830B100F006F85921FFF794FEAD
:1018700000B1012032BD9DF8000000F09F00284318
:101880008DF80000024670470D46044600AA592113
:10189000FFF740BD38B500F01EF838B19DF80000E4
:1018A00065F3010000F010F800B1012032BD38B539
:1018B00000F011F838B19DF8000065F3830000F0E6
:1018C00003F800B1012032BD8DF8000002465A2114
:1018D0002046FFF722BD0D46044600AA5A21FFF715
:1018E00019BD38B5FFF7F7FF70B19DF8000000F0A3
:1018F0000F0040EA05108DF800005A219DF80020E5
:10190000FFF74AFE00B1012032BD38B500F00EF8F5
:1019100058B19DF8000065F305008DF800000246FF
:101920005B21FFF739FE00B1012032BD0D460446B0
:1019300000AA5B21FFF7EEBC38B5FFF7F7FF30B127
:10194000FFF720FE5B21FFF727FE00B1012032BD2B
:1019500038B500F016F838B19DF8000065F30300C3
:1019600000F022F800B1012032BD38B500F009F8CE
:1019700030B1FFF739FE5C21FFF70EFE00B1012008
:1019800032BD0D46044600AA5C21FFF7C3BC38B542
:10199000FFF7F7FF38B19DF8000065F3461000F03F
:1019A00003F800B1012032BD8DF8000002465C2131
:1019B0002046FFF7B2BC38B5FFF7E6FE5D21FFF722
:1019C000A9FC30B1FFF7D9FC5D21FFF7E5FD00B1BF
:1019D000012032BD70B582B0044600AA0E465D21DA
:1019E000FFF798FC750908B39DF8000000F00700A8
:1019F00040EAC6008DF800005D219DF80020FFF749
:101A0000CBFD98B100AA5C2100F0B9F870B19DF847
:101A1000000000F07F0040EAC5108DF800005C2156
:101A20009DF80020FFF7B8FD00B1012076BD38B564
:101A300000F02DF830B1FFF715FE5E21FFF7ACFD89
:101A400000B1012032BD38B500F021F830B1FFF708
:101A5000F4FD5E21FFF7A0FD00B1012032BD38B5D5
:101A600000F015F830B1FFF7A6FD5E21FFF794FDF9
:101A700000B1012032BD38B500F009F830B1FFF7F0
:101A8000B3FD5E21FFF788FD00B1012032BD0D4698
:101A9000044600AA5E21FFF73DBC38B5FFF7F7FF0B
:101AA00030B1FFF75DFD5E21FFF776FD00B101204B
:101AB00032BD38B5FFF7EBFF30B1FFF75AFD5E21BD
:101AC000FFF76AFD00B1012032BD2DE9F0418046EB
:101AD0000D46002603270224F6B206F1220100F08B
:101AE0001EF828B1761C641EF6D17F1EF3D10120AA
:101AF000BDE8F0812DE9F04180460D460026032720
:101B00000224F6B206F1280100F009F828B1761C8B
:101B1000641EF6D17F1EF3D10120BDE8F081721959
:101B2000C9B24046FFF7F6BB7219C9B22046FFF7AB
:101B3000F1BBF8B504460D4600260227F6B206F1C1
:101B40004B01FFF7F1FF18B1761C7F1EF6D1012083
:101B5000F2BD38B500F01AF800AA0F2100F00FF816
:101B600000F004F80F21FFF717FD0BE09DF80000CF
:101B700065F304008DF800000246704707212046F7
:101B8000FFF7C8BB00F007F8012032BD0D46044640
:101B90008021FFF7CEBB00212046FFF7CABB000023
:101BA00080B500F089F800B1012002BD0020704727
:101BB00030B56E4C6E4D8BB0206840F00100206057
:101BC00006A9206800F001000090009807951020F9
:101BD000069002200990002008904FF0904000F0FD
:101BE000D3F800F03EF80A2000F009FA206840F02F
:101BF0000200206001A9206800F002000090009817
:101C000002950120019000F032F85A4800F0BCF82B
:101C100000221146062000F0D5F9062000F0EFF969
:101C200000200BB030BD00B5504887B0016841F0CE
:101C30000101016001A9006800F001000090009816
:101C4000102001904A4800F011F84FF0904000F049
:101C50009BF800F006F80A2000F0D1F9002007B048
:101C600000BD002200210A2000F0ACB90290022041
:101C7000049000200390704710B5447884B000F0C1
:101C800011F800F059FA06E010B5447884B000F07D
:101C900009F800F0BAFA18B1204600F060F8012007
:101CA00004B010BD4FF480500092029001930A4698
:101CB000012321463048704730B52F4C87B020466D
:101CC00000F042FB002841D12C482D4D606001A955
:101CD0003320A0600120E0602A482060686940F05D
:101CE00002006861686900F00200009000984FF4FB
:101CF000407001901220FFF7B9FF042005901D48A5
:101D000000F042F8286A40F4001028620022286A95
:101D100000F40010009000210098286840F40010A2
:101D20002860286820F4001028601F2000F04AF97D
:101D30001F2000F064F900221146202000F042F933
:101D4000202000F05CF9204600F084F9204600F0E5
:101D5000FBFA20280CBF0020012007B030BD80B561
:101D6000054800F0C2F9BDE80140A5E74C1002406B
:101D700000001110000400484C0900203A14D11052
:101D800038100240005400402DE9F8470022764BFD
:101D9000DFF8D881DFF8D8914FF00F0A30E005FA6C
:101DA0000EFE4EEA040448F82C406FEA070C1C684B
:101DB0000CEA040E4C68E40348BF47EA0E0EC3F871
:101DC00000E05C680CEA040E4C68A40348BF47EAD4
:101DD0000E0EC3F804E09C680CEA040E4C68E402A2
:101DE00048BF47EA0E0EC3F808E0DC680CEA040CB2
:101DF0004C68A40248BF47EA0C0CC3F80CC0521C44
:101E00000F6837FA02F400F09B804FF0010C0CFAD7
:101E100002F42740F3D04D68022D18BF122D11D1C6
:101E2000D50800EB850C02F00706DCF820504FEADD
:101E3000860E0AFA0EF6B5430E6906FA0EF635431B
:101E4000CCF820504FEA420C0326056806FA0CF63F
:101E50006FEA060E0E7906F003060EEA050506FA8D
:101E60000CF635430560E4434D68012D18BF022D83
:101E700003D0112D18BF122D0FD18568CE680EEA40
:101E8000050506FA0CF63543856045684E68C6F3CD
:101E9000001625409640354345604D6805F0030621
:101EA000032E06D1C66AC5F3C005344095402C43C5
:101EB000C462C4680EEA040E8C6804FA0CF444EAA6
:101EC0000E04C4604C68E40099D5D9F8004044F091
:101ED0000104C9F800404FEA920CD9F8004004F020
:101EE0000104009402F00305009C58F82C404FEACE
:101EF000850E0AFA0EF5AC43B0F1904F08BF0025ED
:101F00001DD01C4DA84208BF012518D01A4DA8426B
:101F100008BF022513D0194DA84208BF03250ED0D3
:101F2000174DA84208BF042509D0164DA84208BF86
:101F3000052504D0144DA8420CBF062507252EE721
:101F4000BDE8F1870069084018BF0120C0B27047A2
:101F50000E4A1368034200D1704780B5106000F04C
:101F600050FF01BD000000000004014008000140D6
:101F7000601002400004004800080048000C0048BF
:101F800000100048001400480018004814040140E4
:101F90000901002806D5294A00F00F00801800F832
:101FA000041C7047264A8154704726490A684FF638
:101FB000FF031A4000F0070042EA0020224A1043C3
:101FC0000860704770B51F4B1B68C3F302230124E0
:101FD000C3F10705052D2EBF0F2504FA05F56D1E6B
:101FE0001E1D072E34BF0023DB1E2940994004FA32
:101FF00003F3BDE870405B1E1A401143C8E701219E
:1020000000F01F029140114AFFE7400942F82010FA
:10201000704710B5401EB0F1807F01D3012010BD84
:102020000B4C60600F214FF0FF30FFF7B1FF002035
:10203000A06007202060002010BD000018ED00E027
:1020400000E400E00CED00E00000FA0500E100E033
:1020500010E000E038B5040001D1012032BD04F1E8
:102060003C05687818B92870204600F059F800F04F
:102070004FF86068216820F070600861206881680E
:1020800021F400418160A06840B1E1680129216824
:102090000CBF40F4004040F404408860E06802282F
:1020A00003D121684FF4006048602068416841F026
:1020B000007100F03DF8206961690843A16940EAB8
:1020C00001202168C860E069216A0843216808602E
:1020D0002068016841F00101016000206860202053
:1020E000687000202063A87032BD38B5040001D1AB
:1020F000012032BD04F13C0500F00AF8204600F052
:1021000010F80020686068702063A870287032BDE5
:102110002420687020680168490849000160704700
:10212000704770474146284600F0A4B930684168BE
:1021300041F40041416070472DE9F74F00F0D3F8BA
:1021400050D1DDF830B0BBF1000F1CBF0D9C002C4E
:1021500041D000F056F845D43078012842D000F044
:10216000E9F88246212000F0C6F800F0F0F840B10E
:102170007068042802D1002030702CE000203070FC
:102180002BE0FF2C009003DD00F09EF8FF2702E01B
:1021900000F02BF827465246FFF7C4FFC0B9296864
:1021A0001BF8010B7F1EA4F101048862A4B20AD1BE
:1021B0005CB1CDF800A0434600F090F868B9FF2C60
:1021C0000090E5DDE0E7002CE5D100F015F830B136
:1021D0007068042801D1012005E0032003E000F02D
:1021E0009BF800E00220BDE8FE8F4FF00073E2B2E2
:1021F0004946284600F0C4B952464146284600F0F8
:1022000052B928688069000470472DE9F74F00F043
:102210006AF856D1DDF830B0BBF1000F1CBF0D9C41
:10222000002C47D0FFF7EDFF4BD43078012848D081
:1022300000F080F88246222000F05DF800F0ACF853
:1022400040B17068042802D10020307032E00020D4
:10225000307031E0FF2C4FF41050009003DD00F09F
:1022600033F8FF2702E0FFF7C0FF2746CDF800A0B4
:1022700043460022042100F033F8E8B92868406A98
:102280007F1EA4F101040BF8010BA4B20AD15CB1CA
:10229000CDF800A0434600F021F868B9FF2C00906B
:1022A000E1DDDCE7002CE1D1FFF7A6FF30B170687B
:1022B000042801D1012005E0032003E000F02CF800
:1022C00000E00220BDE8FE8F4FF08073FF224946F8
:1022D000284600F055B9CDF80090534600228021E1
:1022E000284600F099B8054605F13C068946707805
:1022F00020281F46704770703B464020B07049460A
:1023000000207060CDF804A02846DDF83880BDF8C4
:102310000820CDF8008070472968084A2020C8614D
:102320002868416811404160202070700020B07022
:10233000307070470120307000F079BE00E800FE78
:10234000F2B2204600F01CB990F83D0070472DE92C
:10235000F04182B000F046F84FF08073FFF7F0FFD5
:1023600000F053F818B1206C042812D10AE0012EB5
:102370000AD02168280A886200F04AF820B1206C4F
:10238000042806D1012005E000F033F800F039F808
:1023900000B10320BDE8F6812DE9F04182B000F0E4
:1023A00021F80023FFF7CCFF00F02FF818B1206CC4
:1023B000042814D10AE0012E0AD02168280A886274
:1023C00000F026F820B1206C042808D1012007E095
:1023D00000F00FF80022402100F015F800B10320B2
:1023E000BDE8F68104464FF40050009015461E46A5
:1023F00070472068EDB285620097434670470097AA
:10240000192300228021204606E0DDF82080099F64
:102410003A46414620462DE0F8B5069F04460D4653
:102420001E4672B9206880692840A84220D016F163
:10243000010FF7D09EB100F0FAFDC01B8642F1D229
:102440000DE0206880692840A84211D116F1010FE3
:10245000F7D026B100F0EBFDC01B8642F1D204F1AB
:102460003C00202141700021817001700320F2BDE9
:102470000020F2BD70B504460D46164620688069FE
:1024800080070ED400F025F808B1012070BD15F1C9
:10249000010FF3D025B100F0CAFD801B8542EDD2BB
:1024A0001BE0002070BD70B504460D46164620683E
:1024B000806980060BD400F00CF808B1012070BDD3
:1024C00025B100F0B4FD801B8542F0D205E000206C
:1024D00070BD32462946204613E000F007F820215F
:1024E0004170002181700170032070BD04F13C0037
:1024F000416841F020014160704720688169890688
:10250000704770B504460D4620688069C0061646BF
:102510001CD5FFF7F2FF0BD415F1010FF9D025B14F
:1025200000F085FD801B8542F3D204F13C00D6E724
:102530001021C16120202168C86100F017F800F067
:102540000EF8042100F004F8012070BD002070BDD9
:102550004160202141700021817001707047104A54
:1025600041681140416004F13C0070472068816976
:10257000C90703D4816941F0010181612068704776
:1025800030B50068074D44682C40890554EA9151E4
:1025900041EA0241039A19431143416030BD0000F2
:1025A00000E800FE009800FC10B588B000F01CFDAB
:1025B00000F050FD002000F0A7FD0121002000F0F8
:1025C000C7FD00F029FEDFF86048DFF86008E06032
:1025D000402020617F206061FF20A0610020E06139
:1025E0006062A06204F10C0000F06AFE00B1FEE738
:1025F0008DF80300012201208DF801008DF8020002
:102600008DF8000000A904F10C0000F01EFF00B1DD
:10261000FEE78DF804008DF805008DF806008DF8B2
:10262000070004900590012201A904F10C0000F0BC
:1026300097FE00B1FEE704F1300100F0F3FF04F172
:102640003401012000F0EEFF012808BFA07004F162
:102650003801002001F0F2F804F13C01012001F002
:10266000EDF8012808BFE07004F14001002001F0FE
:10267000EFF904F14401002001F0A4FA04F148014B
:10268000002001F04FFB04F15001012001F04AFB52
:1026900004F16001032001F045FB012808BFE0714F
:1026A00004F15801022001F03DFB012808BF6071D0
:1026B00004F14C01002001F0A9FC04F15C010220AE
:1026C00001F0A4FC012808BFA07104F1540101200D
:1026D00001F09CFC01286CD120716AE0207A01286D
:1026E00063D1002203A904F10C0000F089FE00224E
:1026F00002A904F10C0000F005FF0498C0F1FF00EE
:1027000064214843C11100EB11600004000E0190E8
:102710009DF80E009DF80D309DF80C200FF21871F9
:10272000009004F1640001F09BFD04F1640001F0ED
:10273000B1FD82B241F2883304F16401DFF8F006A2
:1027400001F002FE206B00F0DDF8A07810B9606B9C
:1027500000F0D8F8A06B00F02EF9E07810B9E06B2B
:1027600000F029F9206C00F0CEF9606C00F024FA3A
:10277000A06C00F081FA206D00F07EFAE07910B9CB
:10278000206E00F079FA607910B9A06D00F074FA4B
:10279000E06C00F0ECFAA07910B9E06D00F0E7FA17
:1027A000207910B9606D00F0E2FA4FF47A7000F011
:1027B00041FC2078012836D1206B00F0D5FFA078AD
:1027C00010B9606B00F0D0FFA06B01F0D3F8E07897
:1027D00010B9E06B01F0CEF8206C01F085F9606C67
:1027E00001F042FAA06C01F0B3FB206D01F0B0FBE8
:1027F000E07910B9206E01F0ABFB607910B9A06DE3
:1028000001F0A6FBE06C01F0CDFCA07910B9E06D01
:1028100001F0C8FC207910B9606D01F0C3FC012003
:10282000207200202070607801287FF457AF206B61
:1028300000F0A7FFA07810B9606B00F0A2FFA06BBA
:1028400001F0A5F8E07810B9E06B01F0A0F8206C79
:1028500001F057F9606C01F014FAA06C01F085FBEF
:10286000206D01F082FBE07910B9206E01F07DFB54
:10287000607910B9A06D01F078FBE06C01F09FFC6D
:10288000A07910B9E06D01F09AFC207910B9606D63
:1028900001F095FC00202072607086E710B52DEDE8
:1028A000048BFDEEC00AC0ED000AB5EE400AF8EE5A
:1028B000E00AF1EE10FA0C46ACBF30EE608A30EE62
:1028C000C08A104601F09AFF41EC110B9FED890B75
:1028D00002F0EBF9B0EE409AF0EE609A18EE100AB2
:1028E00002F002FC53EC192B02F026FC41EC100B19
:1028F00002F0F3FC51EC100B02F0FCFC2060BDEC8C
:10290000048B10BDF0B58DB0044604A900F051FF52
:102910000DF11101204600F041FF9DF81100012842
:1029200047D109A9204600F059FF012801D100F044
:10293000E5F800F0AAF80FF2245100F0D1F800F009
:1029400085F900F092F90DF11201204600F039FFEF
:10295000012802D100F0BCF801E000F0AFF800F06F
:1029600075F900F082F908A9204600F047FF012818
:1029700002D100F09BF803E000F081F800F06AF962
:1029800000F064F900F071F907A9204600F046FF55
:10299000012802D100F082F807E000F06AF800F0A8
:1029A00063F80FF2605100F05BF900F04FF900F0AE
:1029B0005CF90DB0F0BDF0B58DB0044604A900F08F
:1029C000FEFF0DF11101204600F0EEFF9DF8110011
:1029D000012847D109A9204601F009F8012801D1B1
:1029E00000F08CF800F051F80FF22C5100F078F85C
:1029F00000F02CF900F039F90DF11201204600F039
:102A0000E6FF012802D100F063F801E000F056F87B
:102A100000F01CF900F029F908A9204600F0F7FFA2
:102A2000012802D100F042F803E000F028F800F09D
:102A300011F900F00BF900F018F907A9204600F091
:102A4000F6FF012802D100F029F807E000F011F8A4
:102A500000F00AF80FF2F04100F002F900F0F6F889
:102A600000F003F90DB0F0BD0598069B9DF810200D
:102A70007047032205A906A89DED070A0EE7032269
:102A800005A906A89DED080A08E741F288370B98CA
:102A90009DF81020DFF89053099B70479DF8102097
:102AA0000FF2504105F1640001F0DABB9DF81020EF
:102AB0000FF2184105F1640001F0D2BB9DF812300D
:102AC0009DF810200FF2E43105F1640001F0C8BB5D
:102AD0009DF810200FF2B43105F1640001F0C0BB85
:102AE000D34E0390029200920A98019005F164007F
:102AF00001F0B6BB00000000000024400020099057
:102B00000A900B907047F0B58DB0044604A901F00F
:102B100010F80DF11101204601F000F89DF81100A8
:102B2000012847D109A9204601F01BF8012801D14D
:102B3000FFF7E4FFFFF7A9FF0FF22441FFF7D0FFF3
:102B400000F084F800F091F80DF11201204600F039
:102B5000F8FF012802D1FFF7BBFF01E0FFF7AEFF4E
:102B600000F074F800F081F808A9204601F009F897
:102B7000012802D1FFF79AFF03E0FFF780FF00F082
:102B800069F800F063F800F070F807A9204601F03A
:102B900008F8012802D1FFF781FF07E0FFF769FF7E
:102BA000FFF762FF0FF2E83100F05AF800F04EF83C
:102BB00000F05BF80DB0F0BDF0B587B0044601A998
:102BC00001F077F80DF10501204601F067F89DF856
:102BD0000500012838D104A9204601F082F8012817
:102BE00004BF0020049000F0BAF800F094F80FF24F
:102BF000B83100F0A7F800F029F800F036F80DF130
:102C00000601204601F05DF8012802D100F092F89B
:102C100001E000F085F800F019F800F026F805A9A9
:102C2000204601F06EF8012804D100F06FF800F0A2
:102C300085F805E000F08DF800F06DF800F00EF872
:102C400000F004F800F011F807B0F0BD05F16400E1
:102C500001F020BB0598069B9DF810200FF27C2107
:102C6000009005F1640001F0FBBA82B23B4605F129
:102C70006401304601F068BBF0B587B0044601A995
:102C800001F08BF90DF10501204601F07BF99DF86B
:102C90000500012838D104A9204601F096F9012841
:102CA00004BF0020049000F05AF800F034F80FF24E
:102CB0000C3100F047F8FFF7C9FFFFF7D6FF0DF121
:102CC0000601204601F071F9012802D100F032F826
:102CD00001E000F025F8FFF7B9FFFFF7C6FF05A9EF
:102CE000204601F082F9012804D100F00FF800F02D
:102CF00025F805E000F02DF800F00DF8FFF7AEFF25
:102D0000FFF7A4FFFFF7B1FF07B0F0BD9DF8042067
:102D10000FF2B81170470298039B9DF8042070478A
:102D20009DF806309DF804200FF2801105F1640033
:102D300001F096BA9DF804200FF2501105F16400DD
:102D400001F08EBA009041F2883705F1640001F07D
:102D500087BA032202A903A89DED050A9EE5022277
:102D600002A903A89DED040A2F4D314E96E5F0B55A
:102D700087B0044601A901F03AFA0DF10501204699
:102D800001F02AFA9DF80500012838D104A920464F
:102D900001F045FA012804BF00200490FFF7DFFF8F
:102DA000FFF7B9FF0FF22821FFF7CCFFFFF74EFF27
:102DB000FFF75BFF0DF10601204601F020FA012824
:102DC00002D1FFF7B7FF01E0FFF7AAFFFFF73EFFD1
:102DD000FFF74BFF05A9204601F031FA012804D185
:102DE000FFF794FFFFF7AAFF05E0FFF7B2FFFFF739
:102DF00092FFFFF733FFFFF729FFFFF736FF07B01A
:102E0000F0BDB0F5005F00D0704780B5002000F045
:102E1000DFF938B90448017A11B90121017001BD07
:102E20000121417001BD0000000000200028004089
:102E3000DC050020FEE700000A0A0A54696D6553AC
:102E400074616D703A20253032643A253032643A2C
:102E5000253032642E253032640A00000A41434393
:102E60005F585B25645D3A2025642C204143435F15
:102E7000595B25645D3A2025642C204143435F5A09
:102E80005B25645D3A2025640A00000057484F2006
:102E9000414D204920616464726573735B25645DF4
:102EA0003A204552524F520A0000000057484F2026
:102EB000414D204920616464726573735B25645DD4
:102EC0003A203078253032580A0000004F44525BD7
:102ED00025645D3A204552524F520A004F44525BDE
:102EE00025645D3A2025642E2530336420487A0A13
:102EF0000000000046535B25645D3A204552524F66
:102F0000520A000046535B25645D3A2025642E2555
:102F100030336420670A00000A4759525F585B2526
:102F2000645D3A2025642C204759525F595B256423
:102F30005D3A2025642C204759525F5A5B25645D19
:102F40003A2025640A00000046535B25645D3A2060
:102F500025642E25303364206470730A000000005D
:102F60000A4D41475F585B25645D3A2025642C205B
:102F70004D41475F595B25645D3A2025642C204D07
:102F800041475F5A5B25645D3A2025640A000000D2
:102F900046535B25645D3A2025642E25303364203A
:102FA00047617573730A00000A48554D5B25645DDF
:102FB0003A2025642E253032640A00000A54454D1B
:102FC000505B25645D3A2025642E253032640A006A
:102FD0000A50524553535B25645D3A2025642E25E3
:102FE0003032640A0000000080B50320FEF7DDFFE8
:102FF0000F2000F005F800F002F8002002BD704735
:1030000010B50446114800684FF47A71B0FBF1F036
:10301000FEF7FFFF002221464FF0FF30FEF7D2FF00
:10302000002010BD0A480168491C0160704708482B
:103030000068704738B50446FFF7F9FF0546FFF70B
:10304000F6FF401BA042FAD331BD0000D40500209A
:10305000800A002000B595B000A8142102F070F994
:103060000FF2640105A891EC100B80EC100B1020FE
:10307000059001200B9060200D9000200C90022004
:103080000E9001200F901090282011900220149093
:10309000072012900420139005A802F055F908B1FA
:1030A000FFF7C8FE0F2000900421032001900020AC
:1030B00002900390049000A802F03BFB08B1FFF7D8
:1030C000B9FE15B000BD00000000000000000000C7
:1030D00000000000000000000000000000000000F0
:1030E00000000000000000000000000000000000E0
:1030F00000000000000000000000000000000000D0
:10310000000000000000000010B586B0044600F08A
:1031100070F83CB9DFF8E400016841F0010101609A
:1031200000F010F80FF2E40030F8140000F05AF844
:1031300002200490DFF8C80050F82400FEF724FEB7
:1031400006B010BD006800F00100009000987047C4
:1031500030B587B004460D4600F04BF854B9DFF89F
:103160009C00016841F004010160006800F0040067
:1031700000900098DFF88C000FF294013DB931F80F
:10318000141001910021029100F01AF816E0012DAF
:1031900014D131F814100191DFF86C100291002164
:1031A00000F00EF80FF26C0030F8144000220F21EE
:1031B00060B2FEF707FF60B2FEF721FF07B030BD37
:1031C00003910221049101A950F82400FEF7DCBD0F
:1031D0000FF23C01DFF82C2031F8101052F82000DB
:1031E000FEF7B0BE019001A90120029000200390DB
:1031F000704701A8142102F0A3B800004C1002404F
:10320000CC050020D0050020000021102000000087
:10321000002000002800000010B51E481E4C86B09B
:1032200000F044F800F042F8C16841F40031C16098
:1032300001A9C06800F400300090009804200190BB
:1032400002200290002003900220049000F028F851
:103250000820019001A900F023F8104820604FF4E5
:10326000E13060600020A060E0602061A0610C207F
:103270006061204601F02AF800B1FEE704F1700019
:1032800060654FF4807104F15800018000214161B4
:1032900006B010BD4C100240DC0500200044004088
:1032A000072005904FF09040FEF76EBD016841F099
:1032B00001010160016801F001010091009970476E
:1032C00038B5040011D094F8210020B984F820000A
:1032D000204602F095FB00F038F8FF250028206812
:1032E00005D04562042084F82100012032BD8168A8
:1032F000DFF89822114000F07FF8626823691A43D2
:10330000A3691A43114381602168E068086120685D
:103310000169A26841EA024101612068C16821F0A7
:103320008001C1602068C16C89088900C16420687F
:10333000C16CE26963691A431143C1642068456244
:10334000012084F82100002032BD022084F82100F1
:10335000CA2021684862532021684862204633E130
:10336000F8B500F0F3F801D10220F2BD00F0FAF850
:103370000FD140065CBF0020E870287800F03EF9CD
:1033800000F037F800F0DFF8390241EA064108435F
:103390000BE0400603D5287800F03BF901E000205F
:1033A000E8706978287800F091F8E97840EA0146F9
:1033B00000F09BF8FF27B0B92168DFF8D401304056
:1033C00008602068816821F4802100F015F8EA681F
:1033D0002B691A431143816000F07EF806D4204621
:1033E00000F0DAF810B12068476286E02068476292
:1033F000C4E00646687801E1816020688168704712
:1034000010B500680C46816A616001694904490C85
:10341000A1600068DFF878110840010C01F03F035B
:103420002370A070030A01F040006370E0703AB9A5
:10343000207800F0EEF800F005F800F081F8A070B8
:10344000002010BD20706078E3E0F8B500F07EF851
:1034500001D10220F2BD012084F82000022084F86E
:103460002100002A687826D1C10603D500F0EF00BC
:103470000A306870E87800F0C1F8FFF7BAFF00F092
:1034800062F8390241EA06410843297840EA4136A8
:1034900000F02BF8FF2558B92168DFF8F80030401C
:1034A000486000F019F810D4204600F075F860B1BB
:1034B0002068456221E000F0ACF8A87800F0A9F897
:1034C0006978E87800F002F8DFE755E0090241EAA0
:1034D0000040A978084370472068C16821F0800146
:1034E000C16020688068800670472168CA204862F1
:1034F000532021684862204666E0042000F02CF842
:103500000120F2BD10B5006840680C46DFF8841059
:103510000840010CE170A070010A01F01F01400B8E
:10352000617000F00700207042B9E07800F071F897
:10353000E070FFF788FF00F003F8A070002010BDD6
:103540006070A07865E00746A87857E004460D460D
:1035500094F820000128704784F82100002084F8A6
:1035600020007047012084F82000022084F8210008
:10357000002A20688068704720684562012084F82E
:103580002100002084F82000F2BD0000BFFF8FFF63
:103590007F7F7F003FFFFF0038B504462068C16889
:1035A00021F0A001C160FFF742FD05462068C06818
:1035B000800607D4FFF73BFD401BB0F57A7FF5D9B5
:1035C000032032BD002032BD38B504462068C168F2
:1035D000490611D44FF0FF31C160FFF728FD0546C1
:1035E0002068C068400607D4FFF721FD401BB0F5F6
:1035F0007A7FF5D9032032BD002032BD002101E0E1
:10360000491C0A38C0B20A28FADA40EA0110C0B2EE
:10361000704701090A2200F00F0012FB0100C0B23E
:103620007047000010B50C460021216068B10128E8
:10363000204610D000F04DF8012804D1204600F0BB
:1036400010F801280BD0002010BD204600F009F82A
:103650000128F8D103E000F03CF80128F3D1012063
:1036600010BD38B5394D0446E878012830D0FEF752
:1036700097FA01282CD068202870D6206870002086
:10368000688028710120687105F12800A860304821
:10369000E860002028612F48E86305F13800A8623F
:1036A0000020E8622560E8680168080004D1142160
:1036B000284601F045FE07E028468847012804D146
:1036C0002068142102F0D4F94AE0FEF76FFA0020D6
:1036D00032BD38B51D4D0446E87D012834D0FEF7D3
:1036E0005FFA012830D069202875D4206875012040
:1036F000A8750020E87528760120687605F130006D
:10370000E861154828621548686205F140002863A1
:103710000020686305F114002060286A0168080031
:1037200005D1142105F1140001F00AFE08E005F1AD
:1037300014008847012804D12068142102F098F968
:103740000EE0FEF735FA002032BD0000940900209B
:103750006C0200206C0A0020F402002064010020AA
:1037600000202060012032BD80B518B1C168896891
:103770000A0001D1012002BD8847012818BF00209E
:1037800002BD80B518B1C168C9680A0001D1012025
:1037900002BD8847012818BF002002BD002818BFBD
:1037A000002901D101207047C078FFE70870002090
:1037B0007047002818BF002901D101207047807888
:1037C000F4E780B518B1C2681269130001D1012075
:1037D00002BD9047012818BF002002BD80B5002817
:1037E0001CBFC268002902D09269130001D10120D8
:1037F00002BD9047012818BF002002BD80B50028F7
:103800001CBFC268002902D0526A130001D10120F6
:1038100002BD9047012818BF002002BD80B50028D6
:103820001CBFC268002902D0126B130001D1012015
:1038300002BD9047012818BF002002BD10B50C46FC
:103840000021216068B10128204610D000F04BF81B
:10385000012804D1204600F010F801280BD00020E8
:1038600010BD204600F009F80128F8D103E000F06F
:103870003AF80128F3D1012010BD38B5374D044680
:10388000E87801282ED0FEF78BF901282AD068208D
:103890002870D62068700020688028710120687127
:1038A00005F12800A8602E48E860002028612D4816
:1038B000E86305F13800A8620020E8622560E86846
:1038C0000168080004D11421284601F039FD07E001
:1038D00028468847012804D12068142102F0C8F83E
:1038E00044E0002032BD38B51C4D0446E87D012877
:1038F00032D0FEF755F901282ED069202875D42042
:1039000068750120A8750020E87528760120687682
:1039100005F13000E861144828620020686205F172
:10392000400028630020686305F114002060286AC5
:103930000168080005D1142105F1140001F000FD13
:1039400008E005F114008847012804D120681421FB
:1039500002F08EF80AE0002032BD0000D8090020F5
:10396000B00200206C0A00203803002000202060F4
:10397000012032BD80B518B1C16889680A0001D143
:10398000012002BD8847012818BF002002BD80B574
:1039900018B1C168C9680A0001D1012002BD884779
:1039A000012818BF002002BD002818BF002901D13E
:1039B00001207047C078FFE708700020704700289A
:1039C00018BF002901D1012070478078F4E780B545
:1039D00000281CBFC268002902D01269130001D15F
:1039E000012002BD9047012818BF002002BD80B50C
:1039F00000281CBFC268002902D09269130001D1BF
:103A0000012002BD9047012818BF002002BD80B5EB
:103A100000281CBFC268002902D0526A130001D1DD
:103A2000012002BD9047012818BF002002BD80B5CB
:103A300000281CBFC268002902D0126B130001D1FC
:103A4000012002BD9047012818BF002002BD0000E0
:103A500080B5002200280A60084605D000F00AF868
:103A6000012805D0002002BD00F004F80128F9D19A
:103A7000012002BD38B51A4D0446E87801282DD042
:103A8000FEF78EF8012829D03D2028703C20687070
:103A900000206880A88005F11400A8601148E86043
:103AA0000020286105F11C0068610020A8612560E4
:103AB000E8680168080004D11421284601F040FCA0
:103AC00007E028468847012807D12068142101F023
:103AD000CFFF00202060012032BD002032BD000059
:103AE0003C0A00203C04002080B518B1C1688968F8
:103AF0000A0001D1012002BD8847012818BF00201B
:103B000002BD80B518B1C168C9680A0001D10120A1
:103B100002BD8847012818BF002002BD002818BF39
:103B2000002901D101207047C078FFE7087000200C
:103B30007047002818BF002901D101207047807804
:103B4000F4E780B500281CBFC268002902D01269C2
:103B5000130001D1012002BD9047012818BF0020A9
:103B600002BD80B500281CBFC268002902D092693E
:103B7000130001D1012002BD9047012818BF002089
:103B800002BD80B500281CBFC268002902D0526A5D
:103B9000130001D1012002BD9047012818BF002069
:103BA00002BD80B500281CBFC268002902D0126B7C
:103BB000130001D1012002BD9047012818BF002049
:103BC00002BD000080B5002200280A60084605D02A
:103BD00000F00AF8012805D0002002BD00F004F82A
:103BE0000128F9D1012002BD38B51C4D0446E87802
:103BF000012831D0FDF7D4FF01282DD0BC2028703A
:103C0000BE2068700020688028710120687105F16D
:103C10001400A8601248E860002028611148E8619B
:103C200005F11C0068610020A8612560E868016852
:103C3000080004D11421284601F082FB07E0284641
:103C40008847012807D12068142101F011FF0020C6
:103C50002060012032BD002032BD00001C0A00207F
:103C6000B40400207C0A002080B518B1C1688968BE
:103C70000A0001D1012002BD8847012818BF002099
:103C800002BD80B518B1C168C9680A0001D1012020
:103C900002BD8847012818BF002002BD002818BFB8
:103CA000002901D101207047C078FFE7087000208B
:103CB0007047002818BF002901D101207047807883
:103CC000F4E780B500281CBFC268002902D0126941
:103CD000130001D1012002BD9047012818BF002028
:103CE00002BD80B500281CBFC268002902D09269BD
:103CF000130001D1012002BD9047012818BF002008
:103D000002BD80B500281CBFC268002902D0D2695C
:103D1000130001D1012002BD9047012818BF0020E7
:103D200002BD000010B50C4600212160D8B1022868
:103D300020D01CD30328204622D000F0B7F8012859
:103D40000FD12146022000F058F8012809D1204661
:103D500000F01CF8012804D1214600F04EF801289B
:103D600012D0002010BD204600F010F805E02146DA
:103D7000012000E0214600F040F80128F1D103E0E5
:103D800000F094F80128ECD1012010BD38B5644D45
:103D90000446E87801282FD0FDF702FF01282BD038
:103DA000BC202870BE206870002068802871012027
:103DB000687105F15000A8605A48E8600020286149
:103DC0005948286705F1700028650020686525605E
:103DD000E8680168080002D100F0B2F807E0284660
:103DE0008847012807D12068142101F041FE0020F6
:103DF0002060012032BD002032BD70B50546484E1E
:103E0000142000FB05600C46C07801284DD0FDF75A
:103E1000C7FE012849D0012D06F114004349444A48
:103E200002D0022D17D030E0BD230370C260BA2348
:103E3000437001660123837000220023C370037165
:103E400006F1740101234371026106F15803836096
:103E50004164826418E0BD230375091DB8234375CE
:103E600002620223837541660023C3750376002234
:103E70000123437606F1780106F16003C3614262D3
:103E8000C164026506F1280020602068C1680968E5
:103E90000A0008BF142104D08847012804D12068F3
:103EA000142101F0E5FD4FE0002070BD70B51C4EFF
:103EB00006F13C050446E878012830D0FDF770FE95
:103EC00001282CD0B1202870B82068700320A87079
:103ED0000020E87028710120687106F16800A86070
:103EE0001448E860144828611448286406F17C00EE
:103EF000E862002028632560B06C0168080002D1E8
:103F000000F01EF807E028468847012804D1206801
:103F1000142101F0ADFD17E0FDF785FE002070BD16
:103F20004C070020DC0400207C0A0020640A0020EA
:103F30007C0500202C050020780400205C0A00206D
:103F40001421284601F0FCB900202060012070BD3A
:103F500080B518B1C16889680A0001D1012002BD8D
:103F60008847012818BF002002BD80B518B1C1687C
:103F7000C9680A0001D1012002BD8847012818BF85
:103F8000002002BD002818BF002901D10120704780
:103F9000C078FFE7087000207047002818BF00298C
:103FA00001D1012070478078F4E780B500281CBF5C
:103FB000C268002902D01269130001D1012002BD9C
:103FC0009047012818BF002002BD80B500281CBF03
:103FD000C268002902D09269130001D1012002BDFC
:103FE0009047012818BF002002BD80B500281CBFE3
:103FF000C268002902D0D269130001D1012002BD9C
:104000009047012818BF002002BD000010B50C46E3
:1040100000212160A0B102281BD013D3204600F05C
:1040200074F801280AD1214600F01AF8012805D1B8
:104030002146002000F014F801280FD0002010BD08
:10404000214601E02146012000F00AF80128F5D1BF
:1040500004E0204600F059F80128EFD1012010BDFE
:1040600070B50546474E142000FB05600C46C0782D
:10407000012849D0FDF794FD012845D04248434925
:1040800015B1012D16D02FE0BD223270F160BA2299
:10409000727070650022728032710021012272718B
:1040A00006F1540006F13C02B2603161F063316404
:1040B000266019E0BD223275001DB8227275B06508
:1040C0000122B27531620022F275327606F1580093
:1040D00001227276706406F144020021F26171627D
:1040E000B16406F1140020602068C16809680A0004
:1040F00008BF142104D08847012804D12068142166
:1041000001F0B6FC4AE0002070BD70B51D4E06F10E
:1041100028050446E878012832D0FDF741FD012842
:104120002ED0B1202870B82068700220A87000201E
:10413000E87028710120687106F14C00A8601448ED
:10414000E860144828611448686306F15C006862FE
:104150000020A8622560706B0168080004D114215A
:10416000284601F0EDF807E028468847012804D1E9
:104170002068142101F07CFC10E0FDF754FD0020C4
:1041800070BD00004C080020640A00205405002087
:1041900004050020780400205C0A00200020206034
:1041A000012070BD80B518B1C16889680A0001D1CD
:1041B000012002BD8847012818BF002002BD80B53C
:1041C00018B1C168C9680A0001D1012002BD884741
:1041D000012818BF002002BD002818BF002901D106
:1041E00001207047C078FFE7087000207047002862
:1041F00018BF002901D1012070478078F4E780B50D
:1042000000281CBFC268002902D01269130001D126
:10421000012002BD9047012818BF002002BD80B5D3
:1042200000281CBFC268002902D09269130001D186
:10423000012002BD9047012818BF002002BD80B5B3
:1042400000281CBFC268002902D0D269130001D126
:10425000012002BD9047012818BF002002BD0000C8
:104260000CB41CB5044604A801900A46009401ABA6
:1042700000A907487844183001F0FEFB009A00219D
:10428000117000285CBF0098001B16BC5DF80CFB89
:104290007BD0FFFF00F10103810704D010F8011B60
:1042A00089B18107FAD10268B2F10131914311F06D
:1042B000803F04BF50F8042FF6E710F8011B11B13E
:1042C00010F8011BFBE7C01A7047000038B5040066
:1042D0000BD004F16805687818B92870204600F002
:1042E00032F800F00DF8012801D1012032BD606ADA
:1042F00008B100F025F800F014F821F02A0109E0D7
:104300000220687020680168490849000160204661
:1043100000F06CB8816000F00CF8BDE8324000F0AD
:10432000F6B92068416821F49041416020688168B5
:1043300070472068016841F0010101602046704724
:10434000204600F081B97047F8B5044604F15007E3
:104350000D46787E01281CBF787E22281E4640D15B
:10436000002D18BF002A01D10120F2BD387E01289E
:1043700037D0012038760020F861787E22280CBFE3
:104380003220122078763A807A8001E02168088510
:104390007888A8B1401E788033460022802100F042
:1043A00022F898B9A068B0F5805F04BF20690028A2
:1043B00011BF15F8010B35F8020BC005C00DE5E77C
:1043C00033460022402100F00EF808B10320F2BD70
:1043D000787E32280CBF22200120787600203876A3
:1043E000F2BD0220F2BD204600F0B6B9F8B5044691
:1043F000894B226810681840A36818432369184342
:1044000063691843E3691843106010265068E36835
:1044100020F440501843506000210025A0697F4BD4
:104420009A421CBF276A3843976827F4306738439D
:1044300090607B4F7B48BA421FD1006810F00300A8
:1044400004D0022826D035D3032831E00126E069C4
:10445000B0F5004F40F0B98066B1012E00F09E80AB
:10446000022E00F09E80042E00F09D80082E00F0A9
:104470009E80A2E001F059FA97E06B4FBA420BD14F
:10448000006810F00C005DD0042813D0082801D07B
:104490000C280DE002261DE0644FBA420CD10068E2
:1044A00010F030004ED0102804D02028F2D0302850
:1044B0000FD00FE004260DE05D4FBA4223D1006813
:1044C00010F0C0003ED04028F4D08028E2D0C028B0
:1044D00000D108269A42BAD1300006D0022E33D03D
:1044E000042E33D0082E34D092E001F01EFA0028BA
:1044F00000F08F80626802EB4201884202D3110310
:10450000814229D284E04B4FBA420CD1006810F4AA
:10451000407017D0B0F5807FCCD0B0F5007FB9D017
:10452000B0F5407FC4E79A42D4D1006810F44060EF
:1045300008D0B0F5806FBDD0B0F5006FAAD0B0F54F
:10454000406FB5E70026C5E73B48D3E701F096F991
:10455000CDE74FF40040CDE736B1022E07D0042E50
:1045600007D0082E0CD012E001F0DFF903E0334849
:1045700008E001F083F9010E62680002002303E005
:104580004FF4000000210B4601F048FE00E0012539
:10459000A0F540712A4A91423AD22EE001F0CDF9BD
:1045A00003E0284805E001F069F9400001E04FF41C
:1045B00080306168B0FBF1F100E001254FF6F0704A
:1045C0000840C1F34201084317E046B1012E09D06B
:1045D000022E0AD0042E0AD0082E11D018E001F0C5
:1045E000A4F906E001F0A9F903E013480AE001F09C
:1045F00045F96168B0FBF1F080B22168C86008E05D
:104600004FF400406168B0FBF1F080B2D06000E090
:1046100001252846F2BD0000F369FFEF008000404D
:10462000003801408810024000440040004800402B
:10463000004C0040005000400024F400000024F42E
:1046400000FD0F000048E80190F82410C90706D5C6
:1046500001684A68836A22F400321A434A6090F87B
:104660002410890706D501684A68C36A22F480329B
:104670001A434A6090F82410490706D501684A6831
:10468000036B22F480221A434A6090F82410090731
:1046900006D501684A68436B22F400421A434A6017
:1046A00090F82410C90606D501688A68836B22F445
:1046B00080521A438A6090F82410890606D5016852
:1046C0008A68C36B22F400521A438A6090F824105F
:1046D000490610D501684A68036C22F480121A4317
:1046E0004A60026CB2F5801F05D14A68436C22F41F
:1046F000C0021A434A6090F82410090606D50168E2
:104700004A68806C22F4002210434860704770B5FC
:10471000044604F16805002068606FF07E4620685A
:104720000068000706D5334600224FF40011FFF75A
:104730005AFE50B920680068400708D53346002269
:104740004FF48001FFF74FFE08B1032070BD012038
:1047500068700020287070BD2DE9F84304460E46AD
:1047600091461F46FEF763FCB9F1000F804604F145
:1047700068050FD12068C0693040B0422BD017F1D6
:10478000010FF7D0AFB1FEF752FCA0EB0800874253
:10479000F0D20EE02068C0693040B0421BD117F162
:1047A000010FF7D02FB1FEF742FCA0EB08008742C3
:1047B000F0D2206800F012F821F02001016020689A
:1047C000016821F48071016000F00FF8687000202A
:1047D0002870032000E00020BDE8F283016821F08A
:1047E000800101602068016870472068816849087D
:1047F000490081600120704700000000010040F185
:104800000780F446404200F003F851F00041604751
:1048100009D0B0FA80F18840C91CC1F5846109054E
:1048200001EBD021400570472DE9F8452DED088BAF
:104830000FB486B040F2FF7107989DED080B8DED27
:10484000040BC0F30A50884208D1079800240003E3
:1048500005BF069800280225012512E0012807DA85
:1048600006A801F052FD012802DB0024002508E023
:10487000079A40F2FE3161F31E520792441A4FF03C
:10488000FF35002104A801F061FD1A9F06460FB113
:104890000020388036B9DDE908230020002101F02E
:1048A00095FD12D0002D13D524B2012C15D1DDE9D0
:1048B00006230020DFF88C1301F088FD05D0012EBF
:1048C0000BD1DF4901F082FD3ED10AB0CD49E8E1CC
:1048D000022D04D1DDE90601E2E1012E6FDB022E9B
:1048E00008BFDDE9080100F0DB81012D2AD107981E
:1048F0000028099806D4002854BF9FEDD50B9FEDE2
:10490000D60BCBE100280ED456B94FF0FF3104A8E6
:1049100001F01CFD002848BF9FEDD10B00F1BE81C6
:104920009FEDCB0BBAE156B94FF0FF3104A801F06F
:104930000DFD002848BF9FEDB40B00F1AF819FED46
:10494000C60BABE1012E11D10998002824B206D480
:10495000012CACBF9FEDBE0B9FEDBF0B9EE1012C68
:10496000ACBF9FEDBD0B9FEDBA0B97E109980028F6
:1049700010D466B94FF0FF3104A801F0E7FC00281D
:1049800042BF079800289FEDA00B00F187819FEDA3
:10499000B20B83E101F02AFD2221016066B94FF0DC
:1049A000FF3104A801F0D2FC002842BF079800287C
:1049B0009FEDAB0B00F172819FEDA50B6EE10798A7
:1049C000002848BF002E0CD501F010FD2121016008
:1049D0000AB04FF0FF30BDEC088B6FF00041BDE82E
:1049E000F485DDE906010022002301F005FD38BF52
:1049F000002509D381F00041CDE906014FF0FF31D8
:104A000004A801F0A3FC0546012C13D1DDE9060141
:104A10007F4A804B01F008FD0CD2DDE9062300201F
:104A20004FF0804100F088FBCDE9060100269FEDA4
:104A30007A8B1CE0DDE906230020794900F07CFB3D
:104A40009FED788B53EC182B01F006FD00F052FC23
:104A5000A0F120063046FFF7D1FE0022734B00F094
:104A60006BFB53EC182B01F0F7FC41EC180B0FF229
:104A7000582000EB461ADDE9060153EC182B01F033
:104A80005FFDDDE9062341EC190B51EC180B01F039
:104A9000E3FC02460B4651EC190B01F011FE41EC10
:104AA0001A0B53EC1A2B00F047FB41EC1B0B8DED5E
:104AB000069B01F031FF53EC1B2B00F03DFBDDE9C1
:104AC000062301F03DFD0646884600204D4953EC83
:104AD000182B01F035FD00224FF0804300F02CFB35
:104AE0003246434601F0B8FC53EC1A2B00F024FB8D
:104AF000DDE9062301F0B0FC41EC180B4C4A4D4BAC
:104B000001F0DEFDCDE904012046FFF777FE41EC20
:104B1000190BDAE9000153EC192B01F09DFCDDE9DA
:104B2000042301F099FCCDE90401DDE9082300F03C
:104B300003FB0022404BCDE9020101F075FCC0F0FF
:104B4000938001223D4B01F057FC40F291800022FE
:104B5000002301F069FCDDE9022339BF0020384958
:104B60000020384901F078FC00F0C4FB0446DDE980
:104B7000080153EC182B00F0DFFACDE90201DAE965
:104B80000223DAE9040101F067FCDDE9082300F003
:104B9000D3FA9FED2D8B53EC182B00F0CDFADDE905
:104BA000022301F059FCCDE90201DAE9002351ECBE
:104BB000190B01F051FCDDE9082300F0BDFA0646AF
:104BC00088462046FFF71AFE02460B46304641460D
:104BD00001F0B6FC53EC182B00F0AEFADDE902232D
:104BE00001F03AFCCDE902010FB13C8000240094B1
:104BF0000022044B02A801F0E7FEA8B3012837D039
:104C000042E000BF0000F03F000000000000008014
:104C1000CD3B7F669EA0E63F000000000000F03F15
:104C200000005040000000000000E03F0000903F06
:104C3000EF39FAFE422EE63F0000E0C00000E040FF
:104C40000000E0BF0000E03FEF39FAFE422EE63FF1
:104C5000000000000000F07F0000000000000000E5
:104C6000000000000000F0FF0020CDE9020007E096
:104C70000020014902E000BF0000F07FCDE9020101
:104C800001F0B4FB22210160002D1DBFDDE902010E
:104C900081F0004141EC100B9DED020B51EC100B2B
:104CA0000AB0BDEC088BBDE8F48580B5002000900B
:104CB00053EC112B51EC100BFFF7B6FD41EC100B30
:104CC00001BD000000000000000000000000F0BF77
:104CD00000000000000000800000000000000080D4
:104CE0000000000000000000000000C05294EEBF71
:104CF00000000048204E51BE000000F86467BCBCB4
:104D00000000000000000000000000208133EDBF23
:104D100000000080B3DB14BE000000506706A3BC97
:104D20000000000000000000000000D0E9DCEBBF44
:104D300000000008C39259BE00000080B0D3B8BC88
:104D4000000000000000000000000070F98FEABFC2
:104D5000000000C0A51028BE000000E8BFC0B0BC25
:104D6000000000000000000000000070284CE9BFB7
:104D700000000060134B42BE000000C03D20B8BCE4
:104D8000000000000000000000000050FA10E8BF22
:104D9000000000C05FF62BBE000000905C71A7BC55
:104DA000000000000000000000000020FCDDE6BF65
:104DB000000000C0F8F154BE00000018E9F6B9BCCC
:104DC0000000000000000000000000D0C3B2E5BFFA
:104DD00000000070E43254BE00000050DB06B4BC9A
:104DE000000000000000000000000010EF8EE4BF93
:104DF00000000020F36252BE000000C02A879ABC67
:104E00000000000000000000000000B02272E3BFBC
:104E1000000000F0E8E056BE00000028352DBDBCC3
:104E20000000000000000000000000000A5CE2BF7B
:104E3000000000B0FA8E41BE00000040AE6FBDBC65
:104E4000000000000000000000000000564CE1BF20
:104E5000000000F015CD5FBE00000000141C90BCE7
:104E6000000000000000000000000040BD42E0BF64
:104E700000000030F93457BE000000E06C1E93BC07
:104E80000000000000000000000000E0F57DDEBF33
:104E9000000000B08A535EBE00000080DA77AABC32
:104EA0000000000000000000000000C09D81DCBF89
:104EB00000000000FFA226BE0000006057E2B0BC68
:104EC000000000000000000000000060F98FDABF61
:104ED000000000580A8151BE000000F05F60B8BCBD
:104EE00000000000000000000000000098A8D8BFEB
:104EF000000000607A7F45BE000000D05433A3BCA0
:104F00000000000000000000000000600FCBD6BFD2
:104F1000000000D091CB40BE000000406D1BA0BC43
:104F20000000000000000000000000A0FBF6D4BF5D
:104F300000000098C5CE52BE000000003A397EBC89
:104F40000000000000000000000000E0FE2BD3BFC6
:104F50000000004073872BBE00000000926879BCFF
:104F6000000000000000000000000040C069D1BF48
:104F700000000058F16353BE00000080438D7CBCEC
:104F8000000000000000000000000080D85FCFBFDC
:104F9000000000181F8354BE000000B03F42A2BCB6
:104FA00000000000000000000000008067FCCBBF94
:104FB00000000060FAFF53BE00000050E00DB8BCD6
:104FC00000000000000000000000000098A8C8BF1A
:104FD000000000607A7F35BE000000C0543393BCEF
:104FE000000000000000000000000000DC63C5BFFE
:104FF00000000058D6FF54BE00000000396490BC89
:105000000000000000000000000000C0AD2DC2BF85
:1050100000000080A45915BE000000E0484BABBC66
:105020000000000000000000000000801A0BBEBF5E
:1050300000000050BF3C5ABE000000A0B364B6BCE4
:1050400000000000000000000000008004D6B7BF90
:1050500000000040BBCF36BE0000008076CEA8BC6A
:1050600000000000000000000000008032BBB1BF63
:10507000000000402A0043BE00000028C60CBDBC52
:105080000000000000000000000000009473A7BFB3
:10509000000000182B3B59BE000000C0E55DA5BC18
:1050A000000000000000000000000000EE4397BF79
:1050B000000000A0E6C340BE00000020958DB5BCF6
:1050C0000000000000000000000000000000008060
:1050D00000000000000000800000000000000080D0
:1050E00000000000000000005FF0FF0C1CEAD0513F
:1050F00014BF614506E0C110400721F0E04101F115
:105100006051704779B900F0004100020AD0B0FA4E
:1051100080FC00FA0CF001F16051A1EB0C5101EBA5
:10512000D0214005704741020CBF40F4E0016FF010
:105130000001002070470000B0B581EA030C0CF0BC
:10514000004C40F2FF7515EA11541DBF15EA1357C4
:10515000AC42AF4239E0E41923EA455343F48013EB
:10516000C90241F0004141EA505EC7021100A7FBAD
:10517000020200284FF00000EEFB01204FF000017A
:10518000E3FB072118BF42F001024018002149410A
:10519000E3FB0E01A4F580640F0302D252004041EC
:1051A000494154F101046CDD470872F1004250F1AD
:1051B000000051EB0451A1F580115CBF41EA0C01E4
:1051C000B0BD4CEA05510020B0BD05EA1357AC4212
:1051D00014BFAF4241E050EA410E1CBF52EA430EF9
:1051E00002E061460020B0BD24423C441BD15FEA8E
:1051F000070EF6D0090302BF01460020AEF1140EDF
:10520000B1FA81F7AEEB070401FA07FE0C37C7F1DC
:10521000200100FA07F7C8404EEA000E23EA455382
:1052200043F48013A2E733F00043B3FA83F704BFDB
:10523000B2FA82FE77440B3FE41BB7F1200E2FBF7A
:1052400002FA0EF3BB40C7F1200E22FA0EFE38BF61
:1052500043EA0E03BA40641C82E750EA410E14BFD1
:1052600052EA430E6FF000014FF4001717EB430FA3
:105270008ABF194617EB410FB5E74CEA05510020EC
:10528000B0BDD4F10104B4F120070FDAC4F1200756
:10529000520828BF42F0010210FA07F501FA07F799
:1052A000E1BF2A43E0403843E1400FE0352C98DC71
:1052B000C7F1200452EA400220FA07F218BF42F078
:1052C000010231FA07F0A1400A43002172F10042C5
:1052D00050F1000051EB0C01B0BD00B583B00021CE
:1052E0008DED000B00A801F031F89DED000B03B02F
:1052F00000BD0000F446400D40EAC120490006D23E
:1053000000F00EF8004248BF6FF00040604700F028
:1053100007F84FF0004188428CBF08464042604782
:1053200040F00040490DA1F58061491C05D4D1F140
:105330001F0154BFC840C01770474FF000007047AE
:10534000002201F0A5BC00002DE9F8430446DFF877
:1053500080562078DFF87066C00626D5B06810F059
:105360000C0F3AD13068800702D5A069002832D0EE
:10537000306800074EBF30686868000900F0F0012F
:10538000206A814206D200F0E3FA002823D100F01F
:10539000BEF905E000F0BBF9206A00F0D9FAD0B9F7
:1053A00000F06CFAB26800F054FA2078C00774D5A7
:1053B00000F0A9F9082808D000F0A5F90C2802BFD0
:1053C000F06800F0030003282AD13068800364D518
:1053D0006068002861D101208AE1A0690028306856
:1053E00010D040F0010000F085F9074630688007D2
:1053F00005D4FDF71CFEC01B0328F7D375E100F0B0
:1054000086F9D2E74008400000F074F9074630689A
:105410008007CAD5FDF70BFEC01B0328F7D364E154
:1054200000F06BF920F4802000F064F90746306842
:10543000800305D5FDF7FBFDC01B6528F7D354E1BC
:105440006068B0F5803F07D0B0F5A02F00F055F9A7
:1054500006D140F480203060306840F4803001E0B4
:1054600020F480203060606858B1FDF7E0FD074609
:105470003068800311D4FDF7DAFDC01B6528F7D32F
:1054800033E1FDF7D4FD07463068800305D5FDF70D
:10549000CEFDC01B6528F7D327E12078800719D5FA
:1054A00000F031F9042808D000F02DF90C2802BFD3
:1054B000F06800F00300022822D13068400502D5D0
:1054C000E068002887D07068216920F0F85040EA31
:1054D000016070602078000741D560690028686825
:1054E0002ED040F001006860FDF7A1FD0746686816
:1054F000800734D4FDF79BFDC01B0328F7D3F4E0ED
:10550000E068002830680DD040F4807000F0F2F8B8
:10551000074630684005D6D4FDF789FDC01B032837
:10552000F7D3E2E020F4807000F0E4F8074630683A
:105530004005CFD5FDF77BFDC01B0328F7D3D4E092
:10554000400840006860FDF772FD07466868800704
:1055500005D5FDF76CFDC01B0328F7D3C5E0207807
:10556000400766D5B06DC0004FF000080AD4B06D9A
:1055700040F08050B0654FF00108B06D00F08050F1
:1055800000900098DFF84C94D9F80000C00512D4C0
:10559000D9F8000040F48070C9F80000FDF747FD1D
:1055A0000746D9F80000C00505D4FDF740FDC01B33
:1055B0000328F6D399E0A06801280CD008B9286820
:1055C0000DE0052828680AD14008400028602868B6
:1055D00040F004002860286840F0010005E0400821
:1055E00040002860286820F00400286041F28939D2
:1055F000A06858B1FDF71BFD07462868800711D445
:10560000FDF715FDC01B4845F7D36EE0FDF70FFD14
:1056100007462868800705D5FDF709FDC01B4845EA
:10562000F7D362E0B8F1000F03D0B06D20F08050E6
:10563000B065606A00285AD0B16801F00C010C29ED
:105640003FF4C9AE0228306820F08070306038D155
:10565000FDF7EDFC07463068800105D5FDF7E7FC56
:10566000C01B0328F7D340E0E06A216B401E09020B
:1056700041EA0010616B090940EA4140A16A084310
:10568000A16B891E0905490D40EA4150E16B891E55
:10569000090601F07E410843F060306840F08070F8
:1056A0003060F06840F08070F060FDF7C0FC0746A5
:1056B000306880011BD4FDF7BAFCC01B0328F7D368
:1056C00013E0F068DFF8101380088000F060F068E5
:1056D0000840F060FDF7ABFC07463068800106D556
:1056E000FDF7A5FCC01B0328F7D3032000E0002032
:1056F000BDE8F2833060FDF79ABC306820F480305A
:10570000306030687047B06800F00C007047306857
:1057100040F0080030603068216A20F0F000084353
:1057200030607068E16920F47F4040EA01207060D9
:1057300070472DE9F843DFF8A462044630688846D4
:1057400000F00700404502D200F08EF864D12078C6
:10575000DFF87472800705D5B868A16820F0F00002
:105760000843B8602078C0074ED56068022802D18F
:105770003968890308E0032802D13968890103E008
:105780000028396802D1890702D445E0490543D58C
:10579000B968890840EA8100B86041F28939FDF7AB
:1057A00046FC0546606802280AD1B86800F00C0083
:1057B000082829D0FDF73BFC401B4845F5D321E0E4
:1057C00003280AD1B86800F00C000C281CD0FDF7A3
:1057D0002EFC401B4845F5D314E048B9B86810F0DA
:1057E0000C0F11D0FDF723FC401B4845F6D309E010
:1057F000B86800F00C00042806D0FDF718FC401B28
:105800004845F5D3032022E0306800F007008045CA
:1058100004D200F029F801D0012018E020784007D8
:1058200005D5B868E16820F4E0600843B8602078E6
:10583000000706D5B868216920F4605040EAC1002D
:10584000B86000F01BF8BA6800F003F80020BDE86B
:10585000F2836349C2F30312515C20FA01F25B4800
:1058600002600F20FDF7CCBB3068C00848EAC000DA
:105870003060306800F007004045704752498B683F
:105880000022002013F00C0F09D08B6803F00C03EA
:105890000C2B02BFCB6803F00303012B13D10A6862
:1058A000120704D4504A1268C2F3032202E00A68C5
:1058B000C2F303124D4B53F822208B6813F00C0FE8
:1058C0000ED110460CE08B6803F00C03042B08BFCC
:1058D000474805D08B6803F00C03082B08BF4548E8
:1058E0008B6803F00C030C2B1ED1C868CB68C3F384
:1058F00002135B1C00F00300022802D0032802D030
:1059000005E03B4800E03B48B0FBF3F001E0B2FBB0
:10591000F3F0CA68C968C1F34161C2F30622491CA9
:1059200050434900B0FBF1F0704728482D4A016808
:1059300012683148C2F3022206E02448294A01686D
:1059400012682D48C2F3C222125C21FA02F070479D
:1059500070B52A4E82B0054630680024C00002D5DA
:1059600001F0B0F90EE0306840F0805030603068EF
:1059700000F080500090009801F0A4F9316821F007
:1059800080513160B0F5007F04D1812D0DD3A12D60
:105990000AD305E0812D28BF032406D2802D01D132
:1059A000022402E0702D00D101240C480168C908CE
:1059B00044EAC1010160006800F00700A04201D084
:1059C000012076BD002076BD00100240D4050020E5
:1059D0009010024000700040FFFFEEFE00200240E9
:1059E00038A70008081002409410024048A7000899
:1059F0000024F40000127A008CAA0008581002401B
:105A000010B51A4CB0B0206840F08050206020687B
:105A100000F080500090009801F05CF90C201F907D
:105A20000020289001202190002024901FA8FFF73B
:105A30008BFC08B1FDF7FEF94FF4003001904FF4F4
:105A400080701E9001A801F04DF908B1FDF7F2F940
:105A5000A06B40F40040A06300220F212920FCF736
:105A6000B1FA2920FCF7CBFA30B010BD5810024033
:105A7000002201F0E7BB00002DE9F04F80460FF255
:105A8000847095B092461D46D0E90023CDE91323DA
:105A900003AE00200391B0610DF1340900E0A2448F
:105AA0000020ADF8020013AB4FF0FF3251460DF16C
:105AB000020001F0F6FB0446012C05DA9AF800001A
:105AC000441EA441E443E40FBDF8020025280CBFA6
:105AD000A4F1010BA346BBF1010F0EDB574617F8EB
