:020000040800F2
:10000000A0080020616C0008B56B0008B76B000801
:10001000A16C0008A56C0008A96C00080000000095
:10002000000000000000000000000000AD6C0008AF
:10003000B96B000800000000B16C0008BB6B000841
:10004000B56C0008B96C0008BD6C0008C16C0008F4
:10005000C56C0008C96C0008CD6C0008D16C0008A4
:10006000D56C0008D96C0008C36B0008DD6C000873
:10007000E16C0008E56C0008E96C0008ED6C000814
:10008000F16C0008F56C0008F96C0008FD6C0008C4
:10009000016D0008056D0008096D00080D6D000870
:1000A00000000000116D0008156D0008196D0008B2
:1000B0001D6D0008216D0008256D0008296D0008E0
:1000C0002D6D0008316D0008356D0008396D000890
:1000D0003D6D0008416D0008456D0008496D000840
:1000E000CD6B00084D6D0008516D0008556D00087E
:1000F000596D0008000000005D6D0008616D00088A
:10010000656D0008696D00086D6D0008716D00086F
:10011000756D0008796D00087D6D00080000000015
:10012000816D000870B582B0040000A8DFF8581592
:100130000A680260A5682E68200000F0B4FA012861
:1001400001D1012035E00421200001F0DDF9002873
:1001500001D101202DE04021200001F0F8F9002814
:1001600001D1012025E00021200001F00BF9002839
:1001700001D101201DE0DFF844063060002120009D
:1001800001F08DF9002801D1012012E000212000AA
:1001900000F0CDF9012801D101200AE000A92000DA
:1001A00000F043FA012801D1012002E00120E070B3
:1001B000002076BD70B50400A5682E68200000F010
:1001C00072FA012801D101203CE0200000F01EFC61
:1001D000012801D1012035E0200000F0B9FF0128FD
:1001E00001D101202EE0200000F08AFC012801D17D
:1001F000012027E0200000F019FE012801D1012094
:1002000020E0200000F0CEFE012801D1012019E0FD
:10021000200000F014FD012801D1012012E020008F
:1002200000F072FD012801D101200BE0200000F058
:100230001FF8012801D1012004E0002030600020D7
:10024000E070002070BD70B50400A5682E682079AC
:10025000012801D100200AE03168200000F0B0FA46
:10026000012801D1012002E001202071002070BD91
:1002700070B50400A5682E682079002801D10020FF
:1002800012E03100200000F097F8012801D1012090
:100290000AE00021200001F002F9002801D101202C
:1002A00002E000202071002070BD38B504000D0070
:1002B0002900200000F0EAF932BD10B5040020004A
:1002C00000F0F1F910BD3EB504000D0000200090D3
:1002D00001A9200000F0FEF9012801D1012026E04B
:1002E00000A9200000F03BF8012801D101201EE008
:1002F000BDF9040001F0F8FE009901F00DFF01F0D6
:1003000077FF2860BDF9060001F0EEFE009901F0CC
:1003100003FF01F06DFF6860BDF9080001F0E4FE25
:10032000009901F0F9FE01F063FFA86000203EBDD6
:1003300030B583B004000D0000A9200000F0CAF918
:10034000012801D1012009E0BDF800002880BDF896
:1003500002006880BDF80400A88000203EBD38B5CA
:1003600004000D0000A9200001F087F8002801D149
:10037000012020E09DF80000002806D0042810D0BD
:10038000082806D00C2808D00FE0DFF8F404286015
:1003900010E0DFF8F00428600CE0DFF8EC042860DF
:1003A00008E0DFF8E804286004E0DFF8980528603A
:1003B000012000E0002032BD38B504000D0000A986
:1003C000200001F08FF8002801D101204FE09DF8B6
:1003D0000000002816D0102817D0202819D0302867
:1003E0001BD040281DD050281FD0602821D0702855
:1003F00023D0802825D0902827D0A02829D0B02825
:100400002BD02EE00020286030E0DFF83C0528608B
:100410002CE0DFF83805286028E0DFF83405286094
:1004200024E0DFF89803286020E0DFF82805286042
:100430001CE0DFF82405286018E0DFF820052860BC
:1004400014E0DFF81C05286010E0DFF818052860CC
:100450000CE0DFF81405286008E0DFF810052860DC
:1004600004E0DFF8E0042860012000E0002032BD55
:1004700038B504000D002079012808D12900C9B23F
:10048000200000F04FF901280AD1012009E02900DD
:10049000C9B2200000F06FF9012801D1012000E06D
:1004A000002032BD38B504000D002079012807D1A5
:1004B0002900200000F084F9012809D1012008E07A
:1004C0002900200000F0E4F9012801D1012000E01A
:1004D000002032BD38B504000D0000A9200000F056
:1004E000CCFF002801D1012020E09DF80000002869
:1004F00006D0042810D0082806D00C2808D00FE019
:100500005FF08040286010E05FF0814028600CE0E0
:100510005FF08240286008E05FF08340286004E0DC
:10052000DFF820042860012000E0002032BD70B513
:1005300004000D00EDB2002D03D0022D07D003D32F
:1005400008E00020060007E00820060004E00C2078
:10055000060001E0012009E03100C9B2200000F0EE
:1005600069FF002801D1012000E0002070BD70B5B6
:1005700004000D002800DFF8FC1301F05BFE01D23F
:10058000002610E02800DFF8F01301F053FE01D23E
:10059000082608E02800DFF8701401F04BFE01D2B5
:1005A0000C2600E004263100C9B2200000F042FF12
:1005B000002801D1012000E0002070BD38B5040002
:1005C0000D000DF10201200001F007F8002801D113
:1005D000012029E00DF10101200001F033F800288D
:1005E00001D1012020E000A9200001F060F80028DE
:1005F00001D1012018E09DF80200082801D1012056
:1006000000E0002028709DF80100102801D1012091
:1006100000E0002068709DF80000202801D1012032
:1006200000E00020A870002032BD38B504000D00A5
:100630002878012801D1082100E00021C9B220005A
:1006400000F0A8FF002801D101201CE068780128F3
:1006500001D1102100E00021C9B2200000F0CFFF3D
:10066000002801D101200EE0A878012801D1202125
:1006700000E00021C9B2200000F0F6FF002801D1FF
:10068000012000E0002032BD986C000838B504005D
:100690000D002900200000F0BBFE002801D1012040
:1006A00000E0002032BD10B582B0040000208DF8BB
:1006B000000000A92000FFF7E9FF012801D1012077
:1006C00007E09DF800002178884201D0012000E079
:1006D000002016BD30B583B004000D0000A8002135
:1006E000002206C0083800A9200001F082FC002882
:1006F00001D1012015E09DF801009DF8001011EBDB
:10070000002028809DF803009DF8021011EB0020C6
:1007100068809DF805009DF8041011EB0020A8806A
:1007200000203EBD70B504000D00EDB2002D06D0D6
:10073000022D0AD006D3042D0DD009D30EE01020CF
:1007400006000DE0102006000AE02020060007E069
:100750003020060004E04020060001E0012009E00E
:100760003100C9B2200000F09AFE002801D101201A
:1007700000E0002070BD10B4020093681C68C9B28C
:10078000002906D002290AD006D304290DD009D3A6
:100790000FE06D4820600EE06B4820600BE06B4876
:1007A000206008E06A48206005E0DFF880092060EA
:1007B00001E0012000E0002010BC70470000D042A2
:1007C00070B504000D002800DFF8C81701F032FDF5
:1007D00001D2102648E02800DFF8BC1701F02AFDFE
:1007E00001D2202640E02800DFF8B01701F022FDFA
:1007F00001D2302638E02800DFF8A41701F01AFDF6
:1008000001D2402630E02800DFF8241901F012FD63
:1008100001D2502628E02800DFF8181901F00AFD5F
:1008200001D2602620E02800DFF80C1901F002FD5B
:1008300001D2702618E02800DFF8001901F0FAFC58
:1008400001D2802610E02800DFF8F41801F0F2FC55
:1008500001D2902608E02800DFF8E81801F0EAFC51
:1008600001D2A02600E0B0263100C9B2200000F07D
:1008700016FE002801D1012000E0002070BD00001C
:1008800023DB793D23DBF93D23DB793E23DBF93E96
:1008900038B502000B00946825681800DFF8F416DC
:1008A00001F0C8FC01D2284848E01800DFF8E8163B
:1008B00001F0C0FC01D2254840E01800DFF8DC164A
:1008C00001F0B8FC01D2224838E01800DFF8D01659
:1008D00001F0B0FC01D2264830E01800DFF85018D3
:1008E00001F0A8FC01D21B4828E01800DFF84418EA
:1008F00001F0A0FC01D2184820E01800DFF83818F9
:1009000001F098FC01D2154818E01800DFF82C1807
:1009100001F090FC01D2124810E01800DFF8201816
:1009200001F088FC01D20F4808E01800DFF8141825
:1009300001F080FC01D20C4800E00C482860002047
:1009400032BD0000000080BF000050410000D041D7
:1009500000005042000050430000D043004050448B
:100960000080CF44002050450020D045004850462C
:100970000000D042010000400100804010B504009A
:10098000DFF8C8172000FFF78DFD012801D10120F5
:1009900038E00021200000F04DFD002801D10120A9
:1009A00030E00621200001F005FA002801D10120E5
:1009B00028E00021200001F0B4F9002801D1012035
:1009C00020E00021200001F089F9002801D1012058
:1009D00018E00021200001F05CF9002801D101207D
:1009E00010E00321200000F048F8012801D1012087
:1009F00008E01021200001F093FA002801D1012025
:100A000000E0002010BD00000100004110B504000E
:100A10000021200001F084FA002801D1012010E01B
:100A20000021200001F0C6F9002801D1012008E0D2
:100A30000021200001F09BF9002801D1012000E0F5
:100A4000002010BD38B504000D0000A9200000F002
:100A500098FE002801D101200EE09DF8000000283A
:100A600004D0202805D10120287004E0002028703F
:100A700001E0012000E0002032BD38B504000D0087
:100A80002900C9B2200001F072F9002801D101202B
:100A900000E0002032BD10B50400DFF8AC162000E5
:100AA000FFF700FD012801D1012028E000212000EE
:100AB00000F0C0FC002801D1012020E01721200017
:100AC00000F082F8012801D1012018E00421200063
:100AD00000F022FE002801D1012010E0402120007A
:100AE00000F0B3FF002801D1012008E080212000A0
:100AF00000F06BFC002801D1012000E0002010BDB7
:100B000010B504000021200000F05FFC002801D196
:100B1000012018E00021200000F097FF002801D1FB
:100B2000012010E00021200000F0F6FD002801D196
:100B3000012008E00021200000F046F8012801D142
:100B4000012000E0002010BD38B504000D0000A910
:100B5000200000F0CAFE002801D101200EE09DF81F
:100B60000000002804D0102805D10120287004E0DE
:100B70000020287001E0012000E0002032BD38B5DF
:100B800004000D002900200001F05EFA002801D1C8
:100B9000012000E0002032BD10B504000221200039
:100BA00000F097FD002801D1012000E0002010BDD9
:100BB00010B504000021200000F08BFD002801D1B9
:100BC000012000E0002010BD38B504000D00290010
:100BD000C9B2200001F063FA002801D1012000E031
:100BE000002032BD10B50400DFF85C152000FFF7CF
:100BF00059FC012801D1012020E00021200000F053
:100C000019FC002801D1012018E00421200000F087
:100C100083FD002801D1012010E02021200000F0F8
:100C2000F1FE002801D1012008E00221200001F09E
:100C30000EF9002801D1012000E0002010BD10B500
:100C400004000021200001F002F9002801D1012058
:100C500010E00021200000F0D5FE002801D1012085
:100C600008E00021200000F057FD002801D10120FC
:100C700000E0002010BD38B504000D0000A92000E0
:100C800000F045FE002801D101200EE09DF8000093
:100C9000002804D0202805D10120287004E000207D
:100CA000287001E0012000E0002032BD10B50400F2
:100CB000DFF898142000FFF7F5FB012801D101208F
:100CC00020E00021200000F0B5FB002801D1012028
:100CD00018E00021200001F024F8002801D10120B3
:100CE00010E00221200000F08CFF002801D101203B
:100CF00008E02021200001F036F9002801D1012070
:100D000000E0002010BD000010B50400002120000C
:100D100001F029F9002801D1012010E00021200074
:100D200000F0FFFF002801D1012008E00021200091
:100D300000F067FF002801D1012000E0002010BD75
:100D400038B504000D0000A9200000F008FD0028BF
:100D500001D101200EE09DF80000002804D00828F1
:100D600005D10120287004E00020287001E0012056
:100D700000E0002032BD38B504000D002900C9B2E2
:100D8000200000F03EFF002801D1012000E00020FB
:100D900032BD10B50400DFF8B4132000FFF782FB6A
:100DA000012801D1012040E00021200000F042FB99
:100DB000002801D1012038E00821200000F0FFFDCB
:100DC000002801D1012030E00421200000F0D4FDF2
:100DD000002801D1012028E00221200000F0A9FD17
:100DE000002801D1012020E00821200000F041F975
:100DF000012801D1012018E00221200000F047F96C
:100E0000012801D1012010E00121200000F04DF95E
:100E1000012801D1012008E04021200001F0C6F89E
:100E2000002801D1012000E0002010BD10B5040011
:100E30000021200001F0BAF8002801D1012030E0A3
:100E40000021200000F015F9012801D1012028E03F
:100E50000021200000F01BF9012801D1012020E031
:100E60000021200000F021F9012801D1012018E023
:100E70000021200000F05DFD002801D1012010E0DC
:100E80000021200000F078FD002801D1012008E0B9
:100E90000021200000F093FD002801D1012000E096
:100EA000002010BD38B504000D0000A9200000F09E
:100EB0008CFC002801D101200EE09DF800000028E4
:100EC00004D0202805D10120287004E000202870DB
:100ED00001E0012000E0002032BD10B504009B4974
:100EE0002000FFF7DFFA012801D1012050E00021A6
:100EF000200000F09FFA002801D1012048E00821DD
:100F0000200000F05CFD002801D1012040E0042118
:100F1000200000F031FD002801D1012038E002213D
:100F2000200000F006FD002801D1012030E008215A
:100F3000200000F09EF8012801D1012028E00321C3
:100F4000200000F0A4F8012801D1012020E00321B5
:100F5000200000F0AAF8012801D1012018E00821A2
:100F6000200000F0B0F8012801D1012010E080211C
:100F7000200000F06BFE002801D1012008E00821CC
:100F8000200000F0AAFF002801D1012000E000208D
:100F900010BD0000010050410100D041010050424D
:100FA0000100D04210B504000021200000F095FFA0
:100FB000002801D1012040E00021200000F059F874
:100FC000012801D1012038E00021200000F05FF865
:100FD000012801D1012030E00021200000F065F857
:100FE000012801D1012028E00021200000F06BF849
:100FF000012801D1012020E00021200000F026FE80
:10100000002801D1012018E00021200000F091FC0F
:10101000002801D1012010E00021200000F0ACFCEC
:10102000002801D1012008E00021200000F0C7FCC9
:10103000002801D1012000E0002010BD38B50400D7
:101040000D0000A9200000F0AEFB002801D1012016
:101050000EE09DF80000002804D0102805D10120E2
:10106000287004E00020287001E0012000E000204A
:1010700032BD38B504000D002900C9B2200000F0CF
:1010800007FD002801D1012000E0002032BD38B565
:1010900004000D002900C9B2200000F041FD002825
:1010A00001D1012000E0002032BD38B504000D0060
:1010B0002900C9B2200000F058FD002801D101200C
:1010C00000E0002032BD38B504000D002900C9B28F
:1010D000200000F070FD002801D1012000E0002078
:1010E00032BD10B5040019492000FFF7DBF90128D3
:1010F00001D1012018E00021200000F09BF9002818
:1011000001D1012010E04021200000F0E6FC002881
:1011100001D1012008E00421200000F0BBFE0028DE
:1011200001D1012000E0002010BD00000000D042ED
:10113000010050430100D043014050440180CF449E
:10114000012050450120D0450000D0410000D0438F
:1011500010B504000021200000F09CFE002801D101
:10116000012008E00021200000F0B7FC002801D198
:10117000012000E0002010BD38B504000D0000A9DA
:10118000200000F0A0FB002801D101200EE09DF816
:101190000000002804D0402805D10120287004E078
:1011A0000020287001E0012000E0002032BD38B5A9
:1011B00004000D0000A9200000F019FB002801D157
:1011C00001200EE09DF80000002804D0012805D180
:1011D0000120287004E00020287001E0012000E0D8
:1011E000002032BD38B504000D0000A9200000F039
:1011F00010FB002801D101200EE09DF8000000281E
:1012000004D0022805D10120287004E000202870B5
:1012100001E0012000E0002032BD38B504000D00DF
:1012200000A9200000F007FB002801D101200EE0FA
:101230009DF80000002804D0042805D10120287062
:1012400004E00020287001E0012000E0002032BD11
:1012500038B504000D0000A9200000F0FEFA0028B7
:1012600001D101200EE09DF80000002804D00828DC
:1012700005D10120287004E00020287001E0012041
:1012800000E0002032BD38B504000D0000A92000A8
:1012900000F0F5FA002801D101200EE09DF80000D1
:1012A000002804D0102805D10120287004E0002077
:1012B000287001E0012000E0002032BD38B50400B4
:1012C0000D0000A9200000F0ECFA002801D1012057
:1012D0000EE09DF80000002804D0202805D1012050
:1012E000287004E00020287001E0012000E00020C8
:1012F00032BD0268531C03601170704770B5040062
:101300000D001600012332002900C9B2200001F0AF
:101310000AF8002801D0002000E0012070BD34B59B
:1013200004000D00012300AA2900C9B2200000F02A
:10133000E3FF002801D0002000E0012032BD38B5D5
:1013400004000D0000AA01212000FFF7D7FF0028AC
:1013500001D1002015E09DF8000010F07F008DF80D
:1013600000009DF8000028438DF800009DF8002043
:1013700001212000FFF7D3FF002801D1002000E069
:10138000012032BD38B504000D0000AA0A2120005A
:10139000FFF7B4FF002801D1002015E09DF8000000
:1013A00010F0F8008DF800009DF8000028438DF83B
:1013B00000009DF800200A212000FFF7B0FF002860
:1013C00001D1002000E0012032BD38B504000D003D
:1013D00000AA0D212000FFF791FF002801D1002075
:1013E00015E09DF8000010F07F008DF800009DF8DA
:1013F000000028438DF800009DF800200D212000FA
:10140000FFF78DFF002801D1002000E0012032BD50
:1014100038B504000D002A000F212000FFF76EFFF1
:10142000002801D1002004E028782870287828704E
:10143000012032BD38B504000D0000AA10212000A3
:10144000FFF75CFF002801D1002015E09DF80000A7
:1014500010F0F3008DF800009DF8000028438DF88F
:1014600000009DF8002010212000FFF758FF002801
:1014700001D1002000E0012032BD38B504000D008C
:101480002A0010212000FFF739FF002801D1002099
:1014900004E0287810F00C002870012032BD38B527
:1014A00004000D0000AA10212000FFF727FF0028EC
:1014B00001D1002015E09DF8000010F00F008DF81C
:1014C00000009DF8000028438DF800009DF80020E2
:1014D00010212000FFF723FF002801D1002000E0A9
:1014E000012032BD38B504000D002A001021200073
:1014F000FFF704FF002801D1002004E0287810F055
:10150000F0002870012032BD38B504000D0000AA9B
:1015100012212000FFF7F2FE002801D1002015E083
:101520009DF8000010F0FB008DF800009DF8000011
:1015300028438DF800009DF8002012212000FFF7BD
:10154000EEFE002801D1002000E0012032BD38B5B8
:1015500004000D0000AA12212000FFF7CFFE002892
:1015600001D1002015E09DF8000010F0BF008DF8BB
:1015700000009DF8000028438DF800009DF8002031
:1015800012212000FFF7CBFE002801D1002000E04F
:10159000012032BD38B504000D0000AA182120003A
:1015A000FFF7ACFE002801D1002015E09DF80000F7
:1015B00010F0F7008DF800009DF8000028438DF82A
:1015C00000009DF8002018212000FFF7A8FE002849
:1015D00001D1002000E0012032BD38B504000D002B
:1015E0002A0018212000FFF789FE002801D10020E1
:1015F00004E0287810F008002870012032BD38B5CA
:1016000004000D0000AA18212000FFF777FE002833
:1016100001D1002015E09DF8000010F0EF008DF8DA
:1016200000009DF8000028438DF800009DF8002080
:1016300018212000FFF773FE002801D1002000E0F0
:10164000012032BD38B504000D002A001821200009
:10165000FFF754FE002801D1002004E0287810F0A4
:1016600010002870012032BD38B504000D0000AA1A
:1016700018212000FFF742FE002801D1002015E0CC
:101680009DF8000010F0DF008DF800009DF80000CC
:1016900028438DF800009DF8002018212000FFF756
:1016A0003EFE002801D1002000E0012032BD38B507
:1016B00004000D002A0018212000FFF71FFE00285B
:1016C00001D1002004E0287810F0200028700120CB
:1016D00032BD38B504000D0000AA19212000FFF723
:1016E0000DFE002801D1002015E09DF8000010F04B
:1016F000FD008DF800009DF8000028438DF80000E3
:101700009DF8002019212000FFF709FE002801D1D3
:10171000002000E0012032BD38B504000D0000AA11
:1017200019212000FFF7EAFD002801D1002015E073
:101730009DF8000010F0FB008DF800009DF80000FF
:1017400028438DF800009DF8002019212000FFF7A4
:10175000E6FD002801D1002000E0012032BD38B5AF
:1017600004000D002A001B212000FFF7C7FD002800
:1017700001D1002004E0287810F008002870012032
:1017800032BD38B504000D002A001B212000FFF7F0
:10179000B5FD002801D1002004E0287810F02000D9
:1017A0002870012032BD38B504000D002A001C212C
:1017B0002000FFF7A3FD002801D1002004E02878D5
:1017C00010F010002870012032BD38B504000D0063
:1017D0002A001C212000FFF791FD002801D10020E4
:1017E00004E0287810F020002870012032BD38B5C0
:1017F00004000D002A001D212000FFF77FFD0028B6
:1018000001D1002004E0287810F0010028700120A8
:1018100032BD38B504000D002A001D212000FFF75D
:101820006DFD002801D1002004E0287810F00200AE
:101830002870012032BD38B504000D002A001D219A
:101840002000FFF75BFD002801D1002004E028788C
:1018500010F004002870012032BD38B504000D00DE
:101860002A001D212000FFF749FD002801D100209A
:1018700004E0287810F008002870012032BD38B547
:1018800004000D002A001D212000FFF737FD00286D
:1018900001D1002004E0287810F010002870012009
:1018A00032BD38B504000D002A001D212000FFF7CD
:1018B00025FD002801D1002004E0287810F0200048
:1018C0002870012032BD38B504000D002A001D210A
:1018D0002000FFF713FD002801D1002004E0287844
:1018E00010F040002870012032BD38B504000D0012
:1018F0002A0053212000FFF701FD002801D100201C
:1019000004E0287810F010002870012032BD38B5AE
:1019100004000D002A0053212000FFF7EFFC0028EF
:1019200001D1002004E0287810F020002870012068
:1019300032BD38B504000D0000AA58212000FFF781
:10194000DDFC002801D1002015E09DF8000010F01A
:10195000FD008DF800009DF8000028438DF8000080
:101960009DF8002058212000FFF7D9FC002801D164
:10197000002000E0012032BD38B504000D0000AAAF
:1019800058212000FFF7BAFC002801D1002015E003
:101990009DF8000010F0FB008DF800009DF800009D
:1019A00028438DF800009DF8002058212000FFF703
:1019B000B6FC002801D1002000E0012032BD38B57E
:1019C00004000D0000AA58212000FFF797FC002812
:1019D00001D1002015E09DF8000010F0F7008DF80F
:1019E00000009DF8000028438DF800009DF80020BD
:1019F00058212000FFF793FC002801D1002000E0CF
:101A0000012032BD38B504000D0000AA5821200085
:101A1000FFF774FC002801D1002015E09DF80000BC
:101A200010F0DF008DF800009DF8000028438DF8CD
:101A300000009DF8002058212000FFF770FC0028CE
:101A400001D1002000E0012032BD38B504000D00B6
:101A500000AA58212000FFF751FC002801D10020E6
:101A600015E09DF8000010F0BF008DF800009DF813
:101A7000000028438DF800009DF800205821200028
:101A8000FFF74DFC002801D1002000E0012032BD0D
:101A900038B504000D0015F01F0500AA59212000DB
:101AA000FFF72CFC002801D1002015E09DF8000074
:101AB00010F0E0008DF800009DF8000028438DF83C
:101AC00000009DF8002059212000FFF728FC002885
:101AD00001D1002000E0012032BD38B504000D0026
:101AE00000AA59212000FFF709FC002801D100209D
:101AF00015E09DF8000010F09F008DF800009DF8A3
:101B0000000028438DF800009DF800205921200096
:101B1000FFF705FC002801D1002000E0012032BDC4
:101B200038B504000D0015F0030500AA5A21200065
:101B3000FFF7E4FB002801D1002015E09DF800002C
:101B400010F0FC008DF800009DF8000028438DF88F
:101B500000009DF800205A212000FFF7E0FB00283C
:101B600001D1002000E0012032BD38B504000D0095
:101B7000AD0015F00C0500AA5A212000FFF7BEFBAE
:101B8000002801D1002015E09DF8000010F0F300BE
:101B90008DF800009DF8000028438DF800009DF8A6
:101BA00000205A212000FFF7BAFB002801D10020B5
:101BB00000E0012032BD38B504000D002D0115F004
:101BC000F00500AA5A212000FFF798FB002801D158
:101BD000002015E09DF8000010F00F008DF80000C7
:101BE0009DF8000028438DF800009DF800205A2140
:101BF0002000FFF794FB002801D1002000E0012025
:101C000032BD38B504000D0015F03F0500AA5B2178
:101C10002000FFF773FB002801D1002015E09DF89C
:101C2000000010F0C0008DF800009DF8000028436F
:101C30008DF800009DF800205B212000FFF76FFB6E
:101C4000002801D1002000E0012032BD38B5040099
:101C50000D0000AA5B212000FFF750FB002801D1F6
:101C6000002015E09DF8000010F07F008DF80000C6
:101C70009DF8000028438DF800009DF800205B21AE
:101C80002000FFF74CFB002801D1002000E00120DC
:101C900032BD38B504000D0015F00F0500AA5C2117
:101CA0002000FFF72BFB002801D1002015E09DF854
:101CB000000010F0F0008DF800009DF800002843AF
:101CC0008DF800009DF800205C212000FFF727FB25
:101CD000002801D1002000E0012032BD38B5040009
:101CE0000D0000AA5C212000FFF708FB002801D1AD
:101CF000002015E09DF8000010F0EF008DF80000C6
:101D00009DF8000028438DF800009DF800205C211C
:101D10002000FFF704FB002801D1002000E0012093
:101D200032BD38B504000D006D0115F0600500AA44
:101D30005C212000FFF7E2FA002801D1002015E025
:101D40009DF8000010F09F008DF800009DF8000045
:101D500028438DF800009DF800205C212000FFF74B
:101D6000DEFA002801D1002000E0012032BD38B5A4
:101D700004000D0000AA5D212000FFF7BFFA002833
:101D800001D1002015E09DF8000010F0F8008DF85A
:101D900000009DF8000028438DF800009DF8002009
:101DA0005D212000FFF7BBFA002801D1002000E0F0
:101DB000012032BDF8B504000D0015F01F0007002A
:101DC000C5F340100600FF0017F0F80700AA5D21D8
:101DD0002000FFF793FA002801D1002036E09DF89B
:101DE000000010F007008DF800009DF80000384357
:101DF0008DF800009DF800205D212000FFF78FFA8C
:101E0000002801D1002021E0F60116F0800600AA8A
:101E10005C212000FFF772FA002801D1002015E0B4
:101E20009DF8000010F07F008DF800009DF8000084
:101E300030438DF800009DF800205C212000FFF762
:101E40006EFA002801D1002000E00120F2BD38B573
:101E500004000D0000AA5E212000FFF74FFA0028C1
:101E600001D1002015E09DF8000010F0FD008DF874
:101E700000009DF8000028438DF800009DF8002028
:101E80005E212000FFF74BFA002801D1002000E07E
:101E9000012032BD38B504000D0000AA5E212000EB
:101EA000FFF72CFA002801D1002015E09DF8000072
:101EB00010F0FB008DF800009DF8000028438DF81D
:101EC00000009DF800205E212000FFF728FA00287E
:101ED00001D1002000E0012032BD38B504000D0022
:101EE00000AA5E212000FFF709FA002801D1002096
:101EF00015E09DF8000010F0F7008DF800009DF847
:101F0000000028438DF800009DF800205E2120008D
:101F1000FFF705FA002801D1002000E0012032BDC2
:101F200038B504000D0000AA5E212000FFF7E6F995
:101F3000002801D1002015E09DF8000010F0EF000E
:101F40008DF800009DF8000028438DF800009DF8F2
:101F500000205E212000FFF7E2F9002801D10020D7
:101F600000E0012032BD38B504000D0000AA5E215A
:101F70002000FFF7C3F9002801D1002015E09DF8EB
:101F8000000010F0DF008DF800009DF800002843ED
:101F90008DF800009DF800205E212000FFF7BFF9BA
:101FA000002801D1002000E0012032BD38B5040036
:101FB0000D0000AA5E212000FFF7A0F9002801D142
:101FC000002015E09DF8000010F0BF008DF8000023
:101FD0009DF8000028438DF800009DF800205E2148
:101FE0002000FFF79CF9002801D1002000E001202B
:101FF00032BD2DE9F84304000D0002208146002087
:10200000804600200600F6B2032E1ADA00200700F0
:10201000FFB25FFA89F94F4511D25FFA88F818EBE1
:10202000050218F12801C9B22000FFF767F900285E
:1020300001D1002006E018F101087F1CE8E7761CBA
:10204000E1E70120BDE8F2832DE9F84304000D002B
:10205000022081460020804600200600F6B2002EB5
:102060001AD100200700FFB25FFA89F94F4511D25B
:102070005FFA88F818EB050218F14B01C9B220008D
:10208000FFF73CF9002801D1002006E018F1010813
:102090007F1CE8E7761CE1E70120BDE8F28338B554
:1020A00004000D0080212000FFF749F900AA0F214C
:1020B0002000FFF723F99DF8000010F0E0008DF8F4
:1020C00000009DF8000015F01F0108438DF8000086
:1020D0009DF800200F212000FFF721F900212000AA
:1020E000FFF72DF9012032BD002840F10780F446AA
:1020F000404200F003F850F0004060470AD0B0FAC8
:1021000080F18840D1F19D01C905020672F10042BB
:1021100041EB102070472000FF2212EAD05C1DBF67
:1021200012EAD153944593422BE09C44D30780EAB2
:1021300001021A4043EA002043EA0121A1FB0030DA
:10214000410038BF40007CF17F010BDBFE294ADAF9
:102150005B0842EAC15153EA006373F1004C51EB52
:1021600010207047D1F1080CDCF120012FDB5B0857
:1021700010FA01F10B4373F1004120FA0CF05041C9
:10218000704794451CBF02EAD153934280EA010292
:1021900002F000421DD0400019D0490017D05BB9B1
:1021A000634514D00902B1FA81F39940BCEB030CEA
:1021B000C00140F00040C1E70002B0FA80FC10FA14
:1021C0000CF0B3EB0C0CC90141F00041B6E7100074
:1021D000704740000AD0490008D010F1807F94BFBA
:1021E00011F1807F02E042F0FF407047D04370471A
:1021F0004100090E7F3915D4D1F11F0114D44000DC
:1022000007D2C00140F00040C84048BF6FF0004016
:102210007047C00140F00040C8404CBF4FF0004044
:10222000404270470020704700424FF0004058BFC6
:10223000C04370474FF0807C1CEB400F94BF1CEBF9
:10224000410F05E040EA010C5FEA4C0C01D28842E4
:10225000704718BF8142704780B500F07BF80028B6
:1022600001D0012000E0002002BD0020704700B531
:102270008BB09C48006850F001009A49086099486A
:10228000006810F001000090009810200690964819
:102290000790022009900020089006A9934800F0BA
:1022A00035F9002200210A2000F0CAFA0A2000F0C5
:1022B000DAFA8C48006850F002008A4908608948C0
:1022C000006810F0020000900098012001908648FC
:1022D0000290022004900020039001A9844800F09D
:1022E00015F900220021062000F0AAFA062000F0CD
:1022F000BAFA00200BB000BD2DE9F04104000D003A
:1023000016001F00A0463B009BB232002900C9B254
:1023100098F8010000F042F8002801D0012000E008
:102320000020BDE8F0812DE9F04104000D00160009
:102330001F00A0463B009BB232002900C9B298F8AA
:10234000010000F055F8002801D0012000E0002035
:10235000BDE8F08180B5674800F064FD002814D125
:1023600065486449486000206249886033206149BB
:10237000C8604FF480405F49086160485D4908606B
:1023800000F068F85B4800F08BFA5A4800F04AFD0C
:10239000202801D1002000E0012002BD2DE9F041FC
:1023A00084B004000D0016001F005FF000085448C0
:1023B00000680290380080B2019000960123EDB2CF
:1023C0002A0092B2E4B2210089B24A4800F04CFBE4
:1023D00080465FFA88F8B8F1000F05D02000C0B23F
:1023E00000F030F8012000E0002004B0BDE8F081EA
:1023F0002DE9F04184B004000D0016001F005FF0CD
:1024000000083F4800680290380080B201900096B2
:102410000123EDB22A0092B2E4B2210089B235481C
:1024200000F0CBFB80465FFA88F8B8F1000F05D0CA
:102430002000C0B200F006F8012000E0002004B047
:10244000BDE8F08110B504002A4800F0E1FAFFF77A
:1024500081FF10BD00B587B02248006850F002002F
:10246000204908601F48006810F0020000900098A2
:102470004FF440700190122002900220049000203E
:1024800003900420059001A9194800F03FF81D4869
:10249000006850F400101B4908601A48006810F4E6
:1024A0000010009000981848006850F40010164979
:1024B00008601548006830F40010134908600022D5
:1024C00000211F2000F0BCF91F2000F0CCF90022F1
:1024D0000021202000F0B4F9202000F0C4F907B05A
:1024E00000BD00001C380240000011100000024036
:1024F00000040240E0030020801A0600005400405F
:102500009C010020243802401838024078B4002290
:10251000002300240D682E00D640002E00F0DE803F
:102520000D680126964035402B00002B00F0D4802A
:102530004D68022D02D04D68122D16D1D50810EB32
:1025400085052D6A2C000F2512F00706F6B2B6009D
:10255000B540AC430D6912F00706F6B2B600B540BF
:102560002C43D50810EB85052C6205682C0003254B
:102570001600F6B27600B540AC430D7915F00305B0
:102580001600F6B27600B5402C4304604D68012D6C
:1025900008D04D68022D05D04D68112D02D04D6830
:1025A000122D19D185682C0003251600F6B276008D
:1025B000B540AC43CD681600F6B27600B5402C436A
:1025C000846045682C0001259540AC434D68C5F3F7
:1025D000001595402C434460C5682C000325160067
:1025E000F6B27600B540AC438D681600F6B27600C0
:1025F000B5402C43C4604D68ED006DD54B4D2D6842
:1026000055F00105494E3560484D2D6815F001051E
:102610000095009D464D960855F826502C000F2534
:1026200012F00306F6B2B600B540AC43414DA842E5
:1026300001D100251EE0404DA84201D1012519E03D
:102640003E4DA84201D1022514E03D4DA84201D1E2
:1026500003250FE03B4DA84201D104250AE03A4D85
:10266000A84201D1052505E0384DA84201D1062533
:1026700000E0072512F00306F6B2B600B5402C4381
:102680002B4D960845F82640314D2D682C009C4373
:102690004D68ED0300D51C432D4D2C602D4D2D684C
:1026A0002C009C434D68AD0300D51C43294D2C6084
:1026B000294D2D682C009C434D68ED0200D51C432C
:1026C000254D2C60254D2D682C009C434D68AD0296
:1026D00000D51C43214D2C60521C1BE771BC704778
:1026E0000200136989B20B4202D00123180001E0F5
:1026F00000231800C0B27047D2B2002A02D089B2BB
:10270000816102E089B20B048361704710B5040057
:1027100013480068A4B2204206D0A4B21048046056
:10272000200080B200F0EDFE10BD00002038024015
:10273000080001400000024000040240000802407E
:10274000000C024000100240001402400018024039
:102750000004014004040140080401400C0401404D
:102760001404014010F00702454B1B6819004FF696
:10277000FF031940434B53EA02231943404B1960AE
:1027800070473F480068C0F302207047012110F0F5
:102790001F0291403C4A40B2430942F8231070475F
:1027A00010B440B2002808D50A01384B40B210F0EE
:1027B0000F04E31803F8042C03E00A01344B40B281
:1027C000C25410BC704770B4030013F00704D4F176
:1027D0000706052E01D3042001E0D4F10700261DD1
:1027E000072E01D2002500E0E51E012616FA00F0B2
:1027F000401E0840A8400121A940491E114008433D
:1028000070BC704710B50400601EB0F1807F01D32A
:1028100001200EE0601E1F4908600F215FF0FF30AD
:10282000FFF7BEFF00201C49086007201B49086015
:10283000002010BD10B504002000FFF793FF10BD6D
:10284000F8B504000D0016000027FFF79AFF0700F7
:10285000320029003800FFF7B6FF0100200040B227
:10286000FFF79EFFF1BD10B50400200040B2FFF756
:102870008DFF10BD10B504002000FFF7C3FF10BD91
:102880000CED00E00000FA0500E100E018ED00E0CA
:1028900000E400E014E000E018E000E010E000E0F8
:1028A00070B5040000250026002C01D10120AEE007
:1028B00094F83500002805D1002084F83400200069
:1028C00000F0C5F801F028FC0600DFF88801864218
:1028D00001D201209BE0242084F8350020680068A4
:1028E0004008400021680860DFF86C01B6FBF0F09A
:1028F00005002068406880098001284321684860FD
:102900002068006A6168DFF85421914201D2691C95
:1029100008E04FF4967101FB05F14FF47A72B1FBB8
:10292000F2F1491C8009800108432168086220688F
:10293000C0696168DFF8242191420ED261684900C4
:10294000B6FBF1F10905090D042901D204212AE0A1
:1029500061684900B6FBF1F125E0A168002905D1C5
:10296000616803225143B6FBF1F106E06168192268
:102970005143B6FBF1F151F48041090501D1012128
:1029800011E0A168002905D1616803225143B6FB1B
:10299000F1F106E0616819225143B6FBF1F151F4FF
:1029A000804151F40041DFF8B8201040084321680D
:1029B000C8612068006830F0C000E1690843216AFE
:1029C00008432168086020688068DFF89810084094
:1029D00021690843E1680843216888602068C0686D
:1029E000000A0002A1696269114308432168C860B6
:1029F0002068006850F00100216808600020A06392
:102A0000202084F83500002084F83600002070BDB6
:102A100010B50400002C01D1012017E0242084F817
:102A200035002068006840084000216808602000E8
:102A300000F00EF80020A063002084F8350000208C
:102A400084F83600002084F83400002010BD704760
:102A50007047000080841E0040420F00A1860100E4
:102A60000030FFFF007CFFFF2DE9F04782B005003A
:102A70000E0017009846DDF828900B9CDDF830A07A
:102A800095F83500202840F09580B9F1000F02D06C
:102A9000A4B2002C01D101208DE042F2107301227A
:102AA0005FF00211280000F0DDFA002801D00220BA
:102AB00081E095F83400012801D102207BE001205B
:102AC00085F834002868006830F4006029680860E0
:102AD000212085F83500402085F836000020A863C5
:102AE000CDF800A043469BB23A0092B2310089B2C1
:102AF000280000F09DF900280CD0A86B042804D110
:102B0000002085F83400012055E0002085F83400CD
:102B1000032050E0A4B2002C28D05146280000F039
:102B20005DFB00280CD0A86B042807D1286800683A
:102B300050F400702968086001203CE003203AE06E
:102B400099F800002968086119F10109641E2868D4
:102B500040694007DED5A4B2002CDBD099F8000014
:102B60002968086119F10109641ED3E7514628005C
:102B700000F034FB00280CD0A86B042807D128688B
:102B8000006850F4007029680860012013E00320F9
:102B900011E02868006850F400702968086020205F
:102BA00085F83500002085F83600002085F83400CF
:102BB000002000E00220BDE8F6872DE9F04782B052
:102BC00005000E0017009846DDF828900B9CDDF8F4
:102BD00030A095F83500202840F02081B9F1000F91
:102BE00002D0A4B2002C01D1012018E142F21073EE
:102BF00001225FF00211280000F034FA002801D011
:102C000002200CE195F83400012801D1022006E1F0
:102C1000012085F834002868006830F400602968D5
:102C20000860222085F83500402085F83600002015
:102C3000A863CDF800A043469BB23A0092B231009F
:102C400089B2280000F062F900280CD0A86B042893
:102C500004D1002085F834000120E0E0002085F850
:102C600034000320DBE0A4B2012C13D128680068F3
:102C700030F48060296808602868406900902868FE
:102C80008069009000982868006850F400702968F6
:102C900008601DE0A4B2022C13D12868006830F44B
:102CA0008060296808602868006850F4006029681E
:102CB0000860286840690090286880690090009842
:102CC00006E02868406900902868806900900098B4
:102CD000A4B2002C00F09780A4B2042C72DAA4B243
:102CE000012C14D15146280000F0A1FA002806D08A
:102CF000A86B202801D1032091E001208FE02868F3
:102D0000006989F8000019F10109641EE0E7A4B226
:102D1000022C1FD153460022DFF81011280000F0CA
:102D2000A1F9002801D0032079E02868006850F458
:102D30000070296808602868006989F8000019F1A6
:102D40000109641E2868006989F8000019F1010969
:102D5000641EBDE753460022DFF8D010280000F0C3
:102D600081F9002801D0032059E02868006830F478
:102D70008060296808602868006989F8000019F1F6
:102D80000109641E53460022DFF8A010280000F05D
:102D900069F9002801D0032041E02868006850F458
:102DA0000070296808602868006989F8000019F136
:102DB0000109641E2868006989F8000019F10109F9
:102DC000641E85E75146280000F031FA002806D03D
:102DD000A86B202801D1032021E001201FE02868F2
:102DE000006989F8000019F10109641E286840692A
:102DF00040077FF56DAF2868006989F8000019F178
:102E00000109641E64E7202085F83500002085F85C
:102E10003600002085F83400002000E00220BDE8E4
:102E2000F687000090F835007047000004000100AC
:102E30002DE9F04182B004000D0016001F00DDF8FE
:102E400020802068006850F4807021680860434644
:102E500000225FF00111200000F004F9002801D0E9
:102E6000032051E015F0FE00216808614246DFF8BA
:102E7000F011200000F063F9002806D0A06B0428B0
:102E800001D1012040E003203EE02068406900902D
:102E900020688069009000984146200000F09EF96B
:102EA00000280CD0A06B042807D12068006850F4DB
:102EB000007021680860012026E0032024E0BFB2F2
:102EC000012F04D13000C0B2216808611BE0B6B206
:102ED000300AC0B2216808614146200000F07EF946
:102EE00000280CD0A06B042807D12068006850F49B
:102EF000007021680860012006E0032004E0300033
:102F0000C0B2216808610020BDE8F6812DE9F041DA
:102F100082B004000D0016001F00DDF8208020683C
:102F2000006850F48060216808602068006850F4F0
:102F3000807021680860434600225FF00111200084
:102F400000F090F8002801D0032087E015F0FE0083
:102F50002168086142464249200000F0F0F800284C
:102F600006D0A06B042801D1012077E0032075E092
:102F70002068406900902068806900900098414670
:102F8000200000F02BF900280CD0A06B042807D1FA
:102F90002068006850F400702168086001205DE03E
:102FA00003205BE0BFB2012F04D13000C0B2216822
:102FB00008611BE0B6B2300AC0B221680861414620
:102FC000200000F00BF900280CD0A06B042807D1DA
:102FD0002068006850F400702168086001203DE01E
:102FE00003203BE03000C0B2216808614146200068
:102FF00000F0F4F800280CD0A06B042807D120685A
:10300000006850F4007021680860012026E0032069
:1030100024E02068006850F480702168086043460E
:1030200000225FF00111200000F01CF8002801D000
:10303000032013E055F00100C0B221680861424648
:103040000749200000F07BF8002806D0A06B042878
:1030500001D1012002E0032000E00020BDE8F6815C
:10306000020001002DE9F04104000D0016001F00D0
:103070005FF0000801F014F98046F6B2002E2DD161
:10308000280CC0B201280AD120684069284080B2CB
:10309000A9B2884201D101200BE0002009E020689C
:1030A0008069284080B2A9B2884201D1012000E0A5
:1030B0000020002840D117F1010FE1D0002F05D0EA
:1030C00001F0EEF8B0EB08008742D9D2202084F856
:1030D0003500002084F8340003202EE0280CC0B214
:1030E00001280AD120684069284080B2A9B28842EC
:1030F00001D101200BE0002009E020688069284010
:1031000080B2A9B2884201D1012000E0002000284D
:1031100012D017F1010FE1D0002F05D001F0C0F857
:10312000B0EB08008742D9D2202084F83500002077
:1031300084F83400032000E00020BDE8F081F8B5F9
:1031400004000D001600002701F0AAF80700280C63
:10315000C0B201280AD120684069284080B2A9B2D3
:10316000884201D101200BE0002009E0206880693D
:10317000284080B2A9B2884201D1012000E000209D
:10318000002829D120684069400513D520680068CF
:1031900050F40070216808607FF480602168486105
:1031A0000420A063202084F83500002084F8340037
:1031B000012012E016F1010FC9D0002E04D001F059
:1031C0006FF8C01B8642C2D2202084F83500002050
:1031D00084F83400032000E00020F2BD70B5040044
:1031E0000D0001F05DF806002068406900061CD45F
:1031F000200000F04EF8002801D0012016E015F163
:10320000010FF1D0002D04D001F04AF8801B854257
:10321000EAD2A06B50F02000A063202084F8350093
:10322000002084F83400032000E0002070BD70B559
:1032300004000D00002601F033F806002068406904
:10324000400624D420684069C0060DD57FF01000E8
:10325000216848610020A063202084F83500002008
:1032600084F83400012013E0002D04D001F018F898
:10327000801B8542E2D2A06B50F02000A06320208A
:1032800084F83500002084F83400032000E000209A
:1032900070BD01000868406940050DD57FF480606D
:1032A0000A68506104208863202081F835000020DE
:1032B00081F83400012000E00020704710B582B092
:1032C00000208DF80000002400F0BAFF00F0FEFF9F
:1032D000002001F04FF80121002001F0A3F801F0D7
:1032E0000BF900F0BEF800F0DAF800F080F800F01A
:1032F0008AF89048006801F091FA00F032F9040071
:103300008D480078002818D000A98A48006801F08C
:10331000A0FA00280ED19DF8000000280AD000F085
:1033200078F8002001F05EF8642000F0BCFF002077
:1033300001F068F800208049087080480078002873
:1033400008D07C48006801F0C6FA002802D10020AD
:103350007A490870200000F008F940F6B831884238
:10336000CED300F056F800F0FCF80400C8E710B522
:1033700088B00024002203A9714801F0D9FA002284
:1033800002A96F4801F087FC0498D0F1FF00642186
:1033900048434FF4807190FBF1F0040064A1694848
:1033A00001F0DAFC674801F0F1FC020041F28833D9
:1033B00092B26449644801F03EFDE4B201949DF884
:1033C0000E0000909DF80D309DF80C205F495D487F
:1033D00001F0C2FC5B4801F0D9FC41F288330200E5
:1033E00092B25849584801F026FD08B010BD80B58A
:1033F0005049012001F0F2F8012803D1002000F02B
:10340000F1FFFEE701BD80B54A48006801F0E0F930
:1034100001BD80B5FFF7ABFF00A94648006801F089
:10342000EFF94B494348006801F034FA012806D10E
:103430009DF800204749434801F08EFC05E04448D0
:10344000028845493F4801F087FC3E4801F09EFC58
:1034500041F28833020092B23A493B4801F0EBFC5A
:1034600001BD80B53D483649086040203449486078
:103470007F2033498860FF203149C86000203049EF
:10348000086100202E49486100202D4988612C48A0
:1034900001F0A2FA002801D000F062F801BD00B5E9
:1034A00087B000208DF8030001208DF80100012075
:1034B0008DF8020001208DF80000012200A92048AB
:1034C00001F06BFB002801D000F04AF800208DF8D5
:1034D000040000208DF8050000208DF80600002073
:1034E0008DF807000020049000200590012201A91A
:1034F000134801F0C7FA002801D000F031F807B0F6
:1035000000BD10B50400A4B2B4F5005F08D10020DE
:1035100000F0D5FF002809D101200849087005E016
:10352000A4B2102C02D101200349087010BD000084
:103530000A0000008C0400209E0400209F0400204C
:1035400044040020A0020020A0030020906B00088B
:103550009C040020006B0008406C0008002800401C
:10356000FEE780B500F09CFE02BD70B5040000F0DF
:1035700097FE0600301B0500280070BD38B504001A
:1035800000252078C00740F1C980DFF8E00B006813
:1035900010F00C0008280BD0DFF8D00B006810F0FA
:1035A0000C000C2827D1DFF8C40B0068C00322D51B
:1035B0004FF48040B0FA80F050F02000C0B24009D3
:1035C000C0B2012803D1DFF8780B006802E0DFF811
:1035D000A80B00684FF48041B1FA81F111F01F018E
:1035E0000200CA40D00740F199806068002840F08E
:1035F00095800120DDE36068012808D1DFF8400BE9
:10360000006850F48030DFF8381B086037E06068ED
:10361000002810D1DFF8280B006830F48030DFF884
:10362000201B0860DFF8180B006830F48020DFF8FA
:10363000101B086023E06068052810D1DFF8000B3C
:10364000006850F48020DFF8F81A0860DFF8F00A0C
:10365000006850F48030DFF8E81A08600FE0DFF807
:10366000E00A006830F48030DFF8D41A0860DFF830
:10367000D00A006830F48020DFF8C41A086060685F
:10368000002825D000F00CFE05004FF48040B0FA71
:1036900080F050F02000C0B24009C0B2012803D130
:1036A000DFF89C0A006802E0DFF8CC0A00684FF4FB
:1036B0008041B1FA81F111F01F010200CA40D00728
:1036C0002CD400F0EDFD401B6528DED3032070E311
:1036D00000F0E6FD05004FF48040B0FA80F050F0B5
:1036E0002000C0B24009C0B2012803D1DFF8500A5F
:1036F000006802E0DFF8800A00684FF48041B1FA08
:1037000081F111F01F010200CA40D00706D500F078
:10371000C7FD401B6528DED303204AE320788007DD
:1037200040F1B780DFF8440A006810F00C0004286C
:103730000BD0DFF8380A006810F00C000C2836D1E6
:10374000DFF8280A0068C00331D45FF08040B0FA87
:1037500080F050F02000C0B24009C0B2012803D16F
:10376000DFF8DC09006802E0DFF80C0A00685FF0AF
:103770008041B1FA81F111F01F010200CA40D00767
:1037800004D5E068012801D0012012E3DFF8E00948
:1037900000685FF47801B1FA81F130F4F8502269E1
:1037A00012FA01F10843DFF8C819086071E0E06817
:1037B00000283FD001205FF00041B1FA81F1DFF82D
:1037C0004C2A42F8210000F06BFD05005FF08040BC
:1037D000B0FA80F050F02000C0B24009C0B2012819
:1037E00003D1DFF85C09006802E0DFF88C090068AB
:1037F0005FF08041B1FA81F111F01F010200CA406F
:10380000D00706D400F04CFD401B0328DED3032074
:10381000CFE2DFF85C0900685FF47801B1FA81F16A
:1038200030F4F850226912FA01F10843DFF8401928
:1038300008602EE000205FF00041B1FA81F1DFF86E
:10384000CC2942F8210000F02BFD05005FF08040FC
:10385000B0FA80F050F02000C0B24009C0B2012898
:1038600003D1DFF8DC08006802E0DFF80C0900682B
:103870005FF08041B1FA81F111F01F010200CA40EE
:10388000D00706D500F00CFD401B0328DED3032033
:103890008FE22078C00640F1EF80DFF8D0080068A2
:1038A00010F00C0F6DD15FF48000B0FA80F050F092
:1038B0002000C0B24009C0B2012803D1DFF880085F
:1038C000006802E0DFF8B00800685FF48001B1FA38
:1038D00081F111F01F010200CA40D00704D5A06990
:1038E000002801D1012064E2DFF88408006810F4A8
:1038F0006040216A884220D2206A00F03FFC002804
:1039000001D0012055E2DFF86808006830F460401B
:10391000216A0843DFF858180860DFF85408006887
:10392000FF21B1FA81F10002000AE26912FA01F105
:103930000843DFF83C1808601FE0DFF8340800682F
:1039400030F46040216A0843DFF824180860DFF88B
:1039500020080068FF21B1FA81F10002000AE26943
:1039600012FA01F10843DFF808180860206A00F035
:1039700005FC002801D001201BE20F2000F078FC9C
:103980007AE0A069002848D001205FF40001B1FA74
:1039900081F1DFF8782842F8210000F081FC050071
:1039A0005FF48000B0FA80F050F02000C0B240090F
:1039B000C0B2012803D1DFF88807006802E0DFF811
:1039C000B80700685FF48001B1FA81F111F01F01BE
:1039D0000200CA40D00706D400F062FC401B032856
:1039E000DED30320E5E1DFF88807006830F46040AB
:1039F000216A0843DFF878170860DFF87407006869
:103A0000FF21B1FA81F10002000AE26912FA01F124
:103A10000843DFF85C1708602EE000205FF4000127
:103A2000B1FA81F1DFF8E42742F8210000F038FC18
:103A300005005FF48000B0FA80F050F02000C0B2C2
:103A40004009C0B2012803D1DFF8F406006802E0A3
:103A5000DFF8240700685FF48001B1FA81F111F00A
:103A60001F010200CA40D00706D500F019FC401B18
:103A70000328DED303209CE1207800074AD5606943
:103A8000002823D001205FF00041B1FA81F1DFF876
:103A9000802742F8210000F003FC05005FF0804021
:103AA000B0FA80F0DFF8D00600685FF08041B1FA2C
:103AB00081F111F01F010200CA40D0072AD400F0A2
:103AC000EFFB401B0328E9D3032072E100205FF0E5
:103AD0000041B1FA81F1DFF8382742F8210000F007
:103AE000DFFB05005FF08040B0FA80F0DFF8880669
:103AF00000685FF08041B1FA81F111F01F0102000E
:103B0000CA40D00706D500F0CBFB401B0328E9D301
:103B100003204EE12078400740F1A780DFF8F4064B
:103B2000006850F08050DFF8EC160860DFF8E4061B
:103B3000006810F0805000900098DFF8DC06006804
:103B400050F48070DFF8D016086000F0A9FB050083
:103B5000DFF8C4060068C00506D400F0A1FB401BD6
:103B60006528F5D3032024E1A068012808D1DFF8F7
:103B70000806006850F48070DFF8FC15086037E034
:103B8000A068002810D1DFF8F005006830F48070DC
:103B9000DFF8E4150860DFF8E005006830F48060C5
:103BA000DFF8D415086023E0A068052810D1DFF8FD
:103BB000C805006850F48060DFF8BC150860DFF8C5
:103BC000B805006850F48070DFF8AC1508600FE0AD
:103BD000DFF8A405006830F48070DFF89C150860F9
:103BE000DFF89405006830F48060DFF88C15086019
:103BF000A06800281CD000F053FB05005FF4800093
:103C0000B0FA80F0DFF8700500685FF48001B1FA67
:103C100081F111F01F010200CA40D00725D400F045
:103C20003FFB401B41F289318842E7D30320C0E0CB
:103C300000F036FB05005FF48000B0FA80F0DFF89A
:103C4000380500685FF48001B1FA81F111F01F01BD
:103C50000200CA40D00708D500F022FB401B41F209
:103C600089318842E7D30320A3E0606A002800F08E
:103C70009F80DFF8F804006810F00C000C2800F0BA
:103C80009580606A022865D100208021B1FA81F117
:103C9000DFF8782542F8210000F002FB0500402003
:103CA000B0FA80F050F02000C0B24009C0B2012844
:103CB00003D1DFF88C04006802E0DFF8BC04006880
:103CC0004021B1FA81F111F01F010200CA40D00772
:103CD00006D500F0E5FA401B0328E0D3032068E096
:103CE000DFF88804006830F47D00A16A0843E16AC7
:103CF0000843216B0843DFF8741408600120802119
:103D0000B1FA81F1DFF8042542F8210000F0C8FA89
:103D100005004020B0FA80F050F02000C0B2400909
:103D2000C0B2012803D1DFF81804006802E0DFF810
:103D3000480400684021B1FA81F111F01F0102002E
:103D4000CA40D00734D400F0ABFA401B0328E0D3BC
:103D500003202EE000208021B1FA81F1DFF8AC24AD
:103D600042F8210000F09CFA05004020B0FA80F0F3
:103D700050F02000C0B24009C0B2012803D1DFF8E2
:103D8000C003006802E0DFF8F00300684021B1FAE8
:103D900081F111F01F010200CA40D00708D500F0E0
:103DA0007FFA401B0328E0D3032002E0012000E05B
:103DB000002032BDF8B504000D000026DFF85C04D9
:103DC000006810F00100A8421BD2012D07D1DFF8D6
:103DD0004C04006850F00400DFF840140860DFF87D
:103DE0003C040068400840002843DFF830140860B5
:103DF000DFF82804006810F00100A84201D001207B
:103E00002CE12078800709D5DFF86003006830F0E6
:103E1000F000A1680843DFF8541308602078C00759
:103E200040F1CB80606802281DD14FF48040B0FA89
:103E300080F050F02000C0B24009C0B2012803D188
:103E4000DFF8FC02006802E0DFF82C0300684FF4A2
:103E50008041B1FA81F111F01F010200CA40D00780
:103E60005CD40120FAE0606803281AD14020B0FA3F
:103E700080F050F02000C0B24009C0B2012802D149
:103E8000AF48006802E0DFF8F00200684021B1FAB4
:103E900081F111F01F010200CA40D0073ED4012079
:103EA000DCE0606801281CD15FF08040B0FA80F04F
:103EB00050F02000C0B24009C0B2012802D1A04891
:103EC000006802E0DFF8B00200685FF08041B1FAFC
:103ED00081F111F01F010200CA40D0071ED4012059
:103EE000BCE05FF48000B0FA80F050F02000C0B277
:103EF0004009C0B2012802D19148006802E0DFF811
:103F0000780200685FF48001B1FA81F111F01F01BD
:103F10000200CA40D00701D401209FE09348006806
:103F200080088000616808439049086000F0B8F993
:103F30000600606802280ED18C48006810F00C0062
:103F400008283AD000F0ACF9801B41F28931884250
:103F5000F2D3032082E0606803280ED18348006812
:103F600010F00C000C2828D000F09AF9801B41F2C8
:103F700089318842F2D3032070E0606801280ED1B5
:103F80007A48006810F00C00042816D000F088F978
:103F9000801B41F289318842F2D303205EE07348EE
:103FA000006810F00C0F08D000F07AF9801B41F285
:103FB00089318842F3D3032050E0DFF860020068C3
:103FC00010F0010085421BD2012D07D1DFF84C0211
:103FD000006850F00400DFF844120860DFF83C028B
:103FE0000068400840002843DFF830120860DFF81E
:103FF0002C02006810F00100A84201D001202DE041
:104000002078400707D55948006830F4E060E1683F
:104010000843564908602078000708D553480068CF
:1040200030F46050216950EAC1005049086000F046
:1040300016F84E4909685FF07062B2FA82F2DFF852
:10404000E03111F0F0010F00D740F95C0200CA40E6
:10405000484802600F2000F00BF90020F2BDF0B5D7
:104060000021002200230024002500203F4E366856
:10407000310011F00C06042E04D0082E05D00C2EB1
:1040800006D032E0684E300042E0684E30003FE03B
:104090004FF47056B6FA86F6654F11F4701CE6467A
:1040A0003EFA06FE1EF8076032004FF44076B6FA7C
:1040B00086F6604F11F4400CE6463EFA06FE1EF806
:1040C00007603300294E3668F60306D5574E06FBC7
:1040D00002F6B6FBF3F6340005E0534E06FB02F69B
:1040E000B6FBF3F63400200012E0534E366816F4A7
:1040F00060465FF4E027B7FA87F7B4463CFA07FC5E
:10410000654601266F1CBE404FF400477E433000D9
:10411000F0BD18480068704710B5FFF7FAFF0100BE
:10412000124800685FF46002B2FA82F2434B10F466
:10413000E0600400D440E25C0800D04010BD000004
:104140000038024010B5FFF7E4FF0100074800689F
:104150005FF4E012B2FA82F2384B10F460500400BF
:10416000D440E25C0800D04010BD00000838024096
:1041700004380240980100203438024070B582B003
:104180000400002500262748006810F0F00F24D115
:1041900020480068C00003D501F0C0F8050014E015
:1041A0001C48006850F080501A490860194800689F
:1041B00010F080500090009801F0B0F8050015480C
:1041C000006830F0805013490860B5F5C05F04D135
:1041D000B4F5404F01D101200600012E05D10F4852
:1041E000006850F004000D4908600C480068400861
:1041F00040003043094908600848006810F0010099
:10420000B04201D0012000E0002076BD000047420E
:10421000800647422438024000700040003C0240C3
:10422000506C0008083802400024F40000127A00A4
:10423000706C00089C6C000804380240886C000810
:1042400080B51F48006850F004001D4908601C48F4
:10425000006850F002001A4908600320FEF7EAFAED
:104260000F2000F005F800F002F8002002BD7047B2
:1042700010B50400134800684FF47A71B0FBF1F0F8
:10428000FEF7F8FA002221005FF0FF30FEF7D8FABF
:10429000002010BD0C480068401C0B4908607047A6
:1042A00009480068704711B581B00024FFF7F8FF96
:1042B0000400FFF7F5FF001B01998842F9D313BDF5
:1042C000003C0240980100209004002000B593B00B
:1042D00001A8142101F02AF806A8342101F026F8DB
:1042E000022006900120099010200A9002200F90D1
:1042F000002010905FF4002011905FF400001290F5
:1043000006A8FFF73BF9002801D0FFF729F9164866
:10431000006850F08050144908601348006810F09D
:104320008050009000981148006830F4C05050F45C
:1043300000600E4908600E480068C006FBD40F20DC
:1043400001900320029000200390002004900020A0
:104350000590012101A8FFF72DFD002801D0FFF7EE
:10436000FFF813B000BD00BF2438024000700040C9
:104370000470004010B586B00400E4B2002C0ED1E9
:10438000DFF85801006850F00100DFF850110860B4
:10439000DFF84801006810F0010000900098DFF895
:1043A0004001E4B230F81400019001200290002096
:1043B00003900220049001A9DFF82801E4B250F82C
:1043C0002400FEF7A3F80022DFF81401E4B230F86D
:1043D0001410DFF81001E4B250F82400FEF78CF955
:1043E00006B010BD10B504000122DFF8F400E4B2FD
:1043F00030F81410DFF8EC00E4B250F82400FEF7B7
:104400007BF910BD10B504000022DFF8D400E4B23F
:1044100030F81410DFF8CC00E4B250F82400FEF7B6
:104420006BF910BD30B587B004000D00E4B2002C6C
:104430000ED1DFF8A800006850F00400DFF89C10EF
:104440000860DFF89800006810F004000090009801
:10445000DFF89400E4B230F81400019000200390DB
:1044600001200490EDB2002D09D10020029001A995
:10447000DFF87800E4B250F82400FEF747F8EDB218
:10448000012D1AD1DFF86800029001A9DFF85C0065
:10449000E4B250F82400FEF739F800220F21DFF8CB
:1044A0005400E4B2205640B2FEF7CAF9DFF84400E7
:1044B000E4B2205640B2FEF7D6F907B030BD10B5D1
:1044C0000400DFF82400E4B230F81410DFF81C0018
:1044D000E4B250F82400FEF703F910BD1C38024086
:1044E0001621000890010020C24D00089401002010
:1044F000000021103253000800B587B03048006832
:1045000050F001002E4908602D48006810F00100AD
:10451000009000982A48006850F00100284908607F
:104520002748006810F001000090009825480068B6
:1045300050F40030234908602248006810F400302D
:104540000090009804200190022002900020039027
:10455000022004900720059001A91B48FDF7D6FF13
:10456000082001900720059001A91748FDF7CEFF0C
:104570001648174908601748006815494860002028
:104580001349886000201249C86000201049086162
:1045900000200F4988610C200D4948610C4800F04B
:1045A00011FC002800D0FEE70B48094988624FF44F
:1045B00080700749888500200549C86307B000BDA1
:1045C0001C380240243802400000024000440040F1
:1045D000A0030020906C0008A001002038B5040062
:1045E0000D000020286064B2002C0ED0012C14D0E5
:1045F000280000F07BF8012806D1280000F016F80A
:10460000012801D1012010E00EE0280000F00EF892
:10461000012801D1012008E006E0280000F066F83A
:10462000012801D1012000E0002032BD2DE9F04138
:10463000040000255C48C078012801D1012053E026
:10464000FDF70AFE012801D101204DE068205649FE
:104650000870D620544948700020534988700020C3
:104660005149C87000205049087101204E494871D5
:104670004E484D4988604E484B49C86000204A4921
:1046800008614C484C4948604B4848490860002044
:1046900046494860444820602068C0680500286892
:1046A00000280CD114260027D4F800803A003100ED
:1046B000404600F03FFE00202060012014E020680A
:1046C0002968884701280CD114260027D4F80080D7
:1046D0003A003100404600F02DFE0020206001200D
:1046E00002E0FDF7C2FD0020BDE8F0812DE9F041B8
:1046F000040000252C48C07D012801D1012050E094
:10470000FDF7AAFD012801D101204AE069202649D0
:104710000875D42024494875012023498875002054
:104720002149C87500202049087601201E49487695
:1047300022481D49C86122481B49086221481A497C
:10474000486221481949886000201849C8601F48FC
:1047500020602068C0680500286800280CD1142655
:104760000027D4F800803A003100404600F0E2FD16
:1047700000202060012014E0206829688847012873
:104780000CD114260027D4F800803A0031004046AE
:1047900000F0D0FD00202060012002E0FDF767FD61
:1047A0000020BDE8F08100001C040020640400200B
:1047B00008010020740400207C0400206C04002008
:1047C0004C01002000000020940400203004002050
:1047D00070B5040025000026002D01D101200EE057
:1047E000E8680600B068002801D1012007E0280031
:1047F000B1688847012801D1012000E0002070BD88
:1048000002001300002B01D1012006E0002901D194
:10481000012002E0987808700020704770B504000D
:104820002500002D01D1012012E02869002801D1C6
:1048300001200DE02878692809D12E693069002807
:1048400001D1012004E028003169884700E00120FF
:1048500070BDF8B504000D002600002E01D1012026
:1048600017E03069002801D1012012E0002D01D1AC
:1048700001200EE0307869280AD13769B86900282C
:1048800001D1012005E029003000BA69904700E01D
:104890000120F2BDF8B504000D002600002E01D164
:1048A000012017E03069002801D1012012E0002D1D
:1048B00001D101200EE0307869280AD13769F86902
:1048C000002801D1012005E029003000FA69904755
:1048D00000E00120F2BD70B504002500002D01D1DB
:1048E000012024E02869002801D101201FE0287858
:1048F00069281BD12E69306A002802D0706A00280E
:1049000001D1012013E02800316A8847012801D134
:1049100001200CE00A20FFF7C6FC2800716A8847D6
:10492000012801D1012002E0002000E0012070BD3B
:10493000F8B504000D00160000272068806A80B2D8
:104940006860206800694004400CA8602068006826
:10495000DFF8801008400700380C10F03F00287086
:10496000380A10F07F00687017F07F00A870380CCC
:1049700010F04000E870002E0BD1287800F0DFF92D
:104980002870687800F0DBF96870A87800F0D7F933
:10499000A8700020F2BD38B50400002520688068AA
:1049A000800614D42068C06830F0A0002168C86078
:1049B000FFF776FC05002068C068800607D4FFF783
:1049C0006FFC401BB0F57A7FF5D9032000E0002092
:1049D00032BD00007F7F7F0010B50400002C01D1A4
:1049E00001204EE0607F002804D1002020772000C5
:1049F00000F0D4FC02206077CA202168486253206E
:104A000021684862200000F073F9002806D0FF20DA
:104A10002168486204206077012032E020688068C5
:104A2000DFF8C012084021688860206880686168EB
:104A30002269114362691143084321688860E06874
:104A40002168086120680069A16850EA0140216876
:104A500008612068C06830F080002168C860206864
:104A6000006C30F48020216808642068006CA16923
:104A7000084321680864FF202168486201206077AC
:104A8000002010BD2DE9F84304000D00160000279A
:104A9000207F012801D102207DE001202077022023
:104AA0006077002E1FD120688068400601D4002066
:104AB000E870287800F038F98046687800F034F91A
:104AC0008146A87800F030F95FFA88F85FFA89F932
:104AD0005FEA092151EA0841C0B20843E97850EA87
:104AE0000140070015E020688068400604D528785A
:104AF00000F025F9070001E00020E87028786978C7
:104B0000090251EA0040A9780843E97850EA0140D7
:104B10000700CA20216848625320216848622000AB
:104B200000F0E6F8002808D0FF2021684862042041
:104B300060770020207701202DE06B483840216805
:104B400008602068806830F48020216888602068D0
:104B50008068E9682A6911430843216888602068F1
:104B6000C06830F080002168C8602000FFF713FFA4
:104B7000002808D0FF2021684862042060770020C8
:104B80002077012007E0FF2021684862012060773C
:104B9000002020770020BDE8F2832DE9F8430400CF
:104BA0000D0016000027207F012801D1022070E0AF
:104BB0000120207702206077002E07D16878C00698
:104BC00004D5687810F0EF000A306870002E19D113
:104BD000E87800F0A9F88046687800F0A5F88146EA
:104BE000A87800F0A1F85FFA88F85FFA89F95FEA1F
:104BF000092151EA0841C0B20843297850EA4130FE
:104C0000070012E0687800F09AF80700A87800F032
:104C100096F80700E8786978090251EA0040A97817
:104C20000843297850EA41300700CA2021684862C9
:104C3000532021684862200000F05AF8002808D06C
:104C4000FF2021684862042060770020207701203F
:104C50001FE026483840216848602068C06830F06E
:104C600080002168C8602000FFF795FE002808D06A
:104C7000FF2021684862042060770020207701200F
:104C800007E0FF202168486201206077002020773C
:104C90000020BDE8F283F8B504000D0016000027DF
:104CA00020684068114908400700380CE870380A4D
:104CB00010F01F00687017F03F00A870780B10F01C
:104CC00007002870002E0BD1E87800F038F8E87063
:104CD000687800F034F86870A87800F030F8A870B0
:104CE0000020F2BDBFFF8FFF7F7F7F003FFFFF00EF
:104CF00038B5040000252068C068400612D45FF073
:104D0000FF302168C860FFF7CBFA05002068C06853
:104D1000400607D4FFF7C4FA401BB0F57A7FF5D9F7
:104D2000032000E0002032BD0021C0B20A2802DBCF
:104D3000491C0A38F9E750EA0110C0B27047002157
:104D4000C0B20209D2B20A235A431100C0B210F015
:104D50000F004018C0B270470CB41CB5044604A83C
:104D600001900A46009401AB00A907487844183026
:104D700000F046FB009A0021117000285CBF0098EB
:104D8000001B16BC5DF80CFB6BC5FFFF00F10103B7
:104D9000810704D010F8011B89B18107FAD102689C
:104DA000B2F10131914311F0803F04BF50F8042F5C
:104DB000F6E710F8011B11B110F8011BFBE7C01A50
:104DC0007047002010B50400002C01D1012030E014
:104DD000A0690028FFD194F83900002805D10020EF
:104DE00084F83800200000F025F8022084F839000B
:104DF0002068C06830F400502168C860200000F0CE
:104E000009F92068006930F4904021680861206841
:104E1000406930F02A00216848612068C06850F479
:104E200000502168C8600020E063012084F8390048
:104E3000002010BD70472DE9F84304000D00160056
:104E40001F005FF0000994F839008146B9F1010FA5
:104E500002D0B9F1220F69D1002D02D0B6B2002ED6
:104E600001D1012063E094F83800012801D102202B
:104E70005DE0012084F838000020E06394F83900F8
:104E8000222803D1322084F8390002E0122084F86D
:104E90003900A684E684E08C00282DD0E08C401EEA
:104EA000E084A068B0F5805F17D13B00002280212C
:104EB000200000F03EF8002801D0032037E0A8468B
:104EC000B8F80000C005C00D2168486020690028BE
:104ED00001D1AD1CDFE76D1CDDE73B000022802126
:104EE000200000F026F8002801D003201FE02878D9
:104EF000216848606D1CCEE73B0000224021200065
:104F000000F017F8002801D0032010E094F83900D1
:104F1000322803D1222084F8390002E0012084F8ED
:104F20003900002084F83800002000E00220BDE8AD
:104F3000F2832DE9F04104000D0016001F005FF020
:104F40000008FFF7ADF98046F6B2002E2FD1206899
:104F500000682840A8425AD017F1010FF7D0002F5F
:104F600005D0FFF79DF9B0EB08008742EFD220682B
:104F7000C06830F080002168C8602068C06830F0E8
:104F800020002168C8602068C06830F48070216803
:104F9000C8602068406940084000216848610120DD
:104FA00084F83900002084F83800032030E02068BD
:104FB00000682840A8422AD117F1010FF7D0002F2E
:104FC00005D0FFF76DF9B0EB08008742EFD22068FB
:104FD000C06830F080002168C8602068C06830F088
:104FE00020002168C8602068C06830F480702168A3
:104FF000C86020684069400840002168486101207D
:1050000084F83900002084F83800032000E00020F4
:10501000BDE8F0812DE9F84304000025206800690F
:1050200030F44050E168084321680861A0682169B4
:10503000084361690843E169084305002068C068C6
:10504000B449084028432168C8602068406930F4AA
:105050004070A169084321684861E069B0F5004FDC
:1050600040F0AC802068AC49884253D1FFF76AF821
:105070008146FFF767F88046FFF764F80700FFF7FF
:1050800061F80600FFF75EF8192101FB09F162687B
:105090005200B1FBF2F16422B1FBF2F1192202FBE2
:1050A00008F263685B00B2FBF3F2192303FB07F31A
:1050B00067687F00B3FBF7F36427B3FBF7F364275C
:1050C00007FB1322D20032326423B2FBF3F212F058
:1050D000F802520012EB0111192202FB06F263687A
:1050E0005B00B2FBF3F21923584363685B00B0FB2B
:1050F000F3F06423B0FBF3F0642303FB1020C00043
:1051000032306422B0FBF2F010F007004018216842
:105110008860FCE0FFF700F88146FEF7FDFF80465F
:10512000FEF7FAFF0700FEF7F7FF0600FEF7F4FFB1
:10513000192101FB09F162685200B1FBF2F164220E
:10514000B1FBF2F1192202FB08F263685B00B2FBCB
:10515000F3F2192303FB07F367687F00B3FBF7F350
:105160006427B3FBF7F3642707FB1322D200323224
:105170006423B2FBF3F212F0F802520012EB0111B9
:10518000192202FB06F263685B00B2FBF3F21923FB
:10519000584363685B00B0FBF3F06423B0FBF3F0AB
:1051A000642303FB1020C00032306422B0FBF2F015
:1051B00010F00700401821688860A8E02068564970
:1051C000884252D1FEF7BEFF8146FEF7BBFF804604
:1051D000FEF7B8FF0700FEF7B5FF0600FEF7B2FFC7
:1051E000192101FB09F162689200B1FBF2F164221E
:1051F000B1FBF2F1192202FB08F263689B00B2FBDB
:10520000F3F2192303FB07F36768BF00B3FBF7F35F
:105210006427B3FBF7F3642707FB13221201323232
:105220006423B2FBF3F212F0F00212EB0111192227
:1052300002FB06F263689B00B2FBF3F219235843AA
:1052400063689B00B0FBF3F06423B0FBF3F06423CE
:1052500003FB1020000132306422B0FBF2F010F0AA
:105260000F0040182168886051E0FEF755FF814625
:10527000FEF752FF8046FEF74FFF0700FEF74CFF98
:105280000600FEF749FF192101FB09F1626892004F
:10529000B1FBF2F16422B1FBF2F1192202FB08F238
:1052A00063689B00B2FBF3F2192303FB07F3676803
:1052B000BF00B3FBF7F36427B3FBF7F3642707FBE7
:1052C0001322120132326423B2FBF3F212F0F00225
:1052D00012EB0111192202FB06F263689B00B2FB7C
:1052E000F3F21923584363689B00B0FBF3F0642387
:1052F000B0FBF3F0642303FB102000013230642282
:10530000B0FBF2F010F00F00401821688860BDE893
:10531000F1830000F369FFFF003801400248006894
:1053200010F4C0507047000000700040002200F0F0
:1053300039BC280062F30F2262F31F42401810F0BC
:10534000030308D0C91A1FD3DB0748BF00F8012D9B
:1053500028BF20F8022D130030B41446154610392A
:1053600028BF20E93C00FAD8490728BF20E90C00F3
:1053700048BF40F8042D890028BF20F8022D48BFFF
:1053800000F8012D30BC7047C91818BF00F8012D76
:10539000CB0728BF00F8012D7047000010B590B072
:1053A00004000C20039000200C90012005900020A8
:1053B000089003A8FEF7E2F8002801D0FEF7D0F825
:1053C000012000905FF48030019000A800F004FC00
:1053D000002801D0FEF7C4F801204FF40071B1FAA3
:1053E00081F1064A42F8210000220F210220FDF738
:1053F00027FA0220FDF737FA10B010BD80064742A9
:105400002DE9F04F80460FF2847095B092461D460C
:10541000D0E90023CDE9132303AE00200391B0614E
:105420000DF1340900E0A2440020ADF8020013ABF6
:105430004FF0FF3251460DF1020000F087FC0446A8
:10544000012C05DA9AF80000441EA441E443E40F5D
:10545000BDF8020025280CBFA4F1010BA346BBF147
:10546000010F0EDB574617F8011B0398C0470028B1
:10547000039000F0CE81B069401CBBF1010BB0611C
:10548000F1D1BDF80200252804D10020F060306180
:10549000706105E00028C6D1B069BCE140F00100B0
:1054A0001AF8011F2029F9D023290DD02B2904D067
:1054B0002D2906D030290AD00CE040F0020080B23D
:1054C000EEE740F00400FAE740F00800F7E740F0AC
:1054D0001000F4E72A290FD12968296051F8042B1C
:1054E0002960002A326204D5514240F00400316242
:1054F00080B20AF1010A15E0002131620CE0316A44
:105500006FF00043994205D001EB810302EB4301A8
:10551000303931620AF1010A9AF80020A2F1300113
:105520000A29ECD39AF800102E2903D04FF0FF314E
:10553000F16122E01AF8011F2A2908D1296829609F
:105540000AF1010A51F8042B2960F26115E00021EB
:10555000F1610CE0F1696FF00043994205D001EB75
:10556000810302EB43013039F1610AF1010A9AF833
:105570000020A2F130010A29ECD3B0840FF21460AC
:105580009AF8001000F0F2FB08B11AF8010B8DF840
:1055900032009DF83200682804BF9AF8000068289D
:1055A00004D162208DF832000AF1010A0DA8B06022
:1055B0001AF8014B252C13D0582C40D0632C00F046
:1055C0009880642C18BF692C71D06F2C37D0702C48
:1055D0002BD0732C0AD0752C18BF782C2FD0ABE0B1
:1055E0000120F06025208DF83400AFE09DF83200F6
:1055F0006C282868286014D050F8044B2860746028
:10560000F769002F04D52046FFF7C0FB074606E0E8
:105610003A460021204600F0B5FB00B1071B376178
:1056200094E050F8042B28607FE02868286050F848
:10563000041B286002910DA87060782155E09DF848
:1056400032006C280DD0712818BF6A2809D128684B
:10565000C01D20F007022A60D2E9000108322A604A
:1056600004E02968296051F8040B296002909DF834
:105670003200682802D102A8008803E0622802D123
:1056800002A80078029096F82400000728D5029816
:1056900030B344F02000782822D1F068302100F89F
:1056A0000910401C411CF16000F8094018E09DF809
:1056B0003200294600F0B2F80028029002D5F068C6
:1056C0002D2109E0B08C810702D5F0682B2103E081
:1056D000C00705D5F068202100F80910401CF060D3
:1056E0000DA8F16808187060214602A800F0CFF9F3
:1056F0002CE09DF832006C2809D00120F060286869
:10570000286050F8041B28608DF834101EE02868CB
:10571000286001AA50F8041B2860ADF8041000208E
:10572000ADF806004FF0FF30F06102A9404600F0EE
:105730009BF800280AD56CE00120F06025208DF848
:1057400034001CB10220F06089F80140306AF16831
:10575000401A7169401A3169441A96F824004007CA
:105760000FD420208DF80000002708E0012300AAB4
:1057700002A9404600F0F2F900284AD17F1CA74256
:10578000F4DBF7680DF1340B0AE01BF8011B0398FA
:10579000C047002803903CD0B069401CB0617F1E18
:1057A000002FF2D130208DF800004FF0000B776908
:1057B00008E0012300AA02A9404600F0CFF940BB4F
:1057C0000BF1010BBB45F4DB3769D6F804B009E0F7
:1057D0001BF8011B0398C0470390D0B1B069401C6F
:1057E000B0617F1E002FF3D196F8240040077FF5AB
:1057F0001BAE20208DF8000000E07F1CA742BFF602
:1058000013AE012300AA02A9404600F0A7F9002820
:10581000F3D04FF0FF3015B0BDE8F08F622815D0FF
:1058200068280CD06C2818BF742816D07A2814D198
:105830000A680A6052F8040B0A60002170470A687F
:105840000A6052F8040B0A6000B20BE00A680A60B2
:1058500052F8040B0A6040B204E00A680A6052F889
:10586000040B0A60C11770472DE9F44F0D4694B040
:10587000D5F820A0BAF1000F804648BF6FF0004A6B
:1058800000F0ACFA696A401801900FF21030D0E9CC
:105890000023CDE9022395F82800400702D401989F
:1058A000412805D240200DF110090190002607E0A3
:1058B00000F09AFA5FEA0009F8D1AAE7AAEB040A15
:1058C000BAF1010FC0F28B801498018802AA0DF181
:1058D000010000F0E1FA0028044600F18E801498DF
:1058E000008810B9641E00F18880A24577DB286922
:1058F00001992218914260D26E624042A969401A11
:105900006969461A95F8280040070FD420208DF8C1
:105910000000002708E0012300AA2946404600F0C5
:105920001DF9002869D17F1CB742F4DB2F69CB46F3
:105930000AE01BF8011B6868C047002868605CD05B
:10594000E869401CE8617F1E002FF2D130208DF8FD
:1059500000004FF0000BAF6909E0012300AA2946BF
:10596000404600F0FBF8002847D10BF1010BBB4586
:10597000F3DB6F69D5F808B009E01BF8011B686814
:10598000C0476860C8B3E869401CE8617F1E002F0B
:10599000F3D195F8280040070DD520208DF80000A0
:1059A00007E0012300AA2946404600F0D7F820BBB3
:1059B0007F1CB742F5DB00262E61224628690DF1D7
:1059C0000101484400F076FA2869201828611498EB
:1059D000801C1490801E008800287FF46FAF686AD6
:1059E0002969401AA969401A6969A0EB010A95F86A
:1059F0002800400710D400240CE04FF0FF363EE0B2
:105A000068682021C04700286860F6D0E869401C1B
:105A1000E861641C5445F3DB2B694A46294640463D
:105A200000F09CF80028E8D1AC69002709E068681C
:105A30003021C04700286860DFD0E869401CE86179
:105A40007F1CA742F3DB6B69AA682946404600F039
:105A500085F80028D1D195F8280040070DD50024FD
:105A600009E068682021C04700286860C5D0E8695F
:105A7000401CE861641C5445F3DB2E616E6204A88F
:105A800081451CBF484600F051FA3046C3E6F0B4E9
:105A9000C2686F2908BF082405D041F02003782B85
:105AA00014BF0A24102418230668642918BF692922
:105AB000374602D1002E48BF7F425FB9056A4DB913
:105AC000082C27D190F82810090723D53021172357
:105AD000D1751FE0B7FBF4F604FB16773037FFB241
