:020000040800F2
:10000000C8110020B9E50008EDE40008EFE400089D
:10001000FDE5000801E6000805E600080000000014
:1000200000000000000000000000000009E60008D9
:10003000F1E40008000000000DE60008F3E4000809
:1000400011E6000815E6000819E600081DE600089C
:1000500021E6000825E6000829E600082DE600084C
:1000600031E6000835E6000839E600083DE60008FC
:1000700041E6000845E6000849E600084DE60008AC
:1000800051E6000855E6000859E600085DE600085C
:1000900061E6000865E6000869E600086DE600080C
:1000A0000000000071E6000875E6000879E6000827
:1000B0007DE6000881E6000885E6000889E600087C
:1000C0008DE6000891E6000895E6000899E600082C
:1000D0009DE60008A1E60008A5E60008A9E60008DC
:1000E000FBE40008ADE60008B1E60008B5E600084C
:1000F000B9E6000800000000BDE60008C1E60008FF
:10010000C5E60008C9E60008CDE60008D1E600080B
:10011000D5E60008D9E60008DDE60008000000008A
:10012000E1E6000870B582B0040000A8DFF8DC1931
:100130000A680260A5682E68200000F05CFD0128B6
:1001400001D1012035E00421200001F056FE0028F5
:1001500001D101202DE04021200001F071FE002896
:1001600001D1012025E00021200001F0E5FC00285C
:1001700001D101201DE0DFF8940B30600021200048
:1001800001F067FD002801D1012012E000212000CC
:1001900000F0CDF9012801D101200AE000A92000DA
:1001A00000F043FA012801D1012002E00120E070B3
:1001B000002076BD70B50400A5682E68200000F010
:1001C0001AFD012801D101203CE0200000F0D2FFFF
:1001D000012801D1012035E0200001F093FB012826
:1001E00001D101202EE0200001F048F8012801D1C2
:1001F000012027E0200001F0E9F9012801D10120C8
:1002000020E0200001F09EFA012801D1012019E030
:10021000200001F0D2F8012801D1012012E02000D5
:1002200001F03AF9012801D101200BE0200000F093
:100230001FF8012801D1012004E0002030600020D7
:10024000E070002070BD70B50400A5682E682079AC
:10025000012801D100200AE03168200000F058FD9B
:10026000012801D1012002E001202071002070BD91
:1002700070B50400A5682E682079002801D10020FF
:1002800012E03100200000F097F8012801D1012090
:100290000AE00021200001F0DCFC002801D101204F
:1002A00002E000202071002070BD38B504000D0070
:1002B0002900200000F092FC32BD10B5040020009F
:1002C00000F099FC10BD3EB504000D000020009028
:1002D00001A9200000F0A6FC012801D1012026E0A0
:1002E00000A9200000F03BF8012801D101201EE008
:1002F000BDF9040002F03CFC009902F053FC02F04E
:10030000BDFC2860BDF9060002F032FC009902F045
:1003100049FC02F0B3FC6860BDF9080002F028FC5B
:10032000009902F03FFC02F0A9FCA86000203EBD4D
:1003300030B583B004000D0000A9200000F072FC6D
:10034000012801D1012009E0BDF800002880BDF896
:1003500002006880BDF80400A88000203EBD38B5CA
:1003600004000D0000A9200001F061FC002801D16B
:10037000012020E09DF80000002806D0042810D0BD
:10038000082806D00C2808D00FE0DFF8440A2860BF
:1003900010E0DFF8400A28600CE0DFF83C0A286033
:1003A00008E0DFF8380A286004E0DFF8E80A28608F
:1003B000012000E0002032BD38B504000D0000A986
:1003C000200001F069FC002801D101204FE09DF8D8
:1003D0000000002816D0102817D0202819D0302867
:1003E0001BD040281DD050281FD0602821D0702855
:1003F00023D0802825D0902827D0A02829D0B02825
:100400002BD02EE00020286030E0DFF88C0A286036
:100410002CE0DFF8880A286028E0DFF8840A2860EA
:1004200024E0DFF8E808286020E0DFF8780A286098
:100430001CE0DFF8740A286018E0DFF8700A286012
:1004400014E0DFF86C0A286010E0DFF8680A286022
:100450000CE0DFF8640A286008E0DFF8600A286032
:1004600004E0DFF8300A2860012000E0002032BDFF
:1004700038B504000D002079012808D12900C9B23F
:10048000200000F0F7FB01280AD1012009E0290033
:10049000C9B2200000F017FC012801D1012000E0C2
:1004A000002032BD38B504000D002079012807D1A5
:1004B0002900200000F02CFC012809D1012008E0CF
:1004C0002900200000F08CFC012801D1012000E06F
:1004D000002032BD38B504000D0000A9200001F055
:1004E000A6FB002801D1012020E09DF80000002893
:1004F00006D0042810D0082806D00C2808D00FE019
:100500005FF08040286010E05FF0814028600CE0E0
:100510005FF08240286008E05FF08340286004E0DC
:10052000DFF870092860012000E0002032BD70B5BE
:1005300004000D00EDB2002D03D0022D07D003D32F
:1005400008E00020060007E00820060004E00C2078
:10055000060001E0012009E03100C9B2200001F0ED
:1005600043FB002801D1012000E0002070BD70B5E0
:1005700004000D002800DFF8CC1A02F0A1FB01D224
:10058000002610E02800DFF8C01A02F099FB01D223
:10059000082608E02800DFF8D81B02F091FB01D202
:1005A0000C2600E004263100C9B2200001F01CFB3B
:1005B000002801D1012000E0002070BD38B5040002
:1005C0000D000DF10201200001F080FC002801D196
:1005D000012029E00DF10101200001F0ACFC002810
:1005E00001D1012020E000A9200001F0D9FC002861
:1005F00001D1012018E09DF80200082801D1012056
:1006000000E0002028709DF80100102801D1012091
:1006100000E0002068709DF80000202801D1012032
:1006200000E00020A870002032BD38B504000D00A5
:100630002878012801D1082100E00021C9B220005A
:1006400001F021FC002801D101201CE0687801287C
:1006500001D1102100E00021C9B2200001F048FCC6
:10066000002801D101200EE0A878012801D1202125
:1006700000E00021C9B2200001F06FFC002801D188
:10068000012000E0002032BD70B582B0040000A857
:10069000DFF84C1A0A680260A5682E68200000F096
:1006A000AAFA012801D1012035E00421200001F03F
:1006B000A4FB002801D101202DE04021200001F001
:1006C000BFFB002801D1012025E00021200001F01E
:1006D00033FA002801D101201DE0DFF8E407306083
:1006E0000021200001F054FB002801D1012012E07C
:1006F0000221200000F0ACF9012801D101200AE01C
:1007000000A9200000F03BFA012801D1012002E0FD
:100710000120E070002076BD70B50400A5682E6849
:10072000200000F068FA012801D101200BE0200030
:1007300000F01FF8012801D1012004E00020306002
:100740000020E070002070BD70B50400A5682E6820
:100750002079012801D100200AE03168200000F052
:1007600029FC012801D1012002E001202071002094
:1007700070BD70B50400A5682E682079002801D1ED
:10078000002012E03100200000F0A8F8012801D17B
:1007900001200AE00021200001F0FAFA002801D12E
:1007A000012002E000202071002070BD38B5040057
:1007B0000D002900200000F011FA32BD10B5040030
:1007C000200000F018FA10BD3EB504000D00002016
:1007D000009001A9200000F075FB012801D1012043
:1007E00026E000A9200000F03BF8012801D10120FB
:1007F0001EE0BDF9040002F0BBF9009902F0D2F945
:1008000002F03CFA2860BDF9060002F0B1F9009947
:1008100002F0C8F902F032FA6860BDF9080002F08F
:10082000A7F9009902F0BEF902F028FAA8600020AA
:100830003EBD30B583B004000D0000A9200000F0DB
:1008400041FB012801D1012009E0BDF8000028800A
:10085000BDF802006880BDF80400A88000203EBDFD
:1008600038B504000D000DF10101200001F049FA36
:10087000002801D1012030E09DF80100022803D1B9
:10088000DFF8E409286027E000A9200001F06EFAF3
:10089000002801D1012020E09DF80000002806D0AA
:1008A000042808D008280AD00C280CD00FE0DFF864
:1008B000BC09286010E0DFF8B80928600CE0DFF818
:1008C000B409286008E0DFF8B009286004E0DFF828
:1008D000C4052860012000E0002032BD38B50400C6
:1008E0000D0000A9200001F076FA002801D10120B6
:1008F0003DE09DF80000002810D0102811D02028DD
:1009000013D0302815D0402817D0502819D060288F
:100910001BD070281DD080281FD022E00020286026
:1009200024E0DFF87405286020E0DFF87005286017
:100930001CE0DFF86C05286018E0DFF8D0032860C1
:1009400014E0DFF86005286010E0DFF85C0528603F
:100950000CE0DFF85805286008E0DFF8540528604F
:1009600004E0DFF830052860012000E0002032BDFF
:1009700038B504000D002079012808D12900C9B23A
:10098000200000F0C7FA01280AD1012009E029005F
:10099000C9B2200000F0E7FA012801D1012000E0EF
:1009A000002032BD38B504000D002079012807D1A0
:1009B0002900200000F0FEFA012809D1012008E0FA
:1009C0002900200000F042FB012801D1012000E0B5
:1009D000002032BD38B504000D0000A9200001F050
:1009E00090F9002801D1012031E00DF10101200032
:1009F00001F0BCF9002801D1012028E09DF8000099
:100A0000022803D1DFF87C0A28601FE09DF801006E
:100A1000002806D0042808D008280AD00C280CD0BA
:100A20000FE0DFF8640A286010E0DFF8600A286051
:100A30000CE0DFF85C0A286008E0DFF8580A28605C
:100A400004E0DFF850042860012000E0002032BDFF
:100A500070B504000D00EDB2002D03D0022D07D0BB
:100A600003D308E00020060007E00420060004E0AD
:100A70000C20060001E0012009E03100C9B220008D
:100A800001F051F9002801D1012000E0002070BDE3
:100A900070B504000D002800DFF8201B02F010F9EB
:100AA00007D20221200001F009F900282BD10120F2
:100AB0002AE02800DFF8081B02F002F901D2002624
:100AC00010E02800DFF8FC1A02F0FAF801D2042640
:100AD00008E02800DFF8F01A02F0F2F801D2082648
:100AE00000E00C260021200001F0E8F8002801D1E8
:100AF000012009E03100C9B2200001F014F90028FA
:100B000001D1012000E0002070BD0000F0E50008E8
:100B100038B504000D000DF10201200001F098FA33
:100B2000002801D1012029E00DF10101200001F090
:100B3000C4FA002801D1012020E000A9200001F022
:100B4000F1FA002801D1012018E09DF802000828E0
:100B500001D1012000E0002028709DF8010010283C
:100B600001D1012000E0002068709DF800002028DD
:100B700001D1012000E00020A870002032BD38B56E
:100B800004000D002878012801D1082100E000218F
:100B9000C9B2200001F039FA002801D101201CE07F
:100BA0006878012801D1102100E00021C9B220009D
:100BB00001F060FA002801D101200EE0A878012898
:100BC00001D1202100E00021C9B2200001F087FA04
:100BD000002801D1012000E0002032BD38B504001A
:100BE0000D002900200000F0EDFF002801D10120B8
:100BF00000E0002032BD10B582B0040000208DF866
:100C0000000000A92000FFF7E9FF012801D1012021
:100C100007E09DF800002178884201D0012000E023
:100C2000002016BD30B583B004000D0000A80021DF
:100C3000002206C0083800A9200001F01DFF00288E
:100C400001D1012015E09DF801009DF8001011EB85
:100C5000002028809DF803009DF8021011EB002071
:100C600068809DF805009DF8041011EB0020A88015
:100C700000203EBD70B504000D00EDB2002D06D081
:100C8000022D0AD006D3042D0DD009D30EE010207A
:100C900006000DE0102006000AE02020060007E014
:100CA0003020060004E04020060001E0012009E0B9
:100CB0003100C9B2200000F0CCFF002801D1012092
:100CC00000E0002070BD10B4020093681C68C9B237
:100CD000002906D002290AD006D304290DD009D351
:100CE0000FE06D4820600EE06B4820600BE06B4821
:100CF000206008E06A48206005E0DFF8D00B206043
:100D000001E0012000E0002010BC70470000D0424C
:100D100070B504000D002800DFF8181A01F0D0FFAC
:100D200001D2102648E02800DFF80C1A01F0C8FFB5
:100D300001D2202640E02800DFF8001A01F0C0FFB1
:100D400001D2302638E02800DFF8F41901F0B8FFAE
:100D500001D2402630E02800DFF8741B01F0B0FF1C
:100D600001D2502628E02800DFF8681B01F0A8FF18
:100D700001D2602620E02800DFF85C1B01F0A0FF14
:100D800001D2702618E02800DFF8501B01F098FF10
:100D900001D2802610E02800DFF8441B01F090FF0C
:100DA00001D2902608E02800DFF8381B01F088FF08
:100DB00001D2A02600E0B0263100C9B2200000F028
:100DC00048FF002801D1012000E0002070BD000094
:100DD00023DB793D23DBF93D23DB793E23DBF93E41
:100DE00038B502000B00946825681800DFF8441934
:100DF00001F066FF01D2284848E01800DFF83819F2
:100E000001F05EFF01D2254840E01800DFF82C1900
:100E100001F056FF01D2224838E01800DFF820190F
:100E200001F04EFF01D2264830E01800DFF8A01A8A
:100E300001F046FF01D21B4828E01800DFF8941AA1
:100E400001F03EFF01D2184820E01800DFF8881AB0
:100E500001F036FF01D2154818E01800DFF87C1ABF
:100E600001F02EFF01D2124810E01800DFF8701ACE
:100E700001F026FF01D20F4808E01800DFF8641ADD
:100E800001F01EFF01D20C4800E00C482860002051
:100E900032BD0000000080BF000050410000D04182
:100EA00000005042000050430000D0430040504436
:100EB0000080CF44002050450020D04500485046D7
:100EC0000000D04230B583B004000D0000A800211E
:100ED000002206C0083800A9200001F0A2FD002869
:100EE00001D1012015E09DF801009DF8001011EBE3
:100EF000002028809DF803009DF8021011EB0020CF
:100F000068809DF805009DF8041011EB0020A88072
:100F100000203EBD70B504000D00EDB2002D06D0DE
:100F2000022D0AD006D3042D0DD009D30EE01020D7
:100F300006000DE0102006000AE02020060007E071
:100F40003020060004E04020060001E0012009E016
:100F50003100C9B2200000F01BFF002801D10120A0
:100F600000E0002070BD10B4020093681C68C9B294
:100F7000002906D002290CD007D3042911D00CD3A4
:100F800013E0DFF86409206011E0DFF85C092060FD
:100F90000DE0DFF85809206009E0DFF8540920600F
:100FA00005E0DFF82809206001E0012000E00020D2
:100FB00010BC704770B504000D002800DFF87417EE
:100FC00001F07EFE01D2102630E02800DFF868171D
:100FD00001F076FE01D2202628E02800DFF85C1719
:100FE00001F06EFE01D2302620E02800DFF8501715
:100FF00001F066FE01D2402618E02800DFF8D01884
:1010000001F05EFE01D2502610E02800DFF8C4187F
:1010100001F056FE01D2602608E02800DFF8B8187B
:1010200001F04EFE01D2702600E080263100C9B2E8
:10103000200000F0ADFE002801D1012000E00020DA
:1010400070BD0000010000400100804038B5020082
:101050000B00946825681800DFF8D81601F030FE00
:1010600002D2DFF8840837E01800DFF8CC1601F070
:1010700027FE02D2DFF874082EE01800DFF8BC1655
:1010800001F01EFE02D2DFF8680825E01800DFF844
:10109000B01601F015FE02D2DFF830081CE018008F
:1010A000DFF82C1801F00CFE02D2DFF8480813E03C
:1010B0001800DFF8201801F003FE02D2DFF838082C
:1010C0000AE01800DFF8101801F0FAFD02D2DFF88C
:1010D0002C0801E0DFF828082860002032BD00005D
:1010E000F4E5000810B50400DFF80C182000FFF745
:1010F000D9F9012801D1012038E00021200000F0B9
:1011000073FD002801D1012030E00621200001F00C
:1011100069FB002801D1012028E00021200001F016
:1011200018FB002801D1012020E00021200001F05F
:10113000EDFA002801D1012018E00021200001F083
:10114000C0FA002801D1012010E00321200000F0A6
:1011500048F8012801D1012008E01021200001F009
:10116000F7FB002801D1012000E0002010BD0000A5
:101170000100004110B504000021200001F0E8FB4F
:10118000002801D1012010E00021200001F02AFBFD
:10119000002801D1012008E00021200001F0FFFA21
:1011A000002801D1012000E0002010BD38B5040066
:1011B0000D0000A9200000F0FCFF002801D1012053
:1011C0000EE09DF80000002804D0202805D1012061
:1011D000287004E00020287001E0012000E00020D9
:1011E00032BD38B504000D002900C9B2200001F05D
:1011F000D6FA002801D1012000E0002032BD10B550
:101200000400DFF8E8162000FFF74CF9012801D1AF
:10121000012028E00021200000F0E6FC002801D198
:10122000012020E01721200000F08CF8012801D1D6
:10123000012018E00421200000F086FF002801D1E1
:10124000012010E04021200001F017F9002801D111
:10125000012008E08021200000F091FC002801D14D
:10126000012000E0002010BD00008C4000000C4177
:1012700000008C4100000C4200008C4210B50400BC
:101280000021200000F07BFC002801D1012018E0A3
:101290000021200001F0F1F8002801D1012010E028
:1012A0000021200000F050FF002801D1012008E0BB
:1012B0000021200000F046F8012801D1012000E0C3
:1012C000002010BD38B504000D0000A9200001F079
:1012D00024F8002801D101200EE09DF8000000282C
:1012E00004D0102805D10120287004E000202870C7
:1012F00001E0012000E0002032BD38B504000D00FF
:101300002900200001F0E3FB002801D1012000E0CA
:10131000002032BD10B504000221200000F052FE72
:10132000002801D1012000E0002010BD10B504000C
:101330000021200000F046FE002801D1012000E03D
:10134000002010BD38B504000D002900C9B22000EE
:1013500001F0E8FB002801D1012000E0002032BDAF
:1013600010B50400DFF884152000FFF79BF8012872
:1013700001D1012020E00021200000F035FC0028F0
:1013800001D1012018E00421200000F0DDFE00283A
:1013900001D1012010E02021200001F04BF80028AD
:1013A00001D1012008E00221200001F068FA0028A4
:1013B00001D1012000E0002010BD10B50400002183
:1013C000200001F05CFA002801D1012010E000218A
:1013D000200001F02FF8002801D1012008E00021B1
:1013E000200000F0B1FE002801D1012000E0002023
:1013F00010BD38B504000D0000A9200000F09FFFCB
:10140000002801D101200EE09DF80000002804D042
:10141000202805D10120287004E00020287001E078
:10142000012000E0002032BD10B50400DFF8C81430
:101430002000FFF737F8012801D1012020E000212A
:10144000200000F0D1FB002801D1012018E000218C
:10145000200001F07EF9002801D1012010E00221D6
:10146000200001F0E6F8002801D1012008E0202149
:10147000200001F090FA002801D1012000E00020B6
:1014800010BD00000000FA42000075430000FA435E
:1014900000007A440000FA4410B504000021200046
:1014A00001F079FA002801D1012010E0002120008C
:1014B00001F04FF9002801D1012008E000212000AF
:1014C00001F0B7F8002801D1012000E0002010BD94
:1014D00038B504000D0000A9200000F058FE0028D7
:1014E00001D101200EE09DF80000002804D008285A
:1014F00005D10120287004E00020287001E00120BF
:1015000000E0002032BD38B504000D002900C9B24A
:10151000200001F08EF8002801D1012000E0002019
:1015200032BD10B50400DFF8D0132000FEF7BAFF7B
:10153000012801D1012040E00021200000F054FBEF
:10154000002801D1012038E00821200000F04FFFE1
:10155000002801D1012030E00421200000F024FF08
:10156000002801D1012028E00221200000F0F9FE2E
:10157000002801D1012020E00821200000F049F9D5
:10158000012801D1012018E00221200000F04FF9CC
:10159000012801D1012010E00121200000F055F9BF
:1015A000012801D1012008E04021200001F016FAB5
:1015B000002801D1012000E0002010BD0100FA4206
:1015C000010075430100FA4301007A4410B504009C
:1015D0000021200001F002FA002801D1012030E0B2
:1015E0000021200000F015F9012801D1012028E098
:1015F0000021200000F01BF9012801D1012020E08A
:101600000021200000F021F9012801D1012018E07B
:101610000021200000F0A5FE002801D1012010E0EB
:101620000021200000F0C0FE002801D1012008E0C8
:101630000021200000F0DBFE002801D1012000E0A5
:10164000002010BD38B504000D0000A9200000F0F6
:10165000D4FD002801D101200EE09DF800000028F3
:1016600004D0202805D10120287004E00020287033
:1016700001E0012000E0002032BD10B504009E49C9
:101680002000FEF70FFF012801D1012050E00021CA
:10169000200000F0A9FA002801D1012048E008212B
:1016A000200000F0A4FE002801D1012040E0042128
:1016B000200000F079FE002801D1012038E002214D
:1016C000200000F04EFE002801D1012030E008216A
:1016D000200000F09EF8012801D1012028E003211C
:1016E000200000F0A4F8012801D1012020E003210E
:1016F000200000F0AAF8012801D1012018E00821FB
:10170000200000F0B0F8012801D1012010E0802174
:10171000200000F0B3FF002801D1012008E00821DB
:10172000200001F0F2F8002801D1012000E00020A3
:1017300010BD0000010050410100D04101005042A5
:101740000100D04210B504000021200001F0DDF8B6
:10175000002801D1012040E00021200000F059F8CC
:10176000012801D1012038E00021200000F05FF8BD
:10177000012801D1012030E00021200000F065F8AF
:10178000012801D1012028E00021200000F06BF8A1
:10179000012801D1012020E00021200000F06EFF8F
:1017A000002801D1012018E00021200000F0D9FD1F
:1017B000002801D1012010E00021200000F0F4FDFC
:1017C000002801D1012008E00021200000F00FFED8
:1017D000002801D1012000E0002010BD38B5040030
:1017E0000D0000A9200000F0F6FC002801D1012026
:1017F0000EE09DF80000002804D0102805D101203B
:10180000287004E00020287001E0012000E00020A2
:1018100032BD38B504000D002900C9B2200000F027
:101820004FFE002801D1012000E0002032BD38B574
:1018300004000D002900C9B2200000F089FE002834
:1018400001D1012000E0002032BD38B504000D00B8
:101850002900C9B2200000F0A0FE002801D101201B
:1018600000E0002032BD38B504000D002900C9B2E7
:10187000200000F0B8FE002801D1012000E0002087
:1018800032BD10B504001C492000FEF70BFE0128F4
:1018900001D1012018E00021200000F0A5F9002866
:1018A00001D1012010E04021200000F02EFE002890
:1018B00001D1012008E00421200001F003F80028F4
:1018C00001D1012000E0002010BD00000000D04246
:1018D000010050430100D043014050440180CF44F7
:1018E000012050450120D045000050410000D0416A
:1018F00000005042000050430000D04300405044DC
:101900000080CF4410B504000021200000F0DAFF71
:10191000002801D1012008E00021200000F0F5FDA1
:10192000002801D1012000E0002010BD38B50400DE
:101930000D0000A9200000F0DEFC002801D10120EC
:101940000EE09DF80000002804D0402805D10120B9
:10195000287004E00020287001E0012000E0002051
:1019600032BD38B504000D0000A9200000F057FC7E
:10197000002801D101200EE09DF80000002804D0CD
:10198000012805D10120287004E00020287001E022
:10199000012000E0002032BD38B504000D0000A990
:1019A000200000F04EFC002801D101200EE09DF83F
:1019B0000000002804D0022805D10120287004E08E
:1019C0000020287001E0012000E0002032BD38B581
:1019D00004000D0000A9200000F045FC002801D102
:1019E00001200EE09DF80000002804D0042805D155
:1019F0000120287004E00020287001E0012000E0B0
:101A0000002032BD38B504000D0000A9200000F010
:101A10003CFC002801D101200EE09DF800000028C8
:101A200004D0082805D10120287004E00020287087
:101A300001E0012000E0002032BD38B504000D00B7
:101A400000A9200000F033FC002801D101200EE0A5
:101A50009DF80000002804D0102805D1012028702E
:101A600004E00020287001E0012000E0002032BDE9
:101A700038B504000D0000A9200000F02AFC002861
:101A800001D101200EE09DF80000002804D020289C
:101A900005D10120287004E00020287001E0012019
:101AA00000E0002032BD0268531C036011707047D3
:101AB00070B504000D001600012332002900C9B2E0
:101AC000200001F09BF9002801D0002000E0012057
:101AD00070BD34B504000D00012300AA2900C9B26D
:101AE000200001F074F9002801D0002000E001205E
:101AF00032BD38B504000D0000AA01212000FFF717
:101B0000D7FF002801D1002015E09DF8000010F05B
:101B10007F008DF800009DF8000028438DF800003C
:101B20009DF8002001212000FFF7D3FF002801D1FC
:101B3000002000E0012032BD38B504000D0000AAED
:101B40000A212000FFF7B4FF002801D1002015E092
:101B50009DF8000010F0F8008DF800009DF80000DE
:101B600028438DF800009DF800200A212000FFF78F
:101B7000B0FF002801D1002000E0012032BD38B5BF
:101B800004000D0000AA0D212000FFF791FF00289E
:101B900001D1002015E09DF8000010F07F008DF8C5
:101BA00000009DF8000028438DF800009DF80020FB
:101BB0000D212000FFF78DFF002801D1002000E05B
:101BC000012032BD38B504000D002A000F2120008D
:101BD000FFF76EFF002801D1002004E0287828706C
:101BE00028782870012032BD38B504000D0000AA05
:101BF00010212000FFF75CFF002801D1002015E034
:101C00009DF8000010F0F3008DF800009DF8000032
:101C100028438DF800009DF8002010212000FFF7D8
:101C200058FF002801D1002000E0012032BD38B566
:101C300004000D002A0010212000FFF739FF0028C2
:101C400001D1002004E0287810F00C002870012059
:101C500032BD38B504000D0000AA10212000FFF7A6
:101C600027FF002801D1002015E09DF8000010F0AA
:101C70000F008DF800009DF8000028438DF800004B
:101C80009DF8002010212000FFF723FF002801D13C
:101C9000002000E0012032BD38B504000D002A000C
:101CA00010212000FFF704FF002801D1002004E0EC
:101CB000287810F0F0002870012032BD38B50400FB
:101CC0000D0000AA11212000FFF7F2FE002801D12B
:101CD000002015E09DF8000010F0FD008DF80000D8
:101CE0009DF8000028438DF800009DF80020112188
:101CF0002000FFF7EEFE002801D1002000E00120C7
:101D000032BD38B504000D002A0011212000FFF774
:101D1000CFFE002801D1002004E0287810F0020056
:101D20002870012032BD38B504000D0000AA112131
:101D30002000FFF7BDFE002801D1002015E09DF82E
:101D4000000010F0F3008DF800009DF8000028431B
:101D50008DF800009DF8002011212000FFF7B9FE4A
:101D6000002801D1002000E0012032BD38B5040078
:101D70000D002A0011212000FFF79AFE002801D152
:101D8000002004E0287810F00C002870012032BDFB
:101D900038B504000D0000AA11212000FFF788FECD
:101DA000002801D1002015E09DF8000010F00F0080
:101DB0008DF800009DF8000028438DF800009DF884
:101DC000002011212000FFF784FE002801D100200F
:101DD00000E0012032BD38B504000D002A001121B9
:101DE0002000FFF765FE002801D1002004E02878DC
:101DF00010F0F0002870012032BD38B504000D004D
:101E000000AA12212000FFF753FE002801D1002074
:101E100015E09DF8000010F0FB008DF800009DF823
:101E2000000028438DF800009DF8002012212000BA
:101E3000FFF74FFE002801D1002000E0012032BD55
:101E400038B504000D0000AA12212000FFF730FE73
:101E5000002801D1002015E09DF8000010F0BF001F
:101E60008DF800009DF8000028438DF800009DF8D3
:101E7000002012212000FFF72CFE002801D10020B5
:101E800000E0012032BD38B504000D0000AA182181
:101E90002000FFF70DFE002801D1002015E09DF87D
:101EA000000010F0F7008DF800009DF800002843B6
:101EB0008DF800009DF8002018212000FFF709FE92
:101EC000002801D1002000E0012032BD38B5040017
:101ED0000D002A0018212000FFF7EAFD002801D19B
:101EE000002004E0287810F008002870012032BD9E
:101EF00038B504000D0000AA18212000FFF7D8FD16
:101F0000002801D1002015E09DF8000010F0EF003E
:101F10008DF800009DF8000028438DF800009DF822
:101F2000002018212000FFF7D4FD002801D1002057
:101F300000E0012032BD38B504000D002A00182150
:101F40002000FFF7B5FD002801D1002004E028782B
:101F500010F010002870012032BD38B504000D00CB
:101F600000AA18212000FFF7A3FD002801D10020BE
:101F700015E09DF8000010F0DF008DF800009DF8DE
:101F8000000028438DF800009DF800201821200053
:101F9000FFF79FFD002801D1002000E0012032BDA5
:101FA00038B504000D002A0018212000FFF780FD3D
:101FB000002801D1002004E0287810F020002870CB
:101FC000012032BD38B504000D0000AA19212000FF
:101FD000FFF76EFD002801D1002015E09DF80000FC
:101FE00010F0FD008DF800009DF8000028438DF8EA
:101FF00000009DF8002019212000FFF76AFD00284D
:1020000001D1002000E0012032BD38B504000D00F0
:1020100000AA19212000FFF74BFD002801D1002064
:1020200015E09DF8000010F0F7008DF800009DF815
:10203000000028438DF800009DF8002019212000A1
:10204000FFF747FD002801D1002000E0012032BD4C
:1020500038B504000D002A0019212000FFF728FDE3
:10206000002801D1002004E0287810F00800287032
:10207000012032BD38B504000D0000AA192120004E
:10208000FFF716FD002801D1002015E09DF80000A3
:1020900010F0EF008DF800009DF8000028438DF847
:1020A00000009DF8002019212000FFF712FD0028F4
:1020B00001D1002000E0012032BD38B504000D0040
:1020C0002A0019212000FFF7F3FC002801D100208D
:1020D00004E0287810F010002870012032BD38B5D7
:1020E00004000D0000AA19212000FFF7E1FC0028E0
:1020F00001D1002015E09DF8000010F0DF008DF800
:1021000000009DF8000028438DF800009DF8002095
:1021100019212000FFF7DDFC002801D1002000E09C
:10212000012032BD38B504000D002A00192120001D
:10213000FFF7BEFC002801D1002004E0287810F051
:1021400020002870012032BD38B504000D0000AA1F
:1021500019212000FFF7ACFC002801D1002015E078
:102160009DF8000010F0FB008DF800009DF80000C5
:1021700028438DF800009DF8002019212000FFF76A
:10218000A8FC002801D1002000E0012032BD38B5B4
:1021900004000D002A001B212000FFF789FC002805
:1021A00001D1002004E0287810F0080028700120F8
:1021B00032BD38B504000D002A001B212000FFF7B6
:1021C00077FC002801D1002004E0287810F02000DE
:1021D0002870012032BD38B504000D002A001C21F2
:1021E0002000FFF765FC002801D1002004E02878DA
:1021F00010F010002870012032BD38B504000D0029
:102200002A001C212000FFF753FC002801D10020E8
:1022100004E0287810F020002870012032BD38B585
:1022200004000D002A001D212000FFF741FC0028BA
:1022300001D1002004E0287810F00100287001206E
:1022400032BD38B504000D002A001D212000FFF723
:102250002FFC002801D1002004E0287810F00200B3
:102260002870012032BD38B504000D002A001D2160
:102270002000FFF71DFC002801D1002004E0287891
:1022800010F004002870012032BD38B504000D00A4
:102290002A001D212000FFF70BFC002801D100209F
:1022A00004E0287810F008002870012032BD38B50D
:1022B00004000D002A001D212000FFF7F9FB002873
:1022C00001D1002004E0287810F0100028700120CF
:1022D00032BD38B504000D002A001D212000FFF793
:1022E000E7FB002801D1002004E0287810F020004E
:1022F0002870012032BD38B504000D002A001D21D0
:102300002000FFF7D5FB002801D1002004E0287849
:1023100010F040002870012032BD38B504000D00D7
:102320002A0053212000FFF7C3FB002801D1002021
:1023300004E0287810F010002870012032BD38B574
:1023400004000D002A0053212000FFF7B1FB0028F4
:1023500001D1002004E0287810F02000287001202E
:1023600032BD38B504000D0000AA58212000FFF747
:102370009FFB002801D1002015E09DF8000010F01F
:10238000FD008DF800009DF8000028438DF8000046
:102390009DF8002058212000FFF79BFB002801D169
:1023A000002000E0012032BD38B504000D0000AA75
:1023B00058212000FFF77CFB002801D1002015E008
:1023C0009DF8000010F0FB008DF800009DF8000063
:1023D00028438DF800009DF8002058212000FFF7C9
:1023E00078FB002801D1002000E0012032BD38B583
:1023F00004000D0000AA58212000FFF759FB002817
:1024000001D1002015E09DF8000010F0F7008DF8D4
:1024100000009DF8000028438DF800009DF8002082
:1024200058212000FFF755FB002801D1002000E0D3
:10243000012032BD38B504000D0000AA582120004B
:10244000FFF736FB002801D1002015E09DF80000C1
:1024500010F0DF008DF800009DF8000028438DF893
:1024600000009DF8002058212000FFF732FB0028D3
:1024700001D1002000E0012032BD38B504000D007C
:1024800000AA58212000FFF713FB002801D10020EB
:1024900015E09DF8000010F0BF008DF800009DF8D9
:1024A000000028438DF800009DF8002058212000EE
:1024B000FFF70FFB002801D1002000E0012032BD12
:1024C00038B504000D0015F01F0500AA59212000A1
:1024D000FFF7EEFA002801D1002015E09DF800007A
:1024E00010F0E0008DF800009DF8000028438DF802
:1024F00000009DF8002059212000FFF7EAFA00288B
:1025000001D1002000E0012032BD38B504000D00EB
:1025100000AA59212000FFF7CBFA002801D10020A2
:1025200015E09DF8000010F09F008DF800009DF868
:10253000000028438DF800009DF80020592120005C
:10254000FFF7C7FA002801D1002000E0012032BDCA
:1025500038B504000D0015F0030500AA5A2120002B
:10256000FFF7A6FA002801D1002015E09DF8000031
:1025700010F0FC008DF800009DF8000028438DF855
:1025800000009DF800205A212000FFF7A2FA002841
:1025900001D1002000E0012032BD38B504000D005B
:1025A000AD0015F00C0500AA5A212000FFF780FAB3
:1025B000002801D1002015E09DF8000010F0F30084
:1025C0008DF800009DF8000028438DF800009DF86C
:1025D00000205A212000FFF77CFA002801D10020BA
:1025E00000E0012032BD38B504000D002D0115F0CA
:1025F000F00500AA5A212000FFF75AFA002801D15D
:10260000002015E09DF8000010F00F008DF800008C
:102610009DF8000028438DF800009DF800205A2105
:102620002000FFF756FA002801D1002000E0012029
:1026300032BD38B504000D0015F03F0500AA5B213E
:102640002000FFF735FA002801D1002015E09DF8A1
:10265000000010F0C0008DF800009DF80000284335
:102660008DF800009DF800205B212000FFF731FA73
:10267000002801D1002000E0012032BD38B504005F
:102680000D0000AA5B212000FFF712FA002801D1FB
:10269000002015E09DF8000010F07F008DF800008C
:1026A0009DF8000028438DF800009DF800205B2174
:1026B0002000FFF70EFA002801D1002000E00120E1
:1026C00032BD38B504000D0015F00F0500AA5C21DD
:1026D0002000FFF7EDF9002801D1002015E09DF85A
:1026E000000010F0F0008DF800009DF80000284375
:1026F0008DF800009DF800205C212000FFF7E9F92B
:10270000002801D1002000E0012032BD38B50400CE
:102710000D0000AA5C212000FFF7CAF9002801D1B2
:10272000002015E09DF8000010F0EF008DF800008B
:102730009DF8000028438DF800009DF800205C21E2
:102740002000FFF7C6F9002801D1002000E0012099
:1027500032BD38B504000D006D0115F0600500AA0A
:102760005C212000FFF7A4F9002801D1002015E02A
:102770009DF8000010F09F008DF800009DF800000B
:1027800028438DF800009DF800205C212000FFF711
:10279000A0F9002801D1002000E0012032BD38B5A9
:1027A00004000D0000AA5D212000FFF781F9002838
:1027B00001D1002015E09DF8000010F0F8008DF820
:1027C00000009DF8000028438DF800009DF80020CF
:1027D0005D212000FFF77DF9002801D1002000E0F5
:1027E000012032BDF8B504000D0015F01F000700F0
:1027F000C5F340100600FF0017F0F80700AA5D219E
:102800002000FFF755F9002801D1002036E09DF89F
:10281000000010F007008DF800009DF8000038431C
:102820008DF800009DF800205D212000FFF751F990
:10283000002801D1002021E0F60116F0800600AA50
:102840005C212000FFF734F9002801D1002015E0B9
:102850009DF8000010F07F008DF800009DF800004A
:1028600030438DF800009DF800205C212000FFF728
:1028700030F9002801D1002000E00120F2BD38B578
:1028800004000D0000AA5E212000FFF711F90028C6
:1028900001D1002015E09DF8000010F0FD008DF83A
:1028A00000009DF8000028438DF800009DF80020EE
:1028B0005E212000FFF70DF9002801D1002000E083
:1028C000012032BD38B504000D0000AA5E212000B1
:1028D000FFF7EEF8002801D1002015E09DF8000078
:1028E00010F0FB008DF800009DF8000028438DF8E3
:1028F00000009DF800205E212000FFF7EAF8002884
:1029000001D1002000E0012032BD38B504000D00E7
:1029100000AA5E212000FFF7CBF8002801D100209B
:1029200015E09DF8000010F0F7008DF800009DF80C
:10293000000028438DF800009DF800205E21200053
:10294000FFF7C7F8002801D1002000E0012032BDC8
:1029500038B504000D0000AA5E212000FFF7A8F89A
:10296000002801D1002015E09DF8000010F0EF00D4
:102970008DF800009DF8000028438DF800009DF8B8
:1029800000205E212000FFF7A4F8002801D10020DC
:1029900000E0012032BD38B504000D0000AA5E2120
:1029A0002000FFF785F8002801D1002015E09DF8F0
:1029B000000010F0DF008DF800009DF800002843B3
:1029C0008DF800009DF800205E212000FFF781F8BF
:1029D000002801D1002000E0012032BD38B50400FC
:1029E0000D0000AA5E212000FFF762F8002801D147
:1029F000002015E09DF8000010F0BF008DF80000E9
:102A00009DF8000028438DF800009DF800205E210D
:102A10002000FFF75EF8002801D1002000E001202F
:102A200032BD2DE9F84304000D000220814600204C
:102A3000804600200600F6B2032E1ADA00200700B6
:102A4000FFB25FFA89F94F4511D25FFA88F818EBA7
:102A5000050218F12201C9B22000FFF729F8002869
:102A600001D1002006E018F101087F1CE8E7761C80
:102A7000E1E70120BDE8F2832DE9F84304000D00F1
:102A8000022081460020804600200600F6B2032E78
:102A90001ADA00200700FFB25FFA89F94F4511D218
:102AA0005FFA88F818EB050218F12801C9B2200076
:102AB000FEF7FEFF002801D1002006E018F1010812
:102AC0007F1CE8E7761CE1E70120BDE8F2832DE9F1
:102AD000F84304000D0002208146002080460020BB
:102AE0000600F6B2002E1AD100200700FFB25FFAEE
:102AF00089F94F4511D25FFA88F818EB050218F1F1
:102B00004B01C9B22000FEF7D3FF002801D10020FD
:102B100006E018F101087F1CE8E7761CE1E70120D8
:102B2000BDE8F28338B504000D0080212000FEF7D7
:102B3000E0FF00AA0F212000FEF7BAFF9DF8000079
:102B400010F0E0008DF800009DF8000015F01F0166
:102B500008438DF800009DF800200F212000FEF7AB
:102B6000B8FF00212000FEF7C4FF012032BD200085
:102B7000002840F10980F446404200F005F850F08A
:102B800000406047002800BF0AD0B0FA80F18840BA
:102B9000D1F19D01C905020672F1004241EB1020FE
:102BA00070470020FF2212EAD05C1DBF12EAD15309
:102BB000944593422BE09C44D30780EA01021A40DB
:102BC00043EA002043EA0121A1FB0030410038BF65
:102BD00040007CF17F010BDBFE294ADA5B0842EA08
:102BE000C15153EA006373F1004C51EB1020704760
:102BF000D1F1080CDCF120012FDB5B0810FA01F1A8
:102C00000B4373F1004120FA0CF05041704794459A
:102C10001CBF02EAD153934280EA010202F0004253
:102C20001DD0400019D0490017D05BB9634514D0BE
:102C30000902B1FA81F39940BCEB030CC00140F0EA
:102C40000040C1E70002B0FA80FC10FA0CF0B3EBD0
:102C50000C0CC90141F00041B6E71000704740007C
:102C60000AD0490008D010F1807F94BF11F1807F15
:102C700002E042F0FF407047D04370474100090E28
:102C80007F3915D4D1F11F0114D4400007D2C001FF
:102C900040F00040C84048BF6FF000407047C0019E
:102CA00040F00040C8404CBF4FF0004040427047E9
:102CB0000020704700424FF0004058BFC0437047AB
:102CC0004FF0807C1CEB400F94BF1CEB410F05E0E4
:102CD00040EA010C5FEA4C0C01D28842704718BFF1
:102CE0008142704780B500F0A0F8002801D0012093
:102CF00000E0002002BD0020704700B58BB0AE4858
:102D0000006850F00100AC490860AB48006810F062
:102D100001000090009810200690A848079002201B
:102D200009900020089006A9A54800F059F9002252
:102D300000210A2000F0E8FA0A2000F0F8FA9E4884
:102D4000006850F002009C4908609B48006810F041
:102D50000200009000980120019098480290022003
:102D600004900020039001A9964800F039F9002250
:102D70000021062000F0C8FA062000F0D8FA002052
:102D80000BB000BD00B587B08B48006850F0010063
:102D9000894908608848006810F001000090009898
:102DA000102001908548029002200490002003909A
:102DB00001A9834800F014F9002200210A2000F044
:102DC000A3FA0A2000F0B3FA002007B000BD2DE9F5
:102DD000F04104000D0016001F00A0463B009BB20E
:102DE00032002900C9B298F8010000F042F800282A
:102DF00001D0012000E00020BDE8F0812DE9F04184
:102E000004000D0016001F00A0463B009BB23200DC
:102E10002900C9B298F8010000F055F8002801D047
:102E2000012000E00020BDE8F08180B5664800F098
:102E30005DFD002814D1654863494860002062495F
:102E4000886033206049C8604FF480405E49086163
:102E50005F485D49086000F068F85B4800F084FA5C
:102E6000594800F043FD202801D1002000E0012056
:102E700002BD2DE9F04184B004000D0016001F00D2
:102E80005FF00008534800680290380080B201905B
:102E900000960123EDB22A0092B2E4B2210089B279
:102EA000494800F045FB80465FFA88F8B8F1000F0A
:102EB00005D02000C0B200F030F8012000E0002072
:102EC00004B0BDE8F0812DE9F04184B004000D00AC
:102ED00016001F005FF000083E48006802903800AE
:102EE00080B2019000960123EDB22A0092B2E4B2C2
:102EF000210089B2344800F0C4FB80465FFA88F8AC
:102F0000B8F1000F05D02000C0B200F006F8012093
:102F100000E0002004B0BDE8F08110B504002A48AC
:102F200000F0DAFAFFF781FF10BD00B587B0224844
:102F3000006850F00200204908601F48006810F047
:102F40000200009000984FF440700190122002900F
:102F500002200490002003900420059001A9194844
:102F600000F03EF81C48006850F400101A49086050
:102F70001948006810F40010009000981748006885
:102F800050F40010154908601448006830F400102F
:102F900012490860002200211F2000F0B5F91F200F
:102FA00000F0C5F900220021202000F0ADF920201A
:102FB00000F0BDF907B000BD1C3802400000111040
:102FC00000000240000402404C0B0020801A060062
:102FD0000054004090040020243802401838024079
:102FE00078B40022002300240D682E00D640002E65
:102FF00000F0DE800D680126964035402B00002B46
:1030000000F0D4804D68022D02D04D68122D16D1EB
:10301000D50810EB85052D6A2C000F2512F0070648
:10302000F6B2B600B540AC430D6912F00706F6B231
:10303000B600B5402C43D50810EB85052C62056819
:103040002C0003251600F6B27600B540AC430D798E
:1030500015F003051600F6B27600B5402C43046067
:103060004D68012D08D04D68022D05D04D68112DF9
:1030700002D04D68122D19D185682C000325160049
:10308000F6B27600B540AC43CD681600F6B27600D5
:10309000B5402C43846045682C0001259540AC4325
:1030A0004D68C5F3001595402C434460C5682C005D
:1030B00003251600F6B27600B540AC438D681600C5
:1030C000F6B27600B5402C43C4604D68ED006DD576
:1030D000484D2D6855F00105464E3560454D2D682B
:1030E00015F001050095009D434D960855F82650B2
:1030F0002C000F2512F00306F6B2B600B540AC4323
:103100003E4DA84201D100251EE03D4DA84201D10F
:10311000012519E03B4DA84201D1022514E03A4DAA
:10312000A84201D103250FE0384DA84201D1042562
:103130000AE0374DA84201D1052505E0354DA842EA
:1031400001D1062500E0072512F00306F6B2B6000D
:10315000B5402C43284D960845F826402E4D2D6845
:103160002C009C434D68ED0300D51C432A4D2C6078
:103170002A4D2D682C009C434D68AD0300D51C439F
:10318000264D2C60264D2D682C009C434D68ED0289
:1031900000D51C43224D2C60224D2D682C009C43F1
:1031A0004D68AD0200D51C431E4D2C60521C1BE720
:1031B00071BC7047D2B2002A02D089B2816102E0AC
:1031C00089B20B0483617047426989B24A40426107
:1031D000704710B5040014480068A4B2204206D01D
:1031E000A4B211480460200080B201F06FF910BD54
:1031F00000000000203802400800014000000240AA
:103200000004024000080240000C0240001002408E
:103210000014024000180240000401400404014070
:10322000080401400C0401401404014010F007029E
:10323000454B1B6819004FF6FF031940434B53EAF7
:1032400002231943404B196070473F480068C0F3A0
:1032500002207047012110F01F0291403C4A40B209
:10326000430942F82310704710B440B2002808D533
:103270000A01384B40B210F00F04E31803F8042C95
:1032800003E00A01344B40B2C25410BC704770B422
:10329000030013F00704D4F10706052E01D3042020
:1032A00001E0D4F10700261D072E01D2002500E021
:1032B000E51E012616FA00F0401E0840A840012134
:1032C000A940491E1140084370BC704710B5040066
:1032D000601EB0F1807F01D301200EE0601E1F4907
:1032E00008600F215FF0FF30FFF7BEFF00201C4990
:1032F000086007201B490860002010BD10B50400BD
:103300002000FFF793FF10BDF8B504000D00160074
:103310000027FFF79AFF0700320029003800FFF767
:10332000B6FF0100200040B2FFF79EFFF1BD10B5CF
:103330000400200040B2FFF78DFF10BD10B504005F
:103340002000FFF7C3FF10BD0CED00E00000FA0500
:1033500000E100E018ED00E000E400E014E000E02F
:1033600018E000E010E000E070B504000025002641
:10337000002C01D10120AEE094F83500002805D1E1
:10338000002084F83400200000F0C5F801F00AFFA6
:103390000600DFF88801864201D201209BE024204C
:1033A00084F8350020680068400840002168086003
:1033B000DFF86C01B6FBF0F005002068406880097A
:1033C00080012843216848602068006A6168DFF84E
:1033D0005421914201D2691C08E04FF4967101FB1F
:1033E00005F14FF47A72B1FBF2F1491C80098001BA
:1033F0000843216808622068C0696168DFF82421F9
:1034000091420ED261684900B6FBF1F10905090D40
:10341000042901D204212AE061684900B6FBF1F1D8
:1034200025E0A168002905D1616803225143B6FB5C
:10343000F1F106E0616819225143B6FBF1F151F454
:103440008041090501D1012111E0A168002905D1C0
:10345000616803225143B6FBF1F106E0616819226D
:103460005143B6FBF1F151F4804151F40041DFF8D2
:10347000B820104008432168C8612068006830F017
:10348000C000E1690843216A084321680860206898
:103490008068DFF89810084021690843E168084314
:1034A000216888602068C068000A0002A16962691A
:1034B000114308432168C8602068006850F001008B
:1034C000216808600020A063202084F835000020D7
:1034D00084F83600002070BD10B50400002C01D126
:1034E000012017E0242084F8350020680068400897
:1034F000400021680860200000F00EF80020A06362
:10350000002084F83500002084F83600002084F87C
:103510003400002010BD70477047000080841E00FA
:1035200040420F00A18601000030FFFF007CFFFF3A
:103530002DE9F04782B005000E0017009846DDF82F
:1035400028900B9CDDF830A095F83500202840F03D
:103550009580B9F1000F02D0A4B2002C01D1012056
:103560008DE042F2107301225FF00211280000F09A
:10357000DDFA002801D0022081E095F8340001280E
:1035800001D102207BE0012085F834002868006822
:1035900030F4006029680860212085F8350040205B
:1035A00085F836000020A863CDF800A043469BB202
:1035B0003A0092B2310089B2280000F09DF900284B
:1035C0000CD0A86B042804D1002085F83400012019
:1035D00055E0002085F83400032050E0A4B2002C10
:1035E00028D05146280000F05DFB00280CD0A86BC5
:1035F000042807D12868006850F400702968086022
:1036000001203CE003203AE099F8000029680861B5
:1036100019F10109641E286840694007DED5A4B28B
:10362000002CDBD099F800002968086119F1010924
:10363000641ED3E75146280000F034FB00280CD06C
:10364000A86B042807D12868006850F40070296826
:103650000860012013E0032011E02868006850F49E
:10366000007029680860202085F83500002085F862
:103670003600002085F83400002000E00220BDE87C
:10368000F6872DE9F04782B005000E001700984636
:10369000DDF828900B9CDDF830A095F83500202847
:1036A00040F02081B9F1000F02D0A4B2002C01D16A
:1036B000012018E142F2107301225FF0021128008C
:1036C00000F034FA002801D002200CE195F8340013
:1036D000012801D1022006E1012085F83400286884
:1036E000006830F4006029680860222085F8350001
:1036F000402085F836000020A863CDF800A043469E
:103700009BB23A0092B2310089B2280000F062F90F
:1037100000280CD0A86B042804D1002085F83400C0
:103720000120E0E0002085F834000320DBE0A4B2B3
:10373000012C13D12868006830F480602968086083
:10374000286840690090286880690090009828687F
:10375000006850F40070296808601DE0A4B2022CD3
:1037600013D12868006830F48060296808602868F0
:10377000006850F40060296808602868406900907B
:10378000286880690090009806E0286840690090E9
:103790002868806900900098A4B2002C00F09780FF
:1037A000A4B2042C72DAA4B2012C14D15146280020
:1037B00000F0A1FA002806D0A86B202801D1032030
:1037C00091E001208FE02868006989F8000019F174
:1037D0000109641EE0E7A4B2022C1FD15346002267
:1037E000DFF81011280000F0A1F9002801D0032013
:1037F00079E02868006850F400702968086028683B
:10380000006989F8000019F10109641E286800693F
:1038100089F8000019F10109641EBDE75346002232
:10382000DFF8D010280000F081F9002801D0032033
:1038300059E02868006830F48060296808602868CA
:10384000006989F8000019F10109641E534600223D
:10385000DFF8A010280000F069F9002801D003204B
:1038600041E02868006850F4007029680860286802
:10387000006989F8000019F10109641E28680069CF
:1038800089F8000019F10109641E85E751462800F6
:1038900000F031FA002806D0A86B202801D10320BF
:1038A00021E001201FE02868006989F8000019F173
:1038B0000109641E2868406940077FF56DAF2868DC
:1038C000006989F8000019F10109641E64E72020ED
:1038D00085F83500002085F83600002085F8340092
:1038E000002000E00220BDE8F687000090F83500D7
:1038F00070470000040001002DE9F04182B004008F
:103900000D0016001F00DDF820802068006850F4CC
:10391000807021680860434600225FF0011120009A
:1039200000F004F9002801D0032051E015F0FE005A
:10393000216808614246DFF8F011200000F063F9C9
:10394000002806D0A06B042801D1012040E003200C
:103950003EE02068406900902068806900900098EF
:103960004146200000F09EF900280CD0A06B0428EE
:1039700007D12068006850F40070216808600120B9
:1039800026E0032024E0BFB2012F04D13000C0B2F2
:10399000216808611BE0B6B2300AC0B22168086134
:1039A0004146200000F07EF900280CD0A06B0428CE
:1039B00007D12068006850F4007021680860012079
:1039C00006E0032004E03000C0B221680861002056
:1039D000BDE8F6812DE9F04182B004000D0016002B
:1039E0001F00DDF820802068006850F480602168A6
:1039F00008602068006850F48070216808604346C1
:103A000000225FF00111200000F090F8002801D0A2
:103A1000032087E015F0FE00216808614246424914
:103A2000200000F0F0F8002806D0A06B042801D197
:103A3000012077E0032075E020684069009020684D
:103A40008069009000984146200000F02BF9002882
:103A50000CD0A06B042807D12068006850F40070D7
:103A60002168086001205DE003205BE0BFB2012F08
:103A700004D13000C0B2216808611BE0B6B2300A40
:103A8000C0B2216808614146200000F00BF900280F
:103A90000CD0A06B042807D12068006850F4007097
:103AA0002168086001203DE003203BE03000C0B207
:103AB000216808614146200000F0F4F800280CD08D
:103AC000A06B042807D12068006850F400702168BA
:103AD0000860012026E0032024E02068006850F4FC
:103AE000807021680860434600225FF001112000C9
:103AF00000F01CF8002801D0032013E055F001006D
:103B0000C0B22168086142460749200000F07BF8F6
:103B1000002806D0A06B042801D1012002E0032078
:103B200000E00020BDE8F681020001002DE9F0412F
:103B300004000D0016001F005FF0000801F0F6FB06
:103B40008046F6B2002E2DD1280CC0B201280AD131
:103B500020684069284080B2A9B2884201D1012082
:103B60000BE0002009E020688069284080B2A9B2FB
:103B7000884201D1012000E00020002840D117F147
:103B8000010FE1D0002F05D001F0D0FBB0EB080011
:103B90008742D9D2202084F83500002084F83400F0
:103BA00003202EE0280CC0B201280AD12068406909
:103BB000284080B2A9B2884201D101200BE0002048
:103BC00009E020688069284080B2A9B2884201D10A
:103BD000012000E00020002812D017F1010FE1D0F1
:103BE000002F05D001F0A2FBB0EB08008742D9D22C
:103BF000202084F83500002084F83400032000E001
:103C00000020BDE8F081F8B504000D001600002783
:103C100001F08CFB0700280CC0B201280AD12068F3
:103C20004069284080B2A9B2884201D101200BE04E
:103C3000002009E020688069284080B2A9B288424B
:103C400001D1012000E00020002829D1206840692E
:103C5000400513D52068006850F4007021680860A2
:103C60007FF48060216848610420A063202084F8EC
:103C70003500002084F83400012012E016F1010F15
:103C8000C9D0002E04D001F051FBC01B8642C2D225
:103C9000202084F83500002084F83400032000E060
:103CA0000020F2BD70B504000D0001F03FFB0600DE
:103CB0002068406900061CD4200000F04EF800285F
:103CC00001D0012016E015F1010FF1D0002D04D034
:103CD00001F02CFB801B8542EAD2A06B50F0200043
:103CE000A063202084F83500002084F834000320ED
:103CF00000E0002070BD70B504000D00002601F04A
:103D000015FB060020684069400624D420684069FD
:103D1000C0060DD57FF01000216848610020A06327
:103D2000202084F83500002084F83400012013E0BE
:103D3000002D04D001F0FAFA801B8542E2D2A06B7C
:103D400050F02000A063202084F83500002084F883
:103D50003400032000E0002070BD010008684069C5
:103D600040050DD57FF480600A68506104208863A7
:103D7000202081F83500002081F83400012000E087
:103D80000020704700B5C1B001F0A0FA01F0E4FADC
:103D9000002001F007FC002001F03CFC0121002084
:103DA00001F057FC01F08BFD00F040FB00F05CFBE4
:103DB00000F059F800F07AF800A801F0A5FC0028FE
:103DC0000FD09DF8040032280BD100A801F016FE98
:103DD000DFF8B0070078002803D00020DFF8A8172C
:103DE000087000A800F0BCF800A800F046FA00A88F
:103DF00000F08CFA00A800F0D1FA00A800F008F951
:103E000000A800F06CF900A800F0D0F9DFF8740702
:103E10000078002804D1DFF870070078002803D06C
:103E2000002001F007FC02E0002001F0F3FBDFF8C6
:103E30005407007800280CD000A801F0D5FD3320ED
:103E4000009000A801F01AFDDFF84007006801F0BB
:103E500070FADFF8340700780028ADD04FF4FA701C
:103E600001F067FAA8E780B5DFF824175FF0FF30AC
:103E700001F012FFDFF81C175FF0FF3002F04AF884
:103E8000DFF81417002002F08BF9DFF8101700207C
:103E900002F046FADFF80817002002F007FBDFF80F
:103EA00004175FF0FF3002F013FD01BD80B5DFF8AD
:103EB000E006006801F0EAFFDFF8D806006802F0CB
:103EC0001DF9DFF8D406006802F0E6F9DFF8CC0649
:103ED000006802F0A7FADFF8C806006802F0B4FC38
:103EE000DFF8C006006802F043FE01BD2DE9F8438B
:103EF00006000F00914698463000FEF7BFFE38607E
:103F00003000002102F086FE08D83868FEF730FE47
:103F10000100300002F090FE060006E03868FEF76F
:103F200027FE310002F088FE0600404602F0F8FE4F
:103F300002000B000020DFF8701603F018F90400EF
:103F40000D00300003F02CFB22002B0003F050FB8F
:103F500003F01FFC03F026FCC9F80000BDE8F18364
:103F600030B589B004000025DFF818060078002875
:103F700004D1DFF814060078002815D0002203A928
:103F8000DFF8280603F034FC002202A9DFF81C0643
:103F900003F0E1FD0498D0F1FF00642148434FF4A1
:103FA000807190FBF1F00500DFF8D805007800285B
:103FB0000AD09DF80C00E0719DF80D0020729DF86C
:103FC0000E006072A57221E0DFF8BC0500780028C1
:103FD0001CD0EDB201959DF80E0000909DF80D30BB
:103FE0009DF80C20DFF8C815DFF8C80503F014FEB3
:103FF000DFF8C00503F02AFE41F28833020092B2D6
:10400000DFF8B015DFF8B00503F075FE09B030BD7C
:1040100010B588B0040000208DF8040001A9DFF875
:104020007005006801F04AFF002856D19DF8040091
:10403000012852D1DFF88415DFF85405006801F03B
:104040004BFFDFF84005007800281DD0DFF8700531
:104050000068C00641D50422DFF86005016814F14C
:10406000130004F0CBF90422DFF85005416814F185
:10407000170004F0C3F90422DFF84005816814F149
:104080001B0004F0BBF928E0DFF8FC0400780028EE
:1040900023D0DFF8280500680290DFF8200540688B
:1040A0000390DFF818058068049004980090039B43
:1040B000029ADFF81015DFF8FC0403F0ADFDDFF81D
:1040C000F40403F0C3FD41F28833020092B2DFF83A
:1040D000E414DFF8E40403F00EFE08B010BD10B5E0
:1040E00088B0040000208DF8040001A9DFF8A404C2
:1040F000006802F01BF8002856D19DF80400012842
:1041000052D1DFF8C414DFF88C04006802F02AF8FA
:10411000DFF87004007800281DD0DFF8A4040068E0
:10412000800641D50422DFF8A004016814F11F00C5
:1041300004F064F90422DFF89004416814F12300CC
:1041400004F05CF90422DFF88004816814F1270090
:1041500004F054F928E0DFF830040078002823D078
:10416000DFF8640400680590DFF85C04406806909E
:10417000DFF854048068079007980090069B059A22
:10418000DFF84814DFF82C0403F046FDDFF82404C0
:1041900003F05CFD41F28833020092B2DFF81414A0
:1041A000DFF8140403F0A7FD08B010BD10B586B009
:1041B000040000208DF8040001A9DFF8DC0300688A
:1041C00002F082F8002856D19DF80400012852D14F
:1041D000DFF8FC13DFF8C003006802F083F8DFF8B3
:1041E000A403007800281DD0DFF8D403006840063F
:1041F00041D50422DFF8D803016814F12B0004F044
:10420000FDF80422DFF8C803416814F12F0004F020
:10421000F5F80422DFF8B803816814F1330004F0E4
:10422000EDF828E0DFF860030078002823D0DFF8FD
:10423000A00300680290DFF8980340680390DFF85D
:1042400090038068049004980090039B029ADFF822
:104250008413DFF8600303F0DFFCDFF8580303F09A
:10426000F5FC41F28833020092B2DFF84813DFF820
:10427000480303F040FD06B010BD10B584B0040043
:1042800000208DF8000000A9C648006802F088FCF4
:1042900000283AD19DF80000012836D1DFF8381304
:1042A000C048006802F098FC022301AA02A9CA488B
:1042B0000068FFF71BFEB3480078002810D0C04804
:1042C0000068C00721D50222029914F10B0004F006
:1042D0007EF80222019914F10D0004F078F814E040
:1042E000A9480078002810D0019B029ABB49B14828
:1042F00003F092FCAF4803F0A9FC41F288330200BE
:1043000092B2AC49AC4803F0F6FC1FBD10B584B0C6
:10431000040000208DF8000000A9A048006802F009
:1043200099F8002839D19DF80000012835D1AC4911
:104330009A48006802F09CF8022301AA02A9A84842
:104340000068FFF7D3FD8F480078002810D09C4804
:104350000068400721D50122029914F1110004F0F0
:1043600036F80122019914F1120004F030F814E03B
:1043700085480078002810D0019B029A99498D4801
:1043800003F04AFC8B4803F061FC41F288330200E1
:1043900092B28849884803F0AEFC1FBD10B584B0C6
:1043A000040000208DF8000000A97D48006802F09C
:1043B00063FA002839D19DF80000012835D18A49D7
:1043C0007748006802F066FA022301AA02A986482B
:1043D0000068FFF78BFD6B480078002810D0784804
:1043E0000068800721D50122029914F10F0003F023
:1043F000EEFF0122019914F1100003F0E8FF14E030
:1044000061480078002810D0019B029A77496948DA
:1044100003F002FC674803F019FC41F28833020004
:1044200092B26449644803F066FC1FBD80B57048D1
:104430005E49086040205D4948607F205B49886094
:10444000FF205A49C8600020584908610020574998
:104450004861002055498861544803F01DFA00283E
:1044600001D000F0CBF801BD00B587B014208DF865
:10447000030002208DF8010018208DF802000220B0
:104480008DF80000012200A9484803F0E6FA002850
:1044900001D000F0B3F808208DF8040010208DF84A
:1044A000050000208DF8060000208DF80700002090
:1044B000049000200590012201A93C4803F042FA33
:1044C000002801D000F09AF807B000BD70B50400D4
:1044D000A4B2B4F5005F35D1002546480068002835
:1044E0000AD145480068002806D100F088F8414903
:1044F00008600120050012E000F081F83E490860E4
:104500003D48006806003B480068301AB0F5967FC9
:1045100005D9394800683749086001200500002D99
:1045200010D018480078002803D0002016490870E1
:1045300008E015480078002801D0002000E00120A4
:104540001149087070BD70B586B004000D001600EA
:1045500000208DF803008DF800408DF801508DF893
:1045600002600020019000200390002004900022AF
:1045700000A90E4803F0E6F9002801D000F03EF84B
:1045800006B070BDC00D0020C20D002080040020C8
:10459000740D0020780D00207C0D0020800D00207F
:1045A000840D0020880D0020000024404C0C0020C9
:1045B0003CE500089C0800200C0B0020EC0C0020BF
:1045C0005C0D002054E40008F80C002078E400089A
:1045D000040D00209CE40008600D002078E5000830
:1045E000640D002088E50008680D002098E50008AB
:1045F000002800406C0D0020700D0020FEE780B503
:1046000000F094FE02BD280038B504000025207893
:10461000C00740F1C980DFF8E00B006810F00C0023
:1046200008280BD0DFF8D00B006810F00C000C2825
:1046300027D1DFF8C40B0068C00322D54FF48040B7
:10464000B0FA80F050F02000C0B24009C0B201289A
:1046500003D1DFF8780B006802E0DFF8A80B0068F0
:104660004FF48041B1FA81F111F01F010200CA40FC
:10467000D00740F199806068002840F095800120C3
:10468000DDE36068012808D1DFF8400B006850F4D2
:104690008030DFF8381B086037E06068002810D1F0
:1046A000DFF8280B006830F48030DFF8201B08604A
:1046B000DFF8180B006830F48020DFF8101B08606A
:1046C00023E06068052810D1DFF8000B006850F483
:1046D0008020DFF8F81A0860DFF8F00A006850F46C
:1046E0008030DFF8E81A08600FE0DFF8E00A0068C1
:1046F00030F48030DFF8D41A0860DFF8D00A0068A0
:1047000030F48020DFF8C41A08606068002825D0E3
:1047100000F00CFE05004FF48040B0FA80F050F03D
:104720002000C0B24009C0B2012803D1DFF89C0AC2
:10473000006802E0DFF8CC0A00684FF48041B1FA6B
:1047400081F111F01F010200CA40D0072CD400F003
:10475000EDFD401B6528DED3032070E300F0E6FD8D
:1047600005004FF48040B0FA80F050F02000C0B255
:104770004009C0B2012803D1DFF8500A006802E006
:10478000DFF8800A00684FF48041B1FA81F111F03E
:104790001F010200CA40D00706D500F0C7FD401B2C
:1047A0006528DED303204AE32078800740F1B780F4
:1047B000DFF8440A006810F00C0004280BD0DFF882
:1047C000380A006810F00C000C2836D1DFF8280AEF
:1047D0000068C00331D45FF08040B0FA80F050F040
:1047E0002000C0B24009C0B2012803D1DFF8DC09C3
:1047F000006802E0DFF80C0A00685FF08041B1FA5F
:1048000081F111F01F010200CA40D00704D5E06811
:10481000012801D0012012E3DFF8E00900685FF40D
:104820007801B1FA81F130F4F850226912FA01F1FD
:104830000843DFF8C819086071E0E06800283FD03D
:1048400001205FF00041B1FA81F1DFF84C2A42F813
:10485000210000F06BFD05005FF08040B0FA80F0B1
:1048600050F02000C0B24009C0B2012803D1DFF8E7
:104870005C09006802E0DFF88C0900685FF08041A5
:10488000B1FA81F111F01F010200CA40D00706D42D
:1048900000F04CFD401B0328DED30320CFE2DFF8FD
:1048A0005C0900685FF47801B1FA81F130F4F850E6
:1048B000226912FA01F10843DFF8401908602EE07E
:1048C00000205FF00041B1FA81F1DFF8CC2942F815
:1048D000210000F02BFD05005FF08040B0FA80F071
:1048E00050F02000C0B24009C0B2012803D1DFF867
:1048F000DC08006802E0DFF80C0900685FF0804126
:10490000B1FA81F111F01F010200CA40D00706D5AB
:1049100000F00CFD401B0328DED303208FE220783B
:10492000C00640F1EF80DFF8D008006810F00C0FEF
:104930006DD15FF48000B0FA80F050F02000C0B27A
:104940004009C0B2012803D1DFF88008006802E006
:10495000DFF8B00800685FF48001B1FA81F111F06E
:104960001F010200CA40D00704D5A069002801D168
:10497000012064E2DFF88408006810F46040216AD6
:10498000884220D2206A00F03FFC002801D001209C
:1049900055E2DFF86808006830F46040216A084397
:1049A000DFF858180860DFF854080068FF21B1FAF2
:1049B00081F10002000AE26912FA01F10843DFF80E
:1049C0003C1808601FE0DFF83408006830F46040ED
:1049D000216A0843DFF824180860DFF8200800681F
:1049E000FF21B1FA81F10002000AE26912FA01F135
:1049F0000843DFF808180860206A00F005FC00286A
:104A000001D001201BE20F2000F078FC7AE0A069C1
:104A1000002848D001205FF40001B1FA81F1DFF8ED
:104A2000782842F8210000F081FC05005FF4800046
:104A3000B0FA80F050F02000C0B24009C0B20128A6
:104A400003D1DFF88807006802E0DFF8B8070068E4
:104A50005FF48001B1FA81F111F01F010200CA4038
:104A6000D00706D400F062FC401B0328DED30320ED
:104A7000E5E1DFF88807006830F46040216A084308
:104A8000DFF878170860DFF874070068FF21B1FAD3
:104A900081F10002000AE26912FA01F10843DFF82D
:104AA0005C1708602EE000205FF40001B1FA81F18C
:104AB000DFF8E42742F8210000F038FC05005FF43D
:104AC0008000B0FA80F050F02000C0B24009C0B2BF
:104AD000012803D1DFF8F406006802E0DFF82407BC
:104AE00000685FF48001B1FA81F111F01F0102004A
:104AF000CA40D00706D500F019FC401B0328DED3BE
:104B000003209CE1207800074AD56069002823D063
:104B100001205FF00041B1FA81F1DFF8802742F80F
:104B2000210000F003FC05005FF08040B0FA80F047
:104B3000DFF8D00600685FF08041B1FA81F111F032
:104B40001F010200CA40D0072AD400F0EFFB401B2F
:104B50000328E9D3032072E100205FF00041B1FA9D
:104B600081F1DFF8382742F8210000F0DFFB050073
:104B70005FF08040B0FA80F0DFF8880600685FF0F0
:104B80008041B1FA81F111F01F010200CA40D00743
:104B900006D500F0CBFB401B0328E9D303204EE1F0
:104BA0002078400740F1A780DFF8F406006850F055
:104BB0008050DFF8EC160860DFF8E406006810F0BB
:104BC000805000900098DFF8DC06006850F4807098
:104BD000DFF8D016086000F0A9FB0500DFF8C40676
:104BE0000068C00506D400F0A1FB401B6528F5D382
:104BF000032024E1A068012808D1DFF80806006836
:104C000050F48070DFF8FC15086037E0A0680028D9
:104C100010D1DFF8F005006830F48070DFF8E4159B
:104C20000860DFF8E005006830F48060DFF8D41534
:104C3000086023E0A068052810D1DFF8C8050068E7
:104C400050F48060DFF8BC150860DFF8B805006834
:104C500050F48070DFF8AC1508600FE0DFF8A405B1
:104C6000006830F48070DFF89C150860DFF8940568
:104C7000006830F48060DFF88C150860A0680028B8
:104C80001CD000F053FB05005FF48000B0FA80F008
:104C9000DFF8700500685FF48001B1FA81F111F06E
:104CA0001F010200CA40D00725D400F03FFB401B83
:104CB00041F289318842E7D30320C0E000F036FB9F
:104CC00005005FF48000B0FA80F0DFF83805006876
:104CD0005FF48001B1FA81F111F01F010200CA40B6
:104CE000D00708D500F022FB401B41F289318842F1
:104CF000E7D30320A3E0606A002800F09F80DFF87C
:104D0000F804006810F00C000C2800F09580606A30
:104D1000022865D100208021B1FA81F1DFF87825E1
:104D200042F8210000F002FB05004020B0FA80F0BC
:104D300050F02000C0B24009C0B2012803D1DFF812
:104D40008C04006802E0DFF8BC0400684021B1FA7E
:104D500081F111F01F010200CA40D00706D500F012
:104D6000E5FA401B0328E0D3032068E0DFF888045D
:104D7000006830F47D00A16A0843E16A0843216BB2
:104D80000843DFF87414086001208021B1FA81F132
:104D9000DFF8042542F8210000F0C8FA05004020A1
:104DA000B0FA80F050F02000C0B24009C0B2012833
:104DB00003D1DFF81804006802E0DFF84804006857
:104DC0004021B1FA81F111F01F010200CA40D00761
:104DD00034D400F0ABFA401B0328E0D303202EE0CC
:104DE00000208021B1FA81F1DFF8AC2442F82100E3
:104DF00000F09CFA05004020B0FA80F050F020004E
:104E0000C0B24009C0B2012803D1DFF8C003006876
:104E100002E0DFF8F00300684021B1FA81F111F0FF
:104E20001F010200CA40D00708D500F07FFA401BDE
:104E30000328E0D3032002E0012000E0002032BD7F
:104E4000F8B504000D000026DFF85C04006810F0DF
:104E50000100A8421BD2012D07D1DFF84C040068E5
:104E600050F00400DFF840140860DFF83C040068EC
:104E7000400840002843DFF830140860DFF82804B9
:104E8000006810F00100A84201D001202CE1207838
:104E9000800709D5DFF86003006830F0F000A168F2
:104EA0000843DFF8541308602078C00740F1CB8036
:104EB000606802281DD14FF48040B0FA80F050F0B5
:104EC0002000C0B24009C0B2012803D1DFF8FC02C3
:104ED000006802E0DFF82C0300684FF48041B1FA6B
:104EE00081F111F01F010200CA40D0075CD40120FB
:104EF000FAE0606803281AD14020B0FA80F050F040
:104F00002000C0B24009C0B2012802D1AF480068F9
:104F100002E0DFF8F00200684021B1FA81F111F0FF
:104F20001F010200CA40D0073ED40120DCE06068C7
:104F300001281CD15FF08040B0FA80F050F02000D2
:104F4000C0B24009C0B2012802D1A048006802E006
:104F5000DFF8B00200685FF08041B1FA81F111F032
:104F60001F010200CA40D0071ED40120BCE05FF43C
:104F70008000B0FA80F050F02000C0B24009C0B20A
:104F8000012802D19148006802E0DFF87802006849
:104F90005FF48001B1FA81F111F01F010200CA40F3
:104FA000D00701D401209FE093480068800880006A
:104FB000616808439049086000F0B8F9060060682D
:104FC00002280ED18C48006810F00C0008283AD056
:104FD00000F0ACF9801B41F289318842F2D3032002
:104FE00082E0606803280ED18348006810F00C004E
:104FF0000C2828D000F09AF9801B41F289318842B0
:10500000F2D3032070E0606801280ED17A4800686E
:1050100010F00C00042816D000F088F9801B41F233
:1050200089318842F2D303205EE07348006810F0B3
:105030000C0F08D000F07AF9801B41F289318842C8
:10504000F3D3032050E0DFF86002006810F00100A5
:1050500085421BD2012D07D1DFF84C02006850F0C9
:105060000400DFF844120860DFF83C0200684008E2
:1050700040002843DFF830120860DFF82C02006897
:1050800010F00100A84201D001202DE02078400757
:1050900007D55948006830F4E060E1680843564994
:1050A00008602078000708D55348006830F4605045
:1050B000216950EAC1005049086000F016F84E49D5
:1050C00009685FF07062B2FA82F2DFF8E03111F045
:1050D000F0010F00D740F95C0200CA404848026066
:1050E0000F2000F00BF90020F2BDF0B500210022E6
:1050F00000230024002500203F4E3668310011F0C7
:105100000C06042E04D0082E05D00C2E06D032E05A
:10511000684E300042E0684E30003FE04FF4705679
:10512000B6FA86F6654F11F4701CE6463EFA06FEA6
:105130001EF8076032004FF44076B6FA86F6604FEC
:1051400011F4400CE6463EFA06FE1EF807603300F6
:10515000294E3668F60306D5574E06FB02F6B6FB17
:10516000F3F6340005E0534E06FB02F6B6FBF3F609
:105170003400200012E0534E366816F460465FF4A7
:10518000E027B7FA87F7B4463CFA07FC65460126E4
:105190006F1CBE404FF400477E433000F0BD1848FE
:1051A0000068704710B5FFF7FAFF01001248006869
:1051B0005FF46002B2FA82F2434B10F4E060040044
:1051C000D440E25C0800D04010BD0000003802402E
:1051D00010B5FFF7E4FF0100074800685FF4E01234
:1051E000B2FA82F2384B10F460500400D440E25C12
:1051F0000800D04010BD00000838024004380240CA
:105200008C0400203438024070B582B004000025C0
:1052100000262748006810F0F00F24D120480068CD
:10522000C00003D503F0F6F8050014E01C48006840
:1052300050F080501A4908601948006810F08050FA
:105240000090009803F0E6F805001548006830F07B
:10525000805013490860B5F5C05F04D1B4F5404FE4
:1052600001D101200600012E05D10F48006850F041
:1052700004000D4908600C480068400840003043B5
:10528000094908600848006810F00100B04201D0E8
:10529000012000E0002076BD000047428006474222
:1052A0002438024000700040003C0240A8E500089D
:1052B000083802400024F40000127A00C8E5000813
:1052C000F8E5000804380240E0E5000880B51F4812
:1052D000006850F004001D4908601C48006850F048
:1052E00002001A4908600320FEF708F80F2000F0BA
:1052F00005F800F002F8002002BD704710B5040068
:10530000134800684FF47A71B0FBF1F0FEF716F81D
:10531000002221005FF0FF30FDF7F6FF002010BDF6
:105320000C480068401C0B49086070470948006839
:10533000704711B581B00024FFF7F8FF0400FFF7B4
:10534000F5FF001B01998842F9D313BD003C0240D0
:105350008C0400208C0D002000B593B001A814210E
:1053600003F060F806A8342103F05CF802200690F0
:105370000120099010200A9002200F900020109028
:105380005FF4002011905FF40000129006A8FFF770
:105390003BF9002801D0FFF731F97148006850F05F
:1053A00080506F4908606E48006810F0805000908F
:1053B00000986C48006830F4C05050F400606949AF
:1053C000086069480068C006FBD40F2001900320E4
:1053D00002900020039000200490002005900121FD
:1053E00001A8FFF72DFD002801D0FFF707F913B042
:1053F00000BD01685D4A91424ED35D49096802686B
:105400005C4B9A4201D1082044E002685A4B9A4210
:1054100001D180203EE00268584B9A4202D14FF4FD
:10542000006037E00268564B9A4202D14FF40040C8
:1054300030E00268534B9A4202D15FF4002029E029
:105440000268514B9A4202D15FF4000022E00268E8
:105450004E4B9A4202D15FF000601BE002684C4B59
:105460009A4201D1082015E002684A4B9A4201D1C4
:1054700080200FE00268484B9A4202D14FF400604E
:1054800008E00068454A904202D14FF4004001E034
:105490005FF4002008404DE0414909680268354B3F
:1054A0009A4201D1082044E00268334B9A4201D16C
:1054B00080203EE00268314B9A4202D14FF40060F6
:1054C00037E002682E4B9A4202D14FF4004030E0A0
:1054D00002682C4B9A4202D15FF4002029E0026856
:1054E000294B9A4202D15FF4000022E00268274B68
:1054F0009A4202D15FF000601BE00268244B9A429E
:1055000001D1082015E00268224B9A4201D1802087
:105510000FE00268204B9A4202D14FF4006008E08D
:1055200000681E4A904202D14FF4004001E05FF44F
:1055300000200840704700684068704712490160C9
:1055400000214160002181608021C1600021016152
:1055500000214161202181614FF48051C161704778
:105560002438024000700040047000408160024016
:1055700000640240086002401C600240306002404B
:1055800044600240586002406C600240806002400B
:10559000086402401C6402403064024044640240DB
:1055A0000060024010B586B00400E4B2002C0ED1B9
:1055B000DFF83801006850F00100DFF830110860B2
:1055C000DFF82801006810F0010000900098DFF873
:1055D0002001E4B230F81400019001200290002074
:1055E00003900220049001A9DFF80801E4B250F80A
:1055F0002400FDF7F5FC0022DFF8F400E4B230F8F7
:105600001410DFF8F000E4B250F82400FDF7D2FDEA
:1056100006B010BD10B504000022DFF8D400E4B2DB
:1056200030F81410DFF8CC00E4B250F82400FDF795
:10563000C1FD10BD10B50400DFF8B400E4B230F8CD
:105640001410DFF8B000E4B250F82400FDF7BCFD00
:1056500010BD30B587B004000D00E4B2002C0ED1AF
:10566000DFF88800006850F00400DFF88010086060
:10567000DFF87800006810F0040000900098DFF870
:105680007800E4B230F8140001900020039001206B
:105690000490EDB2002D09D10020029001A9DFF89D
:1056A0005C00E4B250F82400FDF79AFCEDB2012D45
:1056B0001AD1DFF84C00029001A9DFF84000E4B2F3
:1056C00050F82400FDF78CFC00220F21DFF8340095
:1056D000E4B2205640B2FDF717FEDFF82800E4B22E
:1056E000205640B2FDF723FE07B030BD1C38024003
:1056F0006E2B000884040020A22B000888040020E0
:1057000000002110064600082DE9F04F83B0040088
:105710005FF000085FF00009A548FFF76AFE002867
:1057200040F0A980A248FFF706FFD0F50070ADF861
:105730000200BDF802009F498988884207D3BDF85E
:1057400002009C498988401AADF8040008E0BDF8C1
:10575000020010F5007097498988401AADF80400DE
:1057600094488088824600200600BDF80400B6B246
:10577000864277D290481FFA8AFA1AF800008DF80C
:1057800006001AF1010A1FFA8AFABAF5007F01DB56
:10579000002082469DF80600F02861D18548808867
:1057A000824600200500ADB2B6B2B54240D21FFA23
:1057B0008AFA1AF101004FF4007190FBF1F202FB3A
:1057C000110217007C481FFA8AFA1AF800008DF8B7
:1057D00001007948BFB2385C8DF800001FFA88F8E4
:1057E00018EB0400001D83465A469DF800109DF8F2
:1057F000010002F0AEFD81465FFA89F9B9F1000FB0
:1058000003D16C488780002036E01FFA8AFA5FFADD
:1058100089F919EB0A004FF4007190FBF1FA0AFBC9
:10582000110A18F101085FFA89F919EB0505BAE7C1
:105830001FFA88F8C4F800801FFA8AFA1AF10100EA
:105840004FF4007190FBF1FA0AFB110A5948A0F8D5
:1058500004A0200002F0A5FD002801D001200BE0EB
:10586000761C82E7BDF80400B0F5807F03DDBDF84B
:105870000200504988800020BDE8FE8F38B5040042
:10588000200002F07DFD21004C4802F04AFD050099
:1058900041F288332A0092B24849494802F02BFA73
:1058A00031BD80B54248FFF749FE414802F0BEFDD8
:1058B0003F484349486342483D49486201BD00B5FD
:1058C00087B04048006850F001003E4908603D48FC
:1058D000006810F00100009000983A48006850F00D
:1058E0000100384908603748006810F00100009056
:1058F00000983548006850F4003033490860324859
:10590000006810F40030009000982E48006850F0B5
:1059100080702C4908602B48006810F0807000905F
:1059200000980420019002200290002003900220A1
:1059300004900720059001A92448FDF751FB082099
:1059400001900720059001A92048FDF749FB204858
:105950001B4908601F480068194948600020184921
:10596000886000201649C8600020154908610020A1
:10597000134988610C2012494861114802F082F9EC
:10598000002800D0FEE7FFF78CFF0B480C49886227
:105990004FF400700A49888500200949C8634FF414
:1059A00000720549064802F024FA07B000BD000065
:1059B000C40B0020100D00209C0400209C06002039
:1059C0000C0B00201C38024024380240000002402A
:1059D000004400407C040020417901713221417172
:1059E0008179803981717047A44909780171322128
:1059F00041710821817103210160704738B50400AD
:105A00002068022801D2002037E12079322801D015
:105A1000002032E1A07901281AD0022833D00428CE
:105A20004AD0082800F0DF80092800F0FE800C280A
:105A300000F00E810E281AD0602851D0622800F0A4
:105A40008180762800F092807A2800F0B88013E1F7
:105A50002068032801D000200FE12000FFF7BCFFE1
:105A6000032020602000FFF709FF012005E12068E6
:105A7000032801D0002000E12000FFF7ADFF032044
:105A800020600120F9E02068032801D00020F4E024
:105A90002000FFF7A1FF00200500102D05D2784857
:105AA000285C2919C8716D1CF7E7E81C20602000EC
:105AB000FFF7E4FE0120E0E02068032801D2002087
:105AC000DBE02000FFF788FF04220021E01D02F048
:105AD00095FC072020602000FFF7D0FE0120CCE0DD
