:020000040800F2
:10000000500E00207DE700083DE600083FE60008AE
:10001000C5E70008C9E70008CDE7000800000000B8
:10002000000000000000000000000000D1E7000810
:1000300041E6000800000000D5E7000843E600089C
:10004000D9E70008DDE70008E1E70008E5E7000878
:10005000E9E70008EDE70008F1E70008F5E7000828
:10006000F9E70008FDE7000801E8000805E80008D6
:1000700009E800080DE8000811E8000815E8000884
:1000800019E800081DE8000821E8000825E8000834
:1000900029E800082DE8000831E8000835E80008E4
:1000A0000000000039E800083DE8000841E80008C9
:1000B00045E8000849E800084DE8000851E8000854
:1000C00055E8000859E800085DE8000861E8000804
:1000D00065E8000869E800086DE8000871E80008B4
:1000E0004BE6000875E8000879E800087DE800089C
:1000F00081E800080000000085E8000889E80008A1
:100100008DE8000891E8000895E8000899E80008E3
:100110009DE80008A1E80008A5E80008000000002C
:10012000A9E8000870B582B0040000A8DFF8DC1967
:100130000A680260A5682E68200000F05CFD0128B6
:1001400001D1012035E00421200001F056FE0028F5
:1001500001D101202DE04021200001F071FE002896
:1001600001D1012025E00021200001F0E5FC00285C
:1001700001D101201DE0DFF8940B30600021200048
:1001800001F067FD002801D1012012E000212000CC
:1001900000F0CDF9012801D101200AE000A92000DA
:1001A00000F043FA012801D1012002E00120E070B3
:1001B000002076BD70B50400A5682E68200000F010
:1001C0001AFD012801D101203CE0200000F0D2FFFF
:1001D000012801D1012035E0200001F093FB012826
:1001E00001D101202EE0200001F048F8012801D1C2
:1001F000012027E0200001F0E9F9012801D10120C8
:1002000020E0200001F09EFA012801D1012019E030
:10021000200001F0D2F8012801D1012012E02000D5
:1002200001F03AF9012801D101200BE0200000F093
:100230001FF8012801D1012004E0002030600020D7
:10024000E070002070BD70B50400A5682E682079AC
:10025000012801D100200AE03168200000F058FD9B
:10026000012801D1012002E001202071002070BD91
:1002700070B50400A5682E682079002801D10020FF
:1002800012E03100200000F097F8012801D1012090
:100290000AE00021200001F0DCFC002801D101204F
:1002A00002E000202071002070BD38B504000D0070
:1002B0002900200000F092FC32BD10B5040020009F
:1002C00000F099FC10BD3EB504000D000020009028
:1002D00001A9200000F0A6FC012801D1012026E0A0
:1002E00000A9200000F03BF8012801D101201EE008
:1002F000BDF9040002F03CFC009902F053FC02F04E
:10030000BDFC2860BDF9060002F032FC009902F045
:1003100049FC02F0B3FC6860BDF9080002F028FC5B
:10032000009902F03FFC02F0A9FCA86000203EBD4D
:1003300030B583B004000D0000A9200000F072FC6D
:10034000012801D1012009E0BDF800002880BDF896
:1003500002006880BDF80400A88000203EBD38B5CA
:1003600004000D0000A9200001F061FC002801D16B
:10037000012020E09DF80000002806D0042810D0BD
:10038000082806D00C2808D00FE0DFF8440A2860BF
:1003900010E0DFF8400A28600CE0DFF83C0A286033
:1003A00008E0DFF8380A286004E0DFF8E80A28608F
:1003B000012000E0002032BD38B504000D0000A986
:1003C000200001F069FC002801D101204FE09DF8D8
:1003D0000000002816D0102817D0202819D0302867
:1003E0001BD040281DD050281FD0602821D0702855
:1003F00023D0802825D0902827D0A02829D0B02825
:100400002BD02EE00020286030E0DFF88C0A286036
:100410002CE0DFF8880A286028E0DFF8840A2860EA
:1004200024E0DFF8E808286020E0DFF8780A286098
:100430001CE0DFF8740A286018E0DFF8700A286012
:1004400014E0DFF86C0A286010E0DFF8680A286022
:100450000CE0DFF8640A286008E0DFF8600A286032
:1004600004E0DFF8300A2860012000E0002032BDFF
:1004700038B504000D002079012808D12900C9B23F
:10048000200000F0F7FB01280AD1012009E0290033
:10049000C9B2200000F017FC012801D1012000E0C2
:1004A000002032BD38B504000D002079012807D1A5
:1004B0002900200000F02CFC012809D1012008E0CF
:1004C0002900200000F08CFC012801D1012000E06F
:1004D000002032BD38B504000D0000A9200001F055
:1004E000A6FB002801D1012020E09DF80000002893
:1004F00006D0042810D0082806D00C2808D00FE019
:100500005FF08040286010E05FF0814028600CE0E0
:100510005FF08240286008E05FF08340286004E0DC
:10052000DFF870092860012000E0002032BD70B5BE
:1005300004000D00EDB2002D03D0022D07D003D32F
:1005400008E00020060007E00820060004E00C2078
:10055000060001E0012009E03100C9B2200001F0ED
:1005600043FB002801D1012000E0002070BD70B5E0
:1005700004000D002800DFF8CC1A02F0A1FB01D224
:10058000002610E02800DFF8C01A02F099FB01D223
:10059000082608E02800DFF8D81B02F091FB01D202
:1005A0000C2600E004263100C9B2200001F01CFB3B
:1005B000002801D1012000E0002070BD38B5040002
:1005C0000D000DF10201200001F080FC002801D196
:1005D000012029E00DF10101200001F0ACFC002810
:1005E00001D1012020E000A9200001F0D9FC002861
:1005F00001D1012018E09DF80200082801D1012056
:1006000000E0002028709DF80100102801D1012091
:1006100000E0002068709DF80000202801D1012032
:1006200000E00020A870002032BD38B504000D00A5
:100630002878012801D1082100E00021C9B220005A
:1006400001F021FC002801D101201CE0687801287C
:1006500001D1102100E00021C9B2200001F048FCC6
:10066000002801D101200EE0A878012801D1202125
:1006700000E00021C9B2200001F06FFC002801D188
:10068000012000E0002032BD70B582B0040000A857
:10069000DFF84C1A0A680260A5682E68200000F096
:1006A000AAFA012801D1012035E00421200001F03F
:1006B000A4FB002801D101202DE04021200001F001
:1006C000BFFB002801D1012025E00021200001F01E
:1006D00033FA002801D101201DE0DFF8E407306083
:1006E0000021200001F054FB002801D1012012E07C
:1006F0000221200000F0ACF9012801D101200AE01C
:1007000000A9200000F03BFA012801D1012002E0FD
:100710000120E070002076BD70B50400A5682E6849
:10072000200000F068FA012801D101200BE0200030
:1007300000F01FF8012801D1012004E00020306002
:100740000020E070002070BD70B50400A5682E6820
:100750002079012801D100200AE03168200000F052
:1007600029FC012801D1012002E001202071002094
:1007700070BD70B50400A5682E682079002801D1ED
:10078000002012E03100200000F0A8F8012801D17B
:1007900001200AE00021200001F0FAFA002801D12E
:1007A000012002E000202071002070BD38B5040057
:1007B0000D002900200000F011FA32BD10B5040030
:1007C000200000F018FA10BD3EB504000D00002016
:1007D000009001A9200000F075FB012801D1012043
:1007E00026E000A9200000F03BF8012801D10120FB
:1007F0001EE0BDF9040002F0BBF9009902F0D2F945
:1008000002F03CFA2860BDF9060002F0B1F9009947
:1008100002F0C8F902F032FA6860BDF9080002F08F
:10082000A7F9009902F0BEF902F028FAA8600020AA
:100830003EBD30B583B004000D0000A9200000F0DB
:1008400041FB012801D1012009E0BDF8000028800A
:10085000BDF802006880BDF80400A88000203EBDFD
:1008600038B504000D000DF10101200001F049FA36
:10087000002801D1012030E09DF80100022803D1B9
:10088000DFF8E409286027E000A9200001F06EFAF3
:10089000002801D1012020E09DF80000002806D0AA
:1008A000042808D008280AD00C280CD00FE0DFF864
:1008B000BC09286010E0DFF8B80928600CE0DFF818
:1008C000B409286008E0DFF8B009286004E0DFF828
:1008D000C4052860012000E0002032BD38B50400C6
:1008E0000D0000A9200001F076FA002801D10120B6
:1008F0003DE09DF80000002810D0102811D02028DD
:1009000013D0302815D0402817D0502819D060288F
:100910001BD070281DD080281FD022E00020286026
:1009200024E0DFF87405286020E0DFF87005286017
:100930001CE0DFF86C05286018E0DFF8D0032860C1
:1009400014E0DFF86005286010E0DFF85C0528603F
:100950000CE0DFF85805286008E0DFF8540528604F
:1009600004E0DFF830052860012000E0002032BDFF
:1009700038B504000D002079012808D12900C9B23A
:10098000200000F0C7FA01280AD1012009E029005F
:10099000C9B2200000F0E7FA012801D1012000E0EF
:1009A000002032BD38B504000D002079012807D1A0
:1009B0002900200000F0FEFA012809D1012008E0FA
:1009C0002900200000F042FB012801D1012000E0B5
:1009D000002032BD38B504000D0000A9200001F050
:1009E00090F9002801D1012031E00DF10101200032
:1009F00001F0BCF9002801D1012028E09DF8000099
:100A0000022803D1DFF87C0A28601FE09DF801006E
:100A1000002806D0042808D008280AD00C280CD0BA
:100A20000FE0DFF8640A286010E0DFF8600A286051
:100A30000CE0DFF85C0A286008E0DFF8580A28605C
:100A400004E0DFF850042860012000E0002032BDFF
:100A500070B504000D00EDB2002D03D0022D07D0BB
:100A600003D308E00020060007E00420060004E0AD
:100A70000C20060001E0012009E03100C9B220008D
:100A800001F051F9002801D1012000E0002070BDE3
:100A900070B504000D002800DFF8201B02F010F9EB
:100AA00007D20221200001F009F900282BD10120F2
:100AB0002AE02800DFF8081B02F002F901D2002624
:100AC00010E02800DFF8FC1A02F0FAF801D2042640
:100AD00008E02800DFF8F01A02F0F2F801D2082648
:100AE00000E00C260021200001F0E8F8002801D1E8
:100AF000012009E03100C9B2200001F014F90028FA
:100B000001D1012000E0002070BD0000B8E700081E
:100B100038B504000D000DF10201200001F098FA33
:100B2000002801D1012029E00DF10101200001F090
:100B3000C4FA002801D1012020E000A9200001F022
:100B4000F1FA002801D1012018E09DF802000828E0
:100B500001D1012000E0002028709DF8010010283C
:100B600001D1012000E0002068709DF800002028DD
:100B700001D1012000E00020A870002032BD38B56E
:100B800004000D002878012801D1082100E000218F
:100B9000C9B2200001F039FA002801D101201CE07F
:100BA0006878012801D1102100E00021C9B220009D
:100BB00001F060FA002801D101200EE0A878012898
:100BC00001D1202100E00021C9B2200001F087FA04
:100BD000002801D1012000E0002032BD38B504001A
:100BE0000D002900200000F0EDFF002801D10120B8
:100BF00000E0002032BD10B582B0040000208DF866
:100C0000000000A92000FFF7E9FF012801D1012021
:100C100007E09DF800002178884201D0012000E023
:100C2000002016BD30B583B004000D0000A80021DF
:100C3000002206C0083800A9200001F01DFF00288E
:100C400001D1012015E09DF801009DF8001011EB85
:100C5000002028809DF803009DF8021011EB002071
:100C600068809DF805009DF8041011EB0020A88015
:100C700000203EBD70B504000D00EDB2002D06D081
:100C8000022D0AD006D3042D0DD009D30EE010207A
:100C900006000DE0102006000AE02020060007E014
:100CA0003020060004E04020060001E0012009E0B9
:100CB0003100C9B2200000F0CCFF002801D1012092
:100CC00000E0002070BD10B4020093681C68C9B237
:100CD000002906D002290AD006D304290DD009D351
:100CE0000FE06D4820600EE06B4820600BE06B4821
:100CF000206008E06A48206005E0DFF8D00B206043
:100D000001E0012000E0002010BC70470000D0424C
:100D100070B504000D002800DFF8181A01F0D0FFAC
:100D200001D2102648E02800DFF80C1A01F0C8FFB5
:100D300001D2202640E02800DFF8001A01F0C0FFB1
:100D400001D2302638E02800DFF8F41901F0B8FFAE
:100D500001D2402630E02800DFF8741B01F0B0FF1C
:100D600001D2502628E02800DFF8681B01F0A8FF18
:100D700001D2602620E02800DFF85C1B01F0A0FF14
:100D800001D2702618E02800DFF8501B01F098FF10
:100D900001D2802610E02800DFF8441B01F090FF0C
:100DA00001D2902608E02800DFF8381B01F088FF08
:100DB00001D2A02600E0B0263100C9B2200000F028
:100DC00048FF002801D1012000E0002070BD000094
:100DD00023DB793D23DBF93D23DB793E23DBF93E41
:100DE00038B502000B00946825681800DFF8441934
:100DF00001F066FF01D2284848E01800DFF83819F2
:100E000001F05EFF01D2254840E01800DFF82C1900
:100E100001F056FF01D2224838E01800DFF820190F
:100E200001F04EFF01D2264830E01800DFF8A01A8A
:100E300001F046FF01D21B4828E01800DFF8941AA1
:100E400001F03EFF01D2184820E01800DFF8881AB0
:100E500001F036FF01D2154818E01800DFF87C1ABF
:100E600001F02EFF01D2124810E01800DFF8701ACE
:100E700001F026FF01D20F4808E01800DFF8641ADD
:100E800001F01EFF01D20C4800E00C482860002051
:100E900032BD0000000080BF000050410000D04182
:100EA00000005042000050430000D0430040504436
:100EB0000080CF44002050450020D04500485046D7
:100EC0000000D04230B583B004000D0000A800211E
:100ED000002206C0083800A9200001F0A2FD002869
:100EE00001D1012015E09DF801009DF8001011EBE3
:100EF000002028809DF803009DF8021011EB0020CF
:100F000068809DF805009DF8041011EB0020A88072
:100F100000203EBD70B504000D00EDB2002D06D0DE
:100F2000022D0AD006D3042D0DD009D30EE01020D7
:100F300006000DE0102006000AE02020060007E071
:100F40003020060004E04020060001E0012009E016
:100F50003100C9B2200000F01BFF002801D10120A0
:100F600000E0002070BD10B4020093681C68C9B294
:100F7000002906D002290CD007D3042911D00CD3A4
:100F800013E0DFF86409206011E0DFF85C092060FD
:100F90000DE0DFF85809206009E0DFF8540920600F
:100FA00005E0DFF82809206001E0012000E00020D2
:100FB00010BC704770B504000D002800DFF87417EE
:100FC00001F07EFE01D2102630E02800DFF868171D
:100FD00001F076FE01D2202628E02800DFF85C1719
:100FE00001F06EFE01D2302620E02800DFF8501715
:100FF00001F066FE01D2402618E02800DFF8D01884
:1010000001F05EFE01D2502610E02800DFF8C4187F
:1010100001F056FE01D2602608E02800DFF8B8187B
:1010200001F04EFE01D2702600E080263100C9B2E8
:10103000200000F0ADFE002801D1012000E00020DA
:1010400070BD0000010000400100804038B5020082
:101050000B00946825681800DFF8D81601F030FE00
:1010600002D2DFF8840837E01800DFF8CC1601F070
:1010700027FE02D2DFF874082EE01800DFF8BC1655
:1010800001F01EFE02D2DFF8680825E01800DFF844
:10109000B01601F015FE02D2DFF830081CE018008F
:1010A000DFF82C1801F00CFE02D2DFF8480813E03C
:1010B0001800DFF8201801F003FE02D2DFF838082C
:1010C0000AE01800DFF8101801F0FAFD02D2DFF88C
:1010D0002C0801E0DFF828082860002032BD00005D
:1010E000BCE7000810B50400DFF80C182000FFF77B
:1010F000D9F9012801D1012038E00021200000F0B9
:1011000073FD002801D1012030E00621200001F00C
:1011100069FB002801D1012028E00021200001F016
:1011200018FB002801D1012020E00021200001F05F
:10113000EDFA002801D1012018E00021200001F083
:10114000C0FA002801D1012010E00321200000F0A6
:1011500048F8012801D1012008E01021200001F009
:10116000F7FB002801D1012000E0002010BD0000A5
:101170000100004110B504000021200001F0E8FB4F
:10118000002801D1012010E00021200001F02AFBFD
:10119000002801D1012008E00021200001F0FFFA21
:1011A000002801D1012000E0002010BD38B5040066
:1011B0000D0000A9200000F0FCFF002801D1012053
:1011C0000EE09DF80000002804D0202805D1012061
:1011D000287004E00020287001E0012000E00020D9
:1011E00032BD38B504000D002900C9B2200001F05D
:1011F000D6FA002801D1012000E0002032BD10B550
:101200000400DFF8E8162000FFF74CF9012801D1AF
:10121000012028E00021200000F0E6FC002801D198
:10122000012020E01721200000F08CF8012801D1D6
:10123000012018E00421200000F086FF002801D1E1
:10124000012010E04021200001F017F9002801D111
:10125000012008E08021200000F091FC002801D14D
:10126000012000E0002010BD00008C4000000C4177
:1012700000008C4100000C4200008C4210B50400BC
:101280000021200000F07BFC002801D1012018E0A3
:101290000021200001F0F1F8002801D1012010E028
:1012A0000021200000F050FF002801D1012008E0BB
:1012B0000021200000F046F8012801D1012000E0C3
:1012C000002010BD38B504000D0000A9200001F079
:1012D00024F8002801D101200EE09DF8000000282C
:1012E00004D0102805D10120287004E000202870C7
:1012F00001E0012000E0002032BD38B504000D00FF
:101300002900200001F0E3FB002801D1012000E0CA
:10131000002032BD10B504000221200000F052FE72
:10132000002801D1012000E0002010BD10B504000C
:101330000021200000F046FE002801D1012000E03D
:10134000002010BD38B504000D002900C9B22000EE
:1013500001F0E8FB002801D1012000E0002032BDAF
:1013600010B50400DFF884152000FFF79BF8012872
:1013700001D1012020E00021200000F035FC0028F0
:1013800001D1012018E00421200000F0DDFE00283A
:1013900001D1012010E02021200001F04BF80028AD
:1013A00001D1012008E00221200001F068FA0028A4
:1013B00001D1012000E0002010BD10B50400002183
:1013C000200001F05CFA002801D1012010E000218A
:1013D000200001F02FF8002801D1012008E00021B1
:1013E000200000F0B1FE002801D1012000E0002023
:1013F00010BD38B504000D0000A9200000F09FFFCB
:10140000002801D101200EE09DF80000002804D042
:10141000202805D10120287004E00020287001E078
:10142000012000E0002032BD10B50400DFF8C81430
:101430002000FFF737F8012801D1012020E000212A
:10144000200000F0D1FB002801D1012018E000218C
:10145000200001F07EF9002801D1012010E00221D6
:10146000200001F0E6F8002801D1012008E0202149
:10147000200001F090FA002801D1012000E00020B6
:1014800010BD00000000FA42000075430000FA435E
:1014900000007A440000FA4410B504000021200046
:1014A00001F079FA002801D1012010E0002120008C
:1014B00001F04FF9002801D1012008E000212000AF
:1014C00001F0B7F8002801D1012000E0002010BD94
:1014D00038B504000D0000A9200000F058FE0028D7
:1014E00001D101200EE09DF80000002804D008285A
:1014F00005D10120287004E00020287001E00120BF
:1015000000E0002032BD38B504000D002900C9B24A
:10151000200001F08EF8002801D1012000E0002019
:1015200032BD10B50400DFF8D0132000FEF7BAFF7B
:10153000012801D1012040E00021200000F054FBEF
:10154000002801D1012038E00821200000F04FFFE1
:10155000002801D1012030E00421200000F024FF08
:10156000002801D1012028E00221200000F0F9FE2E
:10157000002801D1012020E00821200000F049F9D5
:10158000012801D1012018E00221200000F04FF9CC
:10159000012801D1012010E00121200000F055F9BF
:1015A000012801D1012008E04021200001F016FAB5
:1015B000002801D1012000E0002010BD0100FA4206
:1015C000010075430100FA4301007A4410B504009C
:1015D0000021200001F002FA002801D1012030E0B2
:1015E0000021200000F015F9012801D1012028E098
:1015F0000021200000F01BF9012801D1012020E08A
:101600000021200000F021F9012801D1012018E07B
:101610000021200000F0A5FE002801D1012010E0EB
:101620000021200000F0C0FE002801D1012008E0C8
:101630000021200000F0DBFE002801D1012000E0A5
:10164000002010BD38B504000D0000A9200000F0F6
:10165000D4FD002801D101200EE09DF800000028F3
:1016600004D0202805D10120287004E00020287033
:1016700001E0012000E0002032BD10B504009E49C9
:101680002000FEF70FFF012801D1012050E00021CA
:10169000200000F0A9FA002801D1012048E008212B
:1016A000200000F0A4FE002801D1012040E0042128
:1016B000200000F079FE002801D1012038E002214D
:1016C000200000F04EFE002801D1012030E008216A
:1016D000200000F09EF8012801D1012028E003211C
:1016E000200000F0A4F8012801D1012020E003210E
:1016F000200000F0AAF8012801D1012018E00821FB
:10170000200000F0B0F8012801D1012010E0802174
:10171000200000F0B3FF002801D1012008E00821DB
:10172000200001F0F2F8002801D1012000E00020A3
:1017300010BD0000010050410100D04101005042A5
:101740000100D04210B504000021200001F0DDF8B6
:10175000002801D1012040E00021200000F059F8CC
:10176000012801D1012038E00021200000F05FF8BD
:10177000012801D1012030E00021200000F065F8AF
:10178000012801D1012028E00021200000F06BF8A1
:10179000012801D1012020E00021200000F06EFF8F
:1017A000002801D1012018E00021200000F0D9FD1F
:1017B000002801D1012010E00021200000F0F4FDFC
:1017C000002801D1012008E00021200000F00FFED8
:1017D000002801D1012000E0002010BD38B5040030
:1017E0000D0000A9200000F0F6FC002801D1012026
:1017F0000EE09DF80000002804D0102805D101203B
:10180000287004E00020287001E0012000E00020A2
:1018100032BD38B504000D002900C9B2200000F027
:101820004FFE002801D1012000E0002032BD38B574
:1018300004000D002900C9B2200000F089FE002834
:1018400001D1012000E0002032BD38B504000D00B8
:101850002900C9B2200000F0A0FE002801D101201B
:1018600000E0002032BD38B504000D002900C9B2E7
:10187000200000F0B8FE002801D1012000E0002087
:1018800032BD10B504001C492000FEF70BFE0128F4
:1018900001D1012018E00021200000F0A5F9002866
:1018A00001D1012010E04021200000F02EFE002890
:1018B00001D1012008E00421200001F003F80028F4
:1018C00001D1012000E0002010BD00000000D04246
:1018D000010050430100D043014050440180CF44F7
:1018E000012050450120D045000050410000D0416A
:1018F00000005042000050430000D04300405044DC
:101900000080CF4410B504000021200000F0DAFF71
:10191000002801D1012008E00021200000F0F5FDA1
:10192000002801D1012000E0002010BD38B50400DE
:101930000D0000A9200000F0DEFC002801D10120EC
:101940000EE09DF80000002804D0402805D10120B9
:10195000287004E00020287001E0012000E0002051
:1019600032BD38B504000D0000A9200000F057FC7E
:10197000002801D101200EE09DF80000002804D0CD
:10198000012805D10120287004E00020287001E022
:10199000012000E0002032BD38B504000D0000A990
:1019A000200000F04EFC002801D101200EE09DF83F
:1019B0000000002804D0022805D10120287004E08E
:1019C0000020287001E0012000E0002032BD38B581
:1019D00004000D0000A9200000F045FC002801D102
:1019E00001200EE09DF80000002804D0042805D155
:1019F0000120287004E00020287001E0012000E0B0
:101A0000002032BD38B504000D0000A9200000F010
:101A10003CFC002801D101200EE09DF800000028C8
:101A200004D0082805D10120287004E00020287087
:101A300001E0012000E0002032BD38B504000D00B7
:101A400000A9200000F033FC002801D101200EE0A5
:101A50009DF80000002804D0102805D1012028702E
:101A600004E00020287001E0012000E0002032BDE9
:101A700038B504000D0000A9200000F02AFC002861
:101A800001D101200EE09DF80000002804D020289C
:101A900005D10120287004E00020287001E0012019
:101AA00000E0002032BD0268531C036011707047D3
:101AB00070B504000D001600012332002900C9B2E0
:101AC000200001F09BF9002801D0002000E0012057
:101AD00070BD34B504000D00012300AA2900C9B26D
:101AE000200001F074F9002801D0002000E001205E
:101AF00032BD38B504000D0000AA01212000FFF717
:101B0000D7FF002801D1002015E09DF8000010F05B
:101B10007F008DF800009DF8000028438DF800003C
:101B20009DF8002001212000FFF7D3FF002801D1FC
:101B3000002000E0012032BD38B504000D0000AAED
:101B40000A212000FFF7B4FF002801D1002015E092
:101B50009DF8000010F0F8008DF800009DF80000DE
:101B600028438DF800009DF800200A212000FFF78F
:101B7000B0FF002801D1002000E0012032BD38B5BF
:101B800004000D0000AA0D212000FFF791FF00289E
:101B900001D1002015E09DF8000010F07F008DF8C5
:101BA00000009DF8000028438DF800009DF80020FB
:101BB0000D212000FFF78DFF002801D1002000E05B
:101BC000012032BD38B504000D002A000F2120008D
:101BD000FFF76EFF002801D1002004E0287828706C
:101BE00028782870012032BD38B504000D0000AA05
:101BF00010212000FFF75CFF002801D1002015E034
:101C00009DF8000010F0F3008DF800009DF8000032
:101C100028438DF800009DF8002010212000FFF7D8
:101C200058FF002801D1002000E0012032BD38B566
:101C300004000D002A0010212000FFF739FF0028C2
:101C400001D1002004E0287810F00C002870012059
:101C500032BD38B504000D0000AA10212000FFF7A6
:101C600027FF002801D1002015E09DF8000010F0AA
:101C70000F008DF800009DF8000028438DF800004B
:101C80009DF8002010212000FFF723FF002801D13C
:101C9000002000E0012032BD38B504000D002A000C
:101CA00010212000FFF704FF002801D1002004E0EC
:101CB000287810F0F0002870012032BD38B50400FB
:101CC0000D0000AA11212000FFF7F2FE002801D12B
:101CD000002015E09DF8000010F0FD008DF80000D8
:101CE0009DF8000028438DF800009DF80020112188
:101CF0002000FFF7EEFE002801D1002000E00120C7
:101D000032BD38B504000D002A0011212000FFF774
:101D1000CFFE002801D1002004E0287810F0020056
:101D20002870012032BD38B504000D0000AA112131
:101D30002000FFF7BDFE002801D1002015E09DF82E
:101D4000000010F0F3008DF800009DF8000028431B
:101D50008DF800009DF8002011212000FFF7B9FE4A
:101D6000002801D1002000E0012032BD38B5040078
:101D70000D002A0011212000FFF79AFE002801D152
:101D8000002004E0287810F00C002870012032BDFB
:101D900038B504000D0000AA11212000FFF788FECD
:101DA000002801D1002015E09DF8000010F00F0080
:101DB0008DF800009DF8000028438DF800009DF884
:101DC000002011212000FFF784FE002801D100200F
:101DD00000E0012032BD38B504000D002A001121B9
:101DE0002000FFF765FE002801D1002004E02878DC
:101DF00010F0F0002870012032BD38B504000D004D
:101E000000AA12212000FFF753FE002801D1002074
:101E100015E09DF8000010F0FB008DF800009DF823
:101E2000000028438DF800009DF8002012212000BA
:101E3000FFF74FFE002801D1002000E0012032BD55
:101E400038B504000D0000AA12212000FFF730FE73
:101E5000002801D1002015E09DF8000010F0BF001F
:101E60008DF800009DF8000028438DF800009DF8D3
:101E7000002012212000FFF72CFE002801D10020B5
:101E800000E0012032BD38B504000D0000AA182181
:101E90002000FFF70DFE002801D1002015E09DF87D
:101EA000000010F0F7008DF800009DF800002843B6
:101EB0008DF800009DF8002018212000FFF709FE92
:101EC000002801D1002000E0012032BD38B5040017
:101ED0000D002A0018212000FFF7EAFD002801D19B
:101EE000002004E0287810F008002870012032BD9E
:101EF00038B504000D0000AA18212000FFF7D8FD16
:101F0000002801D1002015E09DF8000010F0EF003E
:101F10008DF800009DF8000028438DF800009DF822
:101F2000002018212000FFF7D4FD002801D1002057
:101F300000E0012032BD38B504000D002A00182150
:101F40002000FFF7B5FD002801D1002004E028782B
:101F500010F010002870012032BD38B504000D00CB
:101F600000AA18212000FFF7A3FD002801D10020BE
:101F700015E09DF8000010F0DF008DF800009DF8DE
:101F8000000028438DF800009DF800201821200053
:101F9000FFF79FFD002801D1002000E0012032BDA5
:101FA00038B504000D002A0018212000FFF780FD3D
:101FB000002801D1002004E0287810F020002870CB
:101FC000012032BD38B504000D0000AA19212000FF
:101FD000FFF76EFD002801D1002015E09DF80000FC
:101FE00010F0FD008DF800009DF8000028438DF8EA
:101FF00000009DF8002019212000FFF76AFD00284D
:1020000001D1002000E0012032BD38B504000D00F0
:1020100000AA19212000FFF74BFD002801D1002064
:1020200015E09DF8000010F0F7008DF800009DF815
:10203000000028438DF800009DF8002019212000A1
:10204000FFF747FD002801D1002000E0012032BD4C
:1020500038B504000D002A0019212000FFF728FDE3
:10206000002801D1002004E0287810F00800287032
:10207000012032BD38B504000D0000AA192120004E
:10208000FFF716FD002801D1002015E09DF80000A3
:1020900010F0EF008DF800009DF8000028438DF847
:1020A00000009DF8002019212000FFF712FD0028F4
:1020B00001D1002000E0012032BD38B504000D0040
:1020C0002A0019212000FFF7F3FC002801D100208D
:1020D00004E0287810F010002870012032BD38B5D7
:1020E00004000D0000AA19212000FFF7E1FC0028E0
:1020F00001D1002015E09DF8000010F0DF008DF800
:1021000000009DF8000028438DF800009DF8002095
:1021100019212000FFF7DDFC002801D1002000E09C
:10212000012032BD38B504000D002A00192120001D
:10213000FFF7BEFC002801D1002004E0287810F051
:1021400020002870012032BD38B504000D0000AA1F
:1021500019212000FFF7ACFC002801D1002015E078
:102160009DF8000010F0FB008DF800009DF80000C5
:1021700028438DF800009DF8002019212000FFF76A
:10218000A8FC002801D1002000E0012032BD38B5B4
:1021900004000D002A001B212000FFF789FC002805
:1021A00001D1002004E0287810F0080028700120F8
:1021B00032BD38B504000D002A001B212000FFF7B6
:1021C00077FC002801D1002004E0287810F02000DE
:1021D0002870012032BD38B504000D002A001C21F2
:1021E0002000FFF765FC002801D1002004E02878DA
:1021F00010F010002870012032BD38B504000D0029
:102200002A001C212000FFF753FC002801D10020E8
:1022100004E0287810F020002870012032BD38B585
:1022200004000D002A001D212000FFF741FC0028BA
:1022300001D1002004E0287810F00100287001206E
:1022400032BD38B504000D002A001D212000FFF723
:102250002FFC002801D1002004E0287810F00200B3
:102260002870012032BD38B504000D002A001D2160
:102270002000FFF71DFC002801D1002004E0287891
:1022800010F004002870012032BD38B504000D00A4
:102290002A001D212000FFF70BFC002801D100209F
:1022A00004E0287810F008002870012032BD38B50D
:1022B00004000D002A001D212000FFF7F9FB002873
:1022C00001D1002004E0287810F0100028700120CF
:1022D00032BD38B504000D002A001D212000FFF793
:1022E000E7FB002801D1002004E0287810F020004E
:1022F0002870012032BD38B504000D002A001D21D0
:102300002000FFF7D5FB002801D1002004E0287849
:1023100010F040002870012032BD38B504000D00D7
:102320002A0053212000FFF7C3FB002801D1002021
:1023300004E0287810F010002870012032BD38B574
:1023400004000D002A0053212000FFF7B1FB0028F4
:1023500001D1002004E0287810F02000287001202E
:1023600032BD38B504000D0000AA58212000FFF747
:102370009FFB002801D1002015E09DF8000010F01F
:10238000FD008DF800009DF8000028438DF8000046
:102390009DF8002058212000FFF79BFB002801D169
:1023A000002000E0012032BD38B504000D0000AA75
:1023B00058212000FFF77CFB002801D1002015E008
:1023C0009DF8000010F0FB008DF800009DF8000063
:1023D00028438DF800009DF8002058212000FFF7C9
:1023E00078FB002801D1002000E0012032BD38B583
:1023F00004000D0000AA58212000FFF759FB002817
:1024000001D1002015E09DF8000010F0F7008DF8D4
:1024100000009DF8000028438DF800009DF8002082
:1024200058212000FFF755FB002801D1002000E0D3
:10243000012032BD38B504000D0000AA582120004B
:10244000FFF736FB002801D1002015E09DF80000C1
:1024500010F0DF008DF800009DF8000028438DF893
:1024600000009DF8002058212000FFF732FB0028D3
:1024700001D1002000E0012032BD38B504000D007C
:1024800000AA58212000FFF713FB002801D10020EB
:1024900015E09DF8000010F0BF008DF800009DF8D9
:1024A000000028438DF800009DF8002058212000EE
:1024B000FFF70FFB002801D1002000E0012032BD12
:1024C00038B504000D0015F01F0500AA59212000A1
:1024D000FFF7EEFA002801D1002015E09DF800007A
:1024E00010F0E0008DF800009DF8000028438DF802
:1024F00000009DF8002059212000FFF7EAFA00288B
:1025000001D1002000E0012032BD38B504000D00EB
:1025100000AA59212000FFF7CBFA002801D10020A2
:1025200015E09DF8000010F09F008DF800009DF868
:10253000000028438DF800009DF80020592120005C
:10254000FFF7C7FA002801D1002000E0012032BDCA
:1025500038B504000D0015F0030500AA5A2120002B
:10256000FFF7A6FA002801D1002015E09DF8000031
:1025700010F0FC008DF800009DF8000028438DF855
:1025800000009DF800205A212000FFF7A2FA002841
:1025900001D1002000E0012032BD38B504000D005B
:1025A000AD0015F00C0500AA5A212000FFF780FAB3
:1025B000002801D1002015E09DF8000010F0F30084
:1025C0008DF800009DF8000028438DF800009DF86C
:1025D00000205A212000FFF77CFA002801D10020BA
:1025E00000E0012032BD38B504000D002D0115F0CA
:1025F000F00500AA5A212000FFF75AFA002801D15D
:10260000002015E09DF8000010F00F008DF800008C
:102610009DF8000028438DF800009DF800205A2105
:102620002000FFF756FA002801D1002000E0012029
:1026300032BD38B504000D0015F03F0500AA5B213E
:102640002000FFF735FA002801D1002015E09DF8A1
:10265000000010F0C0008DF800009DF80000284335
:102660008DF800009DF800205B212000FFF731FA73
:10267000002801D1002000E0012032BD38B504005F
:102680000D0000AA5B212000FFF712FA002801D1FB
:10269000002015E09DF8000010F07F008DF800008C
:1026A0009DF8000028438DF800009DF800205B2174
:1026B0002000FFF70EFA002801D1002000E00120E1
:1026C00032BD38B504000D0015F00F0500AA5C21DD
:1026D0002000FFF7EDF9002801D1002015E09DF85A
:1026E000000010F0F0008DF800009DF80000284375
:1026F0008DF800009DF800205C212000FFF7E9F92B
:10270000002801D1002000E0012032BD38B50400CE
:102710000D0000AA5C212000FFF7CAF9002801D1B2
:10272000002015E09DF8000010F0EF008DF800008B
:102730009DF8000028438DF800009DF800205C21E2
:102740002000FFF7C6F9002801D1002000E0012099
:1027500032BD38B504000D006D0115F0600500AA0A
:102760005C212000FFF7A4F9002801D1002015E02A
:102770009DF8000010F09F008DF800009DF800000B
:1027800028438DF800009DF800205C212000FFF711
:10279000A0F9002801D1002000E0012032BD38B5A9
:1027A00004000D0000AA5D212000FFF781F9002838
:1027B00001D1002015E09DF8000010F0F8008DF820
:1027C00000009DF8000028438DF800009DF80020CF
:1027D0005D212000FFF77DF9002801D1002000E0F5
:1027E000012032BDF8B504000D0015F01F000700F0
:1027F000C5F340100600FF0017F0F80700AA5D219E
:102800002000FFF755F9002801D1002036E09DF89F
:10281000000010F007008DF800009DF8000038431C
:102820008DF800009DF800205D212000FFF751F990
:10283000002801D1002021E0F60116F0800600AA50
:102840005C212000FFF734F9002801D1002015E0B9
:102850009DF8000010F07F008DF800009DF800004A
:1028600030438DF800009DF800205C212000FFF728
:1028700030F9002801D1002000E00120F2BD38B578
:1028800004000D0000AA5E212000FFF711F90028C6
:1028900001D1002015E09DF8000010F0FD008DF83A
:1028A00000009DF8000028438DF800009DF80020EE
:1028B0005E212000FFF70DF9002801D1002000E083
:1028C000012032BD38B504000D0000AA5E212000B1
:1028D000FFF7EEF8002801D1002015E09DF8000078
:1028E00010F0FB008DF800009DF8000028438DF8E3
:1028F00000009DF800205E212000FFF7EAF8002884
:1029000001D1002000E0012032BD38B504000D00E7
:1029100000AA5E212000FFF7CBF8002801D100209B
:1029200015E09DF8000010F0F7008DF800009DF80C
:10293000000028438DF800009DF800205E21200053
:10294000FFF7C7F8002801D1002000E0012032BDC8
:1029500038B504000D0000AA5E212000FFF7A8F89A
:10296000002801D1002015E09DF8000010F0EF00D4
:102970008DF800009DF8000028438DF800009DF8B8
:1029800000205E212000FFF7A4F8002801D10020DC
:1029900000E0012032BD38B504000D0000AA5E2120
:1029A0002000FFF785F8002801D1002015E09DF8F0
:1029B000000010F0DF008DF800009DF800002843B3
:1029C0008DF800009DF800205E212000FFF781F8BF
:1029D000002801D1002000E0012032BD38B50400FC
:1029E0000D0000AA5E212000FFF762F8002801D147
:1029F000002015E09DF8000010F0BF008DF80000E9
:102A00009DF8000028438DF800009DF800205E210D
:102A10002000FFF75EF8002801D1002000E001202F
:102A200032BD2DE9F84304000D000220814600204C
:102A3000804600200600F6B2032E1ADA00200700B6
:102A4000FFB25FFA89F94F4511D25FFA88F818EBA7
:102A5000050218F12201C9B22000FFF729F8002869
:102A600001D1002006E018F101087F1CE8E7761C80
:102A7000E1E70120BDE8F2832DE9F84304000D00F1
:102A8000022081460020804600200600F6B2032E78
:102A90001ADA00200700FFB25FFA89F94F4511D218
:102AA0005FFA88F818EB050218F12801C9B2200076
:102AB000FEF7FEFF002801D1002006E018F1010812
:102AC0007F1CE8E7761CE1E70120BDE8F2832DE9F1
:102AD000F84304000D0002208146002080460020BB
:102AE0000600F6B2002E1AD100200700FFB25FFAEE
:102AF00089F94F4511D25FFA88F818EB050218F1F1
:102B00004B01C9B22000FEF7D3FF002801D10020FD
:102B100006E018F101087F1CE8E7761CE1E70120D8
:102B2000BDE8F28338B504000D0080212000FEF7D7
:102B3000E0FF00AA0F212000FEF7BAFF9DF8000079
:102B400010F0E0008DF800009DF8000015F01F0166
:102B500008438DF800009DF800200F212000FEF7AB
:102B6000B8FF00212000FEF7C4FF012032BD200085
:102B7000002840F10980F446404200F005F850F08A
:102B800000406047002800BF0AD0B0FA80F18840BA
:102B9000D1F19D01C905020672F1004241EB1020FE
:102BA00070470020FF2212EAD05C1DBF12EAD15309
:102BB000944593422BE09C44D30780EA01021A40DB
:102BC00043EA002043EA0121A1FB0030410038BF65
:102BD00040007CF17F010BDBFE294ADA5B0842EA08
:102BE000C15153EA006373F1004C51EB1020704760
:102BF000D1F1080CDCF120012FDB5B0810FA01F1A8
:102C00000B4373F1004120FA0CF05041704794459A
:102C10001CBF02EAD153934280EA010202F0004253
:102C20001DD0400019D0490017D05BB9634514D0BE
:102C30000902B1FA81F39940BCEB030CC00140F0EA
:102C40000040C1E70002B0FA80FC10FA0CF0B3EBD0
:102C50000C0CC90141F00041B6E71000704740007C
:102C60000AD0490008D010F1807F94BF11F1807F15
:102C700002E042F0FF407047D04370474100090E28
:102C80007F3915D4D1F11F0114D4400007D2C001FF
:102C900040F00040C84048BF6FF000407047C0019E
:102CA00040F00040C8404CBF4FF0004040427047E9
:102CB0000020704700424FF0004058BFC0437047AB
:102CC0004FF0807C1CEB400F94BF1CEB410F05E0E4
:102CD00040EA010C5FEA4C0C01D28842704718BFF1
:102CE0008142704780B500F0A0F8002801D0012093
:102CF00000E0002002BD0020704700B58BB0AE4858
:102D0000006850F00100AC490860AB48006810F062
:102D100001000090009810200690A848079002201B
:102D200009900020089006A9A54800F059F9002252
:102D300000210A2000F0EEFA0A2000F0FEFA9E4878
:102D4000006850F002009C4908609B48006810F041
:102D50000200009000980120019098480290022003
:102D600004900020039001A9964800F039F9002250
:102D70000021062000F0CEFA062000F0DEFA002046
:102D80000BB000BD00B587B08B48006850F0010063
:102D9000894908608848006810F001000090009898
:102DA000102001908548029002200490002003909A
:102DB00001A9834800F014F9002200210A2000F044
:102DC000A9FA0A2000F0B9FA002007B000BD2DE9E9
:102DD000F04104000D0016001F00A0463B009BB20E
:102DE00032002900C9B298F8010000F042F800282A
:102DF00001D0012000E00020BDE8F0812DE9F04184
:102E000004000D0016001F00A0463B009BB23200DC
:102E10002900C9B298F8010000F055F8002801D047
:102E2000012000E00020BDE8F08180B5664800F098
:102E300063FD002814D16548634948600020624959
:102E4000886033206049C8604FF480405E49086163
:102E50005F485D49086000F068F85B4800F08AFA56
:102E6000594800F049FD202801D1002000E0012050
:102E700002BD2DE9F04184B004000D0016001F00D2
:102E80005FF00008534800680290380080B201905B
:102E900000960123EDB22A0092B2E4B2210089B279
:102EA000494800F04BFB80465FFA88F8B8F1000F04
:102EB00005D02000C0B200F030F8012000E0002072
:102EC00004B0BDE8F0812DE9F04184B004000D00AC
:102ED00016001F005FF000083E48006802903800AE
:102EE00080B2019000960123EDB22A0092B2E4B2C2
:102EF000210089B2344800F0CAFB80465FFA88F8A6
:102F0000B8F1000F05D02000C0B200F006F8012093
:102F100000E0002004B0BDE8F08110B504002A48AC
:102F200000F0E0FAFFF781FF10BD00B587B022483E
:102F3000006850F00200204908601F48006810F047
:102F40000200009000984FF440700190122002900F
:102F500002200490002003900420059001A9194844
:102F600000F03EF81C48006850F400101A49086050
:102F70001948006810F40010009000981748006885
:102F800050F40010154908601448006830F400102F
:102F900012490860002200211F2000F0BBF91F2009
:102FA00000F0CBF900220021202000F0B3F920200E
:102FB00000F0C3F907B000BD1C380240000011103A
:102FC000000002400004024030080020801A060081
:102FD0000054004074040020243802401838024095
:102FE00078B40022002300240D682E00D640002E65
:102FF00000F0DE800D680126964035402B00002B46
:1030000000F0D4804D68022D02D04D68122D16D1EB
:10301000D50810EB85052D6A2C000F2512F0070648
:10302000F6B2B600B540AC430D6912F00706F6B231
:10303000B600B5402C43D50810EB85052C62056819
:103040002C0003251600F6B27600B540AC430D798E
:1030500015F003051600F6B27600B5402C43046067
:103060004D68012D08D04D68022D05D04D68112DF9
:1030700002D04D68122D19D185682C000325160049
:10308000F6B27600B540AC43CD681600F6B27600D5
:10309000B5402C43846045682C0001259540AC4325
:1030A0004D68C5F3001595402C434460C5682C005D
:1030B00003251600F6B27600B540AC438D681600C5
:1030C000F6B27600B5402C43C4604D68ED006DD576
:1030D0004B4D2D6855F00105494E3560484D2D6822
:1030E00015F001050095009D464D960855F82650AF
:1030F0002C000F2512F00306F6B2B600B540AC4323
:10310000414DA84201D100251EE0404DA84201D109
:10311000012519E03E4DA84201D1022514E03D4DA4
:10312000A84201D103250FE03B4DA84201D104255F
:103130000AE03A4DA84201D1052505E0384DA842E4
:1031400001D1062500E0072512F00306F6B2B6000D
:10315000B5402C432B4D960845F82640314D2D683F
:103160002C009C434D68ED0300D51C432D4D2C6075
:103170002D4D2D682C009C434D68AD0300D51C439C
:10318000294D2C60294D2D682C009C434D68ED0283
:1031900000D51C43254D2C60254D2D682C009C43EB
:1031A0004D68AD0200D51C43214D2C60521C1BE71D
:1031B00071BC70470200136989B20B4202D001232F
:1031C000180001E000231800C0B27047D2B2002AF4
:1031D00002D089B2816102E089B20B048361704739
:1031E00010B5040013480068A4B2204206D0A4B26F
:1031F00010480460200080B201F03CFC10BD0000CB
:103200002038024008000140000002400004024053
:1032100000080240000C024000100240001402406E
:103220000018024000040140040401400804014069
:103230000C0401401404014010F00702454B1B68C8
:1032400019004FF6FF031940434B53EA0223194379
:10325000404B196070473F480068C0F30220704738
:10326000012110F01F0291403C4A40B2430942F84C
:103270002310704710B440B2002808D50A01384B1B
:1032800040B210F00F04E31803F8042C03E00A0125
:10329000344B40B2C25410BC704770B4030013F0FA
:1032A0000704D4F10706052E01D3042001E0D4F170
:1032B0000700261D072E01D2002500E0E51E01268D
:1032C00016FA00F0401E0840A8400121A940491EFE
:1032D0001140084370BC704710B50400601EB0F187
:1032E000807F01D301200EE0601E1F4908600F217E
:1032F0005FF0FF30FFF7BEFF00201C490860072089
:103300001B490860002010BD10B504002000FFF725
:1033100093FF10BDF8B504000D0016000027FFF75D
:103320009AFF0700320029003800FFF7B6FF0100BE
:10333000200040B2FFF79EFFF1BD10B50400200051
:1033400040B2FFF78DFF10BD10B504002000FFF75D
:10335000C3FF10BD0CED00E00000FA0500E100E045
:1033600018ED00E000E400E014E000E018E000E008
:1033700010E000E070B5040000250026002C01D10B
:103380000120AEE094F83500002805D1002084F833
:103390003400200000F0C5F802F0AAF90600DFF8BA
:1033A0008801864201D201209BE0242084F8350068
:1033B000206800684008400021680860DFF86C0160
:1033C000B6FBF0F0050020684068800980012843C2
:1033D000216848602068006A6168DFF854219142E2
:1033E00001D2691C08E04FF4967101FB05F14FF41E
:1033F0007A72B1FBF2F1491C80098001084321680F
:1034000008622068C0696168DFF8242191420ED209
:1034100061684900B6FBF1F10905090D042901D2E3
:1034200004212AE061684900B6FBF1F125E0A168BA
:10343000002905D1616803225143B6FBF1F106E092
:10344000616819225143B6FBF1F151F4804109053D
:1034500001D1012111E0A168002905D16168032291
:103460005143B6FBF1F106E0616819225143B6FB06
:10347000F1F151F4804151F40041DFF8B8201040DF
:1034800008432168C8612068006830F0C000E16925
:103490000843216A08432168086020688068DFF8D3
:1034A0009810084021690843E16808432168886052
:1034B0002068C068000A0002A169626911430843DC
:1034C0002168C8602068006850F001002168086029
:1034D0000020A063202084F83500002084F8360006
:1034E000002070BD10B50400002C01D1012017E0B0
:1034F000242084F8350020680068400840002168D6
:103500000860200000F00EF80020A063002084F87E
:103510003500002084F83600002084F834000020B4
:1035200010BD70477047000080841E0040420F00AD
:10353000A18601000030FFFF007CFFFF2DE9F0476E
:1035400082B005000E0017009846DDF828900B9C0D
:10355000DDF830A095F83500202840F09580B9F1CD
:10356000000F02D0A4B2002C01D101208DE042F264
:10357000107301225FF00211280000F0DDFA00282C
:1035800001D0022081E095F83400012801D1022009
:103590007BE0012085F834002868006830F4006082
:1035A00029680860212085F83500402085F836001C
:1035B0000020A863CDF800A043469BB23A0092B227
:1035C000310089B2280000F09DF900280CD0A86BCA
:1035D000042804D1002085F83400012055E00020A3
:1035E00085F83400032050E0A4B2002C28D05146C6
:1035F000280000F05DFB00280CD0A86B042807D140
:103600002868006850F400702968086001203CE0D8
:1036100003203AE099F800002968086119F10109CE
:10362000641E286840694007DED5A4B2002CDBD0B8
:1036300099F800002968086119F10109641ED3E7AF
:103640005146280000F034FB00280CD0A86B042859
:1036500007D12868006850F40070296808600120CC
:1036600013E0032011E02868006850F40070296816
:103670000860202085F83500002085F836000020FD
:1036800085F83400002000E00220BDE8F6872DE92F
:10369000F04782B005000E0017009846DDF828902C
:1036A0000B9CDDF830A095F83500202840F02081F3
:1036B000B9F1000F02D0A4B2002C01D1012018E111
:1036C00042F2107301225FF00211280000F034FA78
:1036D000002801D002200CE195F83400012801D126
:1036E000022006E1012085F834002868006830F4E3
:1036F000006029680860222085F83500402085F8A0
:1037000036000020A863CDF800A043469BB23A00E3
:1037100092B2310089B2280000F062F900280CD082
:10372000A86B042804D1002085F834000120E0E0D3
:10373000002085F834000320DBE0A4B2012C13D173
:103740002868006830F4806029680860286840694B
:10375000009028688069009000982868006850F4FC
:103760000070296808601DE0A4B2022C13D12868FB
:10377000006830F48060296808602868006850F4A8
:10378000006029680860286840690090286880699E
:103790000090009806E028684069009028688069D9
:1037A00000900098A4B2002C00F09780A4B2042CE2
:1037B00072DAA4B2012C14D15146280000F0A1FA0B
:1037C000002806D0A86B202801D1032091E0012019
:1037D0008FE02868006989F8000019F10109641E6A
:1037E000E0E7A4B2022C1FD153460022DFF81011EB
:1037F000280000F0A1F9002801D0032079E0286812
:10380000006850F40070296808602868006989F829
:10381000000019F10109641E2868006989F8000098
:1038200019F10109641EBDE753460022DFF8D010EC
:10383000280000F081F9002801D0032059E0286811
:10384000006830F48060296808602868006989F899
:10385000000019F10109641E53460022DFF8A01090
:10386000280000F069F9002801D0032041E0286811
:10387000006850F40070296808602868006989F8B9
:10388000000019F10109641E2868006989F8000028
:1038900019F10109641E85E75146280000F031FA4C
:1038A000002806D0A86B202801D1032021E00120A8
:1038B0001FE02868006989F8000019F10109641EF9
:1038C0002868406940077FF56DAF2868006989F86E
:1038D000000019F10109641E64E7202085F8350015
:1038E000002085F83600002085F83400002000E034
:1038F0000220BDE8F687000090F835007047000010
:10390000040001002DE9F04182B004000D00160012
:103910001F00DDF820802068006850F48070216866
:103920000860434600225FF00111200000F004F916
:10393000002801D0032051E015F0FE002168086145
:103940004246DFF8F011200000F063F9002806D0AD
:10395000A06B042801D1012040E003203EE0206854
:1039600040690090206880690090009841462000DE
:1039700000F09EF900280CD0A06B042807D1206825
:10398000006850F4007021680860012026E00320E0
:1039900024E0BFB2012F04D13000C0B22168086119
:1039A0001BE0B6B2300AC0B221680861414620006F
:1039B00000F07EF900280CD0A06B042807D1206805
:1039C000006850F4007021680860012006E00320C0
:1039D00004E03000C0B2216808610020BDE8F68133
:1039E0002DE9F04182B004000D0016001F00DDF843
:1039F00020802068006850F480602168086020689A
:103A0000006850F4807021680860434600225FF02F
:103A10000111200000F090F8002801D0032087E079
:103A200015F0FE002168086142464249200000F07E
:103A3000F0F8002806D0A06B042801D1012077E01F
:103A4000032075E02068406900902068806900903C
:103A500000984146200000F02BF900280CD0A06B04
:103A6000042807D12068006850F4007021680860BD
:103A700001205DE003205BE0BFB2012F04D13000E4
:103A8000C0B2216808611BE0B6B2300AC0B221683A
:103A900008614146200000F00BF900280CD0A06B13
:103AA000042807D12068006850F40070216808607D
:103AB00001203DE003203BE03000C0B221680861F6
:103AC0004146200000F0F4F800280CD0A06B042838
:103AD00007D12068006850F4007021680860012058
:103AE00026E0032024E02068006850F480702168FC
:103AF0000860434600225FF00111200000F01CF82E
:103B0000002801D0032013E055F00100C0B2216865
:103B1000086142460749200000F07BF8002806D0E3
:103B2000A06B042801D1012002E0032000E0002066
:103B3000BDE8F681020001002DE9F04104000D000E
:103B400016001F005FF0000801F096FE8046F6B2F6
:103B5000002E2DD1280CC0B201280AD1206840695E
:103B6000284080B2A9B2884201D101200BE0002098
:103B700009E020688069284080B2A9B2884201D15A
:103B8000012000E00020002840D117F1010FE1D012
:103B9000002F05D001F070FEB0EB08008742D9D2AB
:103BA000202084F83500002084F8340003202EE023
:103BB000280CC0B201280AD120684069284080B290
:103BC000A9B2884201D101200BE0002009E0206861
:103BD0008069284080B2A9B2884201D1012000E06A
:103BE0000020002812D017F1010FE1D0002F05D0DE
:103BF00001F042FEB0EB08008742D9D2202084F8C1
:103C00003500002084F83400032000E00020BDE8E7
:103C1000F081F8B504000D001600002701F02CFE1D
:103C20000700280CC0B201280AD12068406928404A
:103C300080B2A9B2884201D101200BE0002009E046
:103C400020688069284080B2A9B2884201D1012051
:103C500000E00020002829D120684069400513D5E4
:103C60002068006850F40070216808607FF480606C
:103C7000216848610420A063202084F835000020DA
:103C800084F83400012012E016F1010FC9D0002E93
:103C900004D001F0F1FDC01B8642C2D2202084F87E
:103CA0003500002084F83400032000E00020F2BD3D
:103CB00070B504000D0001F0DFFD060020684069CA
:103CC00000061CD4200000F04EF8002801D001208E
:103CD00016E015F1010FF1D0002D04D001F0CCFD5C
:103CE000801B8542EAD2A06B50F02000A063202008
:103CF00084F83500002084F83400032000E0002020
:103D000070BD70B504000D00002601F0B5FD060081
:103D100020684069400624D420684069C0060DD55B
:103D20007FF01000216848610020A063202084F803
:103D30003500002084F83400012013E0002D04D069
:103D400001F09AFD801B8542E2D2A06B50F020006A
:103D5000A063202084F83500002084F8340003207C
:103D600000E0002070BD01000868406940050DD5E5
:103D70007FF480600A68506104208863202081F805
:103D80003500002081F83400012000E00020704759
:103D900080B501F041FD01F085FD002001F0D6FD68
:103DA0000121002001F00AFE01F072FE00F012FE77
:103DB00000F02EFE00F018FDDFF80C0C0078012852
:103DC00009D100F065FD0120DFF8001C087000201B
:103DD000DFF8F41B0870DFF8F80B0078012809D130
:103DE00000F0A4FD0020DFF8E41B08700020DFF8DD
:103DF000E01B0870DFF8D40B0078012860D100F0D8
:103E00009EF8DFF8A00C006800F0D1F8DFF8980CFD
:103E10000078002804D1DFF8940C006800F0C7F89F
:103E2000DFF88C0C006800F08CF9DFF8880C007863
:103E3000002804D1DFF8800C006800F082F9DFF878
:103E40007C0C006800F047FADFF8740C006800F0A2
:103E50000CFBDFF8700C006800F09CFBDFF8680CCE
:103E6000006800F097FBDFF8640C0078002804D1AC
:103E7000DFF85C0C006800F08DFBDFF8580C007870
:103E8000002804D1DFF8500C006800F083FBDFF855
:103E90004C0C006800F013FCDFF8440C007800289C
:103EA00004D1DFF8400C006800F009FCDFF8380CA2
:103EB0000078002804D1DFF8340C006800F0FFFB24
:103EC0004FF47A7001F0DBFC76E72DE9F843060049
:103ED0000F00914698463000FEF7D0FE3860300063
:103EE000002101F047FE08D83868FEF741FE0100C6
:103EF000300001F051FE060006E03868FEF738FE9B
:103F0000310001F049FE0600404601F0B9FE020012
:103F10000B000020DFF8D81B02F0D9F804000D00D8
:103F2000300002F0EDFA22002B0002F011FB02F04B
:103F3000E0FB02F0E7FBC9F80000BDE8F18310B533
:103F400088B00024002203A9DFF8A80B02F000FCCF
:103F5000002202A9DFF89C0B02F0ADFD0498D0F11D
:103F6000FF00642148434FF4807190FBF1F004009E
:103F7000E4B201949DF80E0000909DF80D309DF87C
:103F80000C20DFF8741BDFF8740B02F0F5FDDFF88E
:103F90006C0B02F00BFE020041F2883392B2DFF8A4
:103FA0005C1BDFF85C0B02F056FE08B010BD10B5CC
:103FB0008CB0040004A9200003F0F8F90DF1110100
:103FC000200003F0E5F99DF81100012840F0B780CA
:103FD00009A9200003F012FA012805D10020099058
:103FE00000200A9000200B900B9803909DF8100081
:103FF00002900A9801909DF810000090099B9DF88E
:104000001020DFF8001BDFF8F40A02F0B5FDDFF83E
:10401000EC0A02F0CBFD41F28833020092B2DFF8E5
:10402000DC1ADFF8DC0A02F016FEDFF8DC0A0078A2
:10403000012840F084800DF11201200003F0C4F942
:10404000012808D19DF81020DFF8C01ADFF8AC0A6B
:1040500002F092FD09E09DF812309DF81020DFF883
:10406000B01ADFF8980A02F087FDDFF8900A02F034
:104070009DFD020041F2883392B2DFF8801ADFF82A
:10408000800A02F0E8FD08A9200003F0D5F9012814
:1040900008D19DF81020DFF87C1ADFF8600A02F0E2
:1040A0006BFD10E0032305AA06A90898FFF70DFF92
:1040B00005980090069B9DF81020DFF85C1ADFF849
:1040C0003C0A02F059FDDFF8340A02F06FFD41F2BC
:1040D0008833020092B2DFF8241ADFF8240A02F0D3
:1040E000BAFD07A9200003F0C5F9012808D19DF801
:1040F0001020DFF8281ADFF8040A02F03DFD10E076
:10410000032305AA06A90798FFF7DFFE059800908C
:10411000069B9DF81020DFF8081ADFF8E00902F08E
:104120002BFDDFF8D80902F041FD41F2883302008F
:1041300092B2DFF8C819DFF8C80902F08CFD0CB0A4
:1041400010BD10B58CB0040004A9200003F0E2FA01
:104150000DF11101200003F0CFFA9DF811000128A4
:1041600040F0B78009A9200003F000FB012805D129
:104170000020099000200A9000200B900B980390DB
:104180009DF8100002900A9801909DF81000009090
:10419000099B9DF81020DFF88C19DFF8600902F008
:1041A000EBFCDFF8580902F001FD41F28833020010
:1041B00092B2DFF84819DFF8480902F04CFDDFF849
:1041C00048090078012840F084800DF11201200098
:1041D00003F0AEFA012808D19DF81020DFF82C1961
:1041E000DFF8180902F0C8FC09E09DF812309DF8CC
:1041F0001020DFF81C19DFF8040902F0BDFCDFF81D
:10420000FC0802F0D3FC020041F2883392B2DFF8DE
:10421000EC18DFF8EC0802F01EFD08A9200003F0FE
:10422000C3FA012808D19DF81020DFF8E818DFF85C
:10423000CC0802F0A1FC10E0032305AA06A9089807
:10424000FFF743FE05980090069B9DF81020DFF8CD
:10425000C818DFF8A80802F08FFCDFF8A00802F009
:10426000A5FC41F28833020092B2DFF89018DFF823
:10427000900802F0F0FC07A9200003F0B3FA01282F
:1042800008D19DF81020DFF89418DFF8700802F0CC
:1042900073FC10E0032305AA06A90798FFF715FE93
:1042A00005980090069B9DF81020DFF87C18DFF839
:1042B0004C0802F061FCDFF8440802F077FC41F2A0
:1042C0008833020092B2DFF83418DFF8340802F0C5
:1042D000C2FC0CB010BD10B58CB0040004A92000C5
:1042E00003F058FB0DF11101200003F045FB9DF890
:1042F0001100012840F0B78009A9200003F076FBE7
:10430000012805D10020099000200A9000200B9080
:104310000B9803909DF8100002900A9801909DF868
:1043200010000090099B9DF81020DFF80018DFF8BE
:10433000CC0702F021FCDFF8C40702F037FC41F2A1
:104340008833020092B2DFF8B417DFF8B40702F046
:1043500082FCDFF8B4070078012840F084800DF17A
:104360001201200003F024FB012808D19DF8102041
:10437000DFF89817DFF8840702F0FEFB09E09DF8EC
:1043800012309DF81020DFF88817DFF8700702F070
:10439000F3FBDFF8680702F009FC020041F2883302
:1043A00092B2DFF85817DFF8580702F054FC08A95A
:1043B000200003F039FB012808D19DF81020DFF818
:1043C0005417DFF8380702F0D7FB10E0032305AAE3
:1043D00006A90898FFF779FD05980090069B9DF8BF
:1043E0001020DFF83417DFF8140702F0C5FBDFF800
:1043F0000C0702F0DBFB41F28833020092B2DFF8D7
:10440000FC16DFF8FC0602F026FC07A9200003F0EA
:1044100029FB012808D19DF81020DFF80017DFF8EC
:10442000DC0602F0A9FB10E0032305AA06A9079801
:10443000FFF74BFD05980090069B9DF81020DFF8D4
:10444000F016DFF8B80602F097FBDFF8B00602F0CE
:10445000ADFB41F28833020092B2DFF8A016DFF81C
:10446000A00602F0F8FB0CB010BD10B586B0040039
:1044700001A9200003F0D4FB0DF10501200003F099
:10448000C1FB9DF80500012840F0828004A92000AE
:1044900003F0F2FB012801D100200490022302AABC
:1044A00003A90498FFF711FD02980090039B9DF863
:1044B0000420DFF88016DFF8440602F05DFBDFF829
:1044C0003C0602F073FB41F28833020092B2DFF83F
:1044D0002C16DFF82C0602F0BEFBDFF82C06007865
:1044E000012855D10DF10601200003F0A7FB01289A
:1044F00008D19DF80420DFF81416DFF8000602F05A
:104500003BFB09E09DF806309DF80420DFF800161B
:10451000DFF8E80502F030FBDFF8E00502F046FBCB
:10452000020041F2883392B2DFF8D015DFF8D005EF
:1045300002F091FB05A9200003F0BCFB012808D183
:104540009DF80420DFF8CC15DFF8B00502F014FB6D
:1045500010E0032302AA03A90598FFF7B6FC02980E
:104560000090039B9DF80420DFF8AC15DFF88C0564
:1045700002F002FBDFF8840502F018FB41F28833F9
:10458000020092B2DFF87415DFF8740502F063FBE5
:1045900006B010BD10B586B0040001A9200003F0DC
:1045A000B3FD0DF10501200003F0A0FD9DF805000D
:1045B000012840F0828004A9200003F0D1FD0128E9
:1045C00001D100200490022302AA03A90498FFF756
:1045D0007CFC02980090039B9DF80420DFF858159E
:1045E000DFF8180502F0C8FADFF8100502F0DEFA6D
:1045F00041F28833020092B2DFF80015DFF80005BF
:1046000002F029FBDFF800050078012855D10DF1F3
:104610000601200003F086FD012808D19DF8042042
:10462000DFF8E814DFF8D40402F0A6FA09E09DF8F8
:1046300006309DF80420DFF8D814DFF8C00402F03B
:104640009BFADFF8B80402F0B1FA020041F28833B5
:1046500092B2DFF8A814DFF8A80402F0FCFA05A96A
:10466000200003F09BFD012808D19DF80420DFF80D
:10467000A414DFF8880402F07FFA10E0032302AAF2
:1046800003A90598FFF721FC02980090039B9DF871
:104690000420DFF88414DFF8640402F06DFADFF818
:1046A0005C0402F083FA41F28833020092B2DFF830
:1046B0004C14DFF84C0402F0CEFA06B010BD10B571
:1046C00086B0040001A9200003F014FF0DF10501DC
:1046D000200003F001FF9DF80500012840F08280D2
:1046E00004A9200003F032FF012801D1002004902A
:1046F000022302AA03A90498FFF7E7FB029800909F
:10470000039B9DF80420DFF83414DFF8F00302F077
:1047100033FADFF8E80302F049FA41F28833020085
:1047200092B2DFF8D813DFF8D80302F094FADFF87A
:10473000D8030078012855D10DF10601200003F0BF
:10474000E7FE012808D19DF80420DFF8C013DFF848
:10475000AC0302F011FA09E09DF806309DF8042040
:10476000DFF8AC13DFF8940302F006FADFF88C03ED
:1047700002F01CFA020041F2883392B2DFF87C1397
:10478000DFF87C0302F067FA05A9200003F0FCFEC5
:10479000012808D19DF80420DFF87813DFF85C03C6
:1047A00002F0EAF910E0032302AA03A90598FFF733
:1047B0008CFB02980090039B9DF80420DFF85813AF
:1047C000DFF8380302F0D8F9DFF8300302F0EEF931
:1047D00041F28833020092B2DFF82013DFF82003A1
:1047E00002F039FA06B010BD80B5AE49002002F0E3
:1047F000A5FCAE49012002F0A1FC012802D1012054
:10480000A9490870AA49002002F052FEAA490120D5
:1048100002F04EFE012802D10120A6490870A749E6
:10482000002002F0FDFFA649002003F039F9A54958
:10483000002003F05DFAA449012003F059FAA449CD
:10484000032003F055FA012802D101209F49087086
:10485000A149022003F04CFA012802D101209D4910
:1048600008709E49002003F0B7FC9E49022003F027
:10487000B3FC012802D10120994908709B4901200D
:1048800003F0AAFC012802D101209749087001BD5C
:1048900080B58448006802F04BFD8348007800280A
:1048A00003D18248006802F043FD8148006802F0AD
:1048B000F3FE80480078002803D17F48006802F0AA
:1048C000EBFE7E48006803F027F87D48006803F09F
:1048D00069F97C48006803F0D9FB7B48006803F065
:1048E000D5FB7A480078002803D17948006803F0A6
:1048F000CDFB78480078002803D17748006803F0A2
:10490000C5FB7648006803F0B7FD754800780028BD
:1049100003D17448006803F0AFFD734800780028A5
:1049200003D17248006803F0A7FD01BD80B55D4862
:10493000006802F015FD5C480078002803D15B4850
:10494000006802F00DFD5A48006802F0BDFE5948AB
:104950000078002803D15848006802F0B5FE574897
:10496000006802F0F1FF5648006803F033F955483B
:10497000006803F0A3FB5448006803F09FFB534812
:104980000078002803D15248006803F097FB514893
:104990000078002803D15048006803F08FFB4F488F
:1049A000006803F081FD4E480078002803D14D488F
:1049B000006803F079FD4C480078002803D14B488B
:1049C000006803F071FD01BD7C0400204C0A00204A
:1049D000450A002080B55A484649086040204549AC
:1049E00048607F2043498860FF204249C86000201A
:1049F0004049086100203F49486100203D498861E5
:104A00003C4801F0F9FE002801D000F0A1F801BDFA
:104A100000B587B000208DF8030001208DF801005B
:104A200001208DF8020001208DF80000012200A96C
:104A3000304801F0C2FF002801D000F089F80020C2
:104A40008DF8040000208DF8050000208DF8060088
:104A500000208DF80700002004900020059001221E
:104A600001A9244801F01EFF002801D000F070F8D1
:104A700007B000BD10B50400A4B2B4F5005F0FD1BB
:104A8000002000F0E8FF00280AD12E480078002816
:104A900003D101202C49087002E001202B49087045
:104AA00010BD0000DC090020460A0020E0090020BB
:104AB000E4090020470A0020E8090020EC09002052
:104AC000F0090020F4090020FC0900204B0A002016
:104AD0000C0A0020490A0020040A0020F8090020DE
:104AE0004A0A0020080A0020480A0020000A002084
:104AF00000002440F8080020ACE5000880050020F4
:104B0000F0070020C8E400087D040020FCE5000850
:104B10001CE600084CE700088CE600085CE700088B
:104B200010E70008F8E40008A4E6000828E50008FB
:104B3000BCE6000824E7000838E70008D4E60008CF
:104B4000002800404C0A00207C040020450A002078
:104B5000FEE7280038B5040000252078C00740F1A2
:104B6000C980DFF8E00B006810F00C0008280BD0BB
:104B7000DFF8D00B006810F00C000C2827D1DFF80C
:104B8000C40B0068C00322D54FF48040B0FA80F017
:104B900050F02000C0B24009C0B2012803D1DFF8B4
:104BA000780B006802E0DFF8A80B00684FF4804142
:104BB000B1FA81F111F01F010200CA40D00740F1A3
:104BC00099806068002840F095800120DDE36068EE
:104BD000012808D1DFF8400B006850F48030DFF87E
:104BE000381B086037E06068002810D1DFF8280B18
:104BF000006830F48030DFF8201B0860DFF8180B05
:104C0000006830F48020DFF8101B086023E0606843
:104C1000052810D1DFF8000B006850F48020DFF881
:104C2000F81A0860DFF8F00A006850F48030DFF806
:104C3000E81A08600FE0DFF8E00A006830F480301E
:104C4000DFF8D41A0860DFF8D00A006830F480205A
:104C5000DFF8C41A08606068002825D000F00CFE58
:104C600005004FF48040B0FA80F050F02000C0B250
:104C70004009C0B2012803D1DFF89C0A006802E0B5
:104C8000DFF8CC0A00684FF48041B1FA81F111F0ED
:104C90001F010200CA40D0072CD400F0EDFD401BDC
:104CA0006528DED3032070E300F0E6FD05004FF435
:104CB0008040B0FA80F050F02000C0B24009C0B28D
:104CC000012803D1DFF8500A006802E0DFF8800A0B
:104CD00000684FF48041B1FA81F111F01F01020028
:104CE000CA40D00706D500F0C7FD401B6528DED3BB
:104CF00003204AE32078800740F1B780DFF8440AB8
:104D0000006810F00C0004280BD0DFF8380A0068A7
:104D100010F00C000C2836D1DFF8280A0068C00318
:104D200031D45FF08040B0FA80F050F02000C0B283
:104D30004009C0B2012803D1DFF8DC09006802E0B5
:104D4000DFF80C0A00685FF08041B1FA81F111F0E0
:104D50001F010200CA40D00704D5E068012801D035
:104D6000012012E3DFF8E00900685FF47801B1FA8E
:104D700081F130F4F850226912FA01F10843DFF8AA
:104D8000C819086071E0E06800283FD001205FF09A
:104D90000041B1FA81F1DFF84C2A42F8210000F01D
:104DA0006BFD05005FF08040B0FA80F050F020000D
:104DB000C0B24009C0B2012803D1DFF85C09006825
:104DC00002E0DFF88C0900685FF08041B1FA81F100
:104DD00011F01F010200CA40D00706D400F04CFDBC
:104DE000401B0328DED30320CFE2DFF85C09006814
:104DF0005FF47801B1FA81F130F4F850226912FAC7
:104E000001F10843DFF8401908602EE000205FF050
:104E10000041B1FA81F1DFF8CC2942F8210000F01D
:104E20002BFD05005FF08040B0FA80F050F02000CC
:104E3000C0B24009C0B2012803D1DFF8DC08006825
:104E400002E0DFF80C0900685FF08041B1FA81F1FF
:104E500011F01F010200CA40D00706D500F00CFD7A
:104E6000401B0328DED303208FE22078C00640F1E8
:104E7000EF80DFF8D008006810F00C0F6DD15FF400
:104E80008000B0FA80F050F02000C0B24009C0B2FB
:104E9000012803D1DFF88008006802E0DFF8B008DD
:104EA00000685FF48001B1FA81F111F01F01020086
:104EB000CA40D00704D5A069002801D1012064E2CE
:104EC000DFF88408006810F46040216A884220D22C
:104ED000206A00F03FFC002801D0012055E2DFF8F5
:104EE0006808006830F46040216A0843DFF8581809
:104EF0000860DFF854080068FF21B1FA81F1000270
:104F0000000AE26912FA01F10843DFF83C18086070
:104F10001FE0DFF83408006830F46040216A08437D
:104F2000DFF824180860DFF820080068FF21B1FAD4
:104F300081F10002000AE26912FA01F10843DFF888
:104F400008180860206A00F005FC002801D0012044
:104F50001BE20F2000F078FC7AE0A069002848D01E
:104F600001205FF40001B1FA81F1DFF8782842F8FE
:104F7000210000F081FC05005FF48000B0FA80F0B1
:104F800050F02000C0B24009C0B2012803D1DFF8C0
:104F90008807006802E0DFF8B80700685FF4800166
:104FA000B1FA81F111F01F010200CA40D00706D406
:104FB00000F062FC401B0328DED30320E5E1DFF8AC
:104FC0008807006830F46040216A0843DFF87817EA
:104FD0000860DFF874070068FF21B1FA81F1000270
:104FE000000AE26912FA01F10843DFF85C17086071
:104FF0002EE000205FF40001B1FA81F1DFF8E42730
:1050000042F8210000F038FC05005FF48000B0FA9F
:1050100080F050F02000C0B24009C0B2012803D196
:10502000DFF8F406006802E0DFF8240700685FF4A8
:105030008001B1FA81F111F01F010200CA40D007CE
:1050400006D500F019FC401B0328DED303209CE1A9
:10505000207800074AD56069002823D001205FF03E
:105060000041B1FA81F1DFF8802742F8210000F019
:1050700003FC05005FF08040B0FA80F0DFF8D00656
:1050800000685FF08041B1FA81F111F01F01020068
:10509000CA40D0072AD400F0EFFB401B0328E9D315
:1050A000032072E100205FF00041B1FA81F1DFF8E6
:1050B000382742F8210000F0DFFB05005FF0804058
:1050C000B0FA80F0DFF8880600685FF08041B1FA3E
:1050D00081F111F01F010200CA40D00706D500F08F
:1050E000CBFB401B0328E9D303204EE12078400787
:1050F00040F1A780DFF8F406006850F08050DFF838
:10510000EC160860DFF8E406006810F080500090AC
:105110000098DFF8DC06006850F48070DFF8D016E5
:10512000086000F0A9FB0500DFF8C4060068C005B0
:1051300006D400F0A1FB401B6528F5D3032024E131
:10514000A068012808D1DFF80806006850F48070D4
:10515000DFF8FC15086037E0A068002810D1DFF800
:10516000F005006830F48070DFF8E4150860DFF8BF
:10517000E005006830F48060DFF8D415086023E0B3
:10518000A068052810D1DFF8C805006850F48060D9
:10519000DFF8BC150860DFF8B805006850F48070CF
:1051A000DFF8AC1508600FE0DFF8A405006830F404
:1051B0008070DFF89C150860DFF89405006830F413
:1051C0008060DFF88C150860A06800281CD000F013
:1051D00053FB05005FF48000B0FA80F0DFF8700543
:1051E00000685FF48001B1FA81F111F01F01020043
:1051F000CA40D00725D400F03FFB401B41F2893163
:105200008842E7D30320C0E000F036FB05005FF4DE
:105210008000B0FA80F0DFF8380500685FF48001A4
:10522000B1FA81F111F01F010200CA40D00708D580
:1052300000F022FB401B41F289318842E7D3032072
:10524000A3E0606A002800F09F80DFF8F80400689F
:1052500010F00C000C2800F09580606A022865D1DF
:1052600000208021B1FA81F1DFF8782542F8210091
:1052700000F002FB05004020B0FA80F050F0200062
:10528000C0B24009C0B2012803D1DFF88C04006825
:1052900002E0DFF8BC0400684021B1FA81F111F0AE
:1052A0001F010200CA40D00706D500F0E5FA401BF6
:1052B0000328E0D3032068E0DFF88804006830F4B6
:1052C0007D00A16A0843E16A0843216B0843DFF8C7
:1052D0007414086001208021B1FA81F1DFF80425FF
:1052E00042F8210000F0C8FA05004020B0FA80F032
:1052F00050F02000C0B24009C0B2012803D1DFF84D
:105300001804006802E0DFF8480400684021B1FAA0
:1053100081F111F01F010200CA40D00734D400F01F
:10532000ABFA401B0328E0D303202EE000208021AD
:10533000B1FA81F1DFF8AC2442F8210000F09CFAC8
:1053400005004020B0FA80F050F02000C0B24009C3
:10535000C0B2012803D1DFF8C003006802E0DFF823
:10536000F00300684021B1FA81F111F01F01020041
:10537000CA40D00708D500F07FFA401B0328E0D3CD
:10538000032002E0012000E0002032BDF8B5040057
:105390000D000026DFF85C04006810F00100A84250
:1053A0001BD2012D07D1DFF84C04006850F0040037
:1053B000DFF840140860DFF83C0400684008400053
:1053C0002843DFF830140860DFF82804006810F084
:1053D0000100A84201D001202CE12078800709D5E6
:1053E000DFF86003006830F0F000A1680843DFF8E0
:1053F000541308602078C00740F1CB806068022811
:105400001DD14FF48040B0FA80F050F02000C0B2BF
:105410004009C0B2012803D1DFF8FC02006802E0B5
:10542000DFF82C0300684FF48041B1FA81F111F0EC
:105430001F010200CA40D0075CD40120FAE0606876
:1054400003281AD14020B0FA80F050F02000C0B2FA
:105450004009C0B2012802D1AF48006802E0DFF87D
:10546000F00200684021B1FA81F111F01F01020041
:10547000CA40D0073ED40120DCE0606801281CD17E
:105480005FF08040B0FA80F050F02000C0B24009D8
:10549000C0B2012802D1A048006802E0DFF8B002E3
:1054A00000685FF08041B1FA81F111F01F01020044
:1054B000CA40D0071ED40120BCE05FF48000B0FADF
:1054C00080F050F02000C0B24009C0B2012802D1E3
:1054D0009148006802E0DFF8780200685FF480011C
:1054E000B1FA81F111F01F010200CA40D00701D4C6
:1054F00001209FE0934800688008800061680843AD
:105500009049086000F0B8F90600606802280ED1E2
:105510008C48006810F00C0008283AD000F0ACF974
:10552000801B41F289318842F2D3032082E0606817
:1055300003280ED18348006810F00C000C2828D0F6
:1055400000F09AF9801B41F289318842F2D303209E
:1055500070E0606801280ED17A48006810F00C00F5
:10556000042816D000F088F9801B41F28931884266
:10557000F2D303205EE07348006810F00C0F08D0EF
:1055800000F07AF9801B41F289318842F3D303207D
:1055900050E0DFF86002006810F0010085421BD285
:1055A000012D07D1DFF84C02006850F00400DFF84D
:1055B00044120860DFF83C020068400840002843BD
:1055C000DFF830120860DFF82C02006810F00100EC
:1055D000A84201D001202DE02078400707D5594886
:1055E000006830F4E060E1680843564908602078BC
:1055F000000708D55348006830F46050216950EA2C
:10560000C1005049086000F016F84E4909685FF083
:105610007062B2FA82F2DFF8E03111F0F0010F00AF
:10562000D740F95C0200CA40484802600F2000F0F1
:105630000BF90020F2BDF0B5002100220023002468
:10564000002500203F4E3668310011F00C06042E74
:1056500004D0082E05D00C2E06D032E0684E300063
:1056600042E0684E30003FE04FF47056B6FA86F6DE
:10567000654F11F4701CE6463EFA06FE1EF8076000
:1056800032004FF44076B6FA86F6604F11F4400CC3
:10569000E6463EFA06FE1EF807603300294E3668DD
:1056A000F60306D5574E06FB02F6B6FBF3F63400BA
:1056B00005E0534E06FB02F6B6FBF3F6340020007D
:1056C00012E0534E366816F460465FF4E027B7FAEE
:1056D00087F7B4463CFA07FC654601266F1CBE40BE
:1056E0004FF400477E433000F0BD18480068704713
:1056F00010B5FFF7FAFF0100124800685FF460027E
:10570000B2FA82F2434B10F4E0600400D440E25C51
:105710000800D04010BD00000038024010B5FFF76F
:10572000E4FF0100074800685FF4E012B2FA82F279
:10573000384B10F460500400D440E25C0800D040C4
:1057400010BD0000083802400438024070040020F8
:105750003438024070B582B0040000250026274886
:10576000006810F0F00F24D120480068C00003D575
:1057700002F028FF050014E01C48006850F080503B
:105780001A4908601948006810F08050009000988D
:1057900002F018FF05001548006830F080501349EA
:1057A0000860B5F5C05F04D1B4F5404F01D10120C8
:1057B0000600012E05D10F48006850F004000D4985
:1057C00008600C4800684008400030430949086000
:1057D0000848006810F00100B04201D0012000E04C
:1057E000002076BD00004742800647422438024030
:1057F00000700040003C02406CE70008083802409E
:105800000024F40000127A008CE70008C0E70008CA
:1058100004380240A4E7000880B51F48006850F033
:1058200004001D4908601C48006850F002001A4935
:1058300008600320FDF768FD0F2000F005F800F078
:1058400002F8002002BD704710B50400134800683C
:105850004FF47A71B0FBF1F0FDF776FD00222100E4
:105860005FF0FF30FDF756FD002010BD0C480068CA
:10587000401C0B490860704709480068704711B523
:1058800081B00024FFF7F8FF0400FFF7F5FF001BCD
:1058900001998842F9D313BD003C024070040020F6
:1058A000100A002000B593B001A8142102F092FE66
:1058B00006A8342102F08EFE0220069001200990F5
:1058C00010200A9002200F90002010905FF400201A
:1058D00011905FF40000129006A8FFF73BF9002832
:1058E00001D0FFF735F91648006850F08050144990
:1058F00008601348006810F080500090009811482C
:10590000006830F4C05050F400600E4908600E4842
:105910000068C006FBD40F200190032002900020F5
:1059200003900020049000200590012101A8FFF7BA
:105930002DFD002801D0FFF70BF913B000BD00BF0B
:1059400024380240007000400470004010B586B05A
:105950000400E4B2002C0ED1DFF81801006850F00A
:105960000100DFF810110860DFF80801006810F08E
:10597000010000900098DFF80001E4B230F8140054
:10598000019001200290002003900220049001A9C0
:10599000DFF8E800E4B250F82400FDF721FB002214
:1059A000DFF8D400E4B230F81410DFF8D000E4B22D
:1059B00050F82400FDF70AFC06B010BD30B587B0E2
:1059C00004000D00E4B2002C0ED1DFF8A80000683E
:1059D00050F00400DFF89C100860DFF898000068C1
:1059E00010F0040000900098DFF89400E4B230F862
:1059F000140001900020039001200490EDB2002DCE
:105A000009D10020029001A9DFF87800E4B250F833
:105A10002400FDF7E5FAEDB2012D1AD1DFF8680098
:105A2000029001A9DFF85C00E4B250F82400FDF711
:105A3000D7FA00220F21DFF85400E4B2205640B21A
:105A4000FDF768FCDFF84400E4B2205640B2FDF7F1
:105A500074FC07B030BD10B50400DFF82400E4B2D8
:105A600030F81410DFF81C00E4B250F82400FDF701
:105A7000A1FB10BD1C3802406E2B000868040020FA
:105A8000A22B00086C04002000002110524B0008DB
:105A900000B587B03048006850F001002E4908601A
:105AA0002D48006810F00100009000982A48006816
:105AB00050F00100284908602748006810F00100F4
:105AC000009000982548006850F400302349086091
:105AD0002248006810F400300090009804200190E3
