:020000040800F2
:10000000C8050020F1340008D9340008DB340008AA
:100010000D350008113500081535000800000000F6
:10002000000000000000000000000000193500087A
:10003000DD340008000000001D350008DF34000832
:100040002135000825350008293500082D35000820
:100050003135000835350008393500083D350008D0
:100060004135000845350008E334000849350008EB
:100070004D35000851350008553500085935000840
:100080005D350008613500086535000869350008F0
:100090006D350008713500087535000879350008A0
:1000A0007D35000881350008853500088935000850
:1000B0008D35000891350008953500089935000800
:1000C0009D350008A1350008A5350008A9350008B0
:1000D000AD350008B1350008B5350008B935000860
:1000E000E9340008BD350008C1350008C5350008F1
:1000F000C9350008CD350008D1350008D5350008D0
:10010000D9350008DD350008E1350008E53500087F
:10011000E9350008ED350008F1350008F53500082F
:10012000F9350008FD3500080136000805360008DD
:10013000093600080D36000811360008153600088B
:10014000193600081D36000821360008253600083B
:10015000293600082D3600083136000835360008EB
:10016000393600083D36000841360008453600089B
:10017000493600084D3600085136000800000000DE
:10018000553600085936000838B50FF2500100F016
:1001900027F8012821D00421204600F012FF70B179
:1001A0004021204600F01FFF48B10021204600F00A
:1001B0005EFE20B100F036FA00F0CEFE08B9012054
:1001C00032BD0021204600F0B9F9012805D000A970
:1001D000204600F007FA00F03BFA32BD01010100B1
:1001E0000A68044600A80260A0680568204600F07E
:1001F000ABBA38B50446FFF7F7FF012827D02046F1
:1002000000F065FB012822D0204600F08BFD01287C
:100210001DD0204600F0A5FB012818D0204600F094
:10022000ADFC012813D0204600F014FD01280ED0AB
:10023000204600F0F6FB012809D0204600F036FCED
:10024000012804D0204600F012F800F007FA32BD71
:1002500010B504462079012807D000F005FA00F017
:1002600091FA012802D001202071002010BD10B5A4
:100270000446207978B1A0680168204600F046F86D
:10028000012808D00021204600F066FE08B90120B0
:1002900010BD0020207110BD00F052BA00F054BA19
:1002A0003EB500F015FA00F064FA012805D000A967
:1002B000204600F009F800F0DDF93EBD1CB50C4603
:1002C00000A900F056FA0AE210B582B00C4600A967
:1002D00000F03DFEB8B19DF8000030B104280DD00B
:1002E000082805D00C2806D00BE09FED860A57E0C1
:1002F0009FED850AFBE79FED850AF8E79FED840AED
:10030000F5E700F0FAF8012016BD000010B582B044
:100310000C4600A900F02CFE08B9012016BD9DF87E
:100320000000B0B1102817D0202818D0302819D0DC
:1003300040281AD050281BD060281CD070281DD00F
:1003400080281ED090281FD0A02820D0B02821D0EF
:1003500023E09FED700A23E0B2EE0A0AFBE7B3EE5A
:100360000A0AF8E79FED6C0AF5E79FED6C0AF2E7E1
:100370009FED6B0AEFE79FED6B0AECE79FED6A0AD2
:10038000E9E79FED6A0AE6E79FED690AE3E79FED7B
:10039000690AE0E79FED680ADDE700F0AEF8BCE728
:1003A00084ED000A002016BD80B50279012A13D120
:1003B00061B1022908D009D3042901D002D309E090
:1003C000402104E0302102E0202100E0102100F073
:1003D000C3FDA8B9012002BD8068006869B1022987
:1003E00008D00AD3042901D002D3F3E74B4906E031
:1003F000494904E0DFF8801401E0DFF87417016078
:10040000002002BD80B50179012904D100F0BAF9BC
:1004100001284FD102BD00F075F948BFB2EE0A0ABB
:1004200046D400F079F948BFB3EE0A0A40D4DFEDB4
:10043000800A00F073F948BF9FED370A38D4DFED2A
:100440007D0A00F06BF948BF9FED340A30D4DFED30
:100450007A0A00F063F948BF9FED310A28D4DFED36
:10046000770A00F05BF948BF9FED2E0A20D4DFED3C
:10047000740A00F053F948BF9FED2B0A18D4DFED42
:10048000710A00F04BF948BF9FED280A10D4DFED48
:100490006E0A00F043F948BF9FED250A08D4DFED4E
:1004A0006B0A00F03BF94CBF9FED220A9FED220A38
:1004B00080ED000A002002BD10B582B00C4600A9F4
:1004C00000F045FDB8B19DF8000030B104280DD012
:1004D000082805D00C2806D00BE0B0EE000A5FE734
:1004E000B1EE000AFBE7B2EE000AF8E7B3EE000A4D
:1004F000F5E700F002F8012016BDDFF8780620606D
:100500007047000023DB793D23DBF93D23DB793E97
:1005100023DBF93E00000000000050420000D04202
:10052000000050430000D043004050440080CF44BE
:10053000002050450020D0450048504680B519B1F4
:10054000022904D001D304E01CE00821FCE70C21BF
:10055000FAE7012002BD0000DFED670A80B500F078
:10056000DDF848BF00210DD4DFED640A00F0D6F8B5
:1005700048BF082106D4DFED620A00F0CFF84CBF77
:100580000C21042100F0D2FC401E8041C00F02BDAE
:1005900038B50D4604460DF1020100F064FD50B17E
:1005A0000DF10101204600F077FD20B100A92046A1
:1005B00000F089FD08B9012032BD9DF8020008282D
:1005C0000CBF0120002028709DF8010010280CBFEE
:1005D0000120002068709DF8000020280CBF012039
:1005E0000020A3E038B50D460446287801280CBF4A
:1005F00008210021204600F021FD40B16878012843
:100600000CBF10210021204600F031FD08B9012067
:1006100032BDA87801280CBF20210021204600F01F
:1006200040FD86E0DFF80001286000212046704789
:10063000010050420100D042010050430100D0436C
:10064000014050440180CF44012050450120D04555
:10065000012802D00120E07000207047012802D05C
:1006600000202860E0707047A068006890ED000AE4
:100670002046704701282AD0BDF90400DDED000AAC
:1006800000EE100AB8EEC00A20EE200ABDEEC00A45
:1006900085ED000ABDF90600DDED000A00EE100A46
:1006A000B8EEC00A20EE200ABDEEC00A85ED010AB0
:1006B000BDF90800DDED000A00EE100AB8EEC00A30
:1006C00020EE200ABDEEC00A85ED020A0020704728
:1006D0000446002000900D4601A9204670470128DD
:1006E00008D0BDF80000208000A841886180808883
:1006F000A080002016BD00000100004001008040E5
:100700000100004180680068DFED420AB4EE600A33
:10071000F1EE10FA70470000DFED4E0AB4EE600A09
:10072000F1EE10FA704700000000D042A8700020DF
:1007300032BD00F001F832BD401E8041C00F70474D
:1007400080B500F0EBFB1FE710B582B00446002037
:100750008DF8000000A92046FFF7F2FF012807D01E
:100760009DF800002178884201D0012016BD0020AC
:1007700016BD1CB500F066F800F0C0FE08B90120F7
:1007800016BD49E0DFED230A80B5FFF7C7FF48BF7C
:1007900010213CD4FFF7C0FF48BF202137D4DFED44
:1007A0002E0AFFF7BBFF48BF302130D4DFED2B0A04
:1007B000FFF7B4FF48BF402129D4DFED290AFFF736
:1007C000ADFF48BF502122D4DFED260AFFF7A6FF78
:1007D00048BF60211BD4DFED240AFFF79FFF48BF0D
:1007E000702114D4DFED210AFFF798FF48BF802164
:1007F0000DD4DFED1F0AFFF791FF48BF902106D40B
:10080000DFED1C0AFFF78AFF4CBFA021B02100F0EA
:10081000A3FBB9E60100504100A841789DF80020F3
:10082000090251FA82F1218082789DF8031002EBCF
:100830000121618000799DF8051000EB0120A08066
:10084000002016BD0C4600A9002200230CC100A9FF
:10085000704700000100D041010050420100D04229
:10086000010050430100D043014050440180CF4477
:10087000012050450120D0450000D04110B500F0C6
:1008800071F9012822D000F00DF988B10621204627
:1008900000F0B9FD60B100F001F948B10021204637
:1008A00000F07CFD20B10021204600F06AFD08B96F
:1008B000012010BD0321204600F02BF8012805D0AF
:1008C0001021204600F0F0FDFFF736FF10BD10B5F7
:1008D0000446002100F0E8FD20B10021204600F090
:1008E00092FD08B9012010BD0021204600F07CFDDA
:1008F000A7E010B582B00C4600A900F025FC30B18D
:100900009DF8000010B1202801D1012052E0012003
:1009100016BD80B500F068FDFFF736BE10B500F0DB
:100920007BF8012818D000F0BDF868B117212046E7
:1009300000F054F801280FD000F00FF820B140214A
:10094000204600F08DFC08B9012010BD8021204612
:1009500000F0BEFAFFF7F0FE10BD0421204600F0C3
:10096000DFBB10B50446002100F0B2FA40B100210F
:10097000204600F075FC18B10021FFF7EFFF08B921
:10098000012010BD0021204600F028F8012818BFE2
:10099000002010BD10B582B00C4600A900F01CFC70
:1009A00030B19DF8000010B1102801D1012001E004
:1009B000012016BD2070002016BD80B500F0BDFDE1
:1009C000FFF7E2BD80B5022100F08FFBFFF7DCBD31
:1009D00080B5002100F089FBFFF7D6BD80B500F09F
:1009E000BCFDFFF7D1BD10B500F016F8012812D0FC
:1009F00000F058F838B1FFF7B0FF20B120212046B1
:100A000000F01CFC08B9012010BD0221204600F0B6
:100A100027FDFFF791FE10BD0446B3EE0A0AFFF76B
:100A2000F1BC10B50446002100F01AFD20B10021F0
:100A3000204600F003FC08B9012010BD0021FFF79B
:100A40008DFF401E8041C00F10BD10B582B00C4616
:100A500000A900F0CAFB30B19DF8000010B12028B9
:100A600001D10120A6E7012016BD10B500F07AF8EB
:100A7000012812D000F016F838B100F00FF820B1BC
:100A80000221204600F05AFC08B9012010BD2021A7
:100A9000204600F01BFDFFF74FFE10BD0021204651
:100AA00000F08EBC0021204600F040BA10B504468C
:100AB000002100F00BFD10B1FFF7F0FF08B9012095
:100AC00010BD0021204600F039FCBAE710B582B015
:100AD0000C4600A900F030FB30B19DF8000010B1C9
:100AE000082801D1012065E7012016BD80B500F07E
:100AF00025FCFFF749BD10B500F034F8012821D0DE
:100B0000FFF7D0FF40B100F029F828B100F022F83B
:100B100010B100F01BF808B9012010BD00F013F867
:100B200001280FD0022100F050F801280AD001213D
:100B300000F048F8012805D04021204600F0D2FC02
:100B4000FFF7FAFD10BD08212046C1E00221204632
:100B500000F050BB0421204600F058BB082120467D
:100B600000F060BB04469FED040AFFF74BBC000099
:100B700000005041000080BF0000D04310B5044683
:100B8000002100F0AFFCA0B10021FFF7DDFF01283C
:100B900016D000F019F8012812D000F012F8012840
:100BA0000ED00021FFF7D3FF18B10021FFF7D3FFCC
:100BB00008B9012010BD0021FFF7D1FFFFF7BCFDF0
:100BC00010BD002120468DE00021204685E010B5B3
:100BD00082B00C4600A900F0C5FA30B19DF80000C3
:100BE00010B1202801D10120E4E6012016BD10B586
:100BF000FFF7B8FF01282CD0FFF754FF08B3FFF729
:100C0000ADFFF0B1FFF7A6FFD8B1FFF79FFFC0B16E
:100C1000FFF799FF01281CD00321FFF7D6FF012819
:100C200017D00321FFF7CEFF012812D0082120465C
:100C300000F05DF801280CD08021204600F095FBE3
:100C400008B9012010BD0821204600F021FCFFF763
:100C500073FD10BD10B50446002100F019FCF8B179
:100C60000021FFF771FF012821D0FFF7ADFF012818
:100C70001DD0FFF7A6FF012819D00021204600F063
:100C800036F8012813D00021204600F06EFB38B161
:100C90000021FFF75CFF18B10021FFF75CFF08B9E6
:100CA000012010BD0021FFF75AFFFFF745FD10BDE1
:100CB00010B582B00C4600A900F04FFA30B19DF893
:100CC000000010B1102801D1012073E6012016BDEB
:100CD00080B500F0D1FAFFF757BC80B500F0F3FA09
:100CE000FFF752BC80B500F0FBFAFFF74DBC80B5B2
:100CF00000F010FBFFF748BC10B5FFF733FF0128E9
:100D00000FD0FFF7CFFE20B14021204600F0C0FAFF
:100D100008B9012010BD0421204600F0ADFBFFF70B
:100D20000BFD10BD10B50446002100F0A5FB08B96D
:100D3000012010BD0021204600F0AAFA81E610B57E
:100D400082B00C4600A900F033FA30B19DF80000E3
:100D500010B1402801D101202CE6012016BD10B5AC
:100D600082B00C4600A900F002FA30B19DF80000F4
:100D7000002818BF012800D11CE6012016BD10B5BF
:100D800082B00C4600A900F0F7F930B19DF80000E0
:100D900010B1022801D101200CE6012016BD10B5CA
:100DA00082B00C4600A900F0ECF930B19DF80000CB
:100DB00010B1042801D10120FCE5012016BD10B5B9
:100DC00082B00C4600A900F0E1F930B19DF80000B6
:100DD00010B1082801D10120ECE5012016BD10B5A5
:100DE00082B00C4600A900F0D9F930B19DF800009E
:100DF00010B1102801D10120DCE5012016BD10B58D
:100E000082B00C4600A900F0CEF930B19DF8000088
:100E100010B1202801D10120CCE5012016BD000031
:100E200080B5012305E004B5012300AA00F00AFC07
:100E300001E000F00FFC401E8041C00F02BD38B53C
:100E400000F0BBF90121FFF7EBFF30B100F0E9F84A
:100E5000012100F0F0F800B1012032BDFFF7E0FF02
:100E600020B1207800F040002070012010BD38B57E
:100E700000F012F830B100F006F80A2100F0DBF8BB
:100E800000B1012032BD9DF8000000F0F8002843B9
:100E90008DF80000024670470D46044600AA0A215C
:100EA000BEE70D46044600AA0D21B9E7FFF7B8FFDB
:100EB00020B1207800F010002070012010BDFFF755
:100EC000AFFF20B1207800F020002070012010BD7D
:100ED00038B5FFF7E6FF28B100F0A3F800F0AAF854
:100EE00000B1012032BDFFF79BFF20B1207800F058
:100EF00001002070012010BDFFF792FF20B1207883
:100F000000F002002070012010BDFFF789FF20B122
:100F1000207800F004002070012010BD80B50A4642
:100F20000F21FFF77DFF00B1012002BD38B500F0B1
:100F300009F830B100F021F8102100F07CF800B180
:100F4000012032BD0D46044600AA102168E710B505
:100F50000C462246102119E038B5FFF7F3FF30B1F7
:100F600000F01DF8102100F066F800B1012032BD3C
:100F700010B50C46224610211AE09DF8000000F042
:100F8000F30028438DF8000002467047FFF748FF42
:100F900020B1207800F00C002070012010BD9DF8D9
:100FA000000000F00F0028438DF800000246704753
:100FB000FFF736FF20B1207800F0F000207001200C
:100FC00010BD38B500F009F830B100F085F81221F5
:100FD00000F031F800B1012032BD0D46044600AAF0
:100FE0001221FFF71DBF38B5FFF7F7FF30B100F052
:100FF0000FF8122100F01FF800B1012032BD9DF85A
:10100000000000F0DF0028438DF800000246704722
:101010009DF8000000F0BF0028438DF80000024654
:1010200070479DF8000000F07F0028438DF8000015
:10103000024670470D212046FFF7F5BE38B500F097
:101040003CF830B100F006F81821FFF7F4FF00B1CA
:10105000012032BD9DF8000000F0F70028438DF814
:1010600000000246704710B500F032F8ABE038B52A
:1010700000F023F830B100F006F81821FFF7DBFF8D
:1010800000B1012032BD9DF8000000F0EF002843C0
:101090008DF800000246704710B500F019F8FFF710
:1010A00005BF38B500F009F830B1FFF7A8FF1821E7
:1010B000FFF7C1FF00B1012032BD0D46044600AA72
:1010C0001821FFF7ADBE10B500F002F8FFF7F7BE2C
:1010D0000C462246182170479DF8000000F0FB00E6
:1010E00028438DF800000246704738B500F012F82A
:1010F00030B100F006F81921FFF79DFF00B1012083
:1011000032BD9DF8000000F0FD0028438DF800007E
:10111000024670470D46044600AA1921FFF780BE1B
:1011200038B5FFF7F7FF30B1FFF7D6FF1921FFF70A
:1011300082FF00B1012032BD10B500F001F842E09D
:101140000C4622461B21704710B5FFF7F9FFFFF749
:10115000B6BE0C4622461C21704710B5FFF7F9FFBA
:10116000FFF7A4BE10B5FFF7F4FFFFF7A8BE10B558
:1011700000F010F8FFF7B7BE10B500F00BF8FFF75E
:10118000BBBE10B500F006F8FFF7BFBE10B500F00B
:1011900001F818E00C4622461D21704710B5FFF7F4
:1011A000F9FFFFF783BE10B5FFF7F4FFFFF787BE27
:1011B00010B5FFF7EFFFFFF751BE0D46044600AA3A
:1011C000704700F00EF8FFF72BFE20B1207800F0FA
:1011D00008002070012010BD10B500F002F8FFF7E4
:1011E00065BE0C4622465321704710B5FFF7F9FF44
:1011F000FFF765BE38B500F02DF830B1FFF781FF7D
:101200005821FFF718FF00B1012032BD38B500F0BA
:1012100021F830B1FFF760FF5821FFF70CFF00B154
:10122000012032BD38B500F015F830B1FFF712FFDC
:101230005821FFF700FF00B1012032BD38B500F0A2
:1012400009F830B1FFF7DBFE5821FFF7F4FE00B1DB
:10125000012032BD0D46044600AA5821FFF7E0BD2B
:1012600038B5FFF7F7FF30B1FFF7D2FE5821FFF78F
:10127000E2FE00B1012032BD38B500F01EF830B1F9
:1012800000F078F95921FFF7D6FE00B1012032BDF8
:1012900038B500F012F830B100F006F85921FFF728
:1012A000CAFE00B1012032BD9DF8000000F09F0091
:1012B00028438DF80000024670470D46044600AAF8
:1012C0005921FFF7ADBD38B500F01EF838B19DF8D3
:1012D000000065F3010000F010F800B1012032BDFC
:1012E00038B500F011F838B19DF8000065F38300BF
:1012F00000F003F800B1012032BD8DF80000024675
:101300005A212046FFF78FBD0D46044600AA5A21F8
:10131000FFF786BD38B5FFF7F7FF70B19DF8000005
:1013200000F00F0040EA05108DF800005A219DF8EA
:101330000020FFF780FE00B1012032BD38B500F07B
:101340000EF858B19DF8000065F305008DF8000017
:1013500002465B21FFF76FFE00B1012032BD0D4652
:10136000044600AA5B21FFF75BBD38B5FFF7F7FF26
:1013700030B1FFF756FE5B21FFF75DFE00B10120A3
:1013800032BD38B500F016F838B19DF8000065F3AD
:10139000030000F022F800B1012032BD38B500F0A2
:1013A00009F830B1FFF76FFE5C21FFF744FE00B192
:1013B000012032BD0D46044600AA5C21FFF730BD76
:1013C00038B5FFF7F7FF38B19DF8000065F3461018
:1013D00000F003F800B1012032BD8DF80000024694
:1013E0005C212046FFF71FBD38B5FFF7E6FE5D2103
:1013F000FFF716FD30B1FFF746FD5D21FFF71BFE3D
:1014000000B1012032BD70B582B0044600AA0E467C
:101410005D21FFF705FD750908B39DF8000000F098
:10142000070040EAC6008DF800005D219DF800200D
:10143000FFF701FE98B100AA5C2100F0A4F870B19A
:101440009DF8000000F07F0040EAC5108DF8000014
:101450005C219DF80020FFF7EEFD00B1012076BD74
:1014600038B500F02DF830B1FFF74BFE5E21FFF7E5
:10147000E2FD00B1012032BD38B500F021F830B1F5
:10148000FFF72AFE5E21FFF7D6FD00B1012032BD35
:1014900038B500F015F830B1FFF7DCFD5E21FFF73D
:1014A000CAFD00B1012032BD38B500F009F830B1F5
:1014B000FFF7E9FD5E21FFF7BEFD00B1012032BD5F
:1014C0000D46044600AA5E21FFF7AABC38B5FFF717
:1014D000F7FF30B1FFF793FD5E21FFF7ACFD00B1E0
:1014E000012032BD38B5FFF7EBFF30B1FFF790FDBB
:1014F0005E21FFF7A0FD00B1012032BD2DE9F041D2
:1015000080460D46002603270224F6B206F1280184
:1015100000F009F828B1761C641EF6D17F1EF3D1C5
:101520000120BDE8F0817219C9B24046FFF778BCCE
:101530007219C9B22046FFF773BCF8B504460D46D0
:1015400000260227F6B206F14B01FFF7F1FF18B1B2
:10155000761C7F1EF6D10120F2BD38B500F01AF8D6
:1015600000AA0F2100F00FF800F004F80F21FFF798
:1015700062FD0BE09DF8000065F304008DF80000AB
:101580000246704707212046FFF74ABC00F007F8E3
:10159000012032BD0D4604468021FFF750BC0021DA
:1015A0002046FFF74CBC000080B500F06BF800B19E
:1015B000012002BD0020704730B55F4C5F4D8BB0FD
:1015C000206840F00100206006A9206800F00100BA
:1015D00000900098079510200690022009900020A6
:1015E00008904FF0904000F0B5F800F020F80A2085
:1015F00000F0EFF9206840F00200206001A92068A7
:1016000000F002000090009802950120019000F087
:1016100014F84B4800F09EF800221146062000F016
:10162000BBF9062000F0D5F900200BB030BD002238
:1016300000210A2000F0B0B902900220049000209E
:101640000390704710B5447884B000F011F800F0B2
:101650005DFA06E010B5447884B000F009F800F0B7
:10166000BEFA18B1204600F060F8012004B010BDA9
:101670004FF480500092029001930A4601232146C4
:101680003048704730B52F4C87B0204600F046FBFD
:10169000002841D12C482D4D606001A93320A06065
:1016A0000120E0602A482060686940F0020068611B
:1016B000686900F00200009000984FF440700190BB
:1016C0001220FFF7B9FF042005901D4800F042F8F2
:1016D000286A40F4001028620022286A00F40010F2
:1016E000009000210098286840F4001028602868C5
:1016F00020F4001028601F2000F04EF91F2000F099
:1017000068F900221146202000F046F9202000F060
:1017100060F9204600F088F9204600F0FFFA202802
:101720000CBF0020012007B030BD80B5054800F097
:10173000C6F9BDE80140A5E74C10024000001110B9
:1017400000040048300100203A14D1103810024043
:10175000005400402DE9F8470022784BDFF8E08183
:10176000DFF8E0914FF00F0A30E005FA0EFE4EEA86
:10177000040448F82C406FEA070C1C680CEA040EBD
:101780004C68E40348BF47EA0E0EC3F800E05C680B
:101790000CEA040E4C68A40348BF47EA0E0EC3F8D7
:1017A00004E09C680CEA040E4C68E40248BF47EA77
:1017B0000E0EC3F808E0DC680CEA040C4C68A402C6
:1017C00048BF47EA0C0CC3F80CC0521C0F6837FA2C
:1017D00002F400F09B804FF0010C0CFA02F4274059
:1017E000F3D04D68022D18BF122D11D1D50800EB92
:1017F000850C02F00706DCF820504FEA860E0AFA44
:101800000EF6B5430E6906FA0EF63543CCF82050B5
:101810004FEA420C0326056806FA0CF66FEA060E3C
:101820000E7906F003060EEA050506FA0CF63543B6
:101830000560E4434D68012D18BF022D03D0112D22
:1018400018BF122D0FD18568CE680EEA050506FA7D
:101850000CF63543856045684E68C6F30016254092
:101860009640354345604D6805F00306032E06D1CA
:10187000C66AC5F3C005344095402C43C462C468B1
:101880000EEA040E8C6804FA0CF444EA0E04C460F8
:101890004C68E40099D5D9F8004044F00104C9F837
:1018A00000404FEA920CD9F8004004F00104009483
:1018B00002F00305009C58F82C404FEA850E0AFA06
:1018C0000EF5AC43B0F1904F08BF00251DD01E4D62
:1018D000A84208BF012518D01C4DA84208BF022508
:1018E00013D01B4DA84208BF03250ED0194DA842A6
:1018F00008BF042509D0184DA84208BF052504D00B
:10190000164DA8420CBF062507252EE7BDE8F18736
:101910000069084018BF0120C0B270470AB1816158
:101920007047816270470E4A1368034200D17047C6
:1019300080B5106000F06AFB01BD000000040140AA
:101940000800014060100240000400480008004800
:10195000000C00480010004800140048001800481F
:10196000140401400901002806D5294A00F00F009F
:10197000801800F8041C7047264A81547047264995
:101980000A684FF6FF031A4000F0070042EA002001
:10199000224A10430860704770B51F4B1B68C3F3A1
:1019A00002230124C3F10705052D2EBF0F2504FADC
:1019B00005F56D1E1E1D072E34BF0023DB1E2940BA
:1019C000994004FA03F3BDE870405B1E1A401143CE
:1019D000C8E7012100F01F029140114AFFE74009CA
:1019E00042F82010704710B5401EB0F1807F01D33F
:1019F000012010BD0B4C60600F214FF0FF30FFF74E
:101A0000B1FF0020A06007202060002010BD000072
:101A100018ED00E000E400E00CED00E00000FA0545
:101A200000E100E010E000E038B5040001D1012041
:101A300032BD04F13C05687818B92870204600F0E2
:101A400059F800F04FF86068216820F07060086174
:101A50002068816821F400418160A06840B1E1689C
:101A6000012921680CBF40F4004040F40440886024
:101A7000E068022803D121684FF4006048602068C4
:101A8000416841F0007100F03DF820696169084348
:101A9000A16940EA01202168C860E069216A084321
:101AA000216808602068016841F0010101600020A0
:101AB00068602020687000202063A87032BD38B5AF
:101AC000040001D1012032BD04F13C0500F00AF808
:101AD000204600F010F80020686068702063A8704D
:101AE000287032BD242068702068016849084900C8
:101AF00001607047704770474146284600F0A4B91E
:101B00003068416841F40041416070472DE9F74F6A
:101B100000F0D3F850D1DDF830B0BBF1000F1CBF9E
:101B20000D9C002C41D000F056F845D430780128A7
:101B300042D000F0E9F88246212000F0C6F800F01B
:101B4000F0F840B17068042802D1002030702CE019
:101B5000002030702BE0FF2C009003DD00F09EF899
:101B6000FF2702E000F02BF827465246FFF7C4FF9C
:101B7000C0B929681BF8010B7F1EA4F1010488621B
:101B8000A4B20AD15CB1CDF800A0434600F090F8B1
:101B900068B9FF2C0090E5DDE0E7002CE5D100F00E
:101BA00015F830B17068042801D1012005E0032048
:101BB00003E000F09BF800E00220BDE8FE8F4FF04C
:101BC0000073E2B24946284600F0C4B95246414685
:101BD000284600F052B928688069000470472DE952
:101BE000F74F00F06AF856D1DDF830B0BBF1000FC6
:101BF0001CBF0D9C002C47D0FFF7EDFF4BD4307875
:101C0000012848D000F080F88246222000F05DF8DC
:101C100000F0ACF840B17068042802D100203070A8
:101C200032E00020307031E0FF2C4FF41050009073
:101C300003DD00F033F8FF2702E0FFF7C0FF27467F
:101C4000CDF800A043460022042100F033F8E8B9A3
:101C50002868406A7F1EA4F101040BF8010BA4B2AE
:101C60000AD15CB1CDF800A0434600F021F868B974
:101C7000FF2C0090E1DDDCE7002CE1D1FFF7A6FFAF
:101C800030B17068042801D1012005E0032003E091
:101C900000F02CF800E00220BDE8FE8F4FF08073CA
:101CA000FF224946284600F055B9CDF8009053462A
:101CB00000228021284600F099B8054605F13C062F
:101CC0008946707820281F46704770703B46402038
:101CD000B070494600207060CDF804A02846DDF8B9
:101CE0003880BDF80820CDF8008070472968084A80
:101CF0002020C86128684168114041602020707030
:101D00000020B070307070470120307000F0BBB917
:101D100000E800FEF2B2204600F01CB990F83D0049
:101D200070472DE9F04182B000F046F84FF0807323
:101D3000FFF7F0FF00F053F818B1206C042812D11F
:101D40000AE0012E0AD02168280A886200F04AF8C9
:101D500020B1206C042806D1012005E000F033F802
:101D600000F039F800B10320BDE8F6812DE9F0411B
:101D700082B000F021F80023FFF7CCFF00F02FF82D
:101D800018B1206C042814D10AE0012E0AD0216871
:101D9000280A886200F026F820B1206C042808D1B7
:101DA000012007E000F00FF80022402100F015F8B4
:101DB00000B10320BDE8F68104464FF400500090C6
:101DC00015461E4670472068EDB28562009743466F
:101DD00070470097192300228021204606E0DDF895
:101DE0002080099F3A46414620462DE0F8B5069FDF
:101DF00004460D461E4672B9206880692840A842F4
:101E000020D016F1010FF7D09EB100F03CF9C01BB5
:101E10008642F1D20DE0206880692840A84211D1A5
:101E200016F1010FF7D026B100F02DF9C01B864244
:101E3000F1D204F13C002021417000218170017039
:101E40000320F2BD0020F2BD70B504460D461646D3
:101E50002068806980070ED400F025F808B10120C1
:101E600070BD15F1010FF3D025B100F00CF9801B06
:101E70008542EDD21BE0002070BD70B504460D46D2
:101E800016462068806980060BD400F00CF808B173
:101E9000012070BD25B100F0F6F8801B8542F0D21C
:101EA00005E0002070BD32462946204613E000F0D0
:101EB00007F820214170002181700170032070BD5E
:101EC00004F13C00416841F0200141607047206806
:101ED00081698906704770B504460D46206880699F
:101EE000C00616461CD5FFF7F2FF0BD415F1010F03
:101EF000F9D025B100F0C7F8801B8542F3D204F178
:101F00003C00D6E71021C16120202168C86100F0A3
:101F100017F800F00EF8042100F004F8012070BD5D
:101F2000002070BD4160202141700021817001704E
:101F30007047104A41681140416004F13C0070470D
:101F400020688169C90703D4816941F00101816179
:101F50002068704730B50068074D44682C408905FB
:101F600054EA915141EA0241039A194311434160F5
:101F700030BD000000E800FE009800FC10B582B003
:101F800000208DF8000000F05BF800F08FF80020D2
:101F900000F0E6F80121002000F01CF9264C211D7C
:101FA000012000F07BF9012803D1002000F0FCF8AB
:101FB000FEE7606800F014FA207890B1606800A92C
:101FC00000F037FA58B99DF8000040B1002000F049
:101FD000EBF8642000F05AF8002000F0F0F8002040
:101FE0002070607838B1606800F007FA18B90120F5
:101FF000E07000206070A0780028DDD0606800F0FC
:102000000AFA0028D8D1E070A070D5E710B5B0F575
:10201000005F094C0BD1002000F01CF958B9E078A2
:10202000002819BF0120A0700120607010BD102889
:1020300004BF0120207010BD1C010020FEE700003D
:1020400080B50320FFF79BFC0F2000F005F800F09F
:1020500002F8002002BD704710B504461148006820
:102060004FF47A71B0FBF1F0FFF7BDFC002221467E
:102070004FF0FF30FFF790FC002010BD0A480168C8
:10208000491C0160704708480068704738B504462D
:10209000FFF7F9FF0546FFF7F6FF401BA042FAD312
:1020A00031BD00002C010020C401002000B595B016
:1020B00000A8142100F0CCF90FF2640105A891ECFE
:1020C000100B80EC100B1020059001200B9060206D
:1020D0000D9000200C9002200E9001200F90109087
:1020E00028201190022014900720129004201390B1
:1020F00005A800F0B1F908B1FFF7A0FF0F2000908C
:10210000042103200190002002900390049000A875
:1021100000F097FB08B1FFF791FF15B000BD00007C
:1021200000000000000000000000000000000000AF
:10213000000000000000000000000000000000009F
:10214000000000000000000000000000000000008F
:10215000000000000000000000000000000000007F
:1021600010B586B0044600F086F83CB9DFF81001DF
:10217000016841F00101016000F010F80FF2101049
:1021800030F8140000F070F802200490DFF8F4003A
:1021900050F82400FFF7DEFA06B010BD006800F02A
:1021A00001000090009870470FF2E401DFF8D4308E
:1021B00031F8101053F820000122FFF7AFBB0FF2E7
:1021C000D001DFF8C03031F8101053F820000022A1
:1021D000FFF7A4BB30B587B004460D4600F04BF8BE
:1021E00054B9DFF89C00016841F004010160006807
:1021F00000F0040000900098DFF88C000FF29401CA
:102200003DB931F8141001910021029100F01AF843
:1022100016E0012D14D131F814100191DFF86C1083
:102220000291002100F00EF80FF26C0030F814401B
:1022300000220F2160B2FFF7AFFB60B2FFF7C9FBCE
:1022400007B030BD03910221049101A950F8240088
:10225000FFF780BA0FF23C01DFF82C2031F81010A4
:1022600052F82000FFF754BB019001A90120029011
:1022700000200390704701A8142100F0E9B8000085
:102280004C100240240100202801002000002110F1
:1022900020000000002000002800000010B50C46BF
:1022A0000021216068B10128204610D000F04DF8CF
:1022B000012804D1204600F010F801280BD000209E
:1022C00010BD204600F009F80128F8D103E000F025
:1022D0003CF80128F3D1012010BD38B5394D044632
:1022E000E878012830D0FFF75FF901282CD068206A
:1022F0002870D620687000206880287101206871DD
:1023000005F12800A8603048E860002028612F48C7
:10231000E86305F13800A8620020E8622560E868FB
:102320000168080004D11421284600F091F807E064
:1023300028468847012804D12068142100F0D2FBE8
:102340004AE0FFF737F9002032BD38B51D4D04468D
:10235000E87D012834D0FFF727F9012830D0692023
:102360002875D42068750120A8750020E8752876A6
:102370000120687605F13000E861154828621548AB
:10238000686205F1400028630020686305F11400CD
:102390002060286A0168080005D1142105F11400A5
:1023A00000F056F808E005F114008847012804D130
:1023B0002068142100F096FB0EE0FFF7FDF80020E6
:1023C00032BD00007801002094000020BC010020F4
:1023D000D80000200000002000202060012032BD35
:1023E00080B518B1C16889680A0001D1012002BD19
:1023F0008847012818BF002002BD00281CBF0169C2
:10240000002906D00278692A03D1896B0A0018BF17
:1024100008470120704700281CBF0169002906D029
:102420000278692A03D1C96B0A0018BF0847012046
:10243000704700281CBF0269002A07D031B1037819
:10244000692B03D1126C130018BF1047012070478D
:10245000002200F04BBB00002DE9F8430446DFF8F2
:102460005C562078DFF84C66C00626D5B06810F0C0
:102470000C0F3AD13068800702D5A069002832D00D
:10248000306800074EBF30686868000900F0F0014E
:10249000206A814206D200F0D0FA002823D100F051
:1024A000BEF905E000F0BBF9206A00F0C6FAD0B929
:1024B00000F06CFAB26800F054FA2078C00774D5C6
:1024C00000F0A9F9082808D000F0A5F90C2802BFEF
:1024D000F06800F0030003282AD13068800364D537
:1024E0006068002861D101208AE1A0690028306875
:1024F00010D040F0010000F085F9074630688007F1
:1025000005D4FFF7C0FDC01B0328F7D375E100F029
:1025100086F9D2E74008400000F074F907463068B9
:102520008007CAD5FFF7AFFDC01B0328F7D364E1CE
:1025300000F06BF920F4802000F064F90746306861
:10254000800305D5FFF79FFDC01B6528F7D354E135
:102550006068B0F5803F07D0B0F5A02F00F055F9C6
:1025600006D140F480203060306840F4803001E0D3
:1025700020F480203060606858B1FFF784FD074682
:102580003068800311D4FFF77EFDC01B6528F7D3A8
:1025900033E1FFF778FD07463068800305D5FFF784
:1025A00072FDC01B6528F7D327E12078800719D575
:1025B00000F031F9042808D000F02DF90C2802BFF2
:1025C000F06800F00300022822D13068400502D5EF
:1025D000E068002887D07068216920F0F85040EA50
:1025E000016070602078000741D560690028686844
:1025F0002ED040F001006860FFF745FD074668688F
:10260000800734D4FFF73FFDC01B0328F7D3F4E065
:10261000E068002830680DD040F4807000F0F2F8D7
:10262000074630684005D6D4FFF72DFDC01B0328B0
:10263000F7D3E2E020F4807000F0E4F80746306859
:102640004005CFD5FFF71FFDC01B0328F7D3D4E00B
:10265000400840006860FFF716FD0746686880077D
:1026600005D5FFF710FDC01B0328F7D3C5E0207880
:10267000400766D5B06DC0004FF000080AD4B06DB9
:1026800040F08050B0654FF00108B06D00F0805010
:1026900000900098DFF82894D9F80000C00512D403
:1026A000D9F8000040F48070C9F80000FFF7EBFC97
:1026B0000746D9F80000C00505D4FFF7E4FCC01BAD
:1026C0000328F6D399E0A06801280CD008B928683F
:1026D0000DE0052828680AD14008400028602868D5
:1026E00040F004002860286840F0010005E0400840
:1026F00040002860286820F00400286041F28939F1
:10270000A06858B1FFF7BFFC07462868800711D4BE
:10271000FFF7B9FCC01B4845F7D36EE0FFF7B3FCE9
:1027200007462868800705D5FFF7ADFCC01B484564
:10273000F7D362E0B8F1000F03D0B06D20F0805005
:10274000B065606A00285AD0B16801F00C010C290C
:102750003FF4C9AE0228306820F08070306038D174
:10276000FFF791FC07463068800105D5FFF78BFC29
:10277000C01B0328F7D340E0E06A216B401E09022A
:1027800041EA0010616B090940EA4140A16A08432F
:10279000A16B891E0905490D40EA4150E16B891E74
:1027A000090601F07E410843F060306840F0807017
:1027B0003060F06840F08070F060FFF764FC07461E
:1027C000306880011BD4FFF75EFCC01B0328F7D3E1
:1027D00013E0F068DFF8EC1280088000F060F06829
:1027E0000840F060FFF74FFC07463068800106D5CF
:1027F000FFF749FCC01B0328F7D3032000E00020AB
:10280000BDE8F2833060FFF73EBC306820F48030D2
:10281000306030687047B06800F00C007047306876
:1028200040F0080030603068216A20F0F000084372
:1028300030607068E16920F47F4040EA01207060F8
:1028400070472DE9F843DFF8806204463068884617
:1028500000F00700404502D200F08EF864D12078E5
:10286000DFF85072800705D5B868A16820F0F00045
:102870000843B8602078C0074ED56068022802D1AE
:102880003968890308E0032802D13968890103E027
:102890000028396802D1890702D445E0490543D5AB
:1028A000B968890840EA8100B86041F28939FFF7C8
:1028B000EAFB0546606802280AD1B86800F00C00FF
:1028C000082829D0FFF7DFFB401B4845F5D321E05E
:1028D00003280AD1B86800F00C000C281CD0FFF7C0
:1028E000D2FB401B4845F5D314E048B9B86810F056
:1028F0000C0F11D0FFF7C7FB401B4845F6D309E08A
:10290000B86800F00C00042806D0FFF7BCFB401BA1
:102910004845F5D3032022E0306800F007008045E9
:1029200004D200F029F801D0012018E020784007F7
:1029300005D5B868E16820F4E0600843B860207805
:10294000000706D5B868216920F4605040EAC1004C
:10295000B86000F01BF8BA6800F003F80020BDE88A
:10296000F2835A49C2F30312515C20FA01F2524831
:1029700002600F20FFF770BB3068C00848EAC00053
:102980003060306800F007004045704749498B6867
:102990000022002013F00C0F09D08B6803F00C0309
:1029A0000C2B02BFCB6803F00303012B13D10A6881
:1029B000120704D4464A1268C2F3032202E00A68EE
:1029C000C2F30312434B53F822208B6813F00C0F11
:1029D0000ED110460CE08B6803F00C03042B08BFEB
:1029E0003D4805D08B6803F00C03082B08BF3B481B
:1029F0008B6803F00C030C2B1ED1C868CB68C3F3A3
:102A000002135B1C00F00300022802D0032802D04E
:102A100005E0314800E03148B0FBF3F001E0B2FBE3
:102A2000F3F0CA68C968C1F34161C2F30622491CC8
:102A300050434900B0FBF1F0704770B5284E82B0AA
:102A4000054630680024C00002D500F069F80EE0A9
:102A5000306840F080503060306800F08050009066
:102A6000009800F05DF8316821F080513160B0F5D8
:102A7000007F04D1812D0DD3A12D0AD305E0812D36
:102A800028BF032406D2802D01D1022402E0702D3C
:102A900000D101240C480168C90844EAC101016061
:102AA000006800F00700A04201D0012076BD0020A0
:102AB00076BD0000001002402C0100209010024062
:102AC00000700040FFFFEEFE002002407833000857
:102AD00094100240883300080024F40000127A00A9
:102AE00058100240002200F023B8000000B500BFDB
:102AF000130096469446103928BFA0E80C50FAD827
:102B00005FEA417C28BF0CC048BF40F8042BC907CE
:102B100028BF20F8022B48BF00F8012B00BD0000A1
:102B2000DFF80800006800F4C060704700700040E3
:102B3000401810F0030308D0C91A1FD3DB0748BFA1
:102B400000F8012D28BF20F8022D130030B41446E0
:102B50001546103928BF20E93C00FAD8490728BF9C
:102B600020E90C0048BF40F8042D890028BF20F858
:102B7000022D48BF00F8012D30BC7047C91818BF9E
:102B800000F8012DCB0728BF00F8012D7047000089
:102B900038B50FF27C5100F01EF801281AD0DFF88A
:102BA000740428604021204600F091FB20B10021F0
:102BB000204600F061FB08B9012032BD002120460B
:102BC00000F041F9012805D000A9204600F08EF957
:102BD00000F0C0F932BD0A68044600A80260A0688F
:102BE0000568204600F023BA38B50446FFF7F7FF22
:102BF000012804D0204600F015F800F0B1F932BDEC
:102C000010B50446207901280AD0A068006890ED2C
:102C1000000A204600F02AFA012802D00120207183
:102C2000002010BD10B50446207978B1A068016875
:102C3000204600F041F8012808D00021204600F08D
:102C40001BFB08B9012010BD0020207110BD00F051
:102C5000EAB900F0ECB93EB500F0B6F900F0FCF9C5
:102C6000012805D000A9204600F00AF800F07EF9FE
:102C70003EBD1CB50C4600A900F0EEF9ABE100002A
:102C800010B582B00C4600A900F0E6FA90B19DF8AC
:102C9000000020B1102805D0182806D008E09FEDCC
:102CA000540ACCE09FED530AFBE79FED530AF8E787
:102CB00000F09EF9012016BD10B50C46816882B067
:102CC000096849680A78012A02D14868206019E039
:102CD00000A900F0EAFA08B9012016BD9DF800002D
:102CE00060B1202810D0402811D0602812D0802850
:102CF00013D0A02814D0C02815D017E09FED8B0A60
:102D000084ED000A002016BDB2EE040AF8E79FED3C
:102D1000880AF5E79FED870AF2E79FED870AEFE75C
:102D20009FED860AECE79FED860AE9E700F060F97F
:102D3000D2E780B50279012A11D151B1022906D01A
:102D400007D3042901D002D307E0602102E040212B
:102D500000E0202100F090FA90B9012002BD8068C7
:102D6000006851B1022906D007D3042901D002D34B
:102D7000F3E7704903E06E4901E0DFF88C1301606E
:102D8000002002BD80B50179012904D100F06EF95F
:102D900001282BD102BD80680068DFED6A0A00F0CF
:102DA00033F948BFB2EE040A1ED4DFED670A00F023
:102DB0002BF948BF9FED5E0A16D400F023F948BFF7
:102DC0009FED5C0A10D4DFED610A00F01DF948BFE9
:102DD0009FED590A08D4DFED5E0A00F015F94CBFEB
:102DE0009FED560A9FED560A80ED000A002002BDB5
:102DF00023DB793D23DBF93D23DB793E10B582B03F
:102E00000C4600A900F028FAB8B19DF8000030B1D6
:102E100008280DD0102805D0182806D00BE0B0EEF9
:102E2000000A0CE0B1EE000AFBE7B2EE000AF8E798
:102E3000B3EE000AF5E700F0DBF8012016BD84EDE3
:102E4000000A002016BD80B519B1022904D001D3B3
:102E500004E01BE01021FCE71821FAE7012002BD85
:102E6000DFED650A80B500F0CFF848BF00210DD432
:102E7000DFED620A00F0C8F848BF102106D4DFED8C
:102E8000600A00F0C1F84CBF1821082100F0C9F910
:102E9000401E8041C00F02BD38B50D4604460DF1FD
:102EA000020100F087F950B10DF10101204600F058
:102EB0009AF920B100A9204600F0ABF908B9012029
:102EC00032BD9DF8020008280CBF012000202870A8
:102ED0009DF8010010280CBF0120002068709DF8AB
:102EE000000020280CBF0120002095E038B50D46D9
:102EF0000446287801280CBF08210021204600F054
:102F000044F940B1687801280CBF10210021204607
:102F100000F054F908B9012032BDA87801280CBF8F
:102F200020210021204600F062F978E00000000036
:102F3000000048420000EE4200006E430000EE43F5
:102F400000006E44010020410100484201006E4330
:102F50000100EE43012802D00120E07000207047FC
:102F6000012802D000202860E070704701282AD094
:102F7000BDF90400DDED000A00EE100AB8EEC00A4B
:102F800020EE200ABDEEC00A85ED000ABDF906005C
:102F9000DDED000A00EE100AB8EEC00A20EE200AAD
:102FA000BDEEC00A85ED010ABDF90800DDED000A9D
:102FB00000EE100AB8EEC00A20EE200ABDEEC00AEC
:102FC00085ED020A002070470446002000900D465F
:102FD00001A920467047012808D0BDF800002080D4
:102FE00000A8418861808088A080002016BD000074
:102FF000DFF81801206070470100004001008040A8
:1030000001000041DFED2E0AB4EE600AF1EE10FA85
:10301000704700000000EE42A870002032BD401E44
:103020008041C00F32BD80B500F0A2F830E710B586
:1030300082B0044600208DF8000000A92046FFF76A
:10304000F2FF012807D09DF800002178884201D0C6
:10305000012016BD002016BD1CB500F049F800F097
:1030600050F908B9012016BD2CE00000DFED240A5C
:1030700080B5FFF7C9FF48BF202119D4DFED210A31
:10308000FFF7C2FF48BF402112D4FFF7BBFF48BF84
:1030900060210DD4DFED090AFFF7B6FF48BF80219C
:1030A00006D4DFED050AFFF7AFFF4CBFA021C0211A
:1030B00000F0E2F8ECE600000100EE4301006E4390
:1030C0000100EE4200A841789DF80020090251FA63
:1030D00082F1218082789DF8031002EB012161804A
:1030E00000799DF8051000EB0120A080002016BD9E
:1030F0000C4600A9002200230CC100A97047000063
:10310000010020410100484200002041000080BF32
:103110000101010080B50123FEF79CFA04E004B52B
:10312000012300AAFEF78EFA401E8041C00F02BDA7
:10313000FFF7F0FF00B1012002BDFFF7EBFF20B168
:10314000207800F008002070012010BDFFF7E2FF9A
:1031500020B1207800F010002070012010BDFFF792
:10316000D9FF20B1207800F020002070012010BD90
:1031700080B50A460F21DBE79DF8000000F0DF0074
:1031800028438DF800000246704738B500F03BF840
:1031900030B100F006F81F2100F07BF800B10120EB
:1031A00032BD9DF8000000F0F70028438DF80000C4
:1031B0000246704710B500F030F8BEE738B500F0B1
:1031C00022F830B100F006F81F2100F062F800B1DB
:1031D000012032BD9DF8000000F0EF0028438DF87B
:1031E00000000246704710B500F017F8AEE738B59A
:1031F00000F009F830B1FFF7BFFF1F2100F049F8D8
:1032000000B1012032BD0D46044600AA1F21FFF780
:1032100081BF10B500F001F8A1E70C4622461F213E
:10322000704738B500F012F830B100F006F82021F0
:1032300000F02FF800B1012032BD9DF8000000F031
:10324000E70028438DF80000024670470D4604460B
:1032500000AA2021FFF75EBF10B500F009F8FFF7C4
:1032600059FF20B1207800F018002070012010BD17
:103270000C4622462021704738B5FFF7E7FF30B1F2
:1032800000F00AF8202100F004F800B1012032BD5E
:1032900006212046FFF743BF9DF8000000F01F0005
:1032A00028438DF800000246704710B5FFF7E0FF95
:1032B000FFF730FF20B1207800F0E00020700120FF
:1032C00010BD0D46044600AA2221FFF723BF38B5E2
:1032D000FFF7F7FF30B100F006F82221FFF7D9FF22
:1032E00000B1012032BD9DF8000000F0BF0028436E
:1032F0008DF80000024670477219C9B24046FFF7C8
:1033000009BF2DE9F04180460D460026032702241F
:10331000F6B206F12801FFF7EFFF28B1761C641E14
:10332000F6D17F1EF3D10120BDE8F0810E480F4A8F
:10333000016841F4700101600D48016841F001012C
:103340000160002181600168114001604FF48051EB
:10335000C160016821F480210160002181614FF08A
:10336000006004490860704788ED00E0FFFFF6EA5E
:103370000010024008ED00E0000000000000000026
:103380000102030406070809A0860100400D03009E
:10339000801A060000350C0040420F0080841E0099
:1033A00000093D0000127A000024F40000366E018E
:1033B0000048E801006CDC0219E050F8041BCB0760
:1033C00044BFA9F101035918121F0023042A41F830
:1033D000043BF9D25FEA827C0B4604D54FF0000C27
:1033E000A1F800C09B1CD10744BF0021197050F800
:1033F000042B002AE1D1704710B450F8041B79B1B6
:103400000268436812180830DC0744BFA9F10104C0
:10341000E31852F8044B43F8044B091FF9D1ECE7C9
:1034200010BC704710B5074979441831064C7C44EC
:10343000163404E00A68081D511888470146A14265
:10344000F8D110BD2C0000004C0000004EF6885151
:10345000CEF20001086840F470000860BFF34F8F9F
:10346000BFF36F8F4FF00070E1EE100A704700005D
:1034700049FFFFFF9800000030010020000000001D
:1034800079FFFFFF30010000D401000000000020A0
:103490000000000000F00BF8002801D0FFF7C2FF89
:1034A0000020C046C046FEF769FD00F002F801208A
:1034B000704700F001B800000746384600F002F8F7
:1034C000FBE7000080B5C046C046024A1100182044
:1034D000ABBEFBE7260002007047FEE77047FEF731
:1034E000CDBD1020FEF71FBA4FF40050FEF71BBAF7
:1034F00001488047014800472D3300080135000886
:10350000C046C046FFF7A2FFFFF7C4FFFFF7FEBFAC
:10351000FFF7FEBFFFF7FEBFFFF7FEBFFFF7FEBFDF
:10352000FFF7FEBFFFF7FEBFFFF7FEBFFFF7FEBFCF
:10353000FFF7FEBFFFF7FEBFFFF7FEBFFFF7FEBFBF
:10354000FFF7FEBFFFF7FEBFFFF7FEBFFFF7FEBFAF
:10355000FFF7FEBFFFF7FEBFFFF7FEBFFFF7FEBF9F
:10356000FFF7FEBFFFF7FEBFFFF7FEBFFFF7FEBF8F
:10357000FFF7FEBFFFF7FEBFFFF7FEBFFFF7FEBF7F
:10358000FFF7FEBFFFF7FEBFFFF7FEBFFFF7FEBF6F
:10359000FFF7FEBFFFF7FEBFFFF7FEBFFFF7FEBF5F
:1035A000FFF7FEBFFFF7FEBFFFF7FEBFFFF7FEBF4F
:1035B000FFF7FEBFFFF7FEBFFFF7FEBFFFF7FEBF3F
:1035C000FFF7FEBFFFF7FEBFFFF7FEBFFFF7FEBF2F
:1035D000FFF7FEBFFFF7FEBFFFF7FEBFFFF7FEBF1F
:1035E000FFF7FEBFFFF7FEBFFFF7FEBFFFF7FEBF0F
:1035F000FFF7FEBFFFF7FEBFFFF7FEBFFFF7FEBFFF
:10360000FFF7FEBFFFF7FEBFFFF7FEBFFFF7FEBFEE
:10361000FFF7FEBFFFF7FEBFFFF7FEBFFFF7FEBFDE
:10362000FFF7FEBFFFF7FEBFFFF7FEBFFFF7FEBFCE
:10363000FFF7FEBFFFF7FEBFFFF7FEBFFFF7FEBFBE
:10364000FFF7FEBFFFF7FEBFFFF7FEBFFFF7FEBFAE
:10365000FFF7FEBFFFF7FEBFFFF7FEBF7D080008C4
:10366000CF080008F3080008130900081D09000826
:103670006309000895090008BB090008C50900088E
:10368000D1090008DD090008E7090008230A00083D
:103690004B0A00086B0A0008AD0A0008CD0A0008B2
:1036A000ED0A0008F70A00087D0B0008CF0B0008A0
:1036B000EF0B0008550C0008B10C0008D10C0008F5
:1036C000DB0C0008E50C0008EF0C0008F90C000802
:1036D000250D00083F0D00085F0D00087F0D000854
:1036E0009F0D0008BF0D0008DF0D0008FF0D00084A
:1036F000912B0008E92B0008012C0008252C00085C
:103700004F2C0008532C0008572C0008732C00087D
:10371000812C0008B92C0008332D0008852D0008E5
:10372000FD2D0008472E0008612E0008992E000884
:10373000ED2E000889010008F3010008510200087D
:103740006F020008990200089D020008A10200080B
:10375000BD020008C90200080D030008A903000803
:1037600005040008B90400083D05000859050008D3
:1037700091050008E50500080001000000000000B8
:0C378000000000480008004800093D005F
:0400000508000000EF
:00000001FF
