:020000040800F2
:10000000081200207DAB000869AB00086BAB00084C
:10001000A1AB0008A5AB0008A9AB000800000000D8
:10002000000000000000000000000000ADAB000870
:100030006DAB000800000000B1AB00086FAB00081A
:10004000B5AB0008B9AB0008BDAB0008C1AB0008F8
:10005000C5AB0008C9AB0008CDAB0008D1AB0008A8
:10006000D5AB0008D9AB0008DDAB0008E1AB000858
:10007000E5AB0008E9AB0008EDAB0008F1AB000808
:10008000F5AB0008F9AB0008FDAB000801AC0008B7
:1000900005AC000809AC00080DAC000811AC000864
:1000A00015AC000819AC00081DAC000821AC000814
:1000B00025AC000829AC00082DAC000831AC0008C4
:1000C00035AC000839AC00083DAC000841AC000874
:1000D00045AC000849AC00084DAC000851AC000824
:1000E00073AB000855AC000859AC00085DAC0008C3
:1000F00061AC000865AC000869AC00086DAC000894
:1001000071AC000875AC000879AC00087DAC000843
:1001100081AC000885AC000889AC00088DAC0008F3
:1001200091AC000895AC000899AC00089DAC0008A3
:10013000A1AC0008A5AC0008A9AC0008ADAC000853
:10014000B1AC0008B5AC0008B9AC0008BDAC000803
:10015000C1AC0008C5AC0008C9AC0008CDAC0008B3
:10016000D1AC0008D5AC0008D9AC0008DDAC000863
:10017000E1AC0008E5AC0008E9AC000800000000B4
:10018000EDAC0008F1AC000838B50FF2500100F0FA
:1001900027F8012821D00421204601F0C3F970B1CD
:1001A0004021204601F0D0F948B10021204601F05D
:1001B000D8F820B100F062FA01F048F908B901203E
:1001C00032BD0021204600F0B9F9012805D000A970
:1001D000204600F007FA00F067FA32BD0101010085
:1001E0000A68044600A80260A0680568204600F07E
:1001F000C7BC38B50446FFF7F7FF012827D02046D3
:1002000000F0D1FD012822D0204601F001F801289C
:100210001DD0204600F011FE012818D0204600F025
:1002200023FF012813D0204600F08AFF01280ED0BA
:10023000204600F062FE012809D0204600F0A2FE10
:10024000012804D0204600F012F800F03FFA32BD39
:1002500010B504462079012807D000F04CFA00F0D0
:10026000ADFC012802D001202071002010BD10B586
:100270000446207978B1A0680168204600F046F86D
:10028000012808D00021204601F0E0F808B901203B
:1002900010BD0020207110BD00F06EBC00F070BCDD
:1002A0003EB500F081FA00F080FC012805D000A9DD
:1002B000204600F009F800F049FA3EBD1CB50C4696
:1002C00000A900F072FC7BE210B582B00C4600A9D8
:1002D00001F0B7F8B8B19DF8000030B104280DD096
:1002E000082805D00C2806D00BE09FED860A57E0C1
:1002F0009FED850AFBE79FED850AF8E79FED840AED
:10030000F5E700F0FAF8012016BD000010B582B044
:100310000C4600A901F0A6F808B9012016BD9DF809
:100320000000B0B1102817D0202818D0302819D0DC
:1003300040281AD050281BD060281CD070281DD00F
:1003400080281ED090281FD0A02820D0B02821D0EF
:1003500023E09FED700A23E0B2EE0A0AFBE7B3EE5A
:100360000A0AF8E79FED6C0AF5E79FED6C0AF2E7E1
:100370009FED6B0AEFE79FED6B0AECE79FED6A0AD2
:10038000E9E79FED6A0AE6E79FED690AE3E79FED7B
:10039000690AE0E79FED680ADDE700F0AEF8BCE728
:1003A00084ED000A002016BD80B50279012A13D120
:1003B00061B1022908D009D3042901D002D309E090
:1003C000402104E0302102E0202100E0102101F072
:1003D0003DF8A8B9012002BD8068006869B1022912
:1003E00008D00AD3042901D002D3F3E74B4906E031
:1003F000494904E0DFF8581901E0DFF84C1C0160BE
:10040000002002BD80B50179012904D100F0D6FB9E
:1004100001284FD102BD00F0C3FA48BFB2EE0A0A6C
:1004200046D400F037FB48BFB3EE0A0A40D4DFEDF4
:10043000960A00F031FB48BF9FED370A38D4DFED54
:10044000930A00F029FB48BF9FED340A30D4DFED5A
:10045000900A00F021FB48BF9FED310A28D4DFED60
:100460008D0A00F019FB48BF9FED2E0A20D4DFED66
:100470008A0A00F011FB48BF9FED2B0A18D4DFED6C
:10048000870A00F009FB48BF9FED280A10D4DFED72
:10049000840A00F001FB48BF9FED250A08D4DFED78
:1004A000810A00F0F9FA4CBF9FED220A9FED220A63
:1004B00080ED000A002002BD10B582B00C4600A9F4
:1004C00000F0BFFFB8B19DF8000030B104280DD096
:1004D000082805D00C2806D00BE0B0EE000A5FE734
:1004E000B1EE000AFBE7B2EE000AF8E7B3EE000A4D
:1004F000F5E700F002F8012016BDDFF8500B206090
:100500007047000023DB793D23DBF93D23DB793E97
:1005100023DBF93E00000000000050420000D04202
:10052000000050430000D043004050440080CF44BE
:10053000002050450020D0450048504680B519B1F4
:10054000022904D001D304E01CE00821FCE70C21BF
:10055000FAE7012002BD0000DFEDB80A80B500F027
:100560009BFA48BF00210DD4DFEDB50A00F094FAE4
:1005700048BF082106D4DFEDB30A00F08DFA4CBF66
:100580000C21042100F04CFF401E8041C00F02BD31
:1005900038B50D4604460DF1020101F015F850B1D1
:1005A0000DF10101204601F028F820B100A92046F4
:1005B00001F03AF808B9012032BD9DF80200082880
:1005C0000CBF0120002028709DF8010010280CBFEE
:1005D0000120002068709DF8000020280CBF012039
:1005E0000020A0E238B50D460446287801280CBF4B
:1005F00008210021204600F0D2FF40B16878012890
:100600000CBF10210021204600F0E2FF08B90120B4
:1006100032BDA87801280CBF20210021204600F01F
:10062000F1FFA2E238B50FF25001FFF7D9FD012822
:1006300021D00421204600F075FF70B140212046F2
:1006400000F082FF48B10021204600F08AFE20B170
:1006500000F014F800F044FF08B9012032BD022177
:10066000204600F0DAF9012805D000A9204600F064
:100670005DFA00F019F832BD01010100DFF82C0429
:100680002860002120467047010050420100D042FE
:10069000010050430100D043014050440180CF4449
:1006A000012050450120D045012802D00120E070F2
:1006B0000020704738B50446FFF796FD012804D0A6
:1006C000204600F01EF800F001F832BD012802D0EB
:1006D00000202860E070704710B50446207901289A
:1006E00007D000F008F800F0E5FA012802D0012058
:1006F0002071002010BDA068006890ED000A20461F
:10070000704710B50446207978B1A068016820468A
:1007100000F09AF8012808D00021204600F0E0FE01
:1007200008B9012010BD0020207110BD24E227E28D
:100730003EB500F039F800F097FA012805D000A97D
:10074000204600F049F800F001F83EBD01282AD00B
:10075000BDF90400DDED000A00EE100AB8EEC00A93
:1007600020EE200ABDEEC00A85ED000ABDF90600A4
:10077000DDED000A00EE100AB8EEC00A20EE200AF5
:10078000BDEEC00A85ED010ABDF90800DDED000AE5
:1007900000EE100AB8EEC00A20EE200ABDEEC00A34
:1007A00085ED020A002070470446002000900D46A7
:1007B00001A9204670471CB50C4600A900F054FA68
:1007C000012808D0BDF80000208000A84188618081
:1007D0008088A080002016BD38B50C4605460DF176
:1007E000010100F050FE68B19DF80100022804D11B
:1007F000DFF860082060002032BD00A9284600F024
:1008000062FE08B9012032BD9DF8000030B1042815
:1008100007D0082808D00C2809D00BE0DFF83808EA
:10082000E8E7DFF83808E5E7DFF83408E2E7DFF863
:100830003408DFE7FFF761FEE4E700000100004055
:10084000010080400100004110B582B00C4600A9B3
:1008500000F05BFE08B9012016BD9DF8000080B1D4
:10086000102811D0202812D0302813D0402814D0BE
:10087000502815D0602816D0702817D0802818D09E
:100880001AE09FED880A8BE5B2EE0A0AFBE7B3EEA9
:100890000A0AF8E79FED840AF5E79FED840AF2E77C
:1008A0009FED830AEFE79FED830AECE79FED820A55
:1008B000E9E79FED820AE6E7FFF71FFECBE780B589
:1008C0000279012A13D161B1022908D009D3042980
:1008D00001D002D309E0402104E0302102E02021D0
:1008E00000E0102100F0FCFDA8B9012002BD8068E5
:1008F000006869B1022908D00AD3042901D002D3C3
:10090000F3E76A4906E0684904E0DFF8441401E0CF
:10091000DFF834170160002002BD000080B50179C6
:10092000012904D100F0C6F9012837D102BD00F039
:1009300037F848BFB2EE0A0A2ED400F0ABF848BF31
:10094000B3EE0A0A28D4DFED5E0A00F0A5F848BF2E
:100950009FED550A20D4DFED5B0A00F09DF848BFFB
:100960009FED520A18D4DFED580A00F095F848BF01
:100970009FED4F0A10D4DFED550A00F08DF848BF07
:100980009FED4C0A08D4DFED520A00F085F84CBF09
:100990009FED490A9FED490A80ED000A002002BD43
:1009A00080680068DFEDA90AB4EE600AF1EE10FA83
:1009B0007047000038B50D46044600A900F063FDFD
:1009C00028B10DF10101204600F07DFD08B901209C
:1009D00032BD9DF80000022805D19FED9D0A85EDEE
:1009E000000A002032BD9DF8010030B1042807D074
:1009F000082808D00C2809D00BE09FED960AEEE7F6
:100A00009FED950AEBE79FED950AE8E79FED940AC5
:100A1000E5E7DFF838062860D9E780B519B1022983
:100A200006D003D306E000F033FDADE50421FAE77C
:100A30000C21F8E7012002BD38B5DFED8A0A00F08D
:100A40002BF8044605D5022100F011FD00B300206B
:100A500032BDDFEDB20A00F01FF848BF00250DD40B
:100A6000DFEDAF0A00F018F848BF042506D4DFED2B
:100A7000AD0A00F011F84CBF08250C25002100F04C
:100A8000F6FC28B12946204600F002FD0028DED100
:100A9000012032BDDFEDA40AB4EE600AF1EE10FAD7
:100AA0007047000000000000000050420000D042EB
:100AB000000050430000D043004050440080CF4429
:100AC000010050420100D042010050430100D043D8
:100AD0000140504438B50D4604460DF1020100F0C6
:100AE000D6FD50B10DF10101204600F0E6FD20B128
:100AF00000A9204600F0F6FD08B9012032BD9DF89E
:100B0000020008280CBF0120002028709DF8010079
:100B100010280CBF0120002068709DF800002028DC
:100B20000CBF01200020A870002032BD38B50D4652
:100B30000446287801280CBF08210021204600F037
:100B40009AFD40B1687801280CBF10210021204691
:100B500000F0A1FD08B9012032BDA87801280CBF22
:100B600020210021204600F0B1FD00F001F832BD47
:100B7000401E8041C00F704780B500F049FC03E57E
:100B800010B582B0044600208DF8000000A9204670
:100B9000FFF7F2FF012807D09DF800002178884276
:100BA00001D0012016BD002016BD1CB500F07AF85A
:100BB00000F0A0FF08B9012016BD5DE0DFED230ABB
:100BC00080B5FFF769FF48BF10213CD4FFF762FFF3
:100BD00048BF202137D4DFED550AFFF75DFF48BF3E
:100BE000302130D4DFED520AFFF756FF48BF4021D5
:100BF00029D4DFED500AFFF74FFF48BF502122D420
:100C0000DFED4D0AFFF748FF48BF60211BD4DFED41
:100C10004B0AFFF741FF48BF702114D4DFED480AAB
:100C2000FFF73AFF48BF80210DD4DFED460AFFF7FA
:100C300033FF48BF902106D4DFED430AFFF72CFFB6
:100C40004CBFA021B02100F001FC9DE40100504107
:100C50000000FA42000075430000FA4300007A44A5
:100C60000000FA440100FA421CB500F01BF800F045
:100C70002CFF08B9012016BD00A841789DF800207E
:100C8000090251FA82F1218082789DF8031002EB6B
:100C90000121618000799DF8051000EB0120A08002
:100CA000002016BD0C4600A9002200230CC100A99B
:100CB00070470000DFED250A80B5FFF7EDFE48BF65
:100CC000102127D4FFF7E6FE48BF202122D4DFED14
:100CD000170AFFF7E1FE48BF30211BD4DFED140AED
:100CE000FFF7DAFE48BF402114D4DFED120AFFF708
:100CF000D3FE48BF50210DD4DFED0F0AFFF7CCFE25
:100D000048BF602106D4DFED0D0AFFF7C5FE4CBFDA
:100D10007021802100F0E4FB36E4000001007543FF
:100D20000100FA4301007A440100D0410100504221
:100D30000100D042010050430100D0430140504423
:100D40000180CF44012050450120D0450100504191
:100D50000000D04110B500F071F9012822D000F058
:100D60000DF988B10621204600F034FE60B100F094
:100D700001F948B10021204600F0F7FD20B1002123
:100D8000204600F0E5FD08B9012010BD03212046F2
:100D900000F02BF8012805D01021204600F06BFE52
:100DA000FFF7E6FE10BD10B50446002100F063FE1B
:100DB00020B10021204600F00DFE08B9012010BD31
:100DC0000021204600F0F7FDA7E010B582B00C46E8
:100DD00000A900F0A0FC30B19DF8000010B120285F
:100DE00001D1012052E0012016BD80B500F0E3FDE5
:100DF000FFF7CABB10B500F07BF8012818D000F04F
:100E0000BDF868B11721204600F054F801280FD032
:100E100000F00FF820B14021204600F008FD08B98D
:100E2000012010BD8021204600F0CCFAFFF7A0FE83
:100E300010BD0421204600F05ABC10B50446002124
:100E400000F0C0FA40B10021204600F0F0FC18B1DB
:100E50000021FFF7EFFF08B9012010BD0021204657
:100E600000F028F8012818BF002010BD10B582B08E
:100E70000C4600A900F097FC30B19DF8000010B1BD
:100E8000102801D1012001E0012016BD20700020B2
:100E900016BD80B500F04DFEFFF776BB80B5022190
:100EA00000F0D4FBFFF770BB80B5002100F0CEFB53
:100EB000FFF76ABB80B500F04CFEFFF765BB10B5CD
:100EC00000F016F8012812D000F058F838B1FFF7FA
:100ED000B0FF20B12021204600F097FC08B9012086
:100EE00010BD0221204600F0A2FDFFF741FE10BD1B
:100EF0000446B3EE0A0AFFF785BA10B5044600218E
:100F000000F095FD20B10021204600F07EFC08B9DC
:100F1000012010BD0021FFF78DFF401E8041C00F52
:100F200010BD10B582B00C4600A900F045FC30B1F0
:100F30009DF8000010B1202801D10120A6E7012072
:100F400016BD10B500F07AF8012812D000F016F89E
:100F500038B100F00FF820B10221204600F0D5FC96
:100F600008B9012010BD2021204600F096FDFFF7B2
:100F7000FFFD10BD0021204600F009BD00212046E4
:100F800000F04EBA10B50446002100F086FD10B105
:100F9000FFF7F0FF08B9012010BD0021204600F046
:100FA000B4FCBAE710B582B00C4600A900F0ABFB68
:100FB00030B19DF8000010B1082801D1012065E78B
:100FC000012016BD80B500F0A0FCFFF7DDBA10B51A
:100FD00000F034F8012821D0FFF7D0FF40B100F035
:100FE00029F828B100F022F810B100F01BF808B978
:100FF000012010BD00F013F801280FD0022100F0ED
:101000005AF801280AD0012100F052F8012805D031
:101010004021204600F04DFDFFF7AAFD10BD08213C
:101020002046CBE00221204600F0CBBB0421204625
:1010300000F0D3BB0821204600F0DBBB04469FED47
:10104000040AFFF7DFB9000000005041000080BF34
:101050000000D04300008C4000000C4100008C4197
:1010600000000C4200008C4210B50446002100F044
:1010700020FDA0B10021FFF7D3FF012816D000F01A
:1010800019F8012812D000F012F801280ED0002122
:10109000FFF7C9FF18B10021FFF7C9FF08B9012008
:1010A00010BD0021FFF7C7FFFFF762FD10BD002153
:1010B00020468DE00021204685E010B582B00C4628
:1010C00000A900F036FB30B19DF8000010B12028D7
:1010D00001D10120DAE6012016BD10B5FFF7AEFF01
:1010E00001282CD0FFF74AFF08B3FFF7A3FFF0B1A8
:1010F000FFF79CFFD8B1FFF795FFC0B1FFF78FFF57
:1011000001281CD00321FFF7D6FF012817D00321A7
:10111000FFF7CEFF012812D00821204600F05DF82D
:1011200001280CD08021204600F006FC08B90120DF
:1011300010BD0821204600F092FCFFF719FD10BDFC
:1011400010B50446002100F08AFCF8B10021FFF739
:1011500067FF012821D0FFF7ADFF01281DD0FFF761
:10116000A6FF012819D00021204600F036F80128FA
:1011700013D00021204600F0DFFB38B10021FFF73B
:1011800052FF18B10021FFF752FF08B9012010BD2E
:101190000021FFF750FFFFF7EBFC10BD10B582B048
:1011A0000C4600A900F0C0FA30B19DF8000010B163
:1011B000102801D1012069E6012016BD80B500F09C
:1011C00042FBFFF7E1B980B500F064FBFFF7DCB943
:1011D00080B500F06CFBFFF7D7B980B500F081FB5C
:1011E000FFF7D2B910B5FFF729FF01280FD0FFF79D
:1011F000C5FE20B14021204600F031FB08B9012096
:1012000010BD0421204600F01EFCFFF7B1FC10BD0C
:1012100010B50446002100F016FC08B9012010BDED
:101220000021204600F01BFB77E610B582B00C468B
:1012300000A900F0A4FA30B19DF8000010B14028D8
:1012400001D1012022E6012016BD10B582B00C4666
:1012500000A900F073FA30B19DF80000002818BF13
:10126000012800D112E6012016BD10B582B00C464F
:1012700000A900F068FA30B19DF8000010B1022812
:1012800001D1012002E6012016BD10B582B00C4646
:1012900000A900F05DFA30B19DF8000010B10428FB
:1012A00001D10120F2E5012016BD10B582B00C4637
:1012B00000A900F052FA30B19DF8000010B10828E2
:1012C00001D10120E2E5012016BD10B582B00C4627
:1012D00000A900F04AFA30B19DF8000010B11028C2
:1012E00001D10120D2E5012016BD10B582B00C4617
:1012F00000A900F03FFA30B19DF8000010B120289D
:1013000001D10120C2E5012016BD0268531C036013
:101310001170704780B5012305E004B5012300AAD0
:1013200000F0AAFC01E000F0AFFC401E8041C00FBD
:1013300002BD38B500F028FA0121FFF7EBFF30B10C
:1013400000F020F9012100F027F900B1012032BDA1
:10135000FFF7E0FF20B1207800F04000207001206E
:1013600010BD38B500F012F830B100F006F80A21CF
:1013700000F012F900B1012032BD9DF8000000F02C
:10138000F80028438DF80000024670470D460446D9
:1013900000AA0A21BEE70D46044600AA0D21B9E7BE
:1013A000FFF7B8FF20B1207800F010002070012076
:1013B00010BDFFF7AFFF20B1207800F020002070B3
:1013C000012010BD38B5FFF7E6FF28B100F0DAF8CC
:1013D00000F0E1F800B1012032BDFFF79BFF20B122
:1013E000207800F001002070012010BDFFF792FF6F
:1013F00020B1207800F002002070012010BDFFF71E
:1014000089FF20B1207800F004002070012010BD79
:1014100080B50A460F21FFF77DFF00B1012002BD14
:1014200038B500F009F830B100F03EF8102100F0B6
:10143000B3F800B1012032BD0D46044600AA1021C8
:1014400068E710B50C462246102140E038B5FFF79A
:10145000F3FF30B100F050F8102100F09DF800B11A
:10146000012032BD10B50C462246102151E038B59E
:1014700000F023F830B100F0F5F8112100F08CF8FD
:1014800000B1012032BD10B50C4622461121ADE756
:1014900038B500F012F830B100F006F8112100F074
:1014A0007BF800B1012032BD9DF8000000F0F30090
:1014B00028438DF80000024670470D46044600AAF6
:1014C0001121FFF727BF10B50C4622461121FFF767
:1014D00021FF20B1207800F00C002070012010BD09
:1014E00038B5FFF7EAFF30B100F006F8112100F03F
:1014F00053F800B1012032BD9DF8000000F00F004C
:1015000028438DF800000246704710B50C4622466D
:101510001121FFF7FFFE20B1207800F0F0002070CD
:10152000012010BD38B500F009F830B100F085F8A1
:10153000122100F031F800B1012032BD0D46044601
:1015400000AA1221FFF7E6BE38B5FFF7F7FF30B16A
:1015500000F00FF8122100F01FF800B1012032BD99
:101560009DF8000000F0DF0028438DF800000246DF
:1015700070479DF8000000F0BF0028438DF8000080
:10158000024670479DF8000000F07F0028438DF868
:101590000000024670470D212046FFF7BEBE38B559
:1015A00000F03CF830B100F006F81821FFF7F4FF26
:1015B00000B1012032BD9DF8000000F0F700284383
:1015C0008DF800000246704710B500F032F8E1E0F7
:1015D00038B500F023F830B100F006F81821FFF715
:1015E000DBFF00B1012032BD9DF8000000F0EF00EC
:1015F00028438DF800000246704710B500F019F836
:10160000FFF7CEBE38B500F009F830B1FFF7A8FFFC
:101610001821FFF7C1FF00B1012032BD0D4604467D
:1016200000AA1821FFF776BE10B500F002F8FFF708
:10163000C0BE0C462246182170479DF8000000F0FD
:10164000FB0028438DF800000246704738B500F0D3
:101650002EF830B100F006F81921FFF79DFF00B118
:10166000012032BD9DF8000000F0FD0028438DF8F8
:1016700000000246704738B500F019F830B1FFF7A6
:101680009AFF1921FFF788FF00B1012032BD10B584
:1016900000F018F87EE038B500F009F830B1FFF737
:1016A000A3FF1921FFF778FF00B1012032BD0D46DD
:1016B000044600AA1921FFF72DBE10B500F002F86C
:1016C000FFF76EBE0C4622461921704738B5FFF76A
:1016D000EEFF30B1FFF744FF1921FFF75DFF00B1C6
:1016E000012032BD10B5FFF7EDFFFFF762BE38B540
:1016F000FFF7DDFF30B1FFF7A0FF1921FFF74CFF27
:1017000000B1012032BD10B500F001F842E00C46F6
:1017100022461B21704710B5FFF7F9FFFFF749BEBE
:101720000C4622461C21704710B5FFF7F9FFFFF762
:1017300037BE10B5FFF7F4FFFFF73BBE10B500F062
:1017400010F8FFF74ABE10B500F00BF8FFF74EBED9
:1017500010B500F006F8FFF752BE10B500F001F822
:1017600018E00C4622461D21704710B5FFF7F9FF1F
:10177000FFF716BE10B5FFF7F4FFFFF71ABE10B55E
:10178000FFF7EFFFFFF7E4BD0D46044600AA7047E0
:1017900000F00EF8FFF7BEFD20B1207800F0080041
:1017A0002070012010BD10B500F002F8FFF7F8BD61
:1017B0000C4622465321704710B5FFF7F9FFFFF79B
:1017C000F8BD38B500F02DF830B1FFF74BFF5821C8
:1017D000FFF7E2FE00B1012032BD38B500F021F87C
:1017E00030B1FFF72AFF5821FFF7D6FE00B10120E4
:1017F00032BD38B500F015F830B1FFF7DCFE5821E6
:10180000FFF7CAFE00B1012032BD38B500F009F87B
:1018100030B1FFF7A5FE5821FFF7BEFE00B1012051
:1018200032BD0D46044600AA5821FFF773BD38B5F6
:10183000FFF7F7FF30B1FFF79CFE5821FFF7ACFE32
:1018400000B1012032BD38B500F01EF830B100F013
:101850008DF95921FFF7A0FE00B1012032BD38B546
:1018600000F012F830B100F006F85921FFF794FEAD
:1018700000B1012032BD9DF8000000F09F00284318
:101880008DF80000024670470D46044600AA592113
:10189000FFF740BD38B500F01EF838B19DF80000E4
:1018A00065F3010000F010F800B1012032BD38B539
:1018B00000F011F838B19DF8000065F3830000F0E6
:1018C00003F800B1012032BD8DF8000002465A2114
:1018D0002046FFF722BD0D46044600AA5A21FFF715
:1018E00019BD38B5FFF7F7FF70B19DF8000000F0A3
:1018F0000F0040EA05108DF800005A219DF80020E5
:10190000FFF74AFE00B1012032BD38B500F00EF8F5
:1019100058B19DF8000065F305008DF800000246FF
:101920005B21FFF739FE00B1012032BD0D460446B0
:1019300000AA5B21FFF7EEBC38B5FFF7F7FF30B127
:10194000FFF720FE5B21FFF727FE00B1012032BD2B
:1019500038B500F016F838B19DF8000065F30300C3
:1019600000F022F800B1012032BD38B500F009F8CE
:1019700030B1FFF739FE5C21FFF70EFE00B1012008
:1019800032BD0D46044600AA5C21FFF7C3BC38B542
:10199000FFF7F7FF38B19DF8000065F3461000F03F
:1019A00003F800B1012032BD8DF8000002465C2131
:1019B0002046FFF7B2BC38B5FFF7E6FE5D21FFF722
:1019C000A9FC30B1FFF7D9FC5D21FFF7E5FD00B1BF
:1019D000012032BD70B582B0044600AA0E465D21DA
:1019E000FFF798FC750908B39DF8000000F00700A8
:1019F00040EAC6008DF800005D219DF80020FFF749
:101A0000CBFD98B100AA5C2100F0B9F870B19DF847
:101A1000000000F07F0040EAC5108DF800005C2156
:101A20009DF80020FFF7B8FD00B1012076BD38B564
:101A300000F02DF830B1FFF715FE5E21FFF7ACFD89
:101A400000B1012032BD38B500F021F830B1FFF708
:101A5000F4FD5E21FFF7A0FD00B1012032BD38B5D5
:101A600000F015F830B1FFF7A6FD5E21FFF794FDF9
:101A700000B1012032BD38B500F009F830B1FFF7F0
:101A8000B3FD5E21FFF788FD00B1012032BD0D4698
:101A9000044600AA5E21FFF73DBC38B5FFF7F7FF0B
:101AA00030B1FFF75DFD5E21FFF776FD00B101204B
:101AB00032BD38B5FFF7EBFF30B1FFF75AFD5E21BD
:101AC000FFF76AFD00B1012032BD2DE9F0418046EB
:101AD0000D46002603270224F6B206F1220100F08B
:101AE0001EF828B1761C641EF6D17F1EF3D10120AA
:101AF000BDE8F0812DE9F04180460D460026032720
:101B00000224F6B206F1280100F009F828B1761C8B
:101B1000641EF6D17F1EF3D10120BDE8F081721959
:101B2000C9B24046FFF7F6BB7219C9B22046FFF7AB
:101B3000F1BBF8B504460D4600260227F6B206F1C1
:101B40004B01FFF7F1FF18B1761C7F1EF6D1012083
:101B5000F2BD38B500F01AF800AA0F2100F00FF816
:101B600000F004F80F21FFF717FD0BE09DF80000CF
:101B700065F304008DF800000246704707212046F7
:101B8000FFF7C8BB00F007F8012032BD0D46044640
:101B90008021FFF7CEBB00212046FFF7CABB000023
:101BA00080B500F089F800B1012002BD0020704727
:101BB00030B56E4C6E4D8BB0206840F00100206057
:101BC00006A9206800F001000090009807951020F9
:101BD000069002200990002008904FF0904000F0FD
:101BE000D3F800F03EF80A2000F00BFA206840F02D
:101BF0000200206001A9206800F002000090009817
:101C000002950120019000F032F85A4800F0BCF82B
:101C100000221146062000F0D7F9062000F0F1F965
:101C200000200BB030BD00B5504887B0016841F0CE
:101C30000101016001A9006800F001000090009816
:101C4000102001904A4800F011F84FF0904000F049
:101C50009BF800F006F80A2000F0D3F9002007B046
:101C600000BD002200210A2000F0AEB9029002203F
:101C7000049000200390704710B5447884B000F0C1
:101C800011F800F05BFA06E010B5447884B000F07B
:101C900009F800F0BCFA18B1204600F060F8012005
:101CA00004B010BD4FF480500092029001930A4698
:101CB000012321463048704730B52F4C87B020466D
:101CC00000F044FB002841D12C482D4D606001A953
:101CD0003320A0600120E0602A482060686940F05D
:101CE00002006861686900F00200009000984FF4FB
:101CF000407001901220FFF7B9FF042005901D48A5
:101D000000F042F8286A40F4001028620022286A95
:101D100000F40010009000210098286840F40010A2
:101D20002860286820F4001028601F2000F04CF97B
:101D30001F2000F066F900221146202000F044F92F
:101D4000202000F05EF9204600F086F9204600F0E1
:101D5000FDFA20280CBF0020012007B030BD80B55F
:101D6000054800F0C4F9BDE80140A5E74C10024069
:101D70000000111000040048840C00203A14D11017
:101D800038100240005400402DE9F8470022774BFC
:101D9000DFF8DC81DFF8DC914FF00F0A30E005FA64
:101DA0000EFE4EEA040448F82C406FEA070C1C684B
:101DB0000CEA040E4C68E40348BF47EA0E0EC3F871
:101DC00000E05C680CEA040E4C68A40348BF47EAD4
:101DD0000E0EC3F804E09C680CEA040E4C68E402A2
:101DE00048BF47EA0E0EC3F808E0DC680CEA040CB2
:101DF0004C68A40248BF47EA0C0CC3F80CC0521C44
:101E00000F6837FA02F400F09B804FF0010C0CFAD7
:101E100002F42740F3D04D68022D18BF122D11D1C6
:101E2000D50800EB850C02F00706DCF820504FEADD
:101E3000860E0AFA0EF6B5430E6906FA0EF635431B
:101E4000CCF820504FEA420C0326056806FA0CF63F
:101E50006FEA060E0E7906F003060EEA050506FA8D
:101E60000CF635430560E4434D68012D18BF022D83
:101E700003D0112D18BF122D0FD18568CE680EEA40
:101E8000050506FA0CF63543856045684E68C6F3CD
:101E9000001625409640354345604D6805F0030621
:101EA000032E06D1C66AC5F3C005344095402C43C5
:101EB000C462C4680EEA040E8C6804FA0CF444EAA6
:101EC0000E04C4604C68E40099D5D9F8004044F091
:101ED0000104C9F800404FEA920CD9F8004004F020
:101EE0000104009402F00305009C58F82C404FEACE
:101EF000850E0AFA0EF5AC43B0F1904F08BF0025ED
:101F00001DD01D4DA84208BF012518D01B4DA84269
:101F100008BF022513D01A4DA84208BF03250ED0D2
:101F2000184DA84208BF042509D0174DA84208BF84
:101F3000052504D0154DA8420CBF062507252EE720
:101F4000BDE8F1870AB181617047816270474269DB
:101F50005140416170470E4A1368034200D17047F7
:101F600080B5106000F0A4FD01BD00000004014038
:101F700008000140601002400004004800080048CA
:101F8000000C0048001000480014004800180048E9
:101F9000140401400901002806D5294A00F00F0069
:101FA000801800F8041C7047264A8154704726495F
:101FB0000A684FF6FF031A4000F0070042EA0020CB
:101FC000224A10430860704770B51F4B1B68C3F36B
:101FD00002230124C3F10705052D2EBF0F2504FAA6
:101FE00005F56D1E1E1D072E34BF0023DB1E294084
:101FF000994004FA03F3BDE870405B1E1A40114398
:10200000C8E7012100F01F029140114AFFE7400993
:1020100042F82010704710B5401EB0F1807F01D308
:10202000012010BD0B4C60600F214FF0FF30FFF717
:10203000B1FF0020A06007202060002010BD00003C
:1020400018ED00E000E400E00CED00E00000FA050F
:1020500000E100E010E000E038B5040001D101200B
:1020600032BD04F13C05687818B92870204600F0AC
:1020700059F800F04FF86068216820F0706008613E
:102080002068816821F400418160A06840B1E16866
:10209000012921680CBF40F4004040F404408860EE
:1020A000E068022803D121684FF40060486020688E
:1020B000416841F0007100F03DF820696169084312
:1020C000A16940EA01202168C860E069216A0843EB
:1020D000216808602068016841F00101016000206A
:1020E00068602020687000202063A87032BD38B579
:1020F000040001D1012032BD04F13C0500F00AF8D2
:10210000204600F010F80020686068702063A87016
:10211000287032BD24206870206801684908490091
:1021200001607047704770474146284600F0A4B9E7
:102130003068416841F40041416070472DE9F74F34
:1021400000F0D3F850D1DDF830B0BBF1000F1CBF68
:102150000D9C002C41D000F056F845D43078012871
:1021600042D000F0E9F88246212000F0C6F800F0E5
:10217000F0F840B17068042802D1002030702CE0E3
:10218000002030702BE0FF2C009003DD00F09EF863
:10219000FF2702E000F02BF827465246FFF7C4FF66
:1021A000C0B929681BF8010B7F1EA4F101048862E5
:1021B000A4B20AD15CB1CDF800A0434600F090F87B
:1021C00068B9FF2C0090E5DDE0E7002CE5D100F0D8
:1021D00015F830B17068042801D1012005E0032012
:1021E00003E000F09BF800E00220BDE8FE8F4FF016
:1021F0000073E2B24946284600F0C4B9524641464F
:10220000284600F052B928688069000470472DE91B
:10221000F74F00F06AF856D1DDF830B0BBF1000F8F
:102220001CBF0D9C002C47D0FFF7EDFF4BD430783E
:10223000012848D000F080F88246222000F05DF8A6
:1022400000F0ACF840B17068042802D10020307072
:1022500032E00020307031E0FF2C4FF4105000903D
:1022600003DD00F033F8FF2702E0FFF7C0FF274649
:10227000CDF800A043460022042100F033F8E8B96D
:102280002868406A7F1EA4F101040BF8010BA4B278
:102290000AD15CB1CDF800A0434600F021F868B93E
:1022A000FF2C0090E1DDDCE7002CE1D1FFF7A6FF79
:1022B00030B17068042801D1012005E0032003E05B
:1022C00000F02CF800E00220BDE8FE8F4FF0807394
:1022D000FF224946284600F055B9CDF800905346F4
:1022E00000228021284600F099B8054605F13C06F9
:1022F0008946707820281F46704770703B46402002
:10230000B070494600207060CDF804A02846DDF882
:102310003880BDF80820CDF8008070472968084A49
:102320002020C861286841681140416020207070F9
:102330000020B070307070470120307000F081BC18
:1023400000E800FEF2B2204600F01CB990F83D0013
:1023500070472DE9F04182B000F046F84FF08073ED
:10236000FFF7F0FF00F053F818B1206C042812D1E9
:102370000AE0012E0AD02168280A886200F04AF893
:1023800020B1206C042806D1012005E000F033F8CC
:1023900000F039F800B10320BDE8F6812DE9F041E5
:1023A00082B000F021F80023FFF7CCFF00F02FF8F7
:1023B00018B1206C042814D10AE0012E0AD021683B
:1023C000280A886200F026F820B1206C042808D181
:1023D000012007E000F00FF80022402100F015F87E
:1023E00000B10320BDE8F68104464FF40050009090
:1023F00015461E4670472068EDB285620097434639
:1024000070470097192300228021204606E0DDF85E
:102410002080099F3A46414620462DE0F8B5069FA8
:1024200004460D461E4672B9206880692840A842BD
:1024300020D016F1010FF7D09EB100F002FCC01BB6
:102440008642F1D20DE0206880692840A84211D16F
:1024500016F1010FF7D026B100F0F3FBC01B864246
:10246000F1D204F13C002021417000218170017003
:102470000320F2BD0020F2BD70B504460D4616469D
:102480002068806980070ED400F025F808B101208B
:1024900070BD15F1010FF3D025B100F0D2FB801B08
:1024A0008542EDD21BE0002070BD70B504460D469C
:1024B00016462068806980060BD400F00CF808B13D
:1024C000012070BD25B100F0BCFB801B8542F0D21D
:1024D00005E0002070BD32462946204613E000F09A
:1024E00007F820214170002181700170032070BD28
:1024F00004F13C00416841F02001416070472068D0
:1025000081698906704770B504460D462068806968
:10251000C00616461CD5FFF7F2FF0BD415F1010FCC
:10252000F9D025B100F08DFB801B8542F3D204F178
:102530003C00D6E71021C16120202168C86100F06D
:1025400017F800F00EF8042100F004F8012070BD27
:10255000002070BD41602021417000218170017018
:102560007047104A41681140416004F13C007047D7
:1025700020688169C90703D4816941F00101816143
:102580002068704730B50068074D44682C408905C5
:1025900054EA915141EA0241039A194311434160BF
:1025A00030BD000000E800FE009800FC2DE9F04F6F
:1025B000C9B000F023FB00F057FB002000F032FC14
:1025C000002000F053FC0121002000F064FC00F02A
:1025D00056FDDFF85445DFF8540560604020A060E8
:1025E0007F20E060FF20206100206061E0612062C8
:1025F000201D00F0AFFD00B1FEE714208DF80300B0
:10260000012202208DF8010000A918208DF8020097
:1026100002208DF80000201D00F061FE00B1FEE7F1
:1026200008208DF80400012210208DF8050001A972
:102630000020ADF8060004900590201D00F0DAFDA2
:1026400000B1FEE704F168014FF0FF3000F034FF05
:1026500004F16C014FF0FF3000F0F8FF04F170015D
:10266000002001F0BFF804F17401002001F02EF900
:1026700004F17801002001F0A3F904F17C014FF08E
:10268000FF3001F0DBFAA06E0FF250560FF23C5B08
:10269000DFF89C840FF2B04ADFF8987400F0AEFFC8
:1026A000E06E01F06FF8206F01F0E8F8606F01F064
:1026B0005FF9A06F01F09AFAE06F01F08BFB04F173
:1026C000800541F2883914E000F0D0FB387850B131
:1026D00008A801F0B7FB3320089008A800F0AAFC76
:1026E000206D00F0B1FA207818B14FF4FA7000F0C4
:1026F000ABFA08A800F028FC50B19DF8240032285D
:1027000006D108A801F0A8FB387808B10020207095
:1027100000203978002904BF2178002912D0002236
:1027200003A9201D00F0B6FD002202A9201D00F023
:1027300033FE0498C0F1FF0064214843C11100EB4F
:1027400011600012397871B19DF80C108DF82710C6
:102750008DF82A009DF80D108DF828109DF80E10A8
:102760008DF8291010E0217871B1C0B20190514666
:102770009DF80E009DF80D309DF80C2000F056F9E4
:1027800000F051F900F049F900F059F9E06F01F05B
:102790002EFB002804BF9DF80000012829D1E06F1E
:1027A00004F1540101F036FB022201A902A894EDC4
:1027B000150A00F049F9387878B1E06CC00718D5EF
:1027C000029902220DF12B0001F050FC0199022226
:1027D0000DF12D0001F04AFC0BE0207848B1019B7F
:1027E000029A5946284601F05DFC00F01CF900F001
:1027F00014F900F024F9606F01F0C7F8002804BF55
:102800009DF80000012829D1606F04F1580101F002
:10281000C7F8022201A902A894ED160A00F014F9E3
:10282000387878B1E06C400718D5029901220DF193
:10283000310001F01BFC019901220DF1320001F081
:1028400015FC0BE0207848B1019B029A31462846DE
:1028500001F028FC00F0E7F800F0DFF800F0EFF8F6
:10286000A06F01F0D0F9002804BF9DF800000128F6
:1028700029D1A06F04F15C0101F0D0F9022201A975
:1028800002A894ED170A00F0DFF8387870B1E06C18
:10289000800718D5029901220DF12F0001F0E6FB07
:1028A000019901220CA801F0E1FB0CE0207850B165
:1028B000019B029A0FF23431284601F0F3FB00F03D
:1028C000B2F800F0AAF800F0B5F8A06E00F0A3FE90
:1028D000002804BF9DF80400012829D1A06E04F14E
:1028E000280100F0A3FE3878A8B1E06CC0061FD51F
:1028F000A16A04220DF1330001F0C1FBE16A042258
:102900000DF1370001F0BBFB216B04220DF13B0000
:1029100001F0B5FB0CE0207850B1206BE36AA26AAD
:102920000FF23C2100F082F800F07DF800F075F81D
:1029300000F080F8E06E00F032FF002804BF9DF840
:102940000400012829D1E06E04F1340100F03AFFBF
:102950003878A8B1E06C80061FD5616B04220DF1B8
:102960003F0001F08CFBA16B04220DF1430001F04C
:1029700086FBE16B04220DF1470001F080FB0CE0C7
:10298000207850B1E06BA36B626B0FF2F81100F08E
:102990004DF800F048F800F040F800F04BF8206FD8
:1029A00000F079FF002804BF9DF80400012829D118
:1029B000206F04F1400100F079FF3878A8B1E06C95
:1029C00040061FD5216C04220DF14B0001F057FB8E
:1029D000616C04220DF14F0001F051FBA16C042247
:1029E0000DF1530001F04BFB0CE0207850B1A06CCE
:1029F000636C226C0FF2B01100F018F800F013F8BD
:102A000000F00BF83878002804BF207800283FF445
:102A10005BAE002000F035FA58E682B24B462946FC
:102A2000404601F097BB284601F060BE0090284662
:102A300001F038BB00208DF8040001A97047002088
:102A40008DF8000000A9704710B52DED048BFDEE48
:102A5000C00AC0ED000AB5EE400AF8EEE00AF1EE59
:102A600010FA0C46ACBF30EE608A30EEC08A1046D9
:102A700001F058FE41EC110B9FED2F0B02F0A9F86D
:102A8000B0EE409AF0EE609A18EE100A02F0C0FA2A
:102A900053EC192B02F0E4FA41EC100B02F0B1FBFD
:102AA00051EC100B02F0BAFB2060BDEC048B10BDA2
:102AB000B0F5005F00D0704710B51B4C206E0028A9
:102AC00004BF606E002802D100F0BBF809E000F0FE
:102AD000B8F86066606E216E401AB0F5967F0BD92B
:102AE000606E20661348007808B1002003E021786A
:102AF000481E8041C00F207010BD00B585B0002376
:102B00008DF800008DF801108DF802208DF803304B
:102B1000019303930493002200A9094800F06AFB83
:102B200000B1FEE705B000BD74020020002800409F
:102B30000000002054080020000000000000244095
:102B400078020020FEE7000054696D655374616DE2
:102B5000703A2025643A25643A25642E25640A00DB
:102B60004143435F583A2025642C204143435F5939
:102B70003A2025642C204143435F5A3A2025640AB9
:102B8000000000004759525F583A2025642C204726
:102B900059525F593A2025642C204759525F5A3ABE
:102BA0002025640A000000004D41475F583A202567
:102BB000642C204D41475F593A2025642C204D411B
:102BC000475F5A3A2025640A0000000050524553DE
:102BD000533A2025642E253032640A0048554D3A78
:102BE0002025642E253032640A00000054454D50E3
:102BF0003A2025642E253032640A000080B5032077
:102C0000FFF7D5F90F2000F005F800F002F80020DA
:102C100002BD704710B50446114800684FF47A7140
:102C2000B0FBF1F0FFF7F7F9002221464FF0FF303B
:102C3000FFF7CAF9002010BD0A480168491C01606D
:102C4000704708480068704738B50446FFF7F9FF39
:102C50000546FFF7F6FF401BA042FAD331BD000046
:102C60007C080020FC0D002000B595B000A81421C0
:102C700002F0FAFA0FF26C1105A891EC100B80EC3F
:102C8000100B1020059001200B9060200D9000206B
:102C90000C9002200E9001200F901090282011908F
:102CA00002201490072012900420139005A802F02F
:102CB000DFFA08B1FFF746FF0F2000900421032040
:102CC0000190002002900390049000A802F0C5FC3F
:102CD00008B1FFF737FF15B000BDF0B50068324E00
:102CE000B0424FF000614FF400024FF400234FF464
:102CF00000444FF400651FD32C4E2D4F3668B84268
:102D000008BF082137D02B4FB84208BF802132D0EE
:102D1000294FB84208BF29462DD0284DA84208BFE8
:102D2000214628D0264CA04208BF194623D0254B67
:102D3000984220D111461EE0234E244F3668B842F7
:102D400008BF082117D0224FB84208BF802112D0F7
:102D5000204FB84208BF29460DD01F4DA84208BFDA
:102D6000214608D01D4CA04208BF194603D01C4B79
:102D7000984208BF114601EA0600F0BD00684068AD
:102D800070471749016000218160C16080210161A5
:102D90000021416181612021C1614FF440510162F4
:102DA000022141607047000081000240000402409F
:102DB000080402401C040240300402404404024063
:102DC000580402406C040240000002400800024027
:102DD0001C00024030000240440002405800024003
:102DE0006C00024000000000000000000000000035
:102DF00000000000000000000000000000000000D3
:102E000000000000000000000000000000000000C2
:102E100000000000000000000000000000000000B2
:102E20000000000010B586B0044600F07BF83CB905
:102E3000DFF8F800016841F00101016000F010F8CE
:102E40000FF2F80030F8140000F065F8022004904A
:102E5000DFF8DC0050F82400FEF796FF06B010BD46
:102E6000006800F001000090009870470FF2CC015C
:102E7000DFF8BC3031F8101053F820000022FFF7C3
:102E800061B80FF2B801DFF8A82031F8101052F83D
:102E90002000FFF75CB830B587B004460D4600F05F
:102EA00041F854B9DFF88400016841F00401016081
:102EB000006800F0040000900098DFF878000FF23E
:102EC00080013DB931F8141001910021029100F008
:102ED0001AF816E0012D14D131F814100191DFF821
:102EE00058100291002100F00EF80FF2580030F84F
:102EF000144000220F2160B2FFF766F860B2FFF7BE
:102F000080F807B030BD03910221049101A950F867
:102F10002400FEF739BF019001A901200290002092
:102F20000390704701A8142102F09EB94C10024092
:102F30007408002078080020000021102000000004
:102F400000200000280000002DE9F14F764C82B0EF
:102F500004F10800FFF7C1FE0027002867D104F143
:102F60000800FFF70BFFC0F50075A688DFF8BC81ED
:102F7000ADB2B542AEBFA81B05F50070801B80B294
:102F80000090B94603E009F101001FFA80F90098AA
:102F9000814548DA16F80800761CB6B2B6F5007F0F
:102FA000A8BF0026F028EED1A6884FF0000A0CE05A
:102FB00081190B1201EBD35182194912A2EB412660
:102FC0005044B6B27F1C1FFA80FA701CCA4517DA4B
:102FD000011200EBD1514912A0EB412116F8080073
:102FE0001FFA81FBBFB21BF80810029ABA18121D13
:102FF00001F00CF8C0B20028DAD1A4F804B017E050
:103000000299BFB202120F6000EBD250711C401245
:10301000A1EB4026B6B2A680029801F016F800286F
:10302000B1D0012004E0B0F5807FC8BFA5800020AA
:10303000BDE8FE8F38B5044600F0F7FF3C4D214651
:1030400005F1740000F0CEFF82B205F1740128464C
:1030500001B0BDE8304041F2883301F07BB810B5D3
:10306000314C04F10800FFF78CFE04F1080002F077
:103070005BFC2F4804F108014166206310BD30B5A8
:103080002C482B4C87B0416841F00101416004F1AC
:10309000580500F053F8416841F00101416000F02B
:1030A0004DF8016941F400310161016901F4003119
:1030B00000910099016841F00101016001A90068D7
:1030C00000F001000090009804200190022002907E
:1030D000002003900220049000F036F808200190B0
:1030E00001A900F031F814482060A8696060002050
:1030F000A060E0602061A0610C206061204600F0CB
:10310000EBFF00B1FEE7FFF7AAFF4FF40070288045
:1031100000200649616568614FF40072204601F0A5
:103120006BF807B030BD0000CC0C002084080020F4
:10313000000000204810024000440040416801F0B7
:103140000101009100997047072005904FF09040D1
:10315000FEF71ABE38B5040011D094F8210020B94A
:1031600084F82000204602F0D1FC00F038F8FF255A
:103170000028206805D04562042084F82100012041
:1031800032BD8168DFF89822114000F07FF8626854
:1031900023691A43A3691A43114381602168E068D7
:1031A000086120680169A26841EA02410161206862
:1031B000C16821F08001C1602068C16C8908890064
:1031C000C1642068C16CE26963691A431143C16438
:1031D00020684562012084F82100002032BD0220D1
:1031E00084F82100CA20216848625320216848627F
:1031F000204633E1F8B500F0F3F801D10220F2BD2A
:1032000000F0FAF80FD140065CBF0020E870287883
:1032100000F03EF900F037F800F0DFF8390241EA3B
:10322000064108430BE0400603D5287800F03BF93F
:1032300001E00020E8706978287800F091F8E978DA
:1032400040EA014600F09BF8FF27B0B92168DFF89B
:10325000D401304008602068816821F4802100F0AA
:1032600015F8EA682B691A431143816000F07EF873
:1032700006D4204600F0DAF810B12068476286E0F4
:1032800020684762C4E00646687801E181602068F2
:103290008168704710B500680C46816A61600169F9
:1032A0004904490CA1600068DFF878110840010C5E
:1032B00001F03F032370A070030A01F04000637027
:1032C000E0703AB9207800F0EEF800F005F800F070
:1032D00081F8A070002010BD20706078E3E0F8B5A0
:1032E00000F07EF801D10220F2BD012084F8200018
:1032F000022084F82100002A687826D1C10603D56F
:1033000000F0EF000A306870E87800F0C1F8FFF7CD
:10331000BAFF00F062F8390241EA06410843297811
:1033200040EA413600F02BF8FF2558B92168DFF854
:10333000F8003040486000F019F810D4204600F042
:1033400075F860B12068456221E000F0ACF8A8781B
:1033500000F0A9F86978E87800F002F8DFE755E0B6
:10336000090241EA0040A978084370472068C16813
:1033700021F08001C1602068806880067047216864
:10338000CA204862532021684862204666E0042033
:1033900000F02CF80120F2BD10B5006840680C4622
:1033A000DFF884100840010CE170A070010A01F000
:1033B0001F01400B617000F00700207042B9E078F7
:1033C00000F071F8E070FFF788FF00F003F8A070DC
:1033D000002010BD6070A07865E00746A87857E02F
:1033E00004460D4694F820000128704784F8210017
:1033F000002084F820007047012084F8200002207B
:1034000084F82100002A206880687047206845629F
:10341000012084F82100002084F82000F2BD000083
:10342000BFFF8FFF7F7F7F003FFFFF0038B504465F
:103430002068C16821F0A001C160FFF702FC0546C9
:103440002068C068800607D4FFF7FBFB401BB0F57F
:103450007A7FF5D9032032BD002032BD38B504464D
:103460002068C168490611D44FF0FF31C160FFF7F1
:10347000E8FB05462068C068400607D4FFF7E1FB7B
:10348000401BB0F57A7FF5D9032032BD002032BD54
:10349000002101E0491C0A38C0B20A28FADA40EAE1
:1034A0000110C0B2704701090A2200F00F0012FBA0
:1034B0000100C0B27047000010B50C460021216029
:1034C00068B10128204610D000F04DF8012804D141
:1034D000204600F010F801280BD0002010BD204637
:1034E00000F009F80128F8D103E000F03CF80128C9
:1034F000F3D1012010BD38B5394D0446E8780128D4
:1035000030D0FEF74DFB01282CD068202870D62043
:1035100068700020688028710120687105F128001A
:10352000A8603048E860002028612F48E86305F172
:103530003800A8620020E8622560E8680168080099
:1035400004D11421284601F08FFE07E02846884761
:10355000012804D12068142102F010FB4AE0FEF794
:1035600025FB002032BD38B51D4D0446E87D0128FD
:1035700034D0FEF715FB012830D069202875D420FF
:1035800068750120A8750020E87528760120687606
:1035900005F13000E861154828621548686205F1B8
:1035A000400028630020686305F114002060286A49
:1035B0000168080005D1142105F1140001F054FE42
:1035C00008E005F114008847012804D1206814217F
:1035D00002F0D4FA0EE0FEF7EBFA002032BD000054
:1035E000100D0020FC040020E80D002084050020C0
:1035F000F403002000202060012032BD80B518B106
:10360000C16889680A0001D1012002BD88470128EC
:1036100018BF002002BD002818BF002901D10120D9
:103620007047C078FFE708700020704780B5002819
:103630001CBFC268002902D09269130001D1012089
:1036400002BD9047012818BF002002BD10B50C46EE
:103650000021216068B10128204610D000F04BF80D
:10366000012804D1204600F010F801280BD00020DA
:1036700010BD204600F009F80128F8D103E000F061
:103680003AF80128F3D1012010BD38B5374D044672
:10369000E87801282ED0FEF783FA01282AD0682086
:1036A0002870D62068700020688028710120687119
:1036B00005F12800A8602E48E860002028612D4808
:1036C000E86305F13800A8620020E8622560E86838
:1036D0000168080004D11421284601F0C5FD07E067
:1036E00028468847012804D12068142102F046FAB0
:1036F00044E0002032BD38B51C4D0446E87D012869
:1037000032D0FEF74DFA01282ED069202875D4203A
:1037100068750120A8750020E87528760120687674
:1037200005F13000E861144828620020686205F164
:10373000400028630020686305F114002060286AB7
:103740000168080005D1142105F1140001F08CFD79
:1037500008E005F114008847012804D120681421ED
:1037600002F00CFA0AE0002032BD0000540D0020E7
:1037700040050020E80D0020C80500200020206042
:10378000012032BD80B518B1C16889680A0001D135
:10379000012002BD8847012818BF002002BD002873
:1037A00018BF002901D101207047C078FFE70870D9
:1037B00000207047002818BF002901D10120704760
:1037C0008078F4E780B500281CBFC268002902D0C9
:1037D0009269130001D1012002BD9047012818BF52
:1037E000002002BD80B5002200280A60084605D0EE
:1037F00000F00AF8012805D0002002BD00F004F80E
:103800000128F9D1012002BD38B51A4D0446E878E7
:1038100001282DD0FEF7C4F9012829D03D202870B9
:103820003C20687000206880A88005F11400A86022
:103830001148E8600020286105F11C006861002043
:10384000A8612560E8680168080004D114212846B1
:1038500001F00AFD07E028468847012807D12068C3
:10386000142102F08BF900202060012032BD0020DD
:1038700032BD0000B80D0020CC06002080B518B184
:10388000C16889680A0001D1012002BD884701286A
:1038900018BF002002BD002818BF002901D1012057
:1038A0007047C078FFE708700020704780B5002897
:1038B0001CBFC268002902D09269130001D1012007
:1038C00002BD9047012818BF002002BD80B500222C
:1038D00000280A60084605D000F00AF8012805D043
:1038E000002002BD00F004F80128F9D1012002BD3A
:1038F00038B51C4D0446E878012831D0FEF750F960
:1039000001282DD0BC202870BE206870002068805F
:1039100028710120687105F11400A8601248E86060
:10392000002028611148E86105F11C006861002051
:10393000A8612560E8680168080004D114212846C0
:1039400001F092FC07E028468847012807D120684B
:10395000142102F013F900202060012032BD002064
:1039600032BD0000980D002044070020F80D002013
:1039700080B518B1C16889680A0001D1012002BD73
:103980008847012818BF002002BD002818BF002961
:1039900001D101207047C078FFE708700020704710
:1039A00080B500281CBFC268002902D092691300AC
:1039B00001D1012002BD9047012818BF002002BD9F
:1039C00010B50C4600212160D8B1022820D01CD3AC
:1039D0000328204622D000F0B7F801280FD1214655
:1039E000022000F058F8012809D1204600F01CF808
:1039F000012804D1214600F04EF8012812D0002001
:103A000010BD204600F010F805E02146012000E03E
:103A1000214600F040F80128F1D103E000F094F8CD
:103A20000128ECD1012010BD38B5644D0446E8787A
:103A300001282FD0FEF7B4F801282BD0BC20287025
:103A4000BE2068700020688028710120687105F12F
:103A50005000A8605A48E86000202861594828674B
:103A600005F170002865002068652560E868016838
:103A7000080002D100F0B2F807E028468847012884
:103A800007D12068142102F079F80020206001207D
:103A900032BD002032BD70B50546484E142000FBF3
:103AA00005600C46C07801284DD0FEF779F8012852
:103AB00049D0012D06F114004349444A02D0022D99
:103AC00017D030E0BD230370C260BA234370016693
:103AD0000123837000220023C370037106F1740177
:103AE00001234371026106F15803836041648264DB
:103AF00018E0BD230375091DB82343750262022334
:103B0000837541660023C375037600220123437643
:103B100006F1780106F16003C3614262C164026587
:103B200006F1280020602068C16809680A0008BF03
:103B3000142104D08847012804D12068142102F000
:103B40001DF84FE0002070BD70B51C4E06F13C051D
:103B50000446E878012830D0FEF722F801282CD05E
:103B6000B1202870B82068700320A8700020E87089
:103B700028710120687106F16800A8601448E860A7
:103B8000144828611448286406F17C00E86200208B
:103B900028632560B06C0168080002D100F01EF8AF
:103BA00007E028468847012804D12068142101F045
:103BB000E5FF17E0FEF737F8002070BD840A00200B
:103BC0006C070020F80D0020E00D00200C080020FC
:103BD000BC07002008070020D80D0020142128462B
:103BE00001F042BB00202060012070BD80B518B1FB
:103BF000C16889680A0001D1012002BD88470128F7
:103C000018BF002002BD002818BF002901D10120E3
:103C10007047C078FFE708700020704780B5002823
:103C20001CBFC268002902D09269130001D1012093
:103C300002BD9047012818BF002002BD10B50C46F8
:103C400000212160A0B102281BD013D3204600F030
:103C500074F801280AD1214600F01AF8012805D18C
:103C60002146002000F014F801280FD0002010BDDC
:103C7000214601E02146012000F00AF80128F5D193
:103C800004E0204600F059F80128EFD1012010BDD2
:103C900070B50546474E142000FB05600C46C07801
:103CA000012849D0FDF77CFF012845D0424843490F
:103CB00015B1012D16D02FE0BD223270F160BA226D
:103CC000727070650022728032710021012272715F
:103CD00006F1540006F13C02B2603161F0633164D8
:103CE000266019E0BD223275001DB8227275B065DC
:103CF0000122B27531620022F275327606F1580067
:103D000001227276706406F144020021F261716250
:103D1000B16406F1140020602068C16809680A00D7
:103D200008BF142104D08847012804D12068142139
:103D300001F024FF4AE0002070BD70B51D4E06F171
:103D400028050446E878012832D0FDF729FF01282C
:103D50002ED0B1202870B82068700220A8700020F2
:103D6000E87028710120687106F14C00A8601448C1
:103D7000E860144828611448686306F15C006862D2
:103D80000020A8622560706B0168080004D114212E
:103D9000284601F069FA07E028468847012804D13F
:103DA0002068142101F0EAFE10E0FDF73CFF00203E
:103DB00070BD0000840B0020E00D0020E40700200F
:103DC0009407002008070020D80D00200020206064
:103DD000012070BD80B518B1C16889680A0001D1A1
:103DE000012002BD8847012818BF002002BD00281D
:103DF00018BF002901D101207047C078FFE7087083
:103E000000207047002818BF002901D10120704709
:103E10008078F4E780B500281CBFC268002902D072
:103E20009269130001D1012002BD9047012818BFFB
:103E3000002002BD417901713221417181798039BF
:103E400081717047594949780171322141710821C6
:103E5000817103210160704770B5044682B020680B
:103E600002281CD32179322919D1A1794F4D504E06
:103E7000012915D002291DD0042929D0082967D08D
:103E800009297BD00C2900F081800E290BD06029F4
:103E900025D0622936D0762937D07A2953D081E0CF
:103EA0000328FCD166E003287CD100F089F80320C8
:103EB000206046E0032875D100F082F80020411907
:103EC00002190979D171401C1028F8D3C01C34E0C4
:103ED000032867D300F074F80422002129E00328A6
:103EE00060D300F06DF83348006800A9FFF78AFF3F
:103EF0009DF80000C0B1022801D018D31EE00422B2
:103F0000032116E0032820D24CE003284AD300F016
:103F100057F82948006800A9FFF74CFC9DF80000FD
:103F200010B1012803D009E00422012101E004229C
:103F30000221E01D00F0A3F8072020602046FFF7D3
:103F400079F8012076BD03282CD300F039F8EBE78F
:103F5000032827D30421E01D00F090F830600421ED
:103F600004F10B0000F08AF8144908600120287061
:103F70006079687000F024F80320DEE7032811D38D
:103F800000203060287000F01BF8D7E7032809D321
:103F900000F016F803202060627A217AE079FEF7BB
:103FA000ACFDCBE7002076BD0000000054080020E7
:103FB000C0020020F0020020E0020020C402002025
:103FC000204637E7F02902D0F12904D007E0F1219B
:103FD0000170F22100E00170417002207047017011
:103FE00001207047F8B504460D460026002706E07C
:103FF00078197F1C01793019FFF7E4FF86192868CA
:104000008742F5D3F0203055701CF2BDF12809D15C
:10401000F12902D0F22903D1F0201070022070475C
:10402000002070471070012070470021002203E03B
:104030001318521C1B79C91A03689A42F8D3121834
:1040400011710168491C016070470021002204E0E1
:104050001318521C1B795918C9B203689A42F7D336
:104060005A1E0260481E8041C00F7047002302E0C4
:1040700019545B1C090A9342FAD3704707E00023E6
:1040800002E019545B1C09129342FAD370474A1E8E
:10409000115C03E0521E135C03EB0121002AF9D1ED
:1040A000084670470CB41CB5044604A801900A46A3
:1040B000009401AB00A907487844183001F062FD74
:1040C000009A0021117000285CBF0098001B16BCEC
:1040D0005DF80CFB37D2FFFF38B504000BD004F1BC
:1040E0006805687818B92870204600F032F800F0AA
:1040F0000DF8012801D1012032BD606A08B100F03D
:1041000025F800F014F821F02A0109E00220687077
:1041100020680168490849000160204600F0AFB8F6
:10412000816000F00CF8BDE8324000F03ABA206837
:10413000416821F49041416020688168704720689F
:10414000016841F00101016020467047204600F0FF
:10415000C5B97047F8B5044604F150070D46787E9E
:1041600001281CBF787E22281E4640D1002D18BF92
:10417000002A01D10120F2BD387E012837D001206C
:1041800038760020F861787E22280CBF3220122079
:1041900078763A807A8001E0216808857888A8B12D
:1041A000401E788033460022802100F022F898B922
:1041B000A068B0F5805F04BF2069002811BF15F822
:1041C000010B35F8020BC005C00DE5E733460022B0
:1041D000402100F00EF808B10320F2BD787E3228AD
:1041E0000CBF22200120787600203876F2BD022014
:1041F000F2BD204600F013BA38B5054605F1580463
:10420000607C01281CBF607C12282DD1002918BFBA
:10421000002A01D1012032BD207C012824D00120B8
:1042200020746965228000206061607C12280CBFC8
:10423000322022206074E3680FF2B130D862E36864
:104240000FF27D401863E36800F010F80A4600F1B1
:104250002401E06801F008FC2868816841F0400111
:1042600081600020207432BD022032BD0FF25D401B
:104270005863134628687047704770477047F8B511
:1042800004468A4B226810681840A36818432369C3
:10429000184363691843E369184310601026506897
:1042A000E36820F440501843506000210025A069C5
:1042B0007F4B9A421CBF276A3843976827F43067C0
:1042C000384390607B4F7C48BA421FD1006810F0A1
:1042D000030004D0022826D035D3032831E001267C
:1042E000E069B0F5004F40F0B98066B1012E00F0F2
:1042F0009E80022E00F09E80042E00F09D80082EED
:1043000000F09E80A2E001F0A4FA97E06B4FBA4261
:104310000BD1006810F00C005DD0042813D00828E1
:1043200001D00C280DE002261DE0654FBA420CD1E9
:10433000006810F030004ED0102804D02028F2D0B1
:1043400030280FD00FE004260DE05E4FBA4223D193
:10435000006810F0C0003ED04028F4D08028E2D0A1
:10436000C02800D108269A42BAD1300006D0022EC9
:1043700033D0042E33D0082E34D092E001F069FA05
:10438000002800F08F80626802EB4201884202D36D
:104390001103814229D284E04B4FBA420CD100680C
:1043A00010F4407017D0B0F5807FCCD0B0F5007F0E
:1043B000B9D0B0F5407FC4E79A42D4D1006810F478
:1043C000406008D0B0F5806FBDD0B0F5006FAAD0C6
:1043D000B0F5406FB5E70026C5E73C48D3E701F0EC
:1043E000E1F9CDE74FF40040CDE736B1022E07D01A
:1043F000042E07D0082E0CD012E001F02AFA03E0B8
:10440000334808E001F0CEF9010E62680002002393
:1044100003E04FF4000000210B4601F085FF00E0AF
:104420000125A0F540712B4A91423AD22EE001F0CD
:1044300018FA03E0284805E001F0B4F9400001E073
:104440004FF480306168B0FBF1F100E001254FF6D8
:10445000F0700840C1F34201084317E046B1012E55
:1044600009D0022E0AD0042E0AD0082E11D018E04E
:1044700001F0EFF906E001F0F4F903E013480AE077
:1044800001F090F96168B0FBF1F080B22168C8607A
:1044900008E04FF400406168B0FBF1F080B2D060FA
:1044A00000E001252846F2BD00000000F369FFEF9F
:1044B0000080004000380140881002400044004065
:1044C00000480040004C0040005000400024F40030
:1044D000000024F400FD0F000048E80190F82410CB
:1044E000C90706D501684A68836A22F400321A4374
:1044F0004A6090F82410890706D501684A68C36AA3
:1045000022F480321A434A6090F82410490706D5F5
:1045100001684A68036B22F480221A434A6090F8CB
:104520002410090706D501684A68436B22F400424B
:104530001A434A6090F82410C90606D501688A68B3
:10454000836B22F480521A438A6090F82410890603
:1045500006D501688A68C36B22F400521A438A6048
:1045600090F82410490610D501684A68036C22F4BB
:1045700080121A434A60026CB2F5801F05D14A6866
:10458000436C22F4C0021A434A6090F824100906D2
:1045900006D501684A68806C22F400221043486006
:1045A000704770B5044604F16805002068606FF03C
:1045B0007E4620680068000706D5334600224FF487
:1045C0000011FFF716FE50B920680068400708D5B3
:1045D000334600224FF48001FFF70BFE08B10320A1
:1045E00070BD012068700020287070BD80B5816AA0
:1045F0000068006880060ED401F15A000022028093
:104600000A68936823F040039360C27B322A0CBF90
:1046100012220122C2730846FFF72EFE01BD2DE9CA
:10462000F84304460E4691461F46FEF70AFBB9F1D1
:10463000000F804604F168050FD12068C069304042
:10464000B0422BD017F1010FF7D0AFB1FEF7F9FA56
:10465000A0EB08008742F0D20EE02068C06930402D
:10466000B0421BD117F1010FF7D02FB1FEF7E9FAD5
:10467000A0EB08008742F0D2206800F012F821F089
:10468000200101602068016821F48071016000F060
:104690000FF8687000202870032000E00020BDE8BB
:1046A000F283016821F08001016020680168704791
:1046B0002068816849084900816001207047000036
:1046C00080B5806AFFF7D9FD01BD000080B5806A22
:1046D00000F1520100220A810A800122CA75C16ECE
:1046E00041F01001C166FFF7C9FD01BD00F10103F2
:1046F000810704D010F8011B89B18107FAD1026843
:10470000B2F10131914311F0803F04BF50F8042F02
:10471000F6E710F8011B11B110F8011BFBE7C01AF6
:1047200070470000010040F10780F446404200F06D
:1047300003F851F00041604709D0B0FA80F1884099
:10474000C91CC1F58461090501EBD0214005704702
:104750002DE9F8452DED088B0FB486B040F2FF71BE
:1047600007989DED080B8DED040BC0F30A508842AD
:1047700008D107980024000305BF069800280225E9
:10478000012512E0012807DA06A801F044FE0128FD
:1047900002DB0024002508E0079A40F2FE3161F3B5
:1047A0001E520792441A4FF0FF35002104A801F071
:1047B00053FE1A9F06460FB10020388036B9DDE956
:1047C00008230020002101F087FE12D0002D13D510
:1047D00024B2012C15D1DDE906230020DFF88C136B
:1047E00001F07AFE05D0012E0BD1DF4901F074FEF5
:1047F0003ED10AB0CD49E8E1022D04D1DDE9060140
:10480000E2E1012E6FDB022E08BFDDE9080100F0B6
:10481000DB81012D2AD107980028099806D40028A9
:1048200054BF9FEDD50B9FEDD60BCBE100280ED4E6
:1048300056B94FF0FF3104A801F00EFE002848BF22
:104840009FEDD10B00F1BE819FEDCB0BBAE156B9C4
:104850004FF0FF3104A801F0FFFD002848BF9FED95
:10486000B40B00F1AF819FEDC60BABE1012E11D16E
:104870000998002824B206D4012CACBF9FEDBE0BD2
:104880009FEDBF0B9EE1012CACBF9FEDBD0B9FEDDB
:10489000BA0B97E10998002810D466B94FF0FF31A0
:1048A00004A801F0D9FD002842BF079800289FED19
:1048B000A00B00F187819FEDB20B83E101F01CFE9C
:1048C0002221016066B94FF0FF3104A801F0C4FD58
:1048D000002842BF079800289FEDAB0B00F17281C2
:1048E0009FEDA50B6EE10798002848BF002E0CD560
:1048F00001F002FE212101600AB04FF0FF30BDEC53
:10490000088B6FF00041BDE8F485DDE90601002267
:10491000002301F0F7FD38BF002509D381F00041E5
:10492000CDE906014FF0FF3104A801F095FD0546E1
:10493000012C13D1DDE906017F4A804B01F0FAFD1D
:104940000CD2DDE9062300204FF0804100F088FB07
:10495000CDE9060100269FED7A8B1CE0DDE90623F8
:104960000020794900F07CFB9FED788B53EC182BED
:1049700001F0F8FD00F052FCA0F120063046FFF7F0
:10498000D1FE0022734B00F06BFB53EC182B01F0AF
:10499000E9FD41EC180B0FF2582000EB461ADDE957
:1049A000060153EC182B01F051FEDDE9062341EC22
:1049B000190B51EC180B01F0D5FD02460B4651ECDA
:1049C000190B01F003FF41EC1A0B53EC1A2B00F00A
:1049D00047FB41EC1B0B8DED069B02F023F853ECDB
:1049E0001B2B00F03DFBDDE9062301F02FFE064600
:1049F000884600204D4953EC182B01F027FE002279
:104A00004FF0804300F02CFB3246434601F0AAFDF4
:104A100053EC1A2B00F024FBDDE9062301F0A2FD84
:104A200041EC180B4C4A4D4B01F0D0FECDE904018E
:104A30002046FFF777FE41EC190BDAE9000153EC51
:104A4000192B01F08FFDDDE9042301F08BFDCDE989
:104A50000401DDE9082300F003FB0022404BCDE90F
:104A6000020101F067FDC0F0938001223D4B01F08F
:104A700049FD40F291800022002301F05BFDDDE959
:104A8000022339BF002038490020384901F06AFD6F
:104A900000F0C4FB0446DDE9080153EC182B00F0DC
:104AA000DFFACDE90201DAE90223DAE9040101F0D3
:104AB00059FDDDE9082300F0D3FA9FED2D8B53EC6F
:104AC000182B00F0CDFADDE9022301F04BFDCDE912
:104AD0000201DAE9002351EC190B01F043FDDDE995
:104AE000082300F0BDFA064688462046FFF71AFE66
:104AF00002460B463046414601F0A8FD53EC182B08
:104B000000F0AEFADDE9022301F02CFDCDE902014F
:104B10000FB13C80002400940022044B02A801F055
:104B2000D9FFA8B3012837D042E000BF0000F03F12
:104B30000000000000000080CD3B7F669EA0E63FA5
:104B4000000000000000F03F0000504000000000A6
:104B50000000E03F0000903FEF39FAFE422EE63FB2
:104B60000000E0C00000E0400000E0BF0000E03FC7
:104B7000EF39FAFE422EE63F000000000000F07F11
:104B80000000000000000000000000000000F0FF36
:104B90000020CDE9020007E00020014902E000BF4B
:104BA0000000F07FCDE9020101F0A6FC22210160A6
:104BB000002D1DBFDDE9020181F0004141EC100B29
:104BC0009DED020B51EC100B0AB0BDEC088BBDE85B
:104BD000F48580B50020009053EC112B51EC100BA4
:104BE000FFF7B6FD41EC100B01BD00000000000016
:104BF000000000000000F0BF000000000000008086
:104C00000000000000000080000000000000000024
:104C1000000000C05294EEBF00000048204E51BE7C
:104C2000000000F86467BCBC000000000000000049
:104C3000000000208133EDBF00000080B3DB14BE14
:104C4000000000506706A3BC000000000000000048
:104C5000000000D0E9DCEBBF00000008C39259BEA1
:104C600000000080B0D3B8BC0000000000000000CD
:104C700000000070F98FEABF000000C0A51028BE38
:104C8000000000E8BFC0B0BC000000000000000051
:104C900000000070284CE9BF00000060134B42BECA
:104CA000000000C03D20B8BC000000000000000073
:104CB00000000050FA10E8BF000000C05FF62BBEF5
:104CC000000000905C71A7BC000000000000000024
:104CD00000000020FCDDE6BF000000C0F8F154BE7B
:104CE00000000018E9F6B9BC000000000000000058
:104CF000000000D0C3B2E5BF00000070E43254BE33
:104D000000000050DB06B4BC000000000000000002
:104D100000000010EF8EE4BF00000020F36252BEDE
:104D2000000000C02A879ABC0000000000000000BC
:104D3000000000B02272E3BF000000F0E8E056BEC1
:104D400000000028352DBDBC000000000000000060
:104D5000000000000A5CE2BF000000B0FA8E41BE15
:104D600000000040AE6FBDBC00000000000000006D
:104D700000000000564CE1BF000000F015CD5FBE02
:104D800000000000141C90BC0000000000000000A7
:104D900000000040BD42E0BF00000030F93457BEC3
:104DA000000000E06C1E93BC00000000000000004A
:104DB000000000E0F57DDEBF000000B08A535EBE5B
:104DC00000000080DA77AABC0000000000000000AC
:104DD000000000C09D81DCBF00000000FFA226BED5
:104DE0000000006057E2B0BC0000000000000000BE
:104DF00000000060F98FDABF000000580A8151BE40
:104E0000000000F05F60B8BC00000000000000007F
:104E10000000000098A8D8BF000000607A7F45BE5F
:104E2000000000D05433A3BC0000000000000000CC
:104E3000000000600FCBD6BF000000D091CB40BE79
:104E4000000000406D1BA0BC00000000000000003E
:104E5000000000A0FBF6D4BF00000098C5CE52BEF3
:104E6000000000003A397EBC000000000000000095
:104E7000000000E0FE2BD3BF0000004073872BBE74
:104E800000000000926879BC0000000000000000F3
:104E900000000040C069D1BF00000058F16353BE5C
:104EA00000000080438D7CBC00000000000000007A
:104EB00000000080D85FCFBF000000181F8354BEE1
:104EC000000000B03F42A2BC000000000000000053
:104ED0000000008067FCCBBF00000060FAFF53BEFB
:104EE00000000050E00DB8BC000000000000000011
:104EF0000000000098A8C8BF000000607A7F35BE9F
:104F0000000000C0543393BC00000000000000000B
:104F100000000000DC63C5BF00000058D6FF54BE8F
:104F200000000000396490BC000000000000000098
:104F3000000000C0AD2DC2BF00000080A45915BE06
:104F4000000000E0484BABBC000000000000000087
:104F5000000000801A0BBEBF00000050BF3C5ABECC
:104F6000000000A0B364B6BC000000000000000018
:104F70000000008004D6B7BF00000040BBCF36BEA3
:104F80000000008076CEA8BC0000000000000000F9
:104F90000000008032BBB1BF000000402A0043BEC9
:104FA00000000028C60CBDBC00000000000000008E
:104FB000000000009473A7BF000000182B3B59BEEF
:104FC000000000C0E55DA5BC00000000000000007E
:104FD00000000000EE4397BF000000A0E6C340BE03
:104FE00000000020958DB5BC00000000000000000E
:104FF00000000000000000800000000000000080B1
:105000000000000000000080000000000000000020
:105010005FF0FF0C1CEAD05114BF614506E0C110DF
:10502000400721F0E04101F16051704779B900F08B
:10503000004100020AD0B0FA80FC00FA0CF001F145
:105040006051A1EB0C5101EBD021400570474102AA
:105050000CBF40F4E0016FF0000100207047000039
:10506000B0B581EA030C0CF0004C40F2FF7515EA74
:1050700011541DBF15EA1357AC42AF4239E0E41991
:1050800023EA455343F48013C90241F0004141EA49
:10509000505EC7021100A7FB020200284FF000007B
:1050A000EEFB01204FF00001E3FB072118BF42F0A7
:1050B0000102401800214941E3FB0E01A4F5806480
:1050C0000F0302D252004041494154F101046CDD0A
:1050D000470872F1004250F1000051EB0451A1F574
:1050E00080115CBF41EA0C01B0BD4CEA05510020C3
:1050F000B0BD05EA1357AC4214BFAF4241E050EADD
:10510000410E1CBF52EA430E02E061460020B0BDD2
:1051100024423C441BD15FEA070EF6D0090302BFCC
:1051200001460020AEF1140EB1FA81F7AEEB070490
:1051300001FA07FE0C37C7F1200100FA07F7C84053
:105140004EEA000E23EA455343F48013A2E733F0FE
:105150000043B3FA83F704BFB2FA82FE77440B3FF1
:10516000E41BB7F1200E2FBF02FA0EF3BB40C7F1CC
:10517000200E22FA0EFE38BF43EA0E03BA40641C2A
:1051800082E750EA410E14BF52EA430E6FF000016D
:105190004FF4001717EB430F8ABF194617EB410F67
:1051A000B5E74CEA05510020B0BDD4F10104B4F1DB
:1051B00020070FDAC4F12007520828BF42F001028D
:1051C00010FA07F501FA07F7E1BF2A43E040384338
:1051D000E1400FE0352C98DCC7F1200452EA400290
:1051E00020FA07F218BF42F0010231FA07F0A1409D
:1051F0000A43002172F1004250F1000051EB0C0112
:10520000B0BD00B583B000218DED000B00A801F00A
:1052100023F99DED000B03B000BD0000F446400DE6
:1052200040EAC120490006D200F00EF8004248BF13
:105230006FF00040604700F007F84FF000418842EF
:105240008CBF08464042604740F00040490DA1F540
:105250008061491C05D4D1F11F0154BFC840C0175B
:1052600070474FF000007047002201F097BD00002A
:105270002DE9F8430446DFF880562078DFF87066A1
:10528000C00626D5B06810F00C0F3AD13068800700
:1052900002D5A069002832D0306800074EBF3068C0
:1052A0006868000900F0F001206A814206D200F02F
:1052B000E3FA002823D100F0BEF905E000F0BBF9C5
:1052C000206A00F0D9FAD0B900F06CFAB26800F0A8
:1052D00054FA2078C00774D500F0A9F9082808D03E
:1052E00000F0A5F90C2802BFF06800F003000328C5
:1052F0002AD13068800364D56068002861D101201C
:105300008AE1A0690028306810D040F0010000F068
:1053100085F907463068800705D4FDF792FCC01B6D
:105320000328F7D375E100F086F9D2E74008400082
:1053300000F074F9074630688007CAD5FDF781FC94
:10534000C01B0328F7D364E100F06BF920F4802040
:1053500000F064F907463068800305D5FDF771FC5D
:10536000C01B6528F7D354E16068B0F5803F07D0D3
:10537000B0F5A02F00F055F906D140F48020306040
:10538000306840F4803001E020F4802030606068B4
:1053900058B1FDF756FC07463068800311D4FDF77D
:1053A00050FCC01B6528F7D333E1FDF74AFC0746E4
:1053B0003068800305D5FDF744FCC01B6528F7D392
:1053C00027E12078800719D500F031F9042808D0AA
:1053D00000F02DF90C2802BFF06800F0030002284D
:1053E00022D13068400502D5E068002887D0706877
:1053F000216920F0F85040EA0160706020780007D1
:1054000041D56069002868682ED040F001006860CE
:10541000FDF717FC07466868800734D4FDF711FCD8
:10542000C01B0328F7D3F4E0E068002830680DD0F3
:1054300040F4807000F0F2F8074630684005D6D49A
:10544000FDF7FFFBC01B0328F7D3E2E020F48070D8
:1054500000F0E4F8074630684005CFD5FDF7F1FBD2
:10546000C01B0328F7D3D4E0400840006860FDF774
:10547000E8FB07466868800705D5FDF7E2FBC01B1F
:105480000328F7D3C5E02078400766D5B06DC0008B
:105490004FF000080AD4B06D40F08050B0654FF076
:1054A0000108B06D00F0805000900098DFF84C9437
:1054B000D9F80000C00512D4D9F8000040F480707B
:1054C000C9F80000FDF7BDFB0746D9F80000C0058C
:1054D00005D4FDF7B6FBC01B0328F6D399E0A068FE
:1054E00001280CD008B928680DE0052828680AD1E1
:1054F000400840002860286840F0040028602868C0
:1055000040F0010005E0400840002860286820F0D5
:105510000400286041F28939A06858B1FDF791FB79
:1055200007462868800711D4FDF78BFBC01B484550
:10553000F7D36EE0FDF785FB07462868800705D5A1
:10554000FDF77FFBC01B4845F7D362E0B8F1000FC1
:1055500003D0B06D20F08050B065606A00285AD04A
:10556000B16801F00C010C293FF4C9AE0228306883
:1055700020F08070306038D1FDF763FB074630685B
:10558000800105D5FDF75DFBC01B0328F7D340E084
:10559000E06A216B401E090241EA0010616B0909B3
:1055A00040EA4140A16A0843A16B891E0905490DE3
:1055B00040EA4150E16B891E090601F07E41084333
:1055C000F060306840F080703060F06840F08070CB
:1055D000F060FDF736FB0746306880011BD4FDF70D
:1055E00030FBC01B0328F7D313E0F068DFF810137B
:1055F00080088000F060F0680840F060FDF721FB53
:1056000007463068800106D5FDF71BFBC01B032849
:10561000F7D3032000E00020BDE8F2833060FDF7FF
:1056200010BB306820F48030306030687047B0685C
:1056300000F00C007047306840F0080030603068BF
:10564000216A20F0F000084330607068E16920F4BE
:105650007F4040EA0120706070472DE9F843DFF891
:10566000A46204463068884600F00700404502D234
:1056700000F08EF864D12078DFF87472800705D5C9
:10568000B868A16820F0F0000843B8602078C0072F
:105690004ED56068022802D13968890308E00328E2
:1056A00002D13968890103E00028396802D18907ED
:1056B00002D445E0490543D5B968890840EA81002C
:1056C000B86041F28939FDF7BCFA054660680228E6
:1056D0000AD1B86800F00C00082829D0FDF7B1FA0B
:1056E000401B4845F5D321E003280AD1B86800F0F3
:1056F0000C000C281CD0FDF7A4FA401B4845F5D33C
:1057000014E048B9B86810F00C0F11D0FDF799FA01
:10571000401B4845F6D309E0B86800F00C000428A7
:1057200006D0FDF78EFA401B4845F5D3032022E052
:10573000306800F00700804504D200F029F801D05D
:10574000012018E02078400705D5B868E16820F40A
:10575000E0600843B8602078000706D5B868216982
:1057600020F4605040EAC100B86000F01BF8BA684D
:1057700000F003F80020BDE8F2836349C2F303128E
:10578000515C20FA01F25B4802600F20FDF742BA3B
:105790003068C00848EAC0003060306800F0070098
:1057A0004045704752498B680022002013F00C0FCF
:1057B00009D08B6803F00C030C2B02BFCB6803F0FD
:1057C0000303012B13D10A68120704D4504A12684C
:1057D000C2F3032202E00A68C2F303124D4B53F8EE
:1057E00022208B6813F00C0F0ED110460CE08B6852
:1057F00003F00C03042B08BF474805D08B6803F067
:105800000C03082B08BF45488B6803F00C030C2BD6
:105810001ED1C868CB68C3F302135B1C00F0030001
:10582000022802D0032802D005E03B4800E03B48B4
:10583000B0FBF3F001E0B2FBF3F0CA68C968C1F352
:105840004161C2F30622491C50434900B0FBF1F00C
:10585000704728482D4A016812683148C2F3022275
:1058600006E02448294A016812682D48C2F3C22282
:10587000125C21FA02F0704770B52A4E82B00546DC
:1058800030680024C00002D501F0A2FA0EE03068B2
:1058900040F080503060306800F0805000900098F8
:1058A00001F096FA316821F080513160B0F5007F47
:1058B00004D1812D0DD3A12D0AD305E0812D28BF60
:1058C000032406D2802D01D1022402E0702D00D1E4
:1058D00001240C480168C90844EAC101016000685C
:1058E00000F00700A04201D0012076BD002076BD67
:1058F000001002407C080020901002400070004020
:10590000FFFFEEFE0020024044A8000808100240FD
:105910009410024054A800080024F40000127A00F9
:1059200098AB00085810024010B508B9012010BD0E
:1059300000F124014A7802B90A7002224A70026812
:10594000136884686FF30D132343C4682343046909
:1059500023434469234384692343C4692343046A7A
:10596000234313608268B2F5804F73D00368DFF879
:105970004441DFF84421A3421DD0DFF84041A34257
:1059800024D0DFF83C41A3422CD0DFF83841A342B9
:1059900034D0DFF83441A3423CD0DFF83041A34299
:1059A00044D0DFF82C41A3424CD0DFF82841DFF887
:1059B0002821A34206D113681B091B0100F050F8EF
:1059C000184346E0DFF81441A34207D1136823F0DF
:1059D000F00300F045F843EA00103AE0DFF8004138
:1059E000A34207D1136823F4706300F039F843EA47
:1059F00000202EE0DFF8EC40A34207D1136823F427
:105A0000704300F02DF843EA003022E0DFF8D84080
:105A1000A34207D1136823F4702300F021F843EA6E
:105A2000004016E0DFF8C440A34207D1136823F416
:105A3000700300F015F843EA00500AE0DFF8B040C8
:105A4000A34207D1136823F0706300F009F843EA1A
:105A5000006010600020486101204870002010BDE7
:105A6000136013684068704738B500F011F801D131
:105A7000022032BD00F012F82068016841F00E01EA
:105A800001602068016841F001010160002032BD21
:105A9000044604F124000578012D704701250570A6
:105AA00002254570206805686D086D000560204678
:105AB00000F020B808000240A80002401C0002408C
:105AC0003000024044000240580002406C00024096
:105AD0008000024008040240A80402401C04024066
