:020000040800F2
:10000000580E002095E1000855E0000857E0000870
:10001000C5E10008C9E10008CDE1000800000000CA
:10002000000000000000000000000000D1E1000816
:1000300059E0000800000000D5E100085BE000087E
:10004000D9E10008DDE10008E1E10008E5E1000890
:10005000E9E10008EDE10008F1E10008F5E1000840
:10006000F9E10008FDE1000801E2000805E20008EE
:1000700009E200080DE2000811E2000815E200089C
:1000800019E200081DE2000821E20008000000005B
:1000900000000000000000000000000025E2000851
:1000A00029E200082DE2000831E2000835E20008EC
:1000B00039E200083DE2000841E2000845E200089C
:1000C00049E200084DE2000851E2000855E200084C
:1000D00059E200085DE2000861E20008000000004B
:1000E00063E0000865E2000869E200080000000023
:1000F0000000000000000000000000006DE20008A9
:100100000000000071E2000875E2000879E20008D2
:1001100000000000000000000000000000000000DF
:100120007DE2000881E2000885E2000889E200081B
:100130008DE2000800000000000000000000000048
:1001400000000000000000000000000091E2000834
:1001500095E2000899E200089DE20008A1E200088B
:10016000A5E20008A9E2000800000000000000006D
:10017000000000000000000000000000000000007F
:1001800000000000ADE200080000000000000000D8
:10019000B1E2000870B582B0040000A8DFF85C1A74
:1001A0000A680260A5682E68200000F09CFD012806
:1001B00001D1012035E00421200001F0E0FE0028FB
:1001C00001D101202DE04021200001F0FBFE00289C
:1001D00001D1012025E00021200001F06FFD002861
:1001E00001D101201DE0DFF81C0C3060002120004F
:1001F00001F0F1FD002801D1012012E000212000D2
:1002000000F0E1F9012801D101200AE000A9200055
:1002100000F060FA012801D1012002E00120E07025
:10022000002076BD70B50400A5682E68200000F09F
:100230005AFD012801D101203CE0200001F086F8A0
:10024000012801D1012035E0200001F01DFC01282A
:1002500001D101202EE0200001F0F2F8012801D1A7
:10026000012027E0200001F08CFA012801D10120B3
:1002700020E0200001F03CFB012801D1012019E021
:10028000200001F07CF9012801D1012012E02000BA
:1002900001F0E4F9012801D101200BE0200000F079
:1002A00020F8012801D1012004E000203060002066
:1002B000E070002070BD70B50400A5682E6820793C
:1002C000012801D100200BE096ED000A200000F08B
:1002D000A3FD012801D1012002E0012020710020AE
:1002E00070BD70B50400A5682E682079002801D182
:1002F000002012E03100200000F0A3F8012801D115
:1003000001200AE00021200001F065FD002801D154
:10031000012002E000202071002070BD38B50400EB
:100320000D002900200000F0D1FC32BD10B5040002
:10033000200000F0D8FC10BD3EB504000D000020E8
:10034000009001A9200000F0E5FC012801D1012066
:1003500032E000A9200000F047F8012801D1012077
:100360002AE0BDF9040000EE100AB8EEC00ADDED87
:10037000000A20EE200ABDEEC00A85ED000ABDF994
:10038000060000EE100AB8EEC00ADDED000A20EE0D
:10039000200ABDEEC00A85ED010ABDF9080000EE95
:1003A000100AB8EEC00ADDED000A20EE200ABDEE0C
:1003B000C00A85ED020A00203EBD30B583B00400BE
:1003C0000D0000A9200000F0A5FC012801D10120AA
:1003D00009E0BDF800002880BDF802006880BDF883
:1003E0000400A88000203EBD38B504000D0000A91F
:1003F000200001F0DEFC002801D1012020E09DF862
:100400000000002806D0042810D0082806D00C28A8
:1004100008D00FE0DFF8DC0A286010E0DFF8D80A27
:1004200028600CE0DFF8D40A286008E0DFF8D00A82
:10043000286004E0DFF8A80B2860012000E000201D
:1004400032BD38B504000D0000A9200001F0E6FC23
:10045000002801D101204FE09DF80000002816D0AF
:10046000102817D0202819D030281BD040281DD0A4
:1004700050281FD0602821D0702823D0802825D074
:10048000902827D0A02829D0B0282BD02EE00020FB
:10049000286030E0DFF84C0B28602CE0DFF8480BD8
:1004A000286028E0DFF8440B286024E0DFF85409D6
:1004B000286020E0DFF8380B28601CE0DFF8340B00
:1004C000286018E0DFF8300B286014E0DFF8300B0C
:1004D000286010E0DFF82C0B28600CE0DFF82C0B14
:1004E000286008E0DFF8280B286004E0DFF8F00A55
:1004F0002860012000E0002032BD38B504000D0066
:100500002079012808D12900C9B2200000F02DFC73
:1005100001280AD1012009E02900C9B2200000F019
:100520004DFC012801D1012000E0002032BD10B5B2
:100530002DED028B0400B0EE408A2079012808D10D
:10054000B0EE480A200000F067FC01280AD1012023
:1005500009E0B0EE480A200000F0D4FC012801D1E7
:10056000012000E00020BDEC028B10BD38B5040076
:100570000D0000A9200001F01CFC002801D1012081
:1005800020E09DF80000002806D0042810D008289C
:1005900006D00C2808D00FE05FF08040286010E003
:1005A0005FF0814028600CE05FF08240286008E046
:1005B0005FF08340286004E0DFF8240A286001200F
:1005C00000E0002032BD70B504000D00EDB2002D3A
:1005D00003D0022D07D003D308E00020060007E077
:1005E0000820060004E00C20060001E0012009E0DC
:1005F0003100C9B2200001F0B9FB002801D101206F
:1006000000E0002070BD000038B52DED028B040025
:10061000B0EE408A9FED6B0AB4EE408AF1EE10FA1C
:1006200001D5002512E09FED680AB4EE408AF1EE94
:1006300010FA01D5082509E09FED640AB4EE408A5E
:10064000F1EE10FA01D50C2500E004252900C9B20D
:10065000200001F08BFB002801D1012000E00020E8
:10066000BDEC028B32BD38B504000D000DF1020166
:10067000200001F0EDFC002801D1012029E00DF15E
:100680000101200001F019FD002801D1012020E026
:1006900000A9200001F046FD002801D1012018E04A
:1006A0009DF80200082801D1012000E000202870F8
:1006B0009DF80100102801D1012000E000206870A1
:1006C0009DF80000202801D1012000E00020A87042
:1006D000002032BD38B504000D002878012801D172
:1006E000082100E00021C9B2200001F08EFC0028A2
:1006F00001D101201CE06878012801D1102100E01F
:100700000021C9B2200001F0B5FC002801D1012070
:100710000EE0A878012801D1202100E00021C9B213
:10072000200001F0DCFC002801D1012000E00020C5
:1007300032BD70B582B0040000A8DFF8381B0A682B
:100740000260A5682E68200000F0CDFA012801D1D2
:10075000012035E00421200001F011FC002801D126
:1007600001202DE04021200001F02CFC002801D1C7
:10077000012025E00021200001F0A0FA002801D18D
:1007800001201DE0DFF87C0B30600021200001F02B
:10079000C1FB002801D1012012E00221200000F05D
:1007A000C7F9012801D101200AE000A9200000F0CA
:1007B0005EFA012801D1012002E00120E070002052
:1007C00076BD0000010000400100804001000041B2
:1007D00070B50400A5682E68200000F084FA012896
:1007E00001D101200BE0200000F020F8012801D108
:1007F000012004E0002030600020E070002070BD87
:1008000070B50400A5682E682079012801D1002068
:100810000BE096ED000A200000F086FC012801D1D3
:10082000012002E001202071002070BD70B504009D
:10083000A5682E682079002801D1002012E031003F
:10084000200000F0B4F8012801D101200AE00021C5
:10085000200001F05FFB002801D1012002E0002010
:100860002071002070BD38B504000D002900200063
:1008700000F02CFA32BD10B50400200000F033FA6D
:1008800010BD3EB504000D000020009001A920001D
:1008900000F0C8FB012801D1012032E000A92000AE
:1008A00000F047F8012801D101202AE0BDF9040039
:1008B00000EE100AB8EEC00ADDED000A20EE200AB4
:1008C000BDEEC00A85ED000ABDF9060000EE100A73
:1008D000B8EEC00ADDED000A20EE200ABDEEC00A27
:1008E00085ED010ABDF9080000EE100AB8EEC00A55
:1008F000DDED000A20EE200ABDEEC00A85ED020AF9
:1009000000203EBD30B583B004000D0000A92000DA
:1009100000F088FB012801D1012009E0BDF80000AA
:100920002880BDF802006880BDF80400A88000207F
:100930003EBD38B504000D000DF10101200001F0AD
:10094000A2FA002801D1012030E09DF80100022820
:1009500003D1DFF8E409286027E000A9200001F0B6
:10096000C7FA002801D1012020E09DF800000028EE
:1009700006D0042808D008280AD00C280CD00FE094
:10098000DFF8B809286010E0DFF8B40928600CE04F
:10099000DFF8B009286008E0DFF8AC09286004E05F
:1009A000DFF83C062860012000E0002032BD38B5A9
:1009B00004000D0000A9200001F0CFFA002801D1A9
:1009C00001203DE09DF80000002810D0102811D033
:1009D000202813D0302815D0402817D0502819D0FF
:1009E00060281BD070281DD080281FD022E0002056
:1009F000286024E0DFF8EC05286020E0DFF8E80557
:100A000028601CE0DFF8E405286018E0DFF8F40354
:100A1000286014E0DFF8D805286010E0DFF8D4057E
:100A200028600CE0DFF8D005286008E0DFF8D0058A
:100A3000286004E0DFF8A8052860012000E000201D
:100A400032BD38B504000D002079012808D12900F5
:100A5000C9B2200000F011FB01280AD1012009E0F1
:100A60002900C9B2200000F031FB012801D101208A
:100A700000E0002032BD10B52DED028B0400B0EE79
:100A8000408A2079012808D1B0EE480A200000F001
:100A90004BFB01280AD1012009E0B0EE480A2000F2
:100AA00000F098FB012801D1012000E00020BDECFE
:100AB000028B10BD38B504000D0000A9200001F024
:100AC000E2F9002801D1012031E00DF101012000FF
:100AD00001F00EFA002801D1012028E09DF8000065
:100AE000022803D1DFF8600B28601FE09DF80100A9
:100AF000002806D0042808D008280AD00C280CD0DA
:100B00000FE0DFF8480B286010E0DFF8440B2860A6
:100B10000CE0DFF8400B286008E0DFF83C0B2860B1
:100B200004E0DFF8BC042860012000E0002032BDB2
:100B300070B504000D00EDB2002D03D0022D07D0DA
:100B400003D308E00020060007E00420060004E0CC
:100B50000C20060001E0012009E03100C9B22000AC
:100B600001F0A3F9002801D1012000E0002070BDB0
:100B700038B52DED028B0400B0EE408A9FEDA20A3D
:100B8000B4EE408AF1EE10FA07D50221200001F000
:100B900057F900282ED101202DE09FED9C0AB4EEDC
:100BA000408AF1EE10FA01D5002512E09FED980A77
:100BB000B4EE408AF1EE10FA01D5042509E09FED6C
:100BC000950AB4EE408AF1EE10FA01D5082500E04E
:100BD0000C250021200001F033F9002801D101206B
:100BE00009E02900C9B2200001F05FF9002801D115
:100BF000012000E00020BDEC028B32BDBCE100080A
:100C000038B504000D000DF10201200001F0E2FAF8
:100C1000002801D1012029E00DF10101200001F09F
:100C20000EFB002801D1012020E000A9200001F0E6
:100C30003BFB002801D1012018E09DF802000828A4
:100C400001D1012000E0002028709DF8010010284B
:100C500001D1012000E0002068709DF800002028EC
:100C600001D1012000E00020A870002032BD38B57D
:100C700004000D002878012801D1082100E000219E
:100C8000C9B2200001F083FA002801D101201CE044
:100C90006878012801D1102100E00021C9B22000AC
:100CA00001F0AAFA002801D101200EE0A87801285D
:100CB00001D1202100E00021C9B2200001F0D1FAC9
:100CC000002801D1012000E0002032BD38B5040029
:100CD0000D002900200001F037F8002801D1012083
:100CE00000E0002032BD10B582B0040000208DF875
:100CF000000000A92000FFF7E9FF012801D1012031
:100D000007E09DF800002178884201D0012000E032
:100D1000002016BD30B583B004000D0000A80021EE
:100D2000002206C0083800A9200001F067FF002853
:100D300001D1012018E09DF8010000029DF800108B
:100D400050FA81F028809DF8030000029DF80210FF
:100D500050FA81F068809DF8050000029DF80410AB
:100D600050FA81F0A88000203EBD70B504000D004F
:100D7000EDB2002D06D0022D0AD006D3042D0DD0E1
:100D800009D30EE0102006000DE0102006000AE056
:100D90002020060007E03020060004E04020060086
:100DA00001E0012009E03100C9B2200001F013F890
:100DB000002801D1012000E0002070BD10B4020025
:100DC00093681C68C9B2002906D002290AD006D34C
:100DD00004290DD009D30FE0824820600EE081483D
:100DE00020600BE08048206008E08048206005E03B
:100DF000DFF81005206001E0012000E0002010BCB9
:100E0000704700000000D0420100FA420100754323
:100E10000100FA4301007A4438B52DED028B04003D
:100E2000B0EE408A9FED750AB4EE408AF1EE10FAFA
:100E300001D5102551E09FED740AB4EE408AF1EE21
:100E400010FA01D5202548E09FED720AB4EE408AE1
:100E5000F1EE10FA01D530253FE09FED6F0AB4EEB8
:100E6000408AF1EE10FA01D5402536E09FED6B0A7D
:100E7000B4EE408AF1EE10FA01D550252DE09FED39
:100E8000A60AB4EE408AF1EE10FA01D5602524E0FE
:100E90009FEDA20AB4EE408AF1EE10FA01D570255A
:100EA0001BE09FED9F0AB4EE408AF1EE10FA01D5E7
:100EB000802512E09FED9B0AB4EE408AF1EE10FA15
:100EC00001D5902509E09FEDC20AB4EE408AF1EE0B
:100ED00010FA01D5A02500E0B0252900C9B22000F4
:100EE00000F079FF002801D1012000E00020BDECD6
:100EF000028B32BD23DB793D23DBF93D23DB793ED9
:100F000023DBF93E01008A681368DFED3C0AB4EE8A
:100F1000600AF1EE10FA02D5F2EE0A0A5BE0DFEDAC
:100F20003A0AB4EE600AF1EE10FA02D5F3EE0A0ABC
:100F300051E0DFED380AB4EE600AF1EE10FA02D5A6
:100F4000DFED2A0A47E0DFED340AB4EE600AF1EE85
:100F500010FA02D5DFED320A3DE0DFED300AB4EEE3
:100F6000600AF1EE10FA02D5DFED210A33E0DFED81
:100F70006A0AB4EE600AF1EE10FA02D5DFED1D0A3E
:100F800029E0DFED660AB4EE600AF1EE10FA02D550
:100F9000DFED190A1FE0DFED620AB4EE600AF1EE40
:100FA00010FA02D5DFED160A15E0DFED5E0AB4EEA9
:100FB000600AF1EE10FA02D5DFED120A0BE0DFED68
:100FC000840AB4EE600AF1EE10FA02D5DFED0F0AE2
:100FD00001E0DFED0F0AC3ED000A002070470000BA
:100FE000000080BF000050410000D041000050428E
:100FF000000050430000D0430040504401005041E5
:101000000080CF44002050450100D0410020D04551
:1010100000485046010050420100D04201005043B8
:101020000000D04230B583B004000D0000A80021BC
:10103000002206C0083800A9200001F0B4FD0028F5
:1010400001D1012018E09DF8010000029DF8001078
:1010500050FA81F028809DF8030000029DF80210EC
:1010600050FA81F068809DF8050000029DF8041098
:1010700050FA81F0A88000203EBD70B504000D003C
:10108000EDB2002D06D0022D0AD006D3042D0DD0CE
:1010900009D30EE0102006000DE0102006000AE043
:1010A0002020060007E03020060004E04020060073
:1010B00001E0012009E03100C9B2200000F02AFF60
:1010C000002801D1012000E0002070BD10B4020012
:1010D00093681C68C9B2002906D002290CD007D336
:1010E000042910D00CD311E0DFF8940920600FE040
:1010F000DFF88C0920600BE0DFF88809206007E04A
:101100008848206004E07F48206001E0012000E082
:10111000002010BC704700000100D0430140504443
:101120000180CF440120504538B52DED028B0400DD
:10113000B0EE408A9FED740AB4EE408AF1EE10FAE8
:1011400001D5102536E09FED710AB4EE408AF1EE2C
:1011500010FA01D520252DE09FED6D0AB4EE408AEE
:10116000F1EE10FA01D5302524E09FED6A0AB4EEC5
:10117000408AF1EE10FA01D540251BE09FED660A8A
:10118000B4EE408AF1EE10FA01D5502512E09FED41
:10119000630AB4EE408AF1EE10FA01D5602509E049
:1011A0009FED5F0AB4EE408AF1EE10FA01D570258A
:1011B00000E080252900C9B2200000F0ABFE002825
:1011C00001D1012000E00020BDEC028B32BD000007
:1011D0000120D04501008A681368DFED4B0AB4EEA8
:1011E000600AF1EE10FA02D5F2EE0A0A3DE0DFEDF8
:1011F000470AB4EE600AF1EE10FA02D5F3EE0A0ADD
:1012000033E0DFED430AB4EE600AF1EE10FA02D5E6
:10121000DFED440A29E0DFED3F0AB4EE600AF1EEAB
:1012200010FA02D5DFED370A1FE0DFED3B0AB4EE1E
:10123000600AF1EE10FA02D5DFED3B0A15E0DFEDB2
:10124000370AB4EE600AF1EE10FA02D5DFED370A84
:101250000BE0DFED330AB4EE600AF1EE10FA02D5CE
:10126000DFED330A01E0DFED330AC3ED000A0020B1
:1012700070470000C0E1000810B504009FED2B0A84
:101280002000FFF754F9012801D1012038E00021A6
:10129000200000F06BFD002801D1012030E0062184
:1012A000200001F061FB002801D1012028E000218D
:1012B000200001F010FB002801D1012020E00021D6
:1012C000200001F0E5FA002801D1012018E00021FA
:1012D000200001F0B8FA002801D1012010E003211C
:1012E000200000F06AF8012801D1012008E0102157
:1012F000200001F0EFFB002801D1012000E00020D8
:1013000010BD00000000D042010050410100D0415A
:10131000010050420100D042010050430100D0437F
:101320000140504400005042000050430000D043B0
:10133000004050440080CF4400008C4000000C412D
:1013400000008C4100000C4200008C4210B50400EB
:101350000021200001F0BEFB002801D1012010E097
:101360000021200001F000FB002801D1012008E04D
:101370000021200001F0D5FA002801D1012000E071
:10138000002010BD38B504000D0000A9200000F0B9
:10139000D2FF002801D101200EE09DF800000028B6
:1013A00004D0202805D10120287004E000202870F6
:1013B00001E0012000E0002032BD38B504000D003E
:1013C0002900C9B2200001F0ACFA002801D10120A7
:1013D00000E0002032BD10B50400B3EE0A0A200080
:1013E000FFF7A5F8012801D1012028E00021200005
:1013F00000F0BCFC002801D1012020E017212000D2
:1014000000F082F8012801D1012018E00421200019
:1014100000F05CFF002801D1012010E040212000F5
:1014200001F0EDF8002801D1012008E08021200022
:1014300000F067FC002801D1012000E0002010BD71
:1014400010B504000021200000F05BFC002801D151
:10145000012018E00021200001F0D1F8002801D17E
:10146000012010E00021200000F030FF002801D111
:10147000012008E00021200000F046F8012801D1F9
:10148000012000E0002010BD38B504000D0000A9C7
:10149000200001F004F8002801D101200EE09DF8A1
:1014A0000000002804D0102805D10120287004E095
:1014B0000020287001E0012000E0002032BD38B596
:1014C00004000D002900200001F0C3FB002801D119
:1014D000012000E0002032BD10B5040002212000F0
:1014E00000F032FE002801D1012000E0002010BDF4
:1014F00010B504000021200000F026FE002801D1D4
:10150000012000E0002010BD38B504000D002900C6
:10151000C9B2200001F0C8FB002801D1012000E081
:10152000002032BD10B50400B3EE0A0A2000FEF719
:10153000FEFF012801D1012020E00021200000F061
:1015400015FC002801D1012018E00421200000F042
:10155000BDFE002801D1012010E02021200001F073
:101560002BF8002801D1012008E00221200001F021
:1015700048FA002801D1012000E0002010BD10B57C
:1015800004000021200001F03CFA002801D10120D4
:1015900010E00021200001F00FF8002801D1012007
:1015A00008E00021200000F091FE002801D1012078
:1015B00000E0002010BD38B504000D0000A9200097
:1015C00000F07FFF002801D101200EE09DF800000F
:1015D000002804D0202805D10120287004E0002034
:1015E000287001E0012000E0002032BD10B50400A9
:1015F0009FEDBE0A2000FEF79AFF012801D10120CD
:1016000020E00021200000F0B1FB002801D10120E2
:1016100018E00021200001F05EF9002801D101202E
:1016200010E00221200001F0C6F8002801D10120BD
:1016300008E02021200001F070FA002801D10120EB
:1016400000E0002010BD00000000FA4200007543D9
:101650000000FA4300007A440000FA4410B5040088
:101660000021200001F059FA002801D1012010E0EA
:101670000021200001F02FF9002801D1012008E00D
:101680000021200001F097F8002801D1012000E09E
:10169000002010BD38B504000D0000A9200000F0A6
:1016A00038FE002801D101200EE09DF8000000283E
:1016B00004D0082805D10120287004E000202870FB
:1016C00001E0012000E0002032BD38B504000D002B
:1016D0002900C9B2200001F06EF8002801D10120D4
:1016E00000E0002032BD000010B504009FED7F0A2D
:1016F0002000FEF71CFF012801D1012040E000215D
:10170000200000F033FB002801D1012038E008213F
:10171000200000F02EFF002801D1012030E004213C
:10172000200000F003FF002801D1012028E0022161
:10173000200000F0D8FE002801D1012020E008217F
:10174000200000F03CF9012801D1012018E002211D
:10175000200000F042F9012801D1012010E0012110
:10176000200000F048F9012801D1012008E04021C3
:10177000200001F0F5F9002801D1012000E000204F
:1017800010BD10B504000021200001F0E9F9002887
:1017900001D1012030E00021200000F010F90128E3
:1017A00001D1012028E00021200000F016F90128D5
:1017B00001D1012020E00021200000F01CF90128C7
:1017C00001D1012018E00021200000F08CFE00284B
:1017D00001D1012010E00021200000F0A7FE002828
:1017E00001D1012008E00021200000F0C2FE002805
:1017F00001D1012000E0002010BD38B504000D002B
:1018000000A9200000F0BBFD002801D101200EE05E
:101810009DF80000002804D0202805D10120287060
:1018200004E00020287001E0012000E0002032BD2B
:1018300010B504009FED2D0A2000FEF778FE012868
:1018400001D1012050E00021200000F08FFA002893
:1018500001D1012048E00821200000F08AFE002884
:1018600001D1012040E00421200000F05FFE0028AB
:1018700001D1012038E00221200000F034FE0028D0
:1018800001D1012030E00821200000F098F8012863
:1018900001D1012028E00321200000F09EF801285A
:1018A00001D1012020E00321200000F0A4F801284C
:1018B00001D1012018E00821200000F0AAF8012839
:1018C00001D1012010E08021200000F099FF0028C4
:1018D00001D1012008E00821200001F0D8F80028FB
:1018E00001D1012000E0002010BD00000000D04325
:1018F00010B504000021200001F0C9F8002801D132
:10190000012040E00021200000F059F8012801D119
:10191000012038E00021200000F05FF8012801D10B
:10192000012030E00021200000F065F8012801D1FD
:10193000012028E00021200000F06BF8012801D1EF
:10194000012020E00021200000F05AFF002801D1F2
:10195000012018E00021200000F0C5FD002801D181
:10196000012010E00021200000F0E0FD002801D15E
:10197000012008E00021200000F0FBFD002801D13B
:10198000012000E0002010BD38B504000D0000A9C2
:10199000200000F0E2FC002801D101200EE09DF8BB
:1019A0000000002804D0102805D10120287004E090
:1019B0000020287001E0012000E0002032BD38B591
:1019C00004000D002900C9B2200000F03BFE0028F1
:1019D00001D1012000E0002032BD38B504000D0027
:1019E0002900C9B2200000F075FE002801D10120B5
:1019F00000E0002032BD38B504000D002900C9B256
:101A0000200000F08CFE002801D1012000E0002021
:101A100032BD38B504000D002900C9B2200000F025
:101A2000A4FE002801D1012000E0002032BD00000A
:101A300010B504009FED110A2000FEF778FD012883
:101A400001D1012018E00021200000F08FF90028CA
:101A500001D1012010E04021200000F018FE0028F4
:101A600001D1012008E00421200000F0EDFF002852
:101A700001D1012000E0002010BD00000000D04393
:101A8000000050410000D04110B5040000212000AA
:101A900000F0DAFF002801D1012008E00021200039
:101AA00000F0F5FD002801D1012000E0002010BD6C
:101AB00038B504000D0000A9200000F0DEFC00286D
:101AC00001D101200EE09DF80000002804D040283C
:101AD00005D10120287004E00020287001E00120D9
:101AE00000E0002032BD38B504000D0000A9200040
:101AF00000F057FC002801D101200EE09DF8000005
:101B0000002804D0012805D10120287004E000201D
:101B1000287001E0012000E0002032BD38B504004B
:101B20000D0000A9200000F04EFC002801D101208A
:101B30000EE09DF80000002804D0022805D1012005
:101B4000287004E00020287001E0012000E000205F
:101B500032BD38B504000D0000A9200000F045FC9E
:101B6000002801D101200EE09DF80000002804D0DB
:101B7000042805D10120287004E00020287001E02D
:101B8000012000E0002032BD38B504000D0000A99E
:101B9000200000F03CFC002801D101200EE09DF85F
:101BA0000000002804D0082805D10120287004E096
:101BB0000020287001E0012000E0002032BD38B58F
:101BC00004000D0000A9200000F033FC002801D122
:101BD00001200EE09DF80000002804D0102805D157
:101BE0000120287004E00020287001E0012000E0BE
:101BF000002032BD38B504000D0000A9200000F01F
:101C00002AFC002801D101200EE09DF800000028E8
:101C100004D0202805D10120287004E0002028707D
:101C200001E0012000E0002032BD0268531C036087
:101C30001170704770B504000D00160001233200CA
:101C40002900C9B2200001F0E7F8002801D00020E7
:101C500000E0012070BD34B504000D00012300AA8E
:101C60002900C9B2200001F0C0F8002801D00020EE
:101C700000E0012032BD38B504000D0000AA0121AA
:101C80002000FFF7D7FF002801D1002015E09DF8C4
:101C9000000010F07F008DF800009DF80000284340
:101CA0008DF800009DF8002001212000FFF7D3FFF0
:101CB000002801D1002000E0012032BD38B5040029
:101CC0000D0000AA0A212000FFF7B4FF002801D16F
:101CD000002015E09DF8000010F0F8008DF80000DD
:101CE0009DF8000028438DF800009DF800200A218F
:101CF0002000FFF7B0FF002801D1002000E0012004
:101D000032BD38B504000D0000AA0D212000FFF7F8
:101D100091FF002801D1002015E09DF8000010F08F
:101D20007F008DF800009DF8000028438DF800002A
:101D30009DF800200D212000FFF78DFF002801D124
:101D4000002000E0012032BD38B504000D002A005B
:101D50000F212000FFF76EFF002801D1002004E0D2
:101D60002878287028782870012032BD38B5040002
:101D70000D0000AA10212000FFF75CFF002801D110
:101D8000002015E09DF8000010F0F3008DF8000031
:101D90009DF8000028438DF800009DF800201021D8
:101DA0002000FFF758FF002801D1002000E00120AB
:101DB00032BD38B504000D002A0010212000FFF7C5
:101DC00039FF002801D1002004E0287810F00C0031
:101DD0002870012032BD38B504000D0000AA102182
:101DE0002000FFF727FF002801D1002015E09DF813
:101DF000000010F00F008DF800009DF8000028434F
:101E00008DF800009DF8002010212000FFF723FF2F
:101E1000002801D1002000E0012032BD38B50400C7
:101E20000D002A0010212000FFF704FF002801D137
:101E3000002004E0287810F0F0002870012032BD66
:101E400038B504000D0000AA11212000FFF7F2FEB2
:101E5000002801D1002015E09DF8000010F0FD00E1
:101E60008DF800009DF8000028438DF800009DF8D3
:101E7000002011212000FFF7EEFE002801D10020F4
:101E800000E0012032BD38B504000D002A00112108
:101E90002000FFF7CFFE002801D1002004E02878C1
:101EA00010F002002870012032BD38B504000D008A
:101EB00000AA11212000FFF7BDFE002801D100205B
:101EC00015E09DF8000010F0F3008DF800009DF87B
:101ED000000028438DF800009DF80020112120000B
:101EE000FFF7B9FE002801D1002000E0012032BD3B
:101EF00038B504000D002A0011212000FFF79AFEDA
:101F0000002801D1002004E0287810F00C0028708F
:101F1000012032BD38B504000D0000AA11212000B7
:101F2000FFF788FE002801D1002015E09DF8000091
:101F300010F00F008DF800009DF8000028438DF888
:101F400000009DF8002011212000FFF784FE0028EA
:101F500001D1002000E0012032BD38B504000D00A1
:101F60002A0011212000FFF765FE002801D1002082
:101F700004E0287810F0F0002870012032BD38B558
:101F800004000D0000AA12212000FFF753FE0028D4
:101F900001D1002015E09DF8000010F0FB008DF845
:101FA00000009DF8000028438DF800009DF80020F7
:101FB00012212000FFF74FFE002801D1002000E091
:101FC000012032BD38B504000D0000AA1221200006
:101FD000FFF730FE002801D1002015E09DF8000039
:101FE00010F0BF008DF800009DF8000028438DF828
:101FF00000009DF8002012212000FFF72CFE002891
:1020000001D1002000E0012032BD38B504000D00F0
:1020100000AA18212000FFF70DFE002801D10020A2
:1020200015E09DF8000010F0F7008DF800009DF815
:10203000000028438DF800009DF8002018212000A2
:10204000FFF709FE002801D1002000E0012032BD89
:1020500038B504000D002A0018212000FFF7EAFD22
:10206000002801D1002004E0287810F00800287032
:10207000012032BD38B504000D0000AA182120004F
:10208000FFF7D8FD002801D1002015E09DF80000E1
:1020900010F0EF008DF800009DF8000028438DF847
:1020A00000009DF8002018212000FFF7D4FD002833
:1020B00001D1002000E0012032BD38B504000D0040
:1020C0002A0018212000FFF7B5FD002801D10020CB
:1020D00004E0287810F010002870012032BD38B5D7
:1020E00004000D0000AA18212000FFF7A3FD00281E
:1020F00001D1002015E09DF8000010F0DF008DF800
:1021000000009DF8000028438DF800009DF8002095
:1021100018212000FFF79FFD002801D1002000E0DA
:10212000012032BD38B504000D002A00182120001E
:10213000FFF780FD002801D1002004E0287810F08E
:1021400020002870012032BD38B504000D0000AA1F
:1021500019212000FFF76EFD002801D1002015E0B5
:102160009DF8000010F0FD008DF800009DF80000C3
:1021700028438DF800009DF8002019212000FFF76A
:102180006AFD002801D1002000E0012032BD38B5F1
:1021900004000D0000AA19212000FFF74BFD0028C4
:1021A00001D1002015E09DF8000010F0F7008DF837
:1021B00000009DF8000028438DF800009DF80020E5
:1021C00019212000FFF747FD002801D1002000E081
:1021D000012032BD38B504000D002A00192120006D
:1021E000FFF728FD002801D1002004E0287810F036
:1021F00008002870012032BD38B504000D0000AA87
:1022000019212000FFF716FD002801D1002015E05C
:102210009DF8000010F0EF008DF800009DF8000020
:1022200028438DF800009DF8002019212000FFF7B9
:1022300012FD002801D1002000E0012032BD38B598
:1022400004000D002A0019212000FFF7F3FC0028EC
:1022500001D1002004E0287810F01000287001203F
:1022600032BD38B504000D0000AA19212000FFF787
:10227000E1FC002801D1002015E09DF8000010F0DD
:10228000DF008DF800009DF8000028438DF8000065
:102290009DF8002019212000FFF7DDFC002801D166
:1022A000002000E0012032BD38B504000D002A00F6
:1022B00019212000FFF7BEFC002801D1002004E016
:1022C000287810F020002870012032BD38B50400B5
:1022D0000D0000AA19212000FFF7ACFC002801D155
:1022E000002015E09DF8000010F0FB008DF80000C4
:1022F0009DF8000028438DF800009DF8002019216A
:102300002000FFF7A8FC002801D1002000E00120F8
:1023100032BD38B504000D002A001B212000FFF754
:1023200089FC002801D1002004E0287810F0080082
:102330002870012032BD38B504000D002A001B2191
:102340002000FFF777FC002801D1002004E0287866
:1023500010F020002870012032BD38B504000D00B7
:102360002A001C212000FFF765FC002801D1002075
:1023700004E0287810F010002870012032BD38B534
:1023800004000D002A001C212000FFF753FC002848
:1023900001D1002004E0287810F0200028700120EE
:1023A00032BD38B504000D002A001D212000FFF7C2
:1023B00041FC002801D1002004E0287810F0010041
:1023C0002870012032BD38B504000D002A001D21FF
:1023D0002000FFF72FFC002801D1002004E028781E
:1023E00010F002002870012032BD38B504000D0045
:1023F0002A001D212000FFF71DFC002801D100202C
:1024000004E0287810F004002870012032BD38B5AF
:1024100004000D002A001D212000FFF70BFC0028FE
:1024200001D1002004E0287810F008002870012075
:1024300032BD38B504000D002A001D212000FFF731
:10244000F9FB002801D1002004E0287810F01000EA
:102450002870012032BD38B504000D002A001D216E
:102460002000FFF7E7FB002801D1002004E02878D6
:1024700010F020002870012032BD38B504000D0096
:102480002A001D212000FFF7D5FB002801D10020E4
:1024900004E0287810F040002870012032BD38B5E3
:1024A00004000D002A0053212000FFF7C3FB002881
:1024B00001D1002004E0287810F0100028700120DD
:1024C00032BD38B504000D002A0053212000FFF76B
:1024D000B1FB002801D1002004E0287810F0200092
:1024E0002870012032BD38B504000D0000AA582123
:1024F0002000FFF79FFB002801D1002015E09DF888
:10250000000010F0FD008DF800009DF80000284349
:102510008DF800009DF8002058212000FFF79BFB5C
:10252000002801D1002000E0012032BD38B50400B0
:102530000D0000AA58212000FFF77CFB002801D1E4
:10254000002015E09DF8000010F0FB008DF8000061
:102550009DF8000028438DF800009DF800205821C8
:102560002000FFF778FB002801D1002000E00120C7
:1025700032BD38B504000D0000AA58212000FFF735
:1025800059FB002801D1002015E09DF8000010F053
:10259000F7008DF800009DF8000028438DF800003A
:1025A0009DF8002058212000FFF755FB002801D19D
:1025B000002000E0012032BD38B504000D0000AA63
:1025C00058212000FFF736FB002801D1002015E03C
:1025D0009DF8000010F0DF008DF800009DF800006D
:1025E00028438DF800009DF8002058212000FFF7B7
:1025F00032FB002801D1002000E0012032BD38B5B7
:1026000004000D0000AA58212000FFF713FB00284A
:1026100001D1002015E09DF8000010F0BF008DF8FA
:1026200000009DF8000028438DF800009DF8002070
:1026300058212000FFF70FFB002801D1002000E007
:10264000012032BD38B504000D0015F01F0500AAA9
:1026500059212000FFF7EEFA002801D1002015E0F3
:102660009DF8000010F0E0008DF800009DF80000DB
:1026700028438DF800009DF8002059212000FFF725
:10268000EAFA002801D1002000E0012032BD38B56F
:1026900004000D0000AA59212000FFF7CBFA002802
:1026A00001D1002015E09DF8000010F09F008DF88A
:1026B00000009DF8000028438DF800009DF80020E0
:1026C00059212000FFF7C7FA002801D1002000E0BF
:1026D000012032BD38B504000D0015F0030500AA35
:1026E0005A212000FFF7A6FA002801D1002015E0AA
:1026F0009DF8000010F0FC008DF800009DF800002F
:1027000028438DF800009DF800205A212000FFF793
:10271000A2FA002801D1002000E0012032BD38B526
:1027200004000D00AD0015F00C0500AA5A21200090
:10273000FFF780FA002801D1002015E09DF8000085
:1027400010F0F3008DF800009DF8000028438DF88C
:1027500000009DF800205A212000FFF77CFA002895
:1027600001D1002000E0012032BD38B504000D0089
:102770002D0115F0F00500AA5A212000FFF75AFAA2
:10278000002801D1002015E09DF8000010F00F0096
:102790008DF800009DF8000028438DF800009DF89A
:1027A00000205A212000FFF756FA002801D100200E
:1027B00000E0012032BD38B504000D0015F03F05E2
:1027C00000AA5B212000FFF735FA002801D1002084
:1027D00015E09DF8000010F0C0008DF800009DF895
:1027E000000028438DF800009DF800205B212000A8
:1027F000FFF731FA002801D1002000E0012032BDAE
:1028000038B504000D0000AA5B212000FFF712FA82
:10281000002801D1002015E09DF8000010F07F0095
:102820008DF800009DF8000028438DF800009DF809
:1028300000205B212000FFF70EFA002801D10020C4
:1028400000E0012032BD38B504000D0015F00F0581
:1028500000AA5C212000FFF7EDF9002801D100203B
:1028600015E09DF8000010F0F0008DF800009DF8D4
:10287000000028438DF800009DF800205C21200016
:10288000FFF7E9F9002801D1002000E0012032BD66
:1028900038B504000D0000AA5C212000FFF7CAF93A
:1028A000002801D1002015E09DF8000010F0EF0095
:1028B0008DF800009DF8000028438DF800009DF879
:1028C00000205C212000FFF7C6F9002801D100207C
:1028D00000E0012032BD38B504000D006D0115F097
:1028E000600500AA5C212000FFF7A4F9002801D1AF
:1028F000002015E09DF8000010F09F008DF800000A
:102900009DF8000028438DF800009DF800205C2110
:102910002000FFF7A0F9002801D1002000E00120ED
:1029200032BD38B504000D0000AA5D212000FFF77C
:1029300081F9002801D1002015E09DF8000010F079
:10294000F8008DF800009DF8000028438DF8000085
:102950009DF800205D212000FFF77DF9002801D1BE
:10296000002000E0012032BDF8B504000D0015F094
:102970001F000700C5F340100600FF0017F0F8071E
:1029800000AA5D212000FFF755F9002801D10020A1
:1029900036E09DF8000010F007008DF800009DF86B
:1029A000000038438DF800009DF800205D212000D4
:1029B000FFF751F9002801D1002021E0F60116F0BF
:1029C000800600AA5C212000FFF734F9002801D11D
:1029D000002015E09DF8000010F07F008DF8000049
:1029E0009DF8000030438DF800009DF800205C2128
:1029F0002000FFF730F9002801D1002000E001207D
:102A0000F2BD38B504000D0000AA5E212000FFF7DA
:102A100011F9002801D1002015E09DF8000010F008
:102A2000FD008DF800009DF8000028438DF800009F
:102A30009DF800205E212000FFF70DF9002801D14C
:102A4000002000E0012032BD38B504000D0000AACE
:102A50005E212000FFF7EEF8002801D1002015E0EC
:102A60009DF8000010F0FB008DF800009DF80000BC
:102A700028438DF800009DF800205E212000FFF71C
:102A8000EAF8002801D1002000E0012032BD38B56D
:102A900004000D0000AA5E212000FFF7CBF80028FB
:102AA00001D1002015E09DF8000010F0F7008DF82E
:102AB00000009DF8000028438DF800009DF80020DC
:102AC0005E212000FFF7C7F8002801D1002000E0B8
:102AD000012032BD38B504000D0000AA5E2120009F
:102AE000FFF7A8F8002801D1002015E09DF80000AC
:102AF00010F0EF008DF800009DF8000028438DF8DD
:102B000000009DF800205E212000FFF7A4F80028B7
:102B100001D1002000E0012032BD38B504000D00D5
:102B200000AA5E212000FFF785F8002801D10020CF
:102B300015E09DF8000010F0DF008DF800009DF812
:102B4000000028438DF800009DF800205E21200041
:102B5000FFF781F8002801D1002000E0012032BDFC
:102B600038B504000D0000AA5E212000FFF762F8CE
:102B7000002801D1002015E09DF8000010F0BF00F2
:102B80008DF800009DF8000028438DF800009DF8A6
:102B900000205E212000FFF75EF8002801D1002010
:102BA00000E0012032BD2DE9F84304000D000220B1
:102BB00081460020804600200600F6B2032E1ADA75
:102BC00000200700FFB25FFA89F94F4511D25FFA82
:102BD00088F818EB050218F12201C9B22000FFF7AE
:102BE00029F8002801D1002006E018F101087F1C17
:102BF000E8E7761CE1E70120BDE8F2832DE9F84320
:102C000004000D00022081460020804600200600BE
:102C1000F6B2032E1ADA00200700FFB25FFA89F934
:102C20004F4511D25FFA88F818EB050218F1280118
:102C3000C9B22000FEF7FEFF002801D1002006E007
:102C400018F101087F1CE8E7761CE1E70120BDE8E8
:102C5000F2832DE9F84304000D0002208146002094
:102C6000804600200600F6B2002E1AD10020070090
:102C7000FFB25FFA89F94F4511D25FFA88F818EB75
:102C8000050218F14B01C9B22000FEF7D3FF00285E
:102C900001D1002006E018F101087F1CE8E7761C4E
:102CA000E1E70120BDE8F28338B504000D00802182
:102CB0002000FEF7E0FF00AA0F212000FEF7BAFF78
:102CC0009DF8000010F0E0008DF800009DF8000075
:102CD00015F01F0108438DF800009DF800200F211A
:102CE0002000FEF7B8FF00212000FEF7C4FF0120FE
:102CF00032BD200080B500F0A6F8002801D00120E8
:102D000000E0002002BD0020704700B58BB000201D
:102D10000090B248006850F00100B0490860AF4828
:102D2000006810F001000090009810200690AC4858
:102D30000790022009900020089006A9A94800F0F9
:102D400061F9002200210A2000F0EAFA0A2000F0CE
:102D5000FAFA00200090A148006850F002009F4954
:102D600008609E48006810F0020000900098012062
:102D700001909B480290022004900020039001A93A
:102D8000994800F03FF900220021062000F0C8FA1F
:102D9000062000F0D8FA00200BB000BD00B587B0C7
:102DA000002000908D48006850F001008B490860B9
:102DB0008A48006810F001000090009810200190EF
:102DC00087480290022004900020039001A98548C2
:102DD00000F018F9002200210A2000F0A1FA0A20D0
:102DE00000F0B1FA002007B000BD2DE9F041040069
:102DF0000D0016001F00A0463B009BB232002900C8
:102E0000C9B298F8010000F042F8002801D0012072
:102E100000E00020BDE8F0812DE9F04104000D0044
:102E200016001F00A0463B009BB232002900C9B229
:102E300098F8010000F055F8002801D0012000E0CA
:102E40000020BDE8F08180B5684800F045FD00280D
:102E500014D1674865494860002064498860332080
:102E60006249C8604FF480406049086161485F4929
:102E7000086000F068F85D4800F082FA5B4800F0F6
:102E80002BFD202801D1002000E0012002BD2DE90A
:102E9000F04184B004000D0016001F005FF0000830
:102EA000554800680290380080B2019000960123D6
:102EB000EDB22A0092B2E4B2210089B24B4800F090
:102EC0001BFB80465FFA88F8B8F1000F05D02000A0
:102ED000C0B200F030F8012000E0002004B0BDE8EE
:102EE000F0812DE9F04184B004000D0016001F00B0
:102EF0005FF00008404800680290380080B20190FE
:102F000000960123EDB22A0092B2E4B2210089B208
:102F1000364800F095FB80465FFA88F8B8F1000F5C
:102F200005D02000C0B200F006F8012000E000202B
:102F300004B0BDE8F08110B504002C4800F0B4FAEC
:102F4000FFF781FF10BD00B587B000200090234837
:102F5000006850F00200214908602048006810F025
:102F60000200009000984FF44070019012200290EF
:102F700002200490002003900420059001A91A4823
:102F800000F040F8002000901C48006850F4001049
:102F90001A4908601948006810F400100090009861
:102FA0001748006850F4001015490860144800687C
:102FB00030F4001012490860002200211F2000F0A8
:102FC000AFF91F2000F0BFF900220021202000F0FF
:102FD000A7F9202000F0B7F907B000BD3038024053
:102FE000000011100000024000040240F007002021
:102FF000801A06000054004074040020403802404B
:1030000020380240F8B400230024002500263200B6
:10301000102A80F0D8800126964033000E681E40AA
:1030200034009C4240F0CD804E68022E02D04E68A3
:10303000122E16D1D60810EB8606366A35000F26FA
:1030400012F00707FFB2BF00BE40B5430E6912F091
:103050000707FFB2BF00BE403543D60810EB860617
:1030600035620668350003261700FFB27F00BE40B8
:10307000B5430E7916F003061700FFB27F00BE407D
:10308000354305604E68012E08D04E68022E05D0EB
:103090004E68112E02D04E68122E19D18668350066
:1030A00003261700FFB27F00BE40B543CE6817006D
:1030B000FFB27F00BE40354385604668350001267B
:1030C0009640B5434E68C6F30016964035434560BA
:1030D000C668350003261700FFB27F00BE40B54327
:1030E0008E681700FFB27F00BE403543C5604E6852
:1030F000F60066D500260096464E366856F48046A1
:10310000444F3E60434E366816F480460096009E5B
:10311000414E970856F8276035000F2612F0030736
:10312000FFB2BF00BE40B5433C4EB04201D10026C5
:1031300014E03B4EB04201D101260FE0394EB042BF
:1031400001D102260AE0384EB04201D1032605E043
:10315000364EB04201D1042600E00526F6B212F048
:103160000307FFB2BF00BE4035432B4E970846F819
:1031700027502F4E36683500A5434E68F60300D51C
:1031800025432B4E35602B4E36683500A5434E68DF
:10319000B60300D52543274E3560274E36683500E7
:1031A000A5434E68F60200D52543234E3560234ED5
:1031B00036683500A5434E68B60200D525431F4E3C
:1031C0003560521C24E7F1BC70470200136989B2D4
:1031D0000B4202D00123180001E000231800C0B206
:1031E0007047D2B2002A02D089B2816102E089B26E
:1031F0000B048361704710B5040011480068A4B245
:10320000204206D0A4B20E480460200080B201F033
:103210004BFC10BD44380240083801400000024019
:103220000004024000080240000C0240001002406E
:10323000003C0140043C0140083C01400C3C014082
:10324000143C014010F00702454B1B6819004FF673
:10325000FF031940434B53EA02231943404B1960C3
:1032600070473F480068C0F302207047012110F00A
:103270001F0291403C4A40B2430942F82310704774
:1032800010B440B2002808D50A01384B40B210F003
:103290000F04E31803F8042C03E00A01344B40B296
:1032A000C25410BC704770B4030013F00704D4F18B
:1032B0000706052E01D3042001E0D4F10700261DE6
:1032C000072E01D2002500E0E51E012616FA00F0C7
:1032D000401E0840A8400121A940491E1140084352
:1032E00070BC704710B50400601EB0F1807F01D340
:1032F00001200EE0601E1F4908600F215FF0FF30C3
:10330000FFF7BEFF00201C49086007201B4908602A
:10331000002010BD10B504002000FFF793FF10BD82
:10332000F8B504000D0016000027FFF79AFF07000C
:10333000320029003800FFF7B6FF0100200040B23C
:10334000FFF79EFFF1BD10B50400200040B2FFF76B
:103350008DFF10BD10B504002000FFF7C3FF10BDA6
:103360000CED00E00000FA0500E100E018ED00E0DF
:1033700000E400E014E000E018E000E010E000E00D
:1033800070B5040000250026002C01D101208AE040
:1033900094F83D00002805D1002084F83C0020006E
:1033A00000F0A3F8242084F83D002068006840085D
:1033B00040002168086001F0B3FE0600DFF830012C
:1033C000B6FBF0F00500206845606068DFF8241166
:1033D000884201D2681C08E04FF4967000FB05F0AB
:1033E0004FF47A71B0FBF1F0401C2168086260680C
:1033F000DFF8001188420ED260684000B6FBF0F0A2
:103400000005000D042801D204202AE06068400075
:10341000B6FBF0F025E0A068002805D16068032124
:103420004843B6FBF0F006E0606819214843B6FB5C
:10343000F0F050F48040000501D1012011E0A068B7
:10344000002805D1606803214843B6FBF0F006E090
:10345000606819214843B6FBF0F050F4804050F406
:1034600000402168C861E069216A0843216808605A
:103470002069E1680843216888606069A1690843A0
:103480002168C8602068006850F001002168086069
:1034900000202064202084F83D00002020630020CC
:1034A00084F83E00002070BD10B50400002C01D14E
:1034B000012019E0242084F83D00206800684008BD
:1034C000400021680860200000F010F8002020640F
:1034D000002084F83D0000202063002084F83E0096
:1034E000002084F83C00002010BD704770470000A9
:1034F00040420F00A18601002DE9F04782B005008F
:103500000E0017009846DDF828900B9CDDF830A0DF
:1035100095F83D00202840F0908042F2107301227F
:10352000DFF8AC13280000F0FBFA002801D00220DD
:1035300084E095F83C00012801D102207EE00120C2
:1035400085F83C002868006830F40060296808604D
:10355000212085F83D00402085F83E0000202864A9
:10356000DFF87003E862CDF800A043469BB23A0052
:1035700092B2310089B2280000F0B4F900280CD0D2
:10358000286C042804D1002085F83C00012055E077
:10359000002085F83C00032050E0A4B2002C28D085
:1035A0005146280000F080FB00280CD0286C04282D
:1035B00007D12868006850F400702968086001206D
:1035C0003CE003203AE099F800002968086119F10D
:1035D0000109641E286840694007DED5A4B2002CAA
:1035E000DBD099F800002968086119F10109641E0F
:1035F000D3E75146280000F057FB00280CD0286C78
:10360000042807D12868006850F400702968086011
:10361000012013E0032011E02868006850F40070D6
:1036200029680860202085F83D00002085F83E00CC
:10363000002085F83C00002000E00220BDE8F6876D
:103640002DE9F04782B005000E0017009846DDF81E
:1036500028900B9CDDF830A095F83D00202840F024
:10366000348142F210730122DFF86412280000F066
:1036700057FA002801D0022028E195F83C000128E3
:1036800001D1022022E1012085F83C002868006871
:1036900030F4006029680860222085F83D00402051
:1036A00085F83E0000202864DFF82802E862CDF8A3
:1036B00000A043469BB23A0092B2310089B2280082
:1036C00000F080F900280CD0286C042804D10020D8
:1036D00085F83C000120F9E0002085F83C0003203B
:1036E000F4E0A4B2002C0FD10020009028684069BB
:1036F000009028688069009000982868006850F45D
:103700000070296808603AE0A4B2012C15D128683D
:10371000006830F480602968086000200090286804
:1037200040690090286880690090009828680068C7
:1037300050F400702968086021E0A4B2022C15D171
:103740002868006830F4806029680860286800688C
:1037500050F40060296808600020009028684069E3
:103760000090286880690090009808E00020009090
:103770002868406900902868806900900098A4B289
:10378000002C00F09780A4B2042C72D2A4B2012CB9
:1037900014D15146280000F0B2FA002806D0286C57
:1037A000202801D1032091E001208FE028680069E2
:1037B00089F8000019F10109641EE0E7A4B2022CA7
:1037C0001FD153460022DFF81811280000F0A8F995
:1037D000002801D0032079E02868006850F40070C8
:1037E000296808602868006989F8000019F1010952
:1037F000641E2868006989F8000019F10109641E37
:10380000BDE753460022DFF8D810280000F088F901
:10381000002801D0032059E02868006830F4806057
:10382000296808602868006989F8000019F1010911
:10383000641E53460022DFF8A810280000F070F93B
:10384000002801D0032041E02868006850F400708F
:10385000296808602868006989F8000019F10109E1
:10386000641E2868006989F8000019F10109641EC6
:1038700085E75146280000F042FA002806D0286C5F
:10388000202801D1032021E001201FE028680069E1
:1038900089F8000019F10109641E28684069400791
:1038A0007FF56DAF2868006989F8000019F10109FA
:1038B000641E64E7202085F83D00002085F83E0066
:1038C000002085F83C00002000E00220BDE8F687DB
:1038D000020010000000FFFF90F83D00704700005C
:1038E000040001002DE9F04182B004000D00160033
:1038F0001F00DDF820802068006850F48070216887
:103900000860434600225FF00111200000F008F932
:10391000002801D0032053E015F0FE002168086163
:103920004246DFF8F811200000F06BF9002806D0BD
:10393000206C042801D1012042E0032040E0002057
:10394000009020684069009020688069009000988D
:103950004146200000F0A8F900280CD0206C042873
:1039600007D12068006850F40070216808600120C9
:1039700026E0032024E0BFB2012F04D13000C0B202
:10398000216808611BE0B6B2300AC0B22168086144
:103990004146200000F088F900280CD0206C042853
:1039A00007D12068006850F4007021680860012089
:1039B00006E0032004E03000C0B221680861002066
:1039C000BDE8F6812DE9F04182B004000D0016003B
:1039D0001F00DDF820802068006850F480602168B6
:1039E00008602068006850F48070216808604346D1
:1039F00000225FF00111200000F092F8002801D0B1
:103A0000032089E015F0FE00216808614246434921
:103A1000200000F0F6F8002806D0206C042801D120
:103A2000012079E0032077E00020009020684069C1
:103A3000009020688069009000984146200000F0C6
:103A400033F900280CD0206C042807D120680068C6
:103A500050F400702168086001205DE003205BE005
:103A6000BFB2012F04D13000C0B2216808611BE051
:103A7000B6B2300AC0B2216808614146200000F0A9
:103A800013F900280CD0206C042807D120680068A6
:103A900050F400702168086001203DE003203BE005
:103AA0003000C0B2216808614146200000F0FCF8F7
:103AB00000280CD0206C042807D12068006850F43E
:103AC000007021680860012026E0032024E02068BF
:103AD000006850F4807021680860434600225FF05F
:103AE0000111200000F01CF8002801D0032013E091
:103AF00055F00100C0B22168086142460749200024
:103B000000F07FF8002806D0206C042801D10120A5
:103B100002E0032000E00020BDE8F6810200010081
:103B20002DE9F04104000D0016001F005FF00008B1
:103B300001F074FB8046F6B2002E2FD1280CC0B2E3
:103B400001280AD120684069284080B2A9B2884281
:103B500001D101200BE0002009E0206880692840A5
:103B600080B2A9B2884201D1012000E000200028E3
:103B700044D117F1010FE1D0002F05D001F04EFB29
:103B8000B0EB08008742D9D200202063202084F8BF
:103B90003D00002084F83C00032030E0280CC0B237
:103BA00001280AD120684069284080B2A9B2884221
:103BB00001D101200BE0002009E020688069284045
:103BC00080B2A9B2884201D1012000E00020002883
:103BD00014D017F1010FE1D0002F05D001F01EFB2A
:103BE000B0EB08008742D9D200202063202084F85F
:103BF0003D00002084F83C00032000E00020BDE8E8
:103C0000F081F8B504000D001600002701F006FB56
:103C10000700280CC0B201280AD12068406928405A
:103C200080B2A9B2884201D101200BE0002009E056
:103C300020688069284080B2A9B2884201D1012061
:103C400000E0002000282DD120684069400515D5EE
:103C50002068006850F40070216808607FF480607C
:103C6000216848610420206400202063202084F81B
:103C70003D00002084F83C00012014E016F1010F03
:103C8000C7D0002E04D001F0C9FAC01B8642C0D2B2
:103C900000202063202084F83D00002084F83C00B0
:103CA000032000E00020F2BD70B504000D0001F01B
:103CB000B5FA06002068406900061ED4200000F016
:103CC00052F8002801D0012018E015F1010FF1D0C1
:103CD000002D04D001F0A2FA801B8542EAD2206CAC
:103CE00050F02000206400202063202084F83D0054
:103CF000002084F83C00032000E0002070BD70B577
:103D000004000D00002601F089FA060020684069D1
:103D1000400626D420684069C0060FD57FF0100009
:103D2000216848610020206400202063202084F85E
:103D30003D00002084F83C00012013E0002D04D059
:103D400001F06CFA801B8542E0D2206C50F020001C
:103D50002064202084F83D00002084F83C000320EB
:103D600000E0002070BD01000868406940050FD5E3
:103D70007FF480600A6850610420086400200863B2
:103D8000202081F83D00002081F83C00012000E067
:103D90000020704780B501F00BFA01F053FA0020C3
:103DA00001F09CFA0121002001F0CFFA01F03EFB66
:103DB00000F02AFE00F046FE00F02FFDDFF8A00B19
:103DC0000078012809D100F07CFD0120DFF8301CCB
:103DD00008700020DFF8881B0870DFF8280C0078D6
:103DE000012809D100F0BEFD0020DFF8141C087086
:103DF0000020DFF8101C0870DFF8040C00780128A0
:103E000060D100F0A4F8DFF8D00C006800F0D7F81B
:103E1000DFF8C80C0078002804D1DFF8C40C006873
:103E200000F0CDF8DFF8BC0C006800F099F9DFF87D
:103E3000B80C0078002804D1DFF8B00C006800F05E
:103E40008FF9DFF8AC0C006800F056FADFF8A40C2C
:103E5000006800F01DFBDFF8A00C006800F0AFFB6D
:103E6000DFF8980C006800F0AAFBDFF8940C0078EB
:103E7000002804D1DFF88C0C006800F0A0FBDFF80C
:103E8000880C0078002804D1DFF8800C006800F06E
:103E900096FBDFF87C0C006800F028FCDFF8740C5F
:103EA0000078002804D1DFF8700C006800F01EFCD8
:103EB000DFF8680C0078002804D1DFF8640C006893
:103EC00000F014FC4FF47A7001F0ABF976E70000D3
:103ED00070B52DED048BB0EE408A04000D00160085
:103EE000BDEEC80A84ED000AB5EE408AF1EE10FA84
:103EF00006DB94ED000AB8EEC00A38EE408A05E011
:103F000094ED000AB8EEC00A30EE488A300001F0A5
:103F100005FB41EC110B9FED900B01F08EFDB0EE17
:103F2000409AF0EE609A18EE100A01F0A5FF53ECEB
:103F3000192B01F0C9FF41EC100B02F096F851EC7F
:103F4000100B02F09FF82860BDEC048B70BD10B51B
:103F500088B00024002203A9DFF8C80B02F09EF904
:103F6000002202A9DFF8BC0B02F04DFA0498D0F150
:103F7000FF00642148434FF4807190FBF1F004008E
:103F8000E4B201949DF80E0000909DF80D309DF86C
:103F90000C20DFF8941BDFF8940B02F0B1FADFF885
:103FA0008C0B02F0C7FA020041F2883392B2DFF8BC
:103FB0007C1BDFF87C0B02F015FB08B010BD10B5C0
:103FC0008CB0040004A9200002F0B2FE0DF1110132
:103FD000200002F09FFE9DF81100012840F0B980FA
:103FE00009A9200002F0CCFE012805D1002009908B
:103FF00000200A9000200B900B9803909DF8100071
:1040000002900A9801909DF810000090099B9DF87D
:104010001020DFF8201BDFF8140B02F071FADFF834
:104020000C0B02F087FA41F28833020092B2DFF8FB
:10403000FC1ADFF8FC0A02F0D5FADFF8FC0A007877
:10404000012840F086800DF11201200002F07EFE72
:10405000012808D19DF81020DFF8E01ADFF8CC0A1B
:1040600002F04EFA09E09DF812309DF81020DFF8BA
:10407000D01ADFF8B80A02F043FADFF8B00A02F00B
:1040800059FA020041F2883392B2DFF8A01ADFF841
:10409000A00A02F0A7FA08A9200002F08FFE01286A
:1040A00008D19DF81020DFF89C1ADFF8800A02F092
:1040B00027FA11E0032205A906A89DED080AFFF7DB
:1040C00007FF05980090069B9DF81020DFF8781AEE
:1040D000DFF8580A02F014FADFF8500A02F02AFA60
:1040E00041F28833020092B2DFF8401ADFF8400A4A
:1040F00002F078FA07A9200002F07EFE012808D11C
:104100009DF81020DFF8441ADFF8200A02F0F8F9D1
:1041100011E0032205A906A89DED070AFFF7D8FEC6
:1041200005980090069B9DF81020DFF8241ADFF810
:10413000FC0902F0E5F9DFF8F40902F0FBF941F2BD
:104140008833020092B2DFF8E419DFF8E40902F0E4
:1041500049FA0CB010BD000000000000000024402F
:1041600010B58CB0040004A9200002F095FF0DF1F9
:104170001101200002F082FF9DF81100012840F09B
:10418000B98009A9200002F0B3FF012805D1002061
:10419000099000200A9000200B900B9803909DF846
:1041A000100002900A9801909DF810000090099B61
:1041B0009DF81020DFF89C19DFF8700902F0A0F9D3
:1041C000DFF8680902F0B6F941F28833020092B2D2
:1041D000DFF85819DFF8580902F004FADFF8580937
:1041E0000078012840F086800DF11201200002F0D5
:1041F00061FF012808D19DF81020DFF84019DFF891
:104200002C0902F07DF909E09DF812309DF810208C
:10421000DFF82C19DFF8140902F072F9DFF80C0945
:1042200002F088F9020041F2883392B2DFF8FC18FC
:10423000DFF8FC0802F0D6F908A9200002F076FFAA
:10424000012808D19DF81020DFF8F818DFF8DC0805
:1042500002F056F911E0032205A906A89DED080A0F
:10426000FFF736FE05980090069B9DF81020DFF8BA
:10427000D818DFF8B80802F043F9DFF8B00802F008
:1042800059F941F28833020092B2DFF8A018DFF842
:10429000A00802F0A7F907A9200002F065FF012895
:1042A00008D19DF81020DFF8A418DFF8800802F08C
:1042B00027F911E0032205A906A89DED070AFFF7DB
:1042C00007FE05980090069B9DF81020DFF88818DF
:1042D000DFF8580802F014F9DFF8500802F02AF964
:1042E00041F28833020092B2DFF84018DFF840084C
:1042F00002F078F90CB010BD10B58CB0040004A920
:10430000200003F009F80DF11101200002F0F6FF82
:104310009DF81100012840F0B98009A9200003F0A0
:1043200027F8012805D10020099000200A900020DC
:104330000B900B9803909DF8100002900A98019042
:104340009DF810000090099B9DF81020DFF80C18D4
:10435000DFF8D80702F0D4F8DFF8D00702F0EAF867
:1043600041F28833020092B2DFF8C017DFF8C007CD
:1043700002F038F9DFF8C0070078012840F08680A5
:104380000DF11201200002F0D5FF012808D19DF89F
:104390001020DFF8A817DFF8940702F0B1F809E061
:1043A0009DF812309DF81020DFF89417DFF87C0795
:1043B00002F0A6F8DFF8740702F0BCF8020041F240
:1043C000883392B2DFF86417DFF8640702F00AF965
:1043D00008A9200002F0EAFF012808D19DF810206A
:1043E000DFF86017DFF8440702F08AF811E00322D3
:1043F00005A906A89DED080AFFF76AFD059800903B
:10440000069B9DF81020DFF84017DFF8200702F028
:1044100077F8DFF8180702F08DF841F288330200D0
:1044200092B2DFF80817DFF8080702F0DBF807A9F7
:10443000200002F0D9FF012808D19DF81020DFF8F4
:104440000C17DFF8E80602F05BF811E0032205A97B
:1044500006A89DED070AFFF73BFD05980090069B17
:104460009DF81020DFF8F816DFF8C00602F048F8D3
:10447000DFF8B80602F05EF841F28833020092B22B
:10448000DFF8A816DFF8A80602F0ACF80CB010BDF3
:1044900010B586B0040001A9200003F083F80DF1E7
:1044A0000501200003F070F89DF80500012840F098
:1044B000848004A9200003F0A1F8012801D1002084
:1044C0000490022202A903A89DED040AFFF700FD53
:1044D00002980090039B9DF80420DFF88816DFF80F
:1044E0004C0602F00DF8DFF8440602F023F841F222
:1044F0008833020092B2DFF83416DFF8340602F097
:1045000071F8DFF834060078012856D10DF1060164
:10451000200003F055F8012808D19DF80420DFF8A9
:104520001C16DFF8080601F0EBFF09E09DF80630E5
:104530009DF80420DFF80816DFF8F00501F0E0FF31
:10454000DFF8E80501F0F6FF020041F2883392B28D
:10455000DFF8D815DFF8D80502F044F805A92000E7
:1045600003F06AF8012808D19DF80420DFF8D4157B
:10457000DFF8B80501F0C4FF11E0032202A903A887
:104580009DED050AFFF7A4FC02980090039B9DF89F
:104590000420DFF8B415DFF8940501F0B1FFDFF86F
:1045A0008C0501F0C7FF41F28833020092B2DFF8B8
:1045B0007C15DFF87C0502F015F806B010BD10B5CB
:1045C00086B0040001A9200003F060FA0DF1050196
:1045D000200003F04DFA9DF80500012840F084808A
:1045E00004A9200003F07EFA012801D100200490E4
:1045F000022202A903A89DED040AFFF769FC0298B4
:104600000090039B9DF80420DFF85C15DFF81C0583
:1046100001F076FFDFF8140501F08CFF41F28833DA
:10462000020092B2DFF80415DFF8040501F0DAFFAA
:10463000DFF804050078012856D10DF106012000AD
:1046400003F032FA012808D19DF80420DFF8EC14B9
:10465000DFF8D80401F054FF09E09DF806309DF81A
:104660000420DFF8DC14DFF8C40401F049FFDFF8B0
:10467000BC0401F05FFF020041F2883392B2DFF820
:10468000AC14DFF8AC0401F0ADFF05A9200003F085
:1046900047FA012808D19DF80420DFF8A814DFF8B4
:1046A0008C0401F02DFF11E0032202A903A89DED67
:1046B000050AFFF70DFC02980090039B9DF804206B
:1046C000DFF88414DFF8640401F01AFFDFF85C04FB
:1046D00001F030FF41F28833020092B2DFF84C144F
:1046E000DFF84C0401F07EFF06B010BD10B586B0B7
:1046F000040001A9200003F0BFFB0DF1050120001B
:1047000003F0ACFB9DF80500012840F0848004A96B
:10471000200003F0DDFB012801D1002004900222DB
:1047200002A903A89DED040AFFF7D2FB02980090AE
:10473000039B9DF80420DFF83414DFF8F00301F048
:10474000DFFEDFF8E80301F0F5FE41F288330200F6
:1047500092B2DFF8D813DFF8D80301F043FFDFF897
:10476000D8030078012856D10DF10601200003F08E
:1047700091FB012808D19DF80420DFF8C013DFF871
:10478000AC0301F0BDFE09E09DF806309DF8042061
:10479000DFF8AC13DFF8940301F0B2FEDFF88C030E
:1047A00001F0C8FE020041F2883392B2DFF87C13B8
:1047B000DFF87C0301F016FF05A9200003F0A6FB3B
:1047C000012808D19DF80420DFF87813DFF85C0396
:1047D00001F096FE11E0032202A903A89DED050A4F
:1047E000FFF776FB02980090039B9DF80420DFF80A
:1047F0005813DFF8380301F083FEDFF8300301F0CF
:1048000099FE41F28833020092B2DFF82013DFF8FC
:10481000200301F0E7FE06B010BD80B5AE490020D0
:1048200002F04EF9AE49012002F04AF9012802D106
:104830000120AA490870AB49002002F0FBFAAB49FD
:10484000012002F0F7FA012802D10120A6490870E0
:10485000A749002002F0A6FCA649002002F0E2FDD4
:10486000A549002002F006FFA449012002F002FF42
:10487000A449032002F0FEFE012802D10120A04934
:104880000870A249022002F0F5FE012802D10120A1
:104890009D4908709E49002003F060F99E4902205E
:1048A00003F05CF9012802D101209A4908709C4963
:1048B000012003F053F9012802D101209749087023
:1048C00001BD80B58448006802F0F4F9834800789F
:1048D000002803D18248006802F0ECF981480068A2
:1048E00002F09CFB80480078002803D17F480068D4
:1048F00002F094FB7E48006802F0D0FC7D4800681E
:1049000002F012FE7C48006803F082F87B480068E1
:1049100003F07EF87A480078002803D179480068CF
:1049200003F076F878480078002803D177480068CB
:1049300003F06EF87648006803F060FA7548007876
:10494000002803D17448006803F058FA73480078CF
:10495000002803D17248006803F050FA01BD00003E
:104960007C04002080B55C48006802F0BBF95B481D
:104970000078002803D15A48006802F0B3F959487A
:10498000006802F063FB58480078002803D15748BC
:10499000006802F05BFB5648006802F097FC55483F
:1049A000006802F0D9FD5448006803F049F8534804
:1049B000006803F045F852480078002803D15148B8
:1049C000006803F03DF850480078002803D14F48B4
:1049D000006803F035F84E48006803F027FA4D48A8
:1049E0000078002803D14C48006803F01FFA4B48B8
:1049F0000078002803D14A48006803F017FA01BD87
:104A0000540A00204D0A002080B5594845490860E5
:104A10004020444948607F2042498860FF20414946
:104A2000C86000203F49086100203E4948610020DD
:104A30003C4988613B4801F04BFB002801D000F065
:104A40009FF801BD00B587B000208DF8030001205C
:104A50008DF8010001208DF8020001208DF8000082
:104A6000012200A92F4801F04BFC002801D000F0E2
:104A700087F800208DF8040000208DF80500002044
:104A80008DF8060000208DF807000020049000201B
:104A90000590012201A9234801F070FB002801D0F4
:104AA00000F06EF807B000BD10B50400A4B2B4F574
:104AB000005F0FD1002000F09CFC00280AD12D4897
:104AC0000078002803D101202B49087002E0012062
:104AD0002A49087010BD0000E40900204E0A002099
:104AE000E8090020EC0900204F0A0020F00900200E
:104AF000F4090020F8090020FC090020040A002025
:104B0000530A0020140A0020510A00200C0A002039
:104B1000000A0020520A0020100A0020500A00203B
:104B2000080A002000090020A0DF000880050020FE
:104B300034080020BCDE00087D04002014E00008DA
:104B400034E0000864E10008A4E0000874E1000813
:104B500028E10008ECDE0008BCE000081CDF0008CB
:104B6000D4E000083CE1000850E10008ECE0000857
:104B700000280040540A00207C0400204D0A002038
:104B8000FEE7002070B582B0040000252078C00741
:104B900041D5DFF8D805006810F00C0004280BD0D0
:104BA000DFF8C805006810F00C0008280ED1DFF807
:104BB000C0050068400209D5DFF8B8050068800329
:104BC00029D56068002826D1012076E16068DFF8E9
:104BD000A8150870606800280ED000F01FFB0500C3
:104BE000DFF890050068800315D400F017FB401B28
:104BF0006528F5D3032060E100F010FB0500DFF825
:104C000074050068800306D500F008FB401B65288A
:104C1000F5D3032051E12078800766D5DFF84C05F5
:104C2000006810F00C0F0BD0DFF84005006810F0A2
:104C30000C0008281FD1DFF83805006840021AD49C
:104C4000DFF830050068800704D5E068012801D04E
:104C5000012032E1DFF81C0500685FF0F851B1FA7D
:104C600081F130F0F800226912FA01F10843DFF80F
:104C70000415086039E0E068002823D00120DFF83F
:104C8000FC14086000F0CAFA0500DFF8E8040068C8
:104C9000800706D400F0C2FA401B0328F5D3032096
:104CA0000BE1DFF8D00400685FF0F851B1FA81F150
:104CB00030F0F800226912FA01F10843DFF8B41469
:104CC000086012E00020DFF8B414086000F0A6FAD3
:104CD0000500DFF8A0040068800706D500F09EFA02
:104CE000401B0328F5D30320E7E02078000728D5F0
:104CF0006069002812D00120DFF88414086000F0F9
:104D00008DFA0500DFF87C040068800719D400F0F4
:104D100085FA401B0328F5D30320CEE00020DFF8FE
:104D20006014086000F07AFA0500DFF858040068A3
:104D3000800706D500F072FA401B0328F5D3032044
:104D4000BBE02078400750D500200090DFF8380401
:104D5000006850F08050DFF830140860DFF8280455
:104D6000006810F0805000900098DFF82004006880
:104D700050F48070DFF81414086000F04FFA05005A
:104D8000DFF808040068C00506D400F047FA401BAD
:104D90000328F5D3032090E0A068DFF8F41308702F
:104DA000A068002810D000F039FA0500DFF8E00311
:104DB0000068800719D400F031FA401B41F28931B4
:104DC0008842F3D3032078E000F028FA0500DFF8EA
:104DD000C0030068800708D500F020FA401B41F2AC
:104DE00089318842F3D3032067E0A069002863D0AB
:104DF000DFF87803006810F00C0008285AD0A0698A
:104E0000022844D10020DFF88C13086000F006FA75
:104E10000500DFF860030068800106D500F0FEF9A8
:104E2000401B0328F5D3032047E0DFF86C03B0FAFA
:104E300080F24FF44040B0FA80F0F021B1FA81F1F5
:104E4000E369266A3343666A16FA02F21A43A36AD2
:104E50005B085B1E13FA00F01043E26A12FA01F1DC
:104E60000843DFF80C1308600120DFF828130860FE
:104E700000F0D4F90500DFF8FC02006880011BD4C3
:104E800000F0CCF9401B0328F5D3032015E00020E7
:104E9000DFF80013086000F0C1F90500DFF8D40264
:104EA0000068800108D500F0B9F9401B0328F5D34C
:104EB000032002E0012000E0002076BD70B5040070
:104EC0000D000026DFF8D402006810F00F00A842A1
:104ED0000BD2DFF8C8020570DFF8C002006810F0DE
:104EE0000F00A84201D00120AEE02078800709D54C
:104EF000DFF87802006830F0F000A1680843DFF8BE
:104F00006C1208602078C0076ED56068012806D151
:104F1000DFF860020068800315D4012094E0606827
:104F2000022802D06068032806D1DFF84802006832
:104F3000800108D4012087E0DFF83802006880078C
:104F400001D4012080E0DFF824020068800880009E
:104F500061680843DFF81412086000F05FF906008A
:104F6000606801280FD1DFF80402006810F00C001F
:104F7000042839D000F052F9801B41F2893188426F
:104F8000F1D3032060E0606802280FD1DFF8DC0174
:104F9000006810F00C00082826D000F03FF9801BB4
:104FA00041F289318842F1D303204DE06068032843
:104FB0000BD1DFF8B801006800F030F9801B41F236
:104FC00089318842F5D303203EE0DFF8A001006874
:104FD00010F00C0F08D000F021F9801B41F289314C
:104FE0008842F2D303202FE0DFF8B001006810F010
:104FF0000F0085420BD2DFF8A4010570DFF89C0199
:10500000006810F00F00A84201D001201CE02078B9
:10501000400709D5DFF85401006830F4E050E1683A
:105020000843DFF8481108602078000708D54F488A
:10503000006830F46040216950EAC1004B490860C3
:105040000F2000F0D3F8002070BDF0B40021002242
:1050500000230020454C246814F00C04002C04D0DC
:10506000042C05D0082C06D040E04D4C20003FE039
:105070004C4C20003CE03E4C246814F03F042100DE
:105080003B4C2468640210D5394C2468454DB5FB6F
:10509000F1F547F6C07634403F4EB6FA86F6270063
:1050A000F74007FB05F422000FE0314C24683C4D2B
:1050B000B5FBF1F547F6C0763440374EB6FA86F6C2
:1050C0002700F74007FB05F42200294C246814F45C
:1050D00040344FF44045B5FA85F52600EE40741C87
:1050E00064002300B2FBF3F4200001E02C4C20000C
:1050F000F0BC704710B5FFF7A8FF1C4909685FF0C6
:105100007062B2FA82F2284B11F0F0010C00D44028
:10511000E15C0200CA40254802602448006810BDD6
:1051200010B5FFF7E7FF0100104800685FF4601258
:10513000B2FA82F21C4B10F4E0500400D440E25C5E
:105140000800D04010BD10B5FFF7D4FF010007489C
:1051500000685FF4E022B2FA82F2134B10F4604070
:105160000400D440E25C0800D04010BD0838024082
:105170000438024000380240023802400000474232
:10518000800E4742743802404038024000700040B0
:1051900070380240600047420000FE03003C0240BD
:1051A0000024F40000127A0084E10008700400205A
:1051B00080B52248006850F40070204908601F48FC
:1051C000006850F480601D4908601C48006850F475
:1051D00080701A4908600320FEF79CF80F2000F049
:1051E00005F800F002F8002002BD704710B5040079
:1051F000FFF780FF4FF47A71B0FBF1F0FEF7AAF8E9
:10520000002221005FF0FF30FEF78AF8002010BD79
:105210000B480068401C0A4908607047084800684D
:10522000704711B581B00024FFF7F8FF0400FFF7C5
:10523000F5FF001B01998842F9D313BD003C0240E1
:10524000180A002000B593B00020009021480068A3
:1052500050F080501F4908601E48006810F08050D0
:1052600000900098002000901B48006830F44040F7
:1052700050F40040184908601748006810F4404096
:1052800000900098022006900120099010200A90BA
:1052900002200C9000200D9010200E904FF4A8706A
:1052A0000F90042010900720119006A8FFF76AFCC9
:1052B0000F20019002200290002003904FF48050B4
:1052C000049000200590022101A8FFF7F7FD13B01C
:1052D00000BD00BF403802400070004010B586B0ED
:1052E000040000200090DFF82801006850F0010061
:1052F000DFF81C110860DFF81801006810F00100E9
:1053000000900098DFF80C01E4B230F8140001902E
:1053100001200290002003900220049001A9DFF8F0
:10532000F800E4B250F82400FDF76CFE0022DFF82C
:10533000E400E4B230F81410DFF8DC00E4B250F816
:105340002400FDF74EFF06B010BD30B587B0040055
:105350000D0000200090DFF8B800006850F0040055
:10536000DFF8AC100860DFF8A800006810F0040057
:1053700000900098EDB2002D13D1DFF8A000E4B248
:1053800030F81400019000200290022003900220C7
:10539000049001A9DFF88800E4B250F82400FDF77A
:1053A00031FEEDB2012D22D1DFF87000E4B230F809
:1053B0001400019000200390DFF86800029001A91A
:1053C000DFF85C00E4B250F82400FDF71BFE002279
:1053D0000F21DFF85400E4B2205640B2FDF7A0FFE1
:1053E000DFF84400E4B2205640B2FDF7ACFF07B04E
:1053F00030BD10B50400DFF82400E4B230F814101A
:10540000DFF81C00E4B250F82400FDF7DEFE10BD0A
:1054100030380240F22C000868040020824B00085B
:105420006C04002000002110C65E000800B587B0A3
:10543000002000903248006850F0010030490860B8
:105440002F48006810F001000090009800200090A4
:105450002B48006850F0010029490860284800687E
:1054600010F001000090009800200090254800688E
:1054700050F40030234908602248006810F40030DE
:1054800000900098042001900220029000200390D8
:10549000022004900720059001A91B48FDF7B2FDEA
:1054A000082001900720059001A91748FDF7AAFDE3
:1054B00016481749086017480068154948600020D9
:1054C0001349886000201249C86000201049086113
:1054D00000200F4988610C200D4948610C4801F0FB
:1054E00045F8002800D0FEE70B48094988624FF4D0
:1054F00080700749888500200549C86307B000BD52
:105500003038024040380240000002400044004071
:1055100034080020B0E1000880040020010040F1C0
:105520000780F446404200F003F851F00041604724
:1055300009D0B0FA80F18840C91CC1F58461090521
:1055400001EBD021400570471248006850F470000C
:10555000104908601048006850F001000E490860CA
:1055600000200E4908600C4800680D4908400A49AF
:1055700008600C480C4908600748006830F4802037
:10558000054908600020094908605FF0006008498B
:105590000860704788ED00E000380240083802409B
:1055A000FFFFF6FE10300024043802400C380240A1
:1055B00008ED00E0000000002DE9F8452DED088B16
:1055C0000FB486B040F2FF7107989DED080B8DED8A
:1055D000040BC0F30A50884208D107980024000346
:1055E00005BF069800280225012512E0012807DAE8
:1055F00006A802F0A9FC012802DB0024002508E02F
:10560000079A40F2FE3161F31E520792441A4FF09E
:10561000FF35002104A802F0B8FC1A9F06460FB11E
:105620000020388036B9DDE908230020002102F08F
:10563000EBFC12D0002D13D524B2012C15D1DDE9DD
:1056400006230020DFF88C1302F0DEFC05D0012ECB
:105650000BD1DF4902F0D8FC3ED10AB0CD49E8E1D8
:10566000022D04D1DDE90601E2E1012E6FDB022EFD
:1056700008BFDDE9080100F0DB81012D2AD1079880
:105680000028099806D4002854BF9FEDD50B9FED44
:10569000D60BCBE100280ED456B94FF0FF3104A849
:1056A00002F073FC002848BF9FEDD10B00F1BE81D2
:1056B0009FEDCB0BBAE156B94FF0FF3104A802F0D1
:1056C00064FC002848BF9FEDB40B00F1AF819FED53
:1056D000C60BABE1012E11D10998002824B206D4E3
:1056E000012CACBF9FEDBE0B9FEDBF0B9EE1012CCB
:1056F000ACBF9FEDBD0B9FEDBA0B97E10998002859
:1057000010D466B94FF0FF3104A802F03EFC002827
:1057100042BF079800289FEDA00B00F187819FED05
:10572000B20B83E102F080FC2221016066B94FF0E8
:10573000FF3104A802F029FC002842BF0798002886
:105740009FEDAB0B00F172819FEDA50B6EE1079809
:10575000002848BF002E0CD502F066FC2121016014
:105760000AB04FF0FF30BDEC088B6FF00041BDE890
:10577000F485DDE906010022002302F05BFC38BF5E
:10578000002509D381F00041CDE906014FF0FF313A
:1057900004A802F0FAFB0546012C13D1DDE906014D
:1057A0007F4A804B02F05EFC0CD2DDE9062300202C
:1057B0004FF0804100F088FBCDE9060100269FED07
:1057C0007A8B1CE0DDE906230020794900F07CFBA0
:1057D0009FED788B53EC182B02F05CFC00F052FC30
:1057E000A0F120063046FFF799FE0022734B00F02F
:1057F0006BFB53EC182B02F04DFC41EC180B0FF235
:10580000582000EB461ADDE9060153EC182B02F094
:10581000B5FCDDE9062341EC190B51EC180B02F045
:1058200039FC02460B4651EC190B02F067FD41ECC6
:105830001A0B53EC1A2B00F047FB41EC1B0B8DEDC0
:10584000069B02F087FE53EC1B2B00F03DFBDDE9CD
:10585000062302F093FC0646884600204D4953EC8F
:10586000182B02F08BFC00224FF0804300F02CFB41
:105870003246434602F00EFC53EC1A2B00F024FB98
:10588000DDE9062302F006FC41EC180B4C4A4D4BB7
:1058900002F034FDCDE904012046FFF73FFE41EC64
:1058A000190BDAE9000153EC192B02F0F3FBDDE9E7
:1058B000042302F0EFFBCDE90401DDE9082300F049
:1058C00003FB0022404BCDE9020102F0CBFBC0F00C
:1058D000938001223D4B02F0ADFB40F2918000220B
:1058E000002302F0BFFBDDE9022339BF0020384965
:1058F0000020384902F0CEFB00F0C4FB0446DDE98D
:10590000080153EC182B00F0DFFACDE90201DAE9C7
:105910000223DAE9040102F0BDFBDDE9082300F00F
:10592000D3FA9FED2D8B53EC182B00F0CDFADDE967
:10593000022302F0AFFBCDE90201DAE9002351ECCA
:10594000190B02F0A7FBDDE9082300F0BDFA0646BB
:1059500088462046FFF7E2FD02460B4630464146A8
:1059600002F00CFC53EC182B00F0AEFADDE9022338
:1059700002F090FBCDE902010FB13C8000240094BD
:105980000022044B02A802F03DFEA8B3012837D044
:1059900042E000BF0000F03F000000000000008077
:1059A000CD3B7F669EA0E63F000000000000F03F78
:1059B00000005040000000000000E03F0000903F69
:1059C000EF39FAFE422EE63F0000E0C00000E04062
:1059D0000000E0BF0000E03FEF39FAFE422EE63F54
:1059E000000000000000F07F000000000000000048
:1059F000000000000000F0FF0020CDE9020007E0F9
:105A00000020014902E000BF0000F07FCDE9020163
:105A100002F00AFB22210160002D1DBFDDE9020119
:105A200081F0004141EC100B9DED020B51EC100B8D
:105A30000AB0BDEC088BBDE8F48580B5002000906D
:105A400053EC112B51EC100BFFF7B6FD41EC100B92
:105A500001BD000000000000000000000000F0BFD9
:105A60000000000000000080000000000000008036
:105A70000000000000000000000000C05294EEBFD3
:105A800000000048204E51BE000000F86467BCBC16
:105A90000000000000000000000000208133EDBF86
:105AA00000000080B3DB14BE000000506706A3BCFA
:105AB0000000000000000000000000D0E9DCEBBFA7
:105AC00000000008C39259BE00000080B0D3B8BCEB
:105AD000000000000000000000000070F98FEABF25
