:020000040800F2
:10000000B0080020D56500085D6500085F65000840
:1000100000000000000000000000000000000000E0
:10002000000000000000000000000000FB1F0008AE
:100030000000000000000000F737000863650008BA
:10004000334800081753000847530008E3550008D9
:10005000A3650008AF650008116600086B6500081D
:100060001366000815660008176600081966000880
:100070001B6600081D660008000000001F660008DF
:1000800000000000216600080000000000000000E1
:1000900023660008000000002566000827660008A7
:1000A000296600082B6600082D6600082F660008E8
:1000B00031660008336600083566000837660008B8
:1000C00038B5040068469A490A680260A068056865
:1000D000200000F09CFA012801D1012034E0042125
:1000E000200001F027F9002801D101202CE0402157
:1000F000200001F042F9002801D1012024E0002174
:10010000200001F05BF8002801D101201CE08948A3
:1001100028600021200001F0DAF8002801D1012038
:1001200012E00021200000F0A5F9012801D10120F2
:100130000AE06946200000F026FA012801D10120DA
:1001400002E00120E070002032BD38B50400A06854
:100150000568200000F05BFA012801D101203CE095
:10016000200000F0CDFB012801D1012035E0200066
:1001700000F022FF012801D101202EE0200000F034
:1001800033FC012801D1012027E0200000F0B0FD60
:10019000012801D1012020E0200000F05AFE0128B2
:1001A00001D1012019E0200000F0B0FC012801D1AC
:1001B000012012E0200000F00DFD012801D10120F6
:1001C0000BE0200000F01FF8012801D1012004E01D
:1001D000002028600020E070002032BD10B504002F
:1001E000A06800682179012901D100200AE0016896
:1001F000200000F087FA012801D1012002E001204F
:100200002071002010BD10B50400A068016820799D
:10021000002801D1002011E0200000F08DF8012815
:1002200001D101200AE00021200001F050F800284F
:1002300001D1012002E000202071002010BD80B516
:1002400000F0DCF902BD80B500F0E1F902BD3EB579
:1002500005000C000020009001A9280000F0EEF934
:10026000012801D1012028E06946280000F03AF871
:10027000012801D1012020E0019800B201F01AFE0E
:10028000009901F030FE01F087FE206001A80221F4
:10029000405E01F00FFE009901F025FE01F07CFEAA
:1002A000606001A80421405E01F004FE009901F0A5
:1002B0001AFE01F071FEA06000203EBD1CB50C00CE
:1002C000694600F0BBF9012801D1012009E000983E
:1002D00000B2208068464088608068468088A080A0
:1002E000002016BD10B582B00C00694600F0DFFF9B
:1002F000002801D101200DE068460078002806D0D2
:1003000004280ED0082806D00C2807D00CE0754829
:100310002060002016BD74482060FAE77348206012
:10032000F7E773482060F4E7724820600120F1E7A6
:100330000C6600080000D04210B582B00C0069467F
:1003400000F0E8FF002801D101201DE06846007898
:10035000002816D0102818D0202819D030281AD0FC
:1003600040281BD050281CD060281DD070281ED0DB
:1003700080281FD0902820D0A02821D0B02822D0BB
:1003800024E000202060002016BD5B482060FAE7D2
:100390005A482060F7E75A482060F4E7594820603F
:1003A000F1E759482060EEE758482060EBE75848ED
:1003B0002060E8E757482060E5E78A482060E2E7E8
:1003C00089482060DFE789482060DCE749482060F1
:1003D0000120D9E780B50279012A06D1C9B200F01F
:1003E00052F9012808D1012007E0C9B200F06AF9EA
:1003F000012801D1012000E0002002BD80B5027972
:10040000012A05D100F07EF9012807D1012006E07C
:1004100000F0C2F9012801D1012000E0002002BD56
:1004200010B582B00C00694600F041FF002801D1F0
:1004300001200EE068460078002806D0042811D07C
:10044000082807D00C2809D010E08020C0052060C3
:10045000002016BD8120C0052060F9E78220C0057C
:100460002060F5E78320C0052060F1E72148206087
:100470000120EEE780B5C9B2002903D002290BD0D4
:1004800008D30BE00021C9B200F0EEFE002807D12E
:10049000012006E00821F6E70C21F4E7012000E046
:1004A000002002BD80B502000800514901F092FD14
:1004B00001D200210CE04F4901F08CFD01D208214E
:1004C00006E04D4901F086FD01D20C2100E0042137
:1004D000C9B2100000F0C8FE002801D1012000E0E0
:1004E000002002BD23DB793D23DBF93D23DB793E90
:1004F00023DBF93E000080BF000050410000D041E6
:10050000000050420000D042000050430000D043A1
:10051000004050440080CF4438B505000C0000A9CD
:10052000891C280000F06FFF002801D1012029E07C
:1005300000A9491C280000F099FF002801D10120E2
:1005400020E06946280000F0C4FF002801D1012006
:1005500018E068468078082801D1012000E00020DA
:10056000207068464078102801D1012000E000206A
:10057000607068460078202801D1012000E000204A
:10058000A070002032BD38B504000D002878012885
:1005900001D1082100E00021C9B2200000F010FFC5
:1005A000002801D101201CE06878012801D1102128
:1005B00000E00021C9B2200000F035FF002801D181
:1005C00001200EE0A878012801D1202100E00021BF
:1005D000C9B2200000F05AFF002801D1012000E03C
:1005E000002032BD002050450020D0450048504634
:1005F00001000040010080400100004180B500F092
:1006000023FE002801D1012000E0002002BD10B52A
:1006100082B0040000206946087069462000FFF798
:10062000EDFF012801D1012007E06846007821781C
:10063000884201D0012000E0002016BD1CB50C004E
:100640006946002200230CC10839694601F0CBFB42
:10065000002801D1012015E0684640780002694673
:100660000978401820806846C07800026946897879
:100670004018608068464079000269460979401850
:10068000A080002016BD80B5C9B2002906D002297D
:100690000ED00BD304290FD00CD30FE01021C9B218
:1006A00000F015FE00280BD101200AE01021F6E72A
:1006B0002021F4E73021F2E74021F0E7012000E0BB
:1006C000002002BD00B580680068C9B2002906D0CC
:1006D00002290BD007D304290ED00AD30FE05149C9
:1006E0000160002000BD4F490160FAE74E490160FA
:1006F000F7E74E490160F4E74D490160F1E7012059
:10070000F0E7000080B5020008004A4901F062FCF1
:1007100001D2102136E0484901F05CFC01D22021D1
:1007200030E0464901F056FC01D230212AE044492C
:1007300001F050FC01D2402124E0424901F04AFC82
:1007400001D250211EE0404901F044FC01D2602159
:1007500018E03E4901F03EFC01D2702112E03C4914
:1007600001F038FC01D280210CE03A4901F032FC62
:1007700001D2902106E0394901F02CFC01D2A021E0
:1007800000E0B021C9B2100000F0A1FD002801D1A5
:10079000012000E0002002BD80B502000800916841
:1007A0000A68244901F016FC01D21E4836E02249AD
:1007B00001F010FC01D21C4830E0204901F00AFC95
:1007C00001D21A482AE01E4901F004FC01D218485F
:1007D00024E01C4901F0FEFB01D21F481EE01A492B
:1007E00001F0F8FB01D21E4818E0184901F0F2FBB5
:1007F00001D21C4812E0164901F0ECFB01D21A4864
:100800000CE0144901F0E6FB01D2184806E0134958
:1008100001F0E0FB01D2164800E0384810600020EB
:1008200002BD0000000050410000D04100005042D5
:100830000000D042010050410100D041010050426F
:100840000100D042010050430100D0430140504418
:100850000180CF4401205045000050430120D04585
:100860000000D043004050440080CF440020504559
:100870000020D04510B50400A3492000FFF7BEFDBD
:10088000012801D1012038E00021200000F0ECFC1B
:10089000002801D1012030E00621200001F084F978
:1008A000002801D1012028E00021200001F032F9C8
:1008B000002801D1012020E00021200001F007F9EB
:1008C000002801D1012018E00021200001F0DAF811
:1008D000002801D1012010E00321200000F045F89C
:1008E000012801D1012008E01021200001F012FAB6
:1008F000002801D1012000E0002010BD0048504632
:1009000010B504000021200001F004FA002801D1F4
:10091000012010E00021200001F046F9002801D15B
:10092000012008E00021200001F01BF9002801D17E
:10093000012000E0002010BD10B582B00C00694617
:1009400000F02DFE002801D1012008E06846007863
:10095000002805D0202806D101202070002016BDD7
:1009600000202070FAE70120F9E780B5C9B201F054
:10097000F8F8002801D1012000E0002002BD10B5E8
:10098000040093492000FFF739FD012801D101201F
:1009900028E00021200000F067FC002801D10120A0
:1009A00020E01721200000F079F8012801D1012072
:1009B00018E00421200000F0BFFD002801D1012033
:1009C00010E04021200000F037FF002801D1012075
:1009D00008E08021200000F014FC002801D1012053
:1009E00000E0002010BD000010B504000021200030
:1009F00000F007FC002801D1012018E000212000B0
:100A000000F01AFF002801D1012010E00021200091
:100A100000F092FD002801D1012008E00021200013
:100A200000F03CF8012801D1012000E0002010BDB9
:100A300010B582B00C00694600F052FE002801D1CA
:100A4000012008E068460078002805D0102806D16B
:100A500001202070002016BD00202070FAE7012040
:100A6000F9E780B501F0E0F9002801D1012000E0AC
:100A7000002002BD80B5022100F03BFD002801D11D
:100A8000012000E0002002BD80B5002100F031FD12
:100A9000002801D1012000E0002002BD80B5C9B2CC
:100AA00001F0E3F9002801D1012000E0002002BD9F
:100AB00010B5040046492000FFF7A0FC012801D131
:100AC000012020E00021200000F0CEFB002801D111
:100AD000012018E00421200000F02EFD002801D1A3
:100AE000012010E02021200000F083FE002801D129
:100AF000012008E00221200001F0A3F8002801D124
:100B0000012000E0002010BD0000D04310B504001B
:100B10000021200001F095F8002801D1012010E00B
:100B20000021200000F065FE002801D1012008E02E
:100B30000021200000F000FD002801D1012000E08C
:100B4000002010BD10B582B00C00694600F0D8FD41
:100B5000002801D1012008E068460078002805D06F
:100B6000202806D101202070002016BD0020207012
:100B7000FAE70120F9E710B504005C492000FFF70F
:100B80003DFC012801D1012020E00021200000F0DF
:100B90006BFB002801D1012018E00021200000F0AB
:100BA000B9FF002801D1012010E00221200000F04F
:100BB00021FF002801D1012008E02021200001F0C0
:100BC000CCF8002801D1012000E0002010BD000079
:100BD0000000D04110B504000021200001F0BDF854
:100BE000002801D1012010E00021200000F092FF38
:100BF000002801D1012008E00021200000F0FAFEC9
:100C0000002801D1012000E0002010BD10B582B005
:100C10000C00694600F0B3FC002801D1012008E077
:100C200068460078002805D0082806D101202070E9
:100C3000002016BD00202070FAE70120F9E780B5FA
:100C4000C9B200F0D7FE002801D1012000E0002049
:100C500002BD10B5040025492000FFF7CFFB012895
:100C600001D1012040E00021200000F0FDFA002821
:100C700001D1012038E00821200000F097FD002874
:100C800001D1012030E00421200000F06CFD00289B
:100C900001D1012028E00221200000F041FD0028C0
:100CA00001D1012020E00821200000F037F90128BF
:100CB00001D1012018E00221200000F039F90128BB
:100CC00001D1012010E00121200000F03BF90128B2
:100CD00001D1012008E04021200001F061F8002846
:100CE00001D1012000E0002010BD00000000D04331
:100CF00010B504000021200001F052F8002801D1B5
:100D0000012030E00021200000F008F9012801D185
:100D1000012028E00021200000F00AF9012801D17B
:100D2000012020E00021200000F00CF9012801D171
:100D3000012018E00021200000F0F2FC002801D181
:100D4000012010E00021200000F00DFD002801D15D
:100D5000012008E00021200000F028FD002801D13A
:100D6000012000E0002010BD10B582B00C006946E3
:100D700000F035FC002801D1012008E06846007829
:100D8000002805D0202806D101202070002016BDA3
:100D900000202070FAE70120F9E710B5040085492A
:100DA0002000FFF72BFB012801D1012050E000219A
:100DB000200000F059FA002801D1012048E0082164
:100DC000200000F0F3FC002801D1012040E00421C4
:100DD000200000F0C8FC002801D1012038E00221E9
:100DE000200000F09DFC002801D1012030E0082106
:100DF000200000F093F8012801D1012028E0032110
:100E0000200000F095F8012801D1012020E0032105
:100E1000200000F097F8012801D1012018E00821F6
:100E2000200000F099F8012801D1012010E0802174
:100E3000200000F004FE002801D1012008E0082174
:100E4000200000F044FF002801D1012000E0002034
:100E500010BD10B504000021200000F038FF00286C
:100E600001D1012040E00021200000F057F80128C6
:100E700001D1012038E00021200000F059F80128BC
:100E800001D1012030E00021200000F05BF80128B2
:100E900001D1012028E00021200000F05DF80128A8
:100EA00001D1012020E00021200000F0C8FD002831
:100EB00001D1012018E00021200000F031FC0028C1
:100EC00001D1012010E00021200000F04CFC00289E
:100ED00001D1012008E00021200000F067FC00287B
:100EE00001D1012000E0002010BD10B582B00C003F
:100EF000694600F064FB002801D1012008E0684643
:100F00000078002805D0102806D10120207000208C
:100F100016BD00202070FAE70120F9E780B5C9B2BC
:100F200000F0ADFC002801D1012000E0002002BD4E
:100F300080B5C9B200F0EBFC002801D1012000E02F
:100F4000002002BD80B5C9B200F006FD002801D125
:100F5000012000E0002002BD80B5C9B200F023FDF1
:100F6000002801D1012000E0002002BD10B50400DE
:100F700010492000FFF742FA012801D1012018E0B2
:100F80000021200000F070F9002801D1012010E0BC
:100F90004021200000F098FC002801D1012008E049
:100FA0000421200000F070FE002801D1012000E0A3
:100FB000002010BD0000D04310B504000021200027
:100FC00000F062FE002801D1012008E0002120008D
:100FD00000F07AFC002801D1012000E0002010BDC3
:100FE00010B582B00C00694600F06AFB002801D100
:100FF000012008E068460078002805D0402806D186
:1010000001202070002016BD00202070FAE701208A
:10101000F9E710B582B00C00694600F0F0FA00283C
:1010200001D1012008E068460078002805D0012899
:1010300006D101202070002016BD00202070FAE7A4
:101040000120F9E710B582B00C00694600F0E8FA1B
:10105000002801D1012008E068460078002805D06A
:10106000022806D101202070002016BD002020702B
:10107000FAE70120F9E710B582B00C00694600F0EC
:10108000DFFA002801D1012008E068460078002836
:1010900005D0042806D101202070002016BD0020B4
:1010A0002070FAE70120F9E710B582B00C0069461C
:1010B00000F0D6FA002801D1012008E06846007847
:1010C000002805D0082806D101202070002016BD78
:1010D00000202070FAE70120F9E710B582B00C007B
:1010E000694600F0CDFA002801D1012008E06846E9
:1010F0000078002805D0102806D10120207000209B
:1011000016BD00202070FAE70120F9E710B582B083
:101110000C00694600F0C4FA002801D1012008E063
:1011200068460078002805D0202806D101202070CC
:10113000002016BD00202070FAE70120F9E70268C0
:10114000531C03601170704780B50123C9B200F0D1
:10115000B3FF002801D0002000E0012002BD04B54B
:1011600001236A46C9B200F09BFF002801D000208D
:1011700000E0012002BD38B505000C006A460121DF
:101180002800FFF7E1FF002801D1002015E06846A4
:1011900000784006400E69460870684600780443AF
:1011A000684604706846027801212800FFF7D7FFDF
:1011B000002801D1002000E0012032BD38B5050033
:1011C0000C006A460A212800FFF7BEFF002801D163
:1011D000002015E068460078F8210140684601705B
:1011E00068460078044368460470684602780A211D
:1011F0002800FFF7B4FF002801D1002000E0012003
:1012000032BD38B505000C006A460D212800FFF7F5
:101210009BFF002801D1002015E0684600784006B9
:10122000400E6946087068460078044368460470BA
:10123000684602780D212800FFF791FF002801D1B0
:10124000002000E0012032BD10B50C0022000F216B
:10125000FFF77AFF002801D1002004E020782070F9
:1012600020782070012010BD38B505000C006A46BA
:1012700010212800FFF768FF002801D1002015E0A9
:1012800068460078F321014068460170684600789E
:101290000443684604706846027810212800FFF76E
:1012A0005EFF002801D1002000E0012032BD10B512
:1012B0000C0022001021FFF747FF002801D1002079
:1012C00004E020780C2101402170012010BD38B5C8
:1012D00005000C006A4610212800FFF735FF0028A2
:1012E00001D1002015E0684600780007000F69462C
:1012F00008706846007804436846047068460278BF
:1013000010212800FFF72BFF002801D1002000E06A
:10131000012032BD10B50C0022001021FFF714FF90
:10132000002801D1002004E02078F0210140217044
:10133000012010BD38B505000C006A4612212800B6
:10134000FFF702FF002801D1002015E06846007871
:10135000FB210140684601706846007804436846F6
:1013600004706846027812212800FFF7F8FE002872
:1013700001D1002000E0012032BD38B505000C008D
:101380006A4612212800FFF7DFFE002801D1002065
:1013900015E068460078BF21014068460170684644
:1013A00000780443684604706846027812212800D9
:1013B000FFF7D5FE002801D1002000E0012032BD5A
:1013C00038B505000C006A4618212800FFF7BCFE5E
:1013D000002801D1002015E068460078F72101407F
:1013E00068460170684600780443684604706846A1
:1013F000027818212800FFF7B2FE002801D1002052
:1014000000E0012032BD10B50C0022001821FFF7CA
:101410009BFE002801D1002004E02078082108402C
:101420002070012010BD38B505000C006A46182157
:101430002800FFF789FE002801D1002015E068464A
:101440000078EF2101406846017068460078044347
:10145000684604706846027818212800FFF77FFE6E
:10146000002801D1002000E0012032BD10B50C00A1
:1014700022001821FFF768FE002801D1002004E0B7
:101480002078102108402070012010BD38B50500DB
:101490000C006A4618212800FFF756FE002801D1EB
:1014A000002015E068460078DF21014068460170A1
:1014B000684600780443684604706846027818213C
:1014C0002800FFF74CFE002801D1002000E0012099
:1014D00032BD10B50C0022001821FFF735FE0028A0
:1014E00001D1002004E02078202108402070012054
:1014F00010BD38B505000C006A4619212800FFF719
:1015000023FE002801D1002015E068460078FD2167
:1015100001406846017068460078044368460470DC
:101520006846027819212800FFF719FE002801D12A
:10153000002000E0012032BD38B505000C006A46ED
:1015400019212800FFF700FE002801D1002015E036
:1015500068460078FB2101406846017068460078C3
:101560000443684604706846027819212800FFF792
:10157000F6FD002801D1002000E0012032BD10B5A9
:101580000C0022001B21FFF7DFFD002801D1002005
:1015900004E02078082108402070012010BD10B51B
:1015A0000C0022001B21FFF7CFFD002801D10020F5
:1015B00004E02078202108402070012010BD10B5E3
:1015C0000C0022001C21FFF7BFFD002801D10020E4
:1015D00004E02078102108402070012010BD10B5D3
:1015E0000C0022001C21FFF7AFFD002801D10020D4
:1015F00004E02078202108402070012010BD10B5A3
:101600000C0022001D21FFF79FFD002801D10020C2
:1016100005E020780100C907C90F2170012010BD25
:1016200010B50C0022001D21FFF78EFD002801D10E
:10163000002004E02078022108402070012010BD25
:1016400010B50C0022001D21FFF77EFD002801D1FE
:10165000002004E02078042108402070012010BD03
:1016600010B50C0022001D21FFF76EFD002801D1EE
:10167000002004E02078082108402070012010BDDF
:1016800010B50C0022001D21FFF75EFD002801D1DE
:10169000002004E02078102108402070012010BDB7
:1016A00010B50C0022001D21FFF74EFD002801D1CE
:1016B000002004E02078202108402070012010BD87
:1016C00010B50C0022001D21FFF73EFD002801D1BE
:1016D000002004E02078402108402070012010BD47
:1016E00010B50C0022005321FFF72EFD002801D178
:1016F000002004E02078102108402070012010BD57
:1017000010B50C0022005321FFF71EFD002801D167
:10171000002004E02078202108402070012010BD26
:1017200038B505000C006A4658212800FFF70CFD6B
:10173000002801D1002015E068460078FD21014015
:10174000684601706846007804436846047068463D
:10175000027858212800FFF702FD002801D100205F
:1017600000E0012032BD38B505000C006A46582162
:101770002800FFF7E9FC002801D1002015E06846A9
:101780000078FB21014068460170684600780443F8
:10179000684604706846027858212800FFF7DFFC8D
:1017A000002801D1002000E0012032BD38B505003D
:1017B0000C006A4658212800FFF7C6FC002801D11A
:1017C000002015E068460078F72101406846017066
:1017D00068460078044368460470684602785821D9
:1017E0002800FFF7BCFC002801D1002000E0012008
:1017F00032BD38B505000C006A4658212800FFF7B5
:10180000A3FC002801D1002015E068460078DF2104
:1018100001406846017068460078044368460470D9
:101820006846027858212800FFF799FC002801D16A
:10183000002000E0012032BD38B505000C006A46EA
:1018400058212800FFF780FC002801D1002015E076
:1018500068460078BF2101406846017068460078FC
:101860000443684604706846027858212800FFF750
:1018700076FC002801D1002000E0012032BD38B5FF
:1018800005000C00E406E40E6A4659212800FFF723
:101890005BFC002801D1002015E068460078E021BB
:1018A0000140684601706846007804436846047049
:1018B0006846027859212800FFF751FC002801D121
:1018C000002000E0012032BD38B505000C006A465A
:1018D00059212800FFF738FC002801D1002015E02D
:1018E000684600789F21014068460170684600788C
:1018F0000443684604706846027859212800FFF7BF
:101900002EFC002801D1002000E0012032BD38B5B6
:1019100005000C00A407A40F6A465A212800FFF70F
:1019200013FC002801D1002015E068460078FC2156
:1019300001406846017068460078044368460470B8
:10194000684602785A212800FFF709FC002801D1D7
:10195000002000E0012032BD38B505000C00A400D5
:1019600020000C2404406A465A212800FFF7ECFBB3
:10197000002801D1002015E068460078F3210140DD
:1019800068460170684600780443684604706846FB
:1019900002785A212800FFF7E2FB002801D100203D
:1019A00000E0012032BD38B505000C002401200004
:1019B000F02404406A465A212800FFF7C5FB00289E
:1019C00001D1002015E0684600780007000F694645
:1019D00008706846007804436846047068460278D8
:1019E0005A212800FFF7BBFB002801D1002000E0AE
:1019F000012032BD38B505000C00A406A40E6A46CD
:101A00005B212800FFF7A0FB002801D1002015E092
:101A100068460078C0210140684601706846007839
:101A2000044368460470684602785B212800FFF78B
:101A300096FB002801D1002000E0012032BD38B51E
:101A400005000C006A465B212800FFF77DFB00289B
:101A500001D1002015E0684600784006400E694636
:101A60000870684600780443684604706846027847
:101A70005B212800FFF773FB002801D1002000E064
:101A8000012032BD38B505000C002407240F6A463A
:101A90005C212800FFF758FB002801D1002015E049
:101AA00068460078F0210140684601706846007879
:101AB000044368460470684602785C212800FFF7FA
:101AC0004EFB002801D1002000E0012032BD38B5D6
:101AD00005000C006A465C212800FFF735FB002852
:101AE00001D1002015E068460078EF2101406846EA
:101AF00001706846007804436846047068460278BE
:101B00005C212800FFF72BFB002801D1002000E01A
:101B1000012032BD38B505000C00640120006024AE
:101B200004406A465C212800FFF70EFB002801D123
:101B3000002015E0684600789F210140684601704A
:101B400068460078044368460470684602785C2161
:101B50002800FFF704FB002801D1002000E001204D
:101B600032BD38B505000C006A465D212800FFF73C
:101B7000EBFA002801D1002015E068460078F82132
:101B80000140684601706846007804436846047066
:101B9000684602785D212800FFF7E1FA002801D1AC
:101BA000002000E0012032BD70B582B00600CD06F5
:101BB000ED0E0C00A406E40FED002800F82505400A
:101BC0006A465D213000FFF7BFFA002801D10020EE
:101BD00036E0684600784007400F6946087068465E
:101BE0000078054368460570684602785D2130003C
:101BF000FFF7B5FA002801D1002021E0E4018020A0
:101C000004406A465C213000FFF79EFA002801D1AB
:101C1000002015E0684600784006400E69460870CE
:101C200068460078044368460470684602785C2180
:101C30003000FFF794FA002801D1002000E00120D5
:101C400076BD38B505000C006A465E212800FFF716
:101C50007BFA002801D1002015E068460078FD21BC
:101C60000140684601706846007804436846047085
:101C7000684602785E212800FFF771FA002801D13A
:101C8000002000E0012032BD38B505000C006A4696
:101C90005E212800FFF758FA002801D1002015E046
:101CA00068460078FB21014068460170684600786C
:101CB000044368460470684602785E212800FFF7F6
:101CC0004EFA002801D1002000E0012032BD38B5D5
:101CD00005000C006A465E212800FFF735FA00284F
:101CE00001D1002015E068460078F72101406846E0
:101CF00001706846007804436846047068460278BC
:101D00005E212800FFF72BFA002801D1002000E017
:101D1000012032BD38B505000C006A465E2128005E
:101D2000FFF712FA002801D1002015E0684600787C
:101D3000EF21014068460170684600780443684618
:101D40000470684602785E212800FFF708FA002830
:101D500001D1002000E0012032BD38B505000C00A3
:101D60006A465E212800FFF7EFF9002801D1002024
:101D700015E068460078DF2101406846017068463A
:101D80000078044368460470684602785E212800A3
:101D9000FFF7E5F9002801D1002000E0012032BD65
:101DA00038B505000C006A465E212800FFF7CCF923
:101DB000002801D1002015E068460078BF210140CD
:101DC00068460170684600780443684604706846B7
:101DD00002785E212800FFF7C2F9002801D1002017
:101DE00000E0012032BDF3B581B0022700240026B7
:101DF00000E0761CF6B2032E14DA002501E0641C24
:101E00006D1CEDB2FFB2BD42F3D20298E4B20219EA
:101E100021002831C9B20198FFF796F90028EED1C8
:101E2000002000E00120FEBDF3B581B002270024B0
:101E3000002600E0761CF6B2002E14D1002501E049
:101E4000641C6D1CEDB2FFB2BD42F3D20298E4B245
:101E5000021921004B31C9B20198FFF775F900282A
:101E6000EED1002000E00120FEBD38B505000C00D9
:101E700080212800FFF77FF96A460F212800FFF72D
:101E800063F968460078E0210140684601706846C1
:101E90000078E106C90E0143684601706846027881
:101EA0000F212800FFF75BF900212800FFF763F9F5
:101EB000012032BD9D21020008D5F446524200F0B7
:101EC00005F80122D2071043604700000AD002D46F
:101ED000491E9218FCD5C905100A1206524100D3BA
:101EE000012A4841704730B405004D400122D20715
:101EF00015404B180418240E2ED01B0E32D0FF2C88
:101F000034D0FF2B3AD0E4180002090210431143E9
:101F1000000A090A9446C2B24A43000AC3B24B43BC
:101F2000000A4843110A5B181A43D2B2190A091869
:101F300001D44918641E080A7F3C23DBFE2C08DA12
:101F4000E40509061143634699416041284330BCCA
:101F50007047FF20C005F9E728001B0EFF2BF6D1C4
:101F6000D043F4E72800FF2CF1D1F9E74002F7D184
:101F7000FF2B01D14902F3D1E005E7E7D80549027B
:101F8000E4D0EDE743020020641CDFD15B129B1C10
:101F9000DCD9D805DAE720000122D2070118090EA2
:101FA0007F3910D449421F310FD4001805D2C00127
:101FB0001043C84000D5D0437047C0011043C8400B
:101FC00005D440427047002070470042F3D510000E
:101FD000704700200CB4012212060318DA4207D819
:101FE0004B18DA4204D802000A43921802D28842FF
:101FF0000CBC7047FCD08142FAE7FEE780B500F0E8
:1020000067F8002801D0012000E0002002BD002078
:10201000704700B58BB080480068012101437E48BD
:1020200001607D4800680100C907C90F0091009850
:10203000102006907948079002200990002008900F
:1020400006A9A020C00500F0FBF80022002107200F
:1020500000F076FA072000F078FA6F480068022155
:1020600001436D4801606C480068022108400090FF
:1020700000980120019069480290022004900020FD
:10208000039001A9664800F0DBF80022002105203A
:1020900000F056FA052000F058FA00200BB000BD01
:1020A00080B59BB2C9B2407800F032F8002801D068
:1020B000012000E0002002BD80B59BB2C9B240788B
:1020C00000F046F8002801D0012000E0002002BD09
:1020D00080B5544800F048FC002810D152485149BE
:1020E000486033204F49886001204E49C8604F48FE
:1020F0004C49086000F053F84A4800F03BFA494860
:1021000000F032FC012801D1002000E0012002BDD6
:1021100010B584B0040000204548006802909BB2CE
:10212000019300920123C9B20A0092B2E4B22100E5
:1021300089B23C4800F0A0FAC0B2002805D02000C7
:10214000C0B200F025F8012000E0002004B010BD6E
:1021500010B584B0040000203548006802909BB29E
:10216000019300920123C9B20A0092B2E4B22100A5
:1021700089B22C4800F03CFBC0B2002805D02000FA
:10218000C0B200F005F8012000E0002004B010BD4E
:1021900080B5244800F04CFAFFF79AFF01BD00B566
:1021A00087B01D480068022101431B4801601A489E
:1021B00000680221084000900098C0208000019033
:1021C0001220029002200490002003900420059029
:1021D00001A9134800F034F81648006880218903EB
:1021E00001431448016014480068802189030143B9
:1021F0001148016010480068104901400E48016014
:1022000000220021172000F09BF9172000F09DF913
:1022100007B000BD000000002C10024000001110AB
:1022200000040050100400202E11B10000540040A2
:102230009C0100203810024028100240FFFFDFFF01
:10224000F0B5020000230024002534E006201E0023
:10225000B607B60F04277E43B040284305006B48FD
:102260001E00B60804277E43855167480568A543CC
:102270004868C00300D52543634805606448056885
:10228000A5434868800300D525436148056061483F
:102290000568A5434868C00200D525435D48056030
:1022A0005D480568A5434868800201D52C43250098
:1022B000594805605B1C0868D840002800D1A1E09F
:1022C000086801249C400440002CF3D04868022890
:1022D00002D0486812281CD11800C00804256843A1
:1022E0001018056A0F201E007607760F04277E431C
:1022F000B040854308691E007607760F04277E43A9
:10230000B040284305001800C00804267043101888
:1023100005624868012808D04868022805D0486846
:10232000112802D0486812281AD1956803201E008F
:1023300002277E43B0408543C8681E0002277E43C3
:10234000B0402843050095605568012098408543BA
:102350002E0048680500ED06ED0F9D4035435560A1
:10236000156803201E0002277E43B040854308798C
:102370008007800F1E0002277E43B04028430500DF
:102380001560D56803201E0002277E43B0408543B8
:102390002F008D681E0002204643B5403D43D560A6
:1023A0004868C00086D52F480068012505432D48A0
:1023B000056016481D00AD080426754345590F20D9
:1023C0001E00B607B60F04277E43B0408543A02009
:1023D000C005824201D1002039E72348824201D161
:1023E000012034E72148824201D102202FE7204812
:1023F000824201D103202AE71E48824200D025E70D
:10240000052024E7F0BD0000000401400800014061
:1024100004040140080401400C04014000B50069B7
:1024200089B20840002801D0012000E00020C0B29D
:1024300000BD00B5D2B2002A02D089B2816101E0AC
:1024400089B2816200BD80B50B49096880B2014044
:10245000002905D080B20849086080B200F0A4FDD0
:1024600001BD00003410024000040050000800507C
:10247000000C0050001C0050140401400121C00653
:10248000C00E8140354801607047F0B540B2002869
:1024900021D5334B40B20207120F083A92080424A8
:1024A00062432F4C40B205072D0F083DAD080426AE
:1024B00075436459FF258607B60F08277E43B5404C
:1024C000AC438901C9B28007800F08256843814069
:1024D000214399501BE0234A40B203009B08042487
:1024E0006343D258FF238407A40F08256C43A340FD
:1024F0009A438901C9B283079B0F0824634399401B
:102500001143184A40B28008042358431150F0BDCB
:1025100080B5411E80225204914201D301200EE079
:10252000401E1149086003210020C043FFF7ADFFA2
:1025300000200E49086007200D490860002002BDF8
:1025400080B540B2FFF7A1FF01BD80B540B2FFF7F3
:1025500095FF01BD80B5FFF7DBFF02BD00E100E0A4
:102560001CED00E000E400E014E000E018E000E012
:1025700010E000E010B50400002C01D1012056E06D
:102580003520205C002805D1002034216054200033
:1025900000F06AF8022035216054206800680121AB
:1025A0008843216808606068304901402068016103
:1025B000206880682E49014020688160A06800285A
:1025C0000FD0E068012806D1A068802109020143EC
:1025D0002068816005E0A068842109020143206829
:1025E0008160E068022803D18020000121684860F2
:1025F000206840681F490143206841602069616983
:102600000143A069000208432168C860E069216AAB
:1026100001432068016020680068012101432068AF
:1026200001600020A063012035342070002010BD1F
:1026300010B50400002C01D1012014E00220352146
:1026400060542068006801218843216808602000E8
:1026500000F00BF80020A06300203521605400201A
:1026600034342070002010BD70477047FFFFFFF02A
:10267000FF7FFFFF00800002F2B582B0040000255A
:102680003520205C012800D0AFE0089F002F03D048
:10269000099EB6B2002E01D10120A7E02068806912
:1026A000000401D50220A1E03420205C012801D1E2
:1026B00002209BE0012034216054522035216054D7
:1026C0000020A0630A9800909BB292B268460189EC
:1026D000200000F04CF900280CD0A06B042804D195
:1026E000002034342070012080E000203434207039
:1026F00003207BE0B6B2FF2E0BDD0020009080238C
:102700005B04FF2268460189200000F0AEFAFF2535
:102710000CE00020009080239B043200D2B2684677
:102720000189200000F0A1FAB6B235000A99200014
:1027300000F0F0F9002806D0A06B042801D1012098
:1027400054E0032052E03878216888627F1C6D1EB7
:10275000761E002D28D1B6B2002E25D00A9B00226D
:102760008021200000F08EF9002801D003203DE0F8
:10277000B6B2FF2E0BDD0020009080235B04FF2209
:1027800068460189200000F070FAFF250CE0002067
:10279000009080239B043200D2B268460189200059
:1027A00000F063FAB6B23500B6B2002EBED11921E0
:1027B000200000F0DAF9002806D0A06B042801D12F
:1027C000012013E0032011E020202168C861206867
:1027D000406864490140206841600120352160540F
:1027E000002034342070002000E00220FEBD0000F4
:1027F000F2B582B0040000253520205C012800D00D
:10280000AEE0089F002F03D0099EB6B2002E01D182
:102810000120A6E020688069000401D50220A0E024
:102820003420205C012801D102209AE001203421CB
:1028300060546220352160540020A0630A98009003
:102840009BB292B268460189200000F0D6F80028B9
:102850000CD0A06B042804D1002034342070012057
:102860007FE000203434207003207AE0B6B2FF2EDF
:102870000CDD90208001009080235B04FF226846DD
:102880000189200000F0F1F9FF250DE09020800182
:10289000009080239B043200D2B268460189200058
:1028A00000F0E3F9B6B235000A9B002204212000B3
:1028B00000F0E8F8002801D0032052E02068406AC8
:1028C00038707F1C6D1E761E002D28D1B6B2002EEA
:1028D00025D00A9B00228021200000F0D3F8002898
:1028E00001D003203DE0B6B2FF2E0BDD00200090AA
:1028F00080235B04FF2268460189200000F0B5F9BF
:10290000FF250CE00020009080239B043200D2B20F
:1029100068460189200000F0A8F9B6B23500B6B2C9
:10292000002EC1D11921200000F01FF9002806D087
:10293000A06B042801D1012013E0032011E0202026
:102940002168C861206840680649014020684160EC
:10295000012035216054002034342070002000E034
:102960000220FEBD00E800FE353000787047F8B563
:10297000040015001F0080208001009080235B046C
:102980003A00D2B289B2200000F06FF9069E310001
:10299000200000F0BFF8002806D0A06B042801D169
:1029A000012029E0032027E0BFB2012F03D1EDB2BF
:1029B0002068856215E0280080B2000AC0B2216854
:1029C00088623100200000F0A5F8002806D0A06B36
:1029D000042801D101200FE003200DE0EDB22068B2
:1029E0008562330000228021200000F04BF800288F
:1029F00001D0032000E00020F2BDF8B5040015006E
:102A00001F0080208001009000233A00D2B289B2DA
:102A1000200000F02AF9069E3100200000F07AF82C
:102A2000002806D0A06B042801D1012029E0032052
:102A300027E0BFB2012F03D1EDB22068856215E017
:102A4000280080B2000AC0B22168886231002000EC
:102A500000F060F8002806D0A06B042801D1012006
:102A60000FE003200DE0EDB2206885623300002204
:102A70004021200000F006F8002801D0032000E0EB
:102A80000020F2BDF2B5040017001D0000F0F3FABB
:102A90000600FFB2002F1DD1206880690099014017
:102AA000C803C00B0099C903C90B884230D000206D
:102AB000C0438542F0D0002D04D000F0DCFA801B2A
:102AC0008542E9D201203521605400203434207041
:102AD00003201EE02068806900990140C803C00BF4
:102AE0000099C903C90B884212D10020C043854216
:102AF000F0D0002D04D000F0BEFA801B8542E9D250
:102B0000012035216054002034342070032000E07F
:102B10000020F2BD70B504000E0000F0ACFA050014
:102B20002068806980071ED43100200000F045F83D
:102B3000002801D0012017E00020C0438642EFD0DA
:102B4000002E04D000F097FA401B8642E8D2A06B1A
:102B500020210143A1630120352160540020343439
:102B60002070032000E0002070BD70B504000E004E
:102B7000002500F080FA05002068806980061AD4DC
:102B80003100200000F019F8002801D0012013E0E6
:102B9000002E04D000F06FFA401B8642ECD2A06BEE
:102BA00020210143A16301203521605400203434E9
:102BB0002070032000E0002070BD70B505000C00FF
:102BC000002600F058FA060028688069C0064AD539
:102BD0003520285C122807D03520285C522803D0E5
:102BE0003520285C62280AD128684068800106D414
:102BF000286840688021C90101432868416028682D
:102C00008069800612D40020C0438442F7D0002C93
:102C100004D000F030FA801B8442F0D2012035212C
:102C2000685400203435287003201DE010202968E6
:102C3000C86120202968C86128688069C00702D45B
:102C400001202968C8612868406813490140286844
:102C500041600420A86301203521685400203435E8
:102C60002870012000E0002070BD30B4002404680A
:102C700064682500094C2C40250089B28905890D1E
:102C8000D2B212040A431343029C1C432C43006833
:102C9000446030BC7047000000E800FE009800FC73
:102CA00080B500206946087000F0B8F900F0F8F926
:102CB000002000F07CFA0121002000F0C9FA00F0A9
:102CC0003BFB00F02DF800F037F8B548006800F045
:102CD000ACFC1C480078002818D06946B048006851
:102CE00000F0BBFC00280ED16846007800280AD00E
:102CF00000F02AF8002000F08DFA642000F0BEF900
:102D0000002000F096FA00200E490870A5480078CF
:102D10000028DED000F018F80020A2490870D8E79B
:102D200080B59F49012000F079FB012803D10020E4
:102D300000F070FAFEE701BD80B59948006800F028
:102D400053FC01BDAC04002000B583B000206946EF
:102D5000887100206946487100206946087100208A
:102D60006946C8700020694688700020694648702E
:102D700069468B48006800F04BFC01A9891C884813
:102D8000006800F086FC012805D168460278914968
:102D9000914800F031FD01A9491C8148006800F00C
:102DA00094FC012805D1684602788C498A4800F0D5
:102DB00023FD01A97A48006800F0A5FC012805D18F
:102DC000684602788649844800F016FD00A9C91CAF
:102DD0007348006800F0B5FC012805D16846027808
:102DE00080497D4800F008FD00A9891C6C480068F6
:102DF00000F0C5FC012805D1684602787A4976487A
:102E000000F0FAFC00A9491C6548006800F0D5FCF8
:102E1000012805D16846027874496F4800F0ECFC3F
:102E200068468079002818D168460079002814D1B6
:102E300068468078002810D16846407900280CD177
:102E40006846C078012808D168464078002804D137
:102E50006749614800F0D0FC96E068468079012817
:102E600018D168460079002814D168468078002877
:102E700010D16846407900280CD16846C0780028F7
:102E800008D168464078002804D15A49524800F0D9
:102E9000B3FC79E068468079002818D1684600794B
:102EA000002814D168468078002810D168464079FF
:102EB00001280CD16846C078002808D168464078BF
:102EC000002804D14C49444800F096FC5CE0684678
:102ED0008079002818D168460079012814D1684605
:102EE0008078002810D16846407900280CD16846C7
:102EF000C078002808D168464078002804D13F49AE
:102F0000354800F079FC3FE068468079002818D108
:102F100068460079002814D168468078002810D1CE
:102F20006846407900280CD16846C078002808D14E
:102F300068464078012804D13149274800F05CFCFC
:102F400022E068468079002818D168460079002878
:102F500014D168468078012810D16846407900284D
:102F60000CD16846C078002808D16846407800280F
:102F700004D12449184800F03FFC05E06846027877
:102F80002149154800F038FC134800F051FC1F4B54
:102F9000020092B210491E4800F091FC07BD0000EB
:102FA0009C040020AD04002080B580B280218901FE
:102FB000884208D1002000F09CF9012809D10120A5
:102FC0001449087005E080B2102802D1012012498E
:102FD000087001BD3C620008A00200208462000865
:102FE000CC620008146300085C630008A463000856
:102FF0000C5F0008B85F00086460000810610008FA
:10300000E464000834640008EC63000888130000DE
:10301000A0030020AD040020AC04002080B51E48B1
:103020000068402101431C4801601B4800680221E0
:10303000884319490860032000F005F800F002F801
:10304000002002BD704710B5040001F05DFBFA21BD
:10305000890001F097FBFFF77DFA00222100002094
:10306000C043FFF76DFA002010BD0C480068401CFB
:103070000A490860704709480068704711B581B077
:103080000024FFF7F8FF0400FFF7F5FF001B01998C
:103090008842F9D313BD000000200240A0040020A4
:1030A00000B593B01C4800688021490501431A48C7
:1030B00001601A4800681A49014080200001084355
:1030C0001649086002200590012008901020099000
:1030D00002200F90002010908020C00211908020CC
:1030E000C003129005A800F013FF0F2000900320EA
:1030F0000190002002900020039000200490012104
:10310000684601F0CFF907480068012101430548EE
:10311000016013B000BD00BF3810024000700040D5
:10312000FFE7FFFF34100240F0B540B2002821D580
:10313000774B40B20207120F083A92080424624308
:10314000734C40B205072D0F083DAD0804267543AA
:103150006459FF258607B60F08277E43B540AC4368
:103160008901C9B28007800F082568438140214347
:1031700099501BE0674A40B203009B080424634354
:10318000D258FF238407A40F08256C43A3409A4319
:103190008901C9B283079B0F0824634399401143F7
:1031A0005C4A40B28008042358431150F0BD10B56A
:1031B00086B0040058480068012101435648016068
:1031C000554800680100C907C90F0091009853488D
:1031D000E4B202216143405A019001200290002094
:1031E00003900320049001A94D48E4B204226243F5
:1031F0008058FFF725F800224848E4B202216143D5
:10320000415A4748E4B204235C430059FFF711F9DF
:1032100006B010BD10B501224049C0B2022343439D
:10322000C95A3F4BC0B2042460431858FFF701F954
:1032300010BD10B500223949C0B202234343C95A18
:10324000374BC0B2042460431858FFF7F2F810BDA2
:1032500030B587B004000D002F48006804210143F9
:103260002D4801602C480068042108400090009817
:103270002C480068012101432A480160EDB2002D6D
:1032800013D12948E4B202216143405A0190002041
:103290000290022003900320049001A92348E4B285
:1032A000042262438058FEF7CBFFEDB2012D1ED100
:1032B0001D48E4B202216143405A0190002003906E
:1032C0001B48029001A91948E4B2042262438058C5
:1032D000FEF7B6FF03211748E4B2005D40B2FFF7E6
:1032E00023FF1448E4B2005D40B2FFF72EF907B0A7
:1032F00030BD80B50C49C0B202224243895A0B4A04
:10330000C0B2042358431058FFF788F802BD0000EC
:103310001CED00E000E400E02C100240961F0008C5
:103320009001002034100240D21F000894010020B8
:10333000000011103866000800B587B030480068FA
:10334000012101432E4801602D4800680100C90792
:10335000C90F009100982A480068012101432848BC
:103360000160274800680100C907C90F0091009853
:10337000244800688021890201432248016004201A
:10338000019002200290002003900220049004206B
:10339000059001A9A020C005FEF752FF082001906A
:1033A0000420059001A9A020C005FEF749FF16489A
:1033B00016490860164800681449486000201349FF
:1033C000886000201149C860002010490861002071
:1033D0000E4988610C200D4948610C4800F030FA14
:1033E000002800D0FEE70B480849486580204000CF
:1033F0000949088000200549C86607B000BD00BF24
:103400002C1002403810024000440040A00300206D
:1034100004660008A0010020F803002010B50C008D
:103420000021216040B200280ED0012814D02000D5
:1034300000F072F8012806D1200000F016F80128EB
:1034400001D1012010E00EE0200000F00EF801286C
:1034500001D1012008E006E0200000F05DF801281D
:1034600001D1012000E0002010BD38B5040000218A
:103470005348C078012801D101204CE0FEF7BEFD81
:10348000012801D1012046E068204D490870D6206E
:103490004B49487000204A49887000204849C8704C
:1034A0000020474908710120454948714548444971
:1034B000886045484249C860002041490861434846
:1034C0004349486042483F49086000203D49486000
:1034D0003B4820602068C1680868002809D1142191
:1034E00000222568280001F0A5F9002020600120B5
:1034F00011E0206809688847012809D114210022B9
:103500002568280001F096F900202060012002E0E3
:10351000FEF77DFD002032BD38B5040000212848AB
:10352000C07D012801D1012049E0FEF767FD012897
:1035300001D1012043E0692021490875D4202049A8
:10354000487501201E49887500201D49C875002056
:103550001B49087601201A4948761E481849C86157
:103560001D48174908621D48154948621C481549FD
:10357000886000201349C8601A4820602068C1682C
:103580000868002809D1142100222568280001F0CC
:1035900051F900202060012011E020680968884767
:1035A000012809D1142100222568280001F042F9E0
:1035B00000202060012002E0FEF72BFD002032BD3C
:1035C0004C04002074040020080100208404002022
:1035D0008C0400207C0400204C010020000000200E
:1035E000A40400206004002080B50021002801D13F
:1035F00001200CE0C1688A68002A01D1012006E0A0
:1036000089688847012801D1012000E0002002BD1F
:1036100000B5002801D1012006E0002901D10120D8
:1036200002E080780870002000BD80B5002801D13C
:10363000012011E00169002901D101200CE001788D
:10364000692908D101690A6F002A01D1012003E02C
:10365000096F884700E0012002BD80B5002801D134
:10366000012015E00269002A01D1012010E00029A3
:1036700001D101200CE00278692A08D10269936F18
:10368000002B01D1012003E0926F904700E0012060
:1036900002BD80B5002801D1012015E00269002A91
:1036A00001D1012010E0002901D101200CE00278B5
:1036B000692A08D10269D36F002B01D1012003E0F0
:1036C000D26F904700E0012002BD80B5002801D1F3
:1036D000012017E00269002A01D1012012E000292F
:1036E00001D101200EE00278692A0AD10269802303
:1036F000D358002B01D1012004E08032126890479A
:1037000000E0012002BD80B5002801D1012017E0B2
:103710000269002A01D1012012E0002901D1012013
:103720000EE00278692A0AD102698423D358002B5B
:1037300001D1012004E084321268904700E00120AA
:1037400002BD80B5002801D1012017E00269002ADE
:1037500001D1012012E0002901D101200EE0027800
:10376000692A0AD102698823D358002B01D101208C
:1037700004E088321268904700E0012002BD80B565
:10378000002801D1012017E00269002A01D101209F
:1037900012E0002901D101200EE00278692A0AD145
:1037A00002698C23D358002B01D1012004E08C3214
:1037B0001268904700E0012002BD80B5002801D1C9
:1037C000012017E00269002A01D1012012E000293E
:1037D00001D101200EE00278692A0AD10269902302
:1037E000D358002B01D1012004E090321268904799
:1037F00000E0012002BDFEE70CB41CB5040004A8E3
:103800000190009401AB0A006946084878441C30D6
:1038100001F03AF80021009A1170002801D40098B4
:10382000001B02B0019910BC03B0084713D9FFFF79
:10383000010000E0491C0A78002AFBD1081A7047F1
:1038400010B50400002C01D1012033E0A06900284C
:10385000FFD16920205C002805D100206821605438
:10386000200000F02BF802206921605420680068D5
:103870000121884321680860200000F091F8606A07
:10388000002802D0200000F03FFA206840680A4972
:10389000014020684160206880682A2188432168AF
:1038A00088602068006801210143206801602000D1
:1038B00000F0F6F910BD0000FFB7FFFF704770B5CC
:1038C00005000C001E006920285C012803D0692037
:1038D000285C222861D1002C02D092B2002A01D1AA
:1038E00001205BE06820285C012801D1022055E01E
:1038F0000120682168540020E8666920285C22289D
:1039000003D132206921685402E0122069216854F1
:1039100050202A5252202A5205E02088C005C00DAE
:1039200029688862A41C5220285A00281BD05220E3
:10393000285A401E5221685233000022802128005C
:1039400000F05AFA002801D0032027E0A86880215F
:103950004901884202D128690028DED020782968F0
:103960008862641CDFE7330000224021280000F059
:1039700043FA002801D0032010E06920285C322897
:1039800003D122206921685402E001206921685492
:10399000002068352870002000E0022070BD000083
:1039A000F8B5040000220021002200202268B64B56
:1039B0009A42FFD0A2682369134365691D43E269F7
:1039C0002A4323681B68B14D1D402A4323681A60AF
:1039D00022685268AE4B1340E2681A4323685A606B
:1039E000A2692368A84DAB4202D01300226A1A4391
:1039F00023689B68A74D1D402A4323689A6022686C
:103A0000A54B9A4214D1A54A12689207920F002A38
:103A100005D0022A05D006D3032A06D007E00121EB
:103A200040E002213EE004213CE008213AE039E098
:103A30002268B04B9A4215D1984A12680C23134061
:103A4000002B06D0042B08D0082B04D00C2B06D05A
:103A500007E0002126E0022124E0042122E00821E1
:103A600020E01FE02268884B9A421BD18B4A1268E3
:103A7000C0231B011340002B0CD08022D2009342A4
:103A80000CD080221201934206D0C0221201934230
:103A900006D007E0002105E0022103E0042101E057
:103AA0000821FFE72268784B9A4267D1002906D0A7
:103AB00002291CD004293AD0082950D05DE000F03A
:103AC00033FE01F0F5FA00228B4B01F001FB0600FA
:103AD0000F00606801F0ECFA02000B0030003900C2
:103AE00001F0B8FB01F018FC2168C860CBE0834806
:103AF0000068C0060DD5606801F0DAFA02000B001C
:103B000000207F4901F0A6FB01F006FC2168C86097
:103B10000CE0606801F0CCFA02000B00002079494B
:103B200001F098FB01F0F8FB2168C860ABE000F001
:103B30008FFD01F0BDFA00226F4B01F0C9FA0600BB
:103B40000F00606801F0B4FA02000B003000390089
:103B500001F080FB01F0E0FB2168C86093E0606841
:103B600001F0A6FA02000B0000209F4901F072FB51
:103B700001F0D2FB2168C86085E084E0E26980231F
:103B80001B029A4242D1002908D001290ED00229F5
:103B900014D0042920D0082926D02BE000F0C4FD41
:103BA00002214843616800F0EDFD23E000F0C8FD0C
:103BB00002214843616800F0E5FD1BE04F480068C2
:103BC000C00604D58948616800F0DCFD03E0884840
:103BD000616800F0D7FD0DE000F03AFD0221484396
:103BE000616800F0CFFD05E080204002616800F0D0
:103BF000C9FDFFE77F4A02400007000FC0B240083E
:103C0000C0B2024392B22068C2603CE0002908D0F2
:103C100001290ED0022914D0042924D008292AD041
:103C200031E000F081FD616800F0ACFD2168C86002
:103C300029E000F085FD616800F0A4FD2168C860FE
:103C400021E02E480068C00606D5A448616800F04F
:103C500099FD2168C86005E0A148616800F092FD07
:103C60002168C8600FE000F0F3FC616800F08AFD95
:103C70002168C86007E080200002616800F082FDD2
:103C80002168C860FFE7F1BD00480040F369FFEF1D
:103C9000FFCFFFFFFFF4FFFF003801404C10024050
:103CA00010B504002068006800070AD58D4B00227B
:103CB00080218903200000F09FF8002801D0032014
:103CC00017E02068006840070AD5864B0022802153
:103CD000C903200000F090F8002801D0032008E07C
:103CE0000020682160540020E066012069342070C3
:103CF000002010BD00440040000070400010024051
:103D00008084CE418084EE4100B52421415CC90706
:103D100007D501684968744A0A40816A11430268FC
:103D200051602421415C890707D5016849686F4AC1
:103D30000A40C16A1143026851602421415C49076D
:103D400007D5016849686A4A0A40016B1143026855
:103D500051602421415C090707D501684968654A1B
:103D60000A40416B1143026851602421415CC9063D
:103D700007D501688968604A0A40816B114302686F
:103D800091602421415C890607D5016889685B4AF6
:103D90000A40C16B1143026891602421415C4906CD
:103DA00014D501684968564A0A40016C11430268FB
:103DB0005160016C80225203914207D10168496829
:103DC000504A0A40416C1143026851602421415C11
:103DD000090607D5016849684B4A0A40816C1143BE
:103DE0000068416000BD00000000604100127A00E0
:103DF0000048E801F0FF0000F2B5040017001D00C4
:103E00000026FFF738F90600FFB2002F31D12068F5
:103E1000C06900990140009881425CD00020C043F5
:103E20008542F4D0002D04D0FFF725F9801B854290
:103E3000EDD22068006880218843216808602068EE
:103E400000682021884321680860206800682F49A5
:103E50000140206801602068806801218843216852
:103E6000886001206921605400206834207003209C
:103E700032E02068C06900990140009881422AD14F
:103E80000020C0438542F4D0002D04D0FFF7F3F8A2
:103E9000801B8542EDD2206800688021884321681C
:103EA0000860206800682021884321680860206835
:103EB000006816490140206801602068806801217F
:103EC000884321688860012069216054002068349B
:103ED0002070032000E00020F2BD000000093D003A
:103EE0000024F400F0550000FFFFFDFFFFFFFEFF80
:103EF000FFFFFBFFFF7FFFFFFFEFFFFFFFDFFFFF86
:103F0000FFFFEFFFFFFF9FFFFFFFF7FFFFFEFFFF3A
:103F1000F8B5040000262078C00771D5A6480068CF
:103F20000C210140082909D0A34800680C21014058
:103F30000C290CD1A0480068C00308D59F48006830
:103F400080035DD5606800285AD1012094E2606842
:103F500080214902884207D198480068802149029F
:103F60000143964801602CE06068A021C9028842A4
:103F700014D192480068BC490140904801608F48C4
:103F800000688021C90201438C4801608B480068A9
:103F90008021490201438948016012E08748006896
:103FA000B149014085480160844800688021490288
:103FB00008400090009881480068AC4901407F4863
:103FC0000160606800280DD0FFF755F806007B48B7
:103FD0000068800314D4FFF74EF8801B6528F6D3E1
:103FE000032049E2FFF747F80600744800688003A1
:103FF00006D5FFF740F8801B6528F6D303203BE287
:104000002078800721D56C4800680C2101400429E4
:1040100009D0694800680C2101400C2927D1664865
:104020000068C00323D465480068400704D5E068F1
:10403000012801D001201FE2BF480068BF490140AC
:10404000206900020843BC4908602078C0065BD59F
:10405000594800680C21014000296FD15748006879
:1040600080053DD5E06900283AD1012004E2E068EE
:1040700000281FD05148006809218843E1680143A6
:104080004E480160FEF7F7FF06004C480068400705
:1040900006D4FEF7F0FF801B0328F6D30320EBE1E4
:1040A000A5480068A5490140206900020843A249CB
:1040B0000860CAE74148006809218843E168014374
:1040C0003E480160FEF7D7FF06003C480068400705
:1040D000BBD5FEF7D0FF801B0328F6D30320CBE12E
:1040E00095480068AD490140606A084392490860FC
:1040F000914800680002000A216A090601438E48BF
:1041000001600320FEF79FFF207800076CD56069EF
:10411000002855D0A248006801210143A048016051
:10412000FEF7A9FF06009E48006880075CD4FEF7F2
:10413000A2FF801B0328F6D303209DE1E06900283D
:1041400026D01E4800688021490001431B480160B9
:10415000FEF791FF060019480068800506D4FEF7B7
:104160008AFF801B0328F6D3032085E1724800688C
:104170008A490140606A08436F4908606E480068D8
:104180000002000A216A090601436B480160BBE78F
:104190000A480068B949014008480160FEF76BFF12
:1041A0000600064800688005AED5FEF764FF801B58
:1041B0000328F6D303205FE10C10024000100240F8
:1041C000774800680121884375490860FEF753FF6E
:1041D000060073480068800706D5FEF74CFF801B79
:1041E0000328F6D3032047E12078800640D5A06954
:1041F00000281FD0A248006801210143A0480160A7
:10420000A0480068012101439E4801609E48006863
:104210009E4901439C480160FEF72DFF0600984827
:104220000068800724D4FEF726FF801B0328F6D3FE
:10423000032021E1924800680121884390490860E9
:1042400091480068924901408F480160FEF713FFD2
:1042500006008B48006880070AD5FEF70CFF801B1C
:104260000328F6D3032007E1FFFFFEFFFFFFFBFF5C
:104270002078400700D4A7E0002700258548006883
:10428000C00007D483480068802149050143814864
:104290000160012780480068C00515D47E48006889
:1042A0008021490001437C4801600125FEF7E3FEBF
:1042B000060079480068C00506D4FEF7DCFE801BC6
:1042C0006528F6D30320D7E0A06880214900884202
:1042D00007D133480068802149000143304801601C
:1042E0003AE0A06800280CD12D48006863490140DD
:1042F0002B4801602A48006868490140284801604D
:104300002AE0A068A021C900884219D12448006889
:104310005A49014022480160214800688021C900B3
:1043200001431F4801601E48006880214900014385
:104330001B48016010E000BF04100240FFE0FFFFD7
:10434000174800684D49014015480160144800684D
:104350005249014012480160A06800280ED0FEF7C3
:104360008AFE06000E48006880051BD4FEF783FE17
:10437000801B4B498842F5D303207DE0FEF77BFE8E
:1043800006000748006880050CD5FEF774FE801B08
:1043900043498842F5D303206EE000BFFF1FFFFFB3
:1043A00050100240EDB2012D05D13B480068334961
:1043B000014039480160FFB2012F05D1354800683E
:1043C0009D49014033480160A06A002853D09B48B2
:1043D00000680C2101400C294BD0A06A022834D17E
:1043E000984800689649014096480160FEF743FEF0
:1043F000060094480068800106D5FEF73CFE801B4D
:104400000328F6D3032037E08C4800688E4901402A
:10441000206B0843616B0143E06A084387490860E9
:104420008848006880214904014386480160FEF7FE
:1044300022FE06008348006880011CD4FEF71BFEA4
:10444000801B0328F6D3032016E07E4800687C49D1
:1044500001407C480160FEF70EFE060079480068C6
:10446000800108D5FEF707FE801B0328F6D3032042
:1044700002E0012000E00020F2BD0000FFFEFFFF8F
:1044800008100240341002402000014001200000CA
:10449000FEDFFFFF3810024000700040FFFBFFFF0F
:1044A0008913000070B505000C00002667480068FD
:1044B0000100C907C90FA1420FD264480068012159
:1044C0008843204361490860604800680100C907CB
:1044D000C90FA14201D00120ACE02878800707D5A0
:1044E00056480068F0218843A96801435348016099
:1044F0002878C0076CD56868022805D15148006843
:10450000800319D4012095E06868002805D14D4842
:104510000068800510D401208CE06868032805D16C
:1045200048480068800107D4012083E045480068BE
:10453000400701D401207DE0404800680321884302
:10454000696801433D480160FEF795FD0600686813
:1045500002280DD1394800680C210140082937D0C4
:10456000FEF789FD801B7C498842F3D3032061E07C
:10457000686803280DD1314800680C2101400C29DE
:1045800026D0FEF778FD801B73498842F3D30320C1
:1045900050E0686800280DD1284800680C210140CF
:1045A000002915D0FEF767FD801B6B498842F3D3C5
:1045B00003203FE0214800680C210140042907D076
:1045C000FEF759FD801B64498842F3D3032031E094
:1045D0001E4800680100C907C90FA1420FD31B483C
:1045E0000068012188432043184908601748006883
:1045F0000100C907C90FA14201D001201AE02878A3
:10460000400707D50D48006854490140E868084351
:104610000A4908602878000708D50848006850490A
:1046200001402869C0000843044908600320FEF7E0
:104630000AFD002070BD0000FFFFFFEF0C100240DC
:10464000FFFFFFFE00100240FFFF02FF00200240BC
:1046500000B500200021002200210020424800680F
:10466000400B4107490F3F4800680C220240002AD6
:1046700006D0042A0BD0082A11D00C2A11D039E018
:104680000120491C884080210902484338E01D4828
:104690000068C00601D5354800E0354830E03548AF
:1046A0002EE030480168F020800308402D490A6858
:1046B000C02109041140304A800C105C890D491C4E
:1046C000284A126880235B021A40002A0DD10D4A45
:1046D0001268D20604D5254A504300F053F808E08A
:1046E000234A504300F04EF803E0224A504300F0C2
:1046F00049F805E00120491C88408021090248430F
:1047000000BD00000010024080B5FFF7A1FF1B496B
:10471000144A126812091207120F895CC84018491E
:1047200008601748006802BD80B5FFF7EDFF134928
:104730000C4A1268120A5207520F895CC84002BD27
:1047400080B5FFF7E1FF0D49064A1268D20A520709
:10475000520F895CC84002BD89130000FFF8FFFFBB
:10476000FFC7FFFF0C1002400410024000093D008B
:104770000024F40000127A00E4650008C465000813
:10478000980100200022030A8B420BD203098B42BE
:1047900019D243088B422ED2411A00D2014652410F
:1047A00010467047FF2209023FD012068B4205D304
:1047B000121209028B4201D31212090203098B4221
:1047C00019D300E0090AC3098B4201D3CB01C01AF7
:1047D000524183098B4201D38B01C01A52414309D4
:1047E0008B4201D34B01C01A524103098B4201D3C2
:1047F0000B01C01A5241C3088B4201D3CB00C01A2F
:10480000524183088B4201D38B00C01A52414308A6
:104810008B4201D34B00C01A5241884200D3401A48
:104820005241CFD201461046704708B500F08CFDCA
:1048300008BDFEE71206130A1A43130C1A4300BF01
:10484000094205D0830705D00270401C491EF9D1EA
:1048500070470000130030B414001500103902D363
:1048600010393CC0FCD2490700D30CC000D504C0AD
:10487000890002D30280801C002900D5027030BC60
:10488000704700000022E5E7F9B595B014004A48EA
:104890007844FF3025300CC813A80CC0099108AD2E
:1048A0000020E86101E00098241800206946C880D3
:1048B00013AB0022D243210001A8801C00F045FD6B
:1048C0000090012805DA2078411E8941C943C90FAB
:1048D00000916846C0882528009E00D1761E012ED2
:1048E0000EDB270039780998159A9047099000281F
:1048F00000D1EEE1E869401CE8617F1C761EF1D131
:104900006846C088252804D1002028616861A86114
:1049100008E06846C0880028C5D1E869DBE10100ED
:1049200001200843641C21782029F8D023290ED0C7
:104930002B2904D02D2907D030290BD00DE0010000
:104940000220084380B2EDE701000420F9E70100EE
:104950000820F6E701001020F3E72A2912D1169962
:104960000968169A11600A68091D169B19606A6227
:10497000002A05D55142696201000420084380B233
:10498000641C12E0002169620AE06A6A0B4B9A42D9
:1049900005D093009A185200511830396962641C8E
:1049A00021780A00303A0A2AEFD321782E2907D03D
:1049B0000021C943296225E0441C0000FFFFFF7F5E
:1049C000641C21782A290AD116990968169A11605F
:1049D0000A68091D169B19602A62641C12E00021F6
:1049E00029620AE02A6ABD4B9A4205D093009A18C0
:1049F0005200511830392962641C21780A00303A7B
:104A00000A2AEFD328852678310000BFB4A000F031
:104A1000AAFC002801D0641C00E000262A202E54A5
:104A2000285C682806D12078682803D162202A21D2
:104A30006854641C02A8E8602678641C252E15D0F2
:104A4000582E4BD0632E00D1A9E0642E00D184E013
:104A5000692E00D181E06F2E40D0702E31D0732EA0
:104A60000AD0752E3AD0782E38D0C0E001202861C7
:104A7000252069460872C5E02A20285C6C28169813
:104A800000681699086017D00668001D169908601E
:104A9000AE602F6A002F03D53000FEF7C9FE09E093
:104AA0003A000021300000F068FC002801D0801B93
:104AB00000E038006861A5E00268001D16990860F2
:104AC0008EE016980068169908600168001D169A15
:104AD0001060089102A8A86078215CE02A20285C78
:104AE0006C2801D1169810E0712801D1169802E0C7
:104AF0006A28169809D10268D21D072082431698A9
:104B0000026003CA169B1A6005E00168016008682C
:104B1000091D169A116008902A20285C682802D185
:104B2000089880B203E0622802D10898C0B20890C9
:104B30002820285C000729D50898002826D02020A6
:104B40003043782822D12869302102AA1154401C10
:104B5000411C296102A90E5418E016992A20285CEC
:104B600000F0C2F80890002802D528692D2109E03C
:104B7000288D810702D528692B2103E0C00705D5C0
:104B80002869202102AA1154401C286102A8296921
:104B90004018A860310008A800F0F6F932E02A2099
:104BA000285C6C280CD001202861169800681699A2
:104BB00008600168001D169A10606846017221E0C5
:104BC00016980068169908600168001D169A106012
:104BD00068460180002069464880C04328626A46D2
:104BE00008A9159800F0A6F800280BD571E001205F
:104BF0002861252069460872002E03D00220286112
:104C000002A84670686A2969401AA969401A696948
:104C1000401A00902820285C400710D420206946C4
:104C20000871002608E0012301AA08A9159800F0E0
:104C300027FA00284DD1761C00988642F3DB2F69B5
:104C400002AE0BE031780998159A90470990002838
:104C50003FD0E869401CE861761C7F1E002FF1D12F
:104C6000302069460871AF69002608E0012301AAD7
:104C700008A9159800F004FA00282AD1761CBE4233
:104C8000F4DB6F69AE680BE031780998159A9047AC
:104C9000099000281DD0E869401CE861761C7F1E41
:104CA000002FF1D12820285C400700D4FDE520200A
:104CB00069460871002600E0761C0098864200DBF9
:104CC000F3E5012301AA08A9159800F0D9F90028F5
:104CD000F2D00020C04317B0F0BD0000FFFFFF7FFF
:104CE000686C747A4C000000622815D068280CD0DB
:104CF0006C2818D0742816D07A2814D10A680A6053
:104D00001068121D0A60002170470A680A60106866
:104D1000121D0A6000B20BE00A680A601068121DDA
:104D20000A6040B204E00A680A601068121D0A6056
:104D3000C1177047F4B598B007000C00206A00282E
:104D400000D58E48019000F024FB616A0818049099
:104D50008BA003C806AA03C22820205C400702D407
:104D60000498412805D208A803904020049000260A
:104D70000EE000F013FB03900028F8D10020C043A0
:104D8000FAE01898801C189001980099401A019038
:104D90000198012800DA93E006AA1898018802A871
:104DA000401C00F057FB0090002800D596E01898B2
:104DB0000088002804D10098401E009000D58DE0A6
:104DC0000198009988427BDB20690499009A821837
:104DD000914264D2002161624142A069081A61696E
:104DE000401A05902820205C400710D420206946F6
:104DF0000872002508E0012302AA2100380000F013
:104E00003FF900286AD16D1C05988542F3DB2669BD
:104E1000039D0AE029786068B847606000285DD08B
:104E2000E069401CE0616D1C761E002EF2D130203E
:104E300069460872A669002508E0012302AA21003C
:104E4000380000F01DF9002848D16D1CB542F4DB94
:104E50006669A5680AE029786068B847606000283C
:104E60003CD0E069401CE0616D1C761E002EF2D142
:104E70002820205C400710D52020694608720025B4
:104E800008E0012302AA2100380000F0F9F8002808
:104E900024D16D1C05988542F3DB00202061009A27
:104EA00002A9491C03982369C01800F0DFFA2069A1
:104EB00000994018206118980088002800D060E709
:104EC000606A2169401AA169401A6169401A01901B
:104ED0002820205C400711D400250CE00026F64372
:104EE00043E020216068B84760600028F6D0E069A0
:104EF000401CE0616D1C01988542F2DB2369039A36
:104F00002100380000F0BCF80028E7D1A06900902B
:104F1000002509E030216068B84760600028DDD0D6
:104F2000E069401CE0616D1C00988542F2DB63691A
:104F3000A2682100380000F0A3F80028CED1282074
:104F4000205C40070ED5002509E020216068B847A5
:104F500060600028C2D0E069401CE0616D1C0198CF
:104F60008542F2DB002020616062039808A9884234
:104F700001D000F0A9FA300019B0F0BDFFFFFF7FAB
:104F80000000000000000000F2B582B00400E068FC
:104F900000906846007A6F2801D1082506E020229B
:104FA0000243782A01D00A2500E01025182721683D
:104FB0000E00642801D0692803D1002901D5704270
:104FC0000600002E0DD1206A00280AD1082D31D10B
:104FD0002820205C00072DD5172730200099C875A0
:104FE00028E07F1E019730002900FFF7CBFB30310E
:104FF000C9B23A2903DB6846007A5138091800988B
:10500000C15530002900FFF7BDFB060004D0A068A1
:105010000099C9198842E4D3082D0BD12820205CBF
:10502000000707D50098C05D302803D07F1E3020D0
:105030000099C8551820C01B60610099C919A1606A
:10504000216A884206DA081AA061208D0B490140C6
:10505000218510E000290ED52821615C14220A4028
:10506000102A08D1616A2269891AA269891A0F1A5D
:10507000012F00DBA76103B0F0BD0000EFFF0000CF
:1050800079B50E0014001D00002005E0F069401CF9
:10509000F0610020641C6D1E002D08D0217870681E
:1050A000009A904770600028F0D10020C04376BD80
:1050B000010000BF42221201D21E004207D002D4DA
:1050C000521E0018FCD5C10A400512058918704708
:1050D000F0B50E005E400125ED072E40B446AE0A45
:1050E000DF184C18F44208D2F7420ED2640D01D0FA
:1050F0007F0D12D100206146F0BD05D1F74201D8E5
:105100007F0D05D10020C143F0BDFBD1640DF9D066
:105110000020C143490549088FE0E419C902DB02B8
:1051200029432B43DB0A460DC00231438E4630B47F
:1051300087B295B27D432E0CADB2140C7C43A419FA
:10514000260C240425439CB27C43A419190C7943F2
:10515000270CC919A4B20F043C43090C000C97B2E8
:1051600047432E0CBE193543ADB2170C4743360CDE
:10517000BF19A6B2BF193E043543240C3E0C3619A4
:105180009FB24743BF19BCB23E0C89191F0C47435D
:105190007F183E043443390C704680B297B24743BF
:1051A0002E0CBE193543ADB2170C4743360CBF1950
:1051B000A6B2BF193E043543240C3E0C36199FB2EB
:1051C0004743BF19BCB23E0C89191F0C47437F18D7
:1051D0003E043443390C77463F0C90B278432E0C92
:1051E00080190604ADB22E43050CA0B22D18120C86
:1051F0007A435019020C80B2240CA4189AB27A4354
:10520000121914042043120C89181B0C7B43C91873
:1052100030BCEF0A394203D1B61940414941641EFE
:105220006F12BF0DE41B0BDBFF19BC4211DA240522
:1052300000274208AE417841614166463143F0BDE6
:10524000641C05D1401C6141CF0201D34908F4E739
:1052500050E75DE7F0B40E005E400125ED072E40FB
:10526000B446AE0ADF184C18F4423BD2F74241D2A2
:10527000640D43D07F0D38D0E41BC902DB02294303
:105280002B43CF0ADB0A0600B61A9F4104D2641EE4
:10529000B6197F41B6185F416812800D24180018B6
:1052A000844222DAE80C0021B6197F41B61A9F41E8
:1052B00002D2B6185F413F1C40414941F4D3241C3F
:1052C00021DD2405B6197F41B61A9F4105D3374326
:1052D000C60737430026012F7041614166463143BE
:1052E000F0BC7047FCD1F74205D20020C14349050C
:1052F0004908F3E704D00020C143F1E77F0DFAD05D
:1053000000206146ECE72442FAD1401C61410F03C2
:10531000F6D30020E2E7FEE74A1812D2400DC90298
:1053200008430121C9070843520D40210901521ABF
:10533000521C06D452421F3201D4D0407047C017CD
:10534000704700207047FEE77047F8B504000F0073
:1053500015001E0000F0FCF833002A003900200080
:1053600000F00AF9F2BDC9B200E0401C02788A429E
:1053700002D0002AF9D100207047C9B201E0401CD8
:10538000521E002A03D003788B42F8D170470020C8
:10539000704780B500F0DCF8012002BD70B5050053
:1053A0002C000F3407208443C046C046A54233D2A8
:1053B000082C04D2082402E0083000F085F82448C4
:1053C000026811000CD1011D0A68002A20D0136860
:1053D000A34212D2111DF7E71D68A5420DD2191D77
:1053E0000B68002BF8D11268011D00E0191D0B6835
:1053F00093420DD01D68A542F8D300290CD00D684A
:105400002A681300083BA3420AD26A680A600FE0C8
:1054100000F0D0F80028CFD1C046C046002070BDB3
:105420002B190B606E685E60121B0B681A602C6093
:105430000968002904D04A68002A01D0091D00E04B
:1054400000210160C046C0460835280070BD00003C
:105450009404002070B504000D00160000F078F8E8
:1054600032002900200000F07DF870BD124207D004
:105470008B0706D00B78491C0370401C521EF7D8CE
:105480007047830706D00B78491C0370401C521EDE
:10549000F9D1704770B4103A03D378C9103A78C084
:1054A000FBD2530701D318C918C001D508C908C0D9
:1054B000D20704D30B880380891C801C002A01D5E5
:1054C0000B78037070BC7047002800D1704738B566
:1054D000083804002068082836D3400734D1C04675
:1054E000C0461A484168002901D08C4203D261604D
:1054F000446019E019004B68002B01D0A342F9D396
:105500000B68CD18AC421DD3A54204D122689A186D
:105510000A600C0008E04A68002A03D02368E318F8
:105520009A420FD362604C60616800290AD02268F9
:10553000A3188B4206D1002303600868101820606E
:1055400048686060C046C04631BD00009404002039
:1055500080B5034800F044F8806902BD00000000F7
:105560009C000020002804D10EA003C803C2002024
:105570007047017001207047002904D10BA003C8B7
:1055800003C300207047002A02D10120C0437047A6
:10559000002801D00A7802800978481E8041C04363
:1055A000C00F704700000000000000000000000075
:1055B0000000000007490868002801D0002070475B
:1055C000054807229043086004499143091A016085
:1055D000704700BFA8040020B7080020B0100020CA
:1055E0007047FEE738B50400684697490A680260CC
:1055F000A0680568200000F03AFA012801D10120D6
:1056000024E0924828604021200000F03BFC002864
:1056100001D101201AE00021200000F000FC002848
:1056200001D1012012E00021200000F061F90128E1
:1056300001D101200AE06946200000F0D0F90128DC
:1056400001D1012002E00120E070002032BD38B518
:105650000400A0680568200000F009FA012801D1C3
:1056600001200BE0200000F01FF8012801D10120EB
:1056700004E0002028600020E070002032BD10B55A
:105680000400A06800682179012901D100200AE006
:105690000168200000F066FA012801D1012002E033
:1056A00001202071002010BD10B50400A068016821
:1056B0002079002801D1002011E0200000F084F8BA
:1056C000012801D101200AE00021200000F0A7FB01
:1056D000002801D1012002E000202071002010BD2F
:1056E00080B500F0BBF902BD80B500F0C0F902BD85
:1056F0003EB505000C000020009001A9280000F034
:10570000CDF9012801D1012028E06946280000F0E8
:105710003AF8012801D1012020E0019800B2FCF7FD
:10572000C9FB0099FCF7DFFBFCF736FC206001A801
:105730000221405EFCF7BEFB0099FCF7D4FBFCF7AE
:105740002BFC606001A80421405EFCF7B3FB0099CC
:10575000FCF7C9FBFCF720FCA06000203EBD1CB597
:105760000C00694600F09AF9012801D1012009E0F6
:10577000009800B220806846408860806846808833
:10578000A080002016BD10B582B00C00694600F064
:1057900036FB002801D101200BE068460078002884
:1057A00004D0102806D0182807D009E06C482060E3
:1057B000002016BD6B482060FAE76B482060F7E7D1
:1057C0006A4820600120F4E710B582B00C008168BF
:1057D00009684A681278012A04D148684068206044
:1057E00000201AE0694600F03DFB002801D10120AD
:1057F00013E06846007800280CD020280ED04028FE
:105800000FD0602810D0802811D0A02812D0C02836
:1058100013D015E000202060002016BD87482060CE
:10582000FAE787482060F7E708482060F4E78548F2
:105830002060F1E784482060EEE784482060EBE7D1
:105840004A4820600120E8E7086600080000EE42B0
:1058500080B50279012A06D1C9B200F044F90128C5
:1058600008D1012007E0C9B200F05CF9012801D19C
:10587000012000E0002002BD80B50279012A05D197
:1058800000F070F9012807D1012006E000F096F938
:10589000012801D1012000E0002002BD10B582B036
:1058A0000C00694600F0ABFA002801D101200EE09F
:1058B00068460078002806D0082811D0102807D0A4
:1058C000182809D010E08020C0052060002016BDF7
:1058D0008120C0052060F9E78220C0052060F5E73F
:1058E0008320C0052060F1E7204820600120EEE71A
:1058F00080B5C9B2002903D002290BD008D30BE030
:105900000021C9B200F058FA002807D1012006E0B2
:105910001021F6E71821F4E7012000E0002002BD85
:1059200080B5020008004A49FCF754FB01D200216F
:105930000CE04849FCF74EFB01D2102106E0464935
:10594000FCF748FB01D2182100E00821C9B2100081
:1059500000F032FA002801D1012000E0002002BD51
:1059600023DB793D23DBF93D23DB793E000080BF5B
:1059700038B505000C0000A9891C280000F0A6F924
:10598000002801D1012029E000A9491C280000F0CD
:10599000D0F9002801D1012020E06946280000F05C
:1059A000FBF9002801D1012018E06846807808281A
:1059B00001D1012000E000202070684640781028C6
:1059C00001D1012000E000206070684600782028A6
:1059D00001D1012000E00020A070002032BD38B5C8
:1059E00004000D002878012801D1082100E00021E1
:1059F000C9B2200000F047F9002801D101201CE0C5
:105A00006878012801D1102100E00021C9B22000EE
:105A100000F06CF9002801D101200EE0A8780128DF
:105A200001D1202100E00021C9B2200000F091F94D
:105A3000002801D1012000E0002032BD00002041FB
:105A40000000484200006E430000EE4300006E4438
:105A500001000040010080400100004180B500F0DD
:105A600002F9002801D1012000E0002002BD10B59C
:105A700082B0040000206946087069462000FFF7E4
:105A8000EDFF012801D1012007E068460078217868
:105A9000884201D0012000E0002016BD1CB50C009A
:105AA0006946002200230CC10839694600F00DFA4E
:105AB000002801D1012015E06846407800026946BF
:105AC0000978401820806846C078000269468978C5
:105AD000401860806846407900026946097940189C
